{
	"Tast1/Reverse/Reverse.sol": {
		"ReverseStr": {
			"abi": [
				{
					"inputs": [
						{
							"internalType": "string",
							"name": "input",
							"type": "string"
						}
					],
					"name": "reverseString",
					"outputs": [
						{
							"internalType": "string",
							"name": "",
							"type": "string"
						}
					],
					"stateMutability": "pure",
					"type": "function"
				}
			],
			"devdoc": {
				"kind": "dev",
				"methods": {},
				"version": 1
			},
			"evm": {
				"assembly": "    /* \"Tast1/Reverse/Reverse.sol\":57:476  contract ReverseStr{... */\n  mstore(0x40, 0x80)\n  callvalue\n  dup1\n  iszero\n  tag_1\n  jumpi\n  0x00\n  dup1\n  revert\ntag_1:\n  pop\n  dataSize(sub_0)\n  dup1\n  dataOffset(sub_0)\n  0x00\n  codecopy\n  0x00\n  return\nstop\n\nsub_0: assembly {\n        /* \"Tast1/Reverse/Reverse.sol\":57:476  contract ReverseStr{... */\n      mstore(0x40, 0x80)\n      callvalue\n      dup1\n      iszero\n      tag_1\n      jumpi\n      0x00\n      dup1\n      revert\n    tag_1:\n      pop\n      jumpi(tag_2, lt(calldatasize, 0x04))\n      shr(0xe0, calldataload(0x00))\n      dup1\n      0x5729c211\n      eq\n      tag_3\n      jumpi\n    tag_2:\n      0x00\n      dup1\n      revert\n        /* \"Tast1/Reverse/Reverse.sol\":82:474  function reverseString(string memory input) public pure returns (string memory) {... */\n    tag_3:\n      tag_4\n      0x04\n      dup1\n      calldatasize\n      sub\n      dup2\n      add\n      swap1\n      tag_5\n      swap2\n      swap1\n      tag_6\n      jump\t// in\n    tag_5:\n      tag_7\n      jump\t// in\n    tag_4:\n      mload(0x40)\n      tag_8\n      swap2\n      swap1\n      tag_9\n      jump\t// in\n    tag_8:\n      mload(0x40)\n      dup1\n      swap2\n      sub\n      swap1\n      return\n    tag_7:\n        /* \"Tast1/Reverse/Reverse.sol\":147:160  string memory */\n      0x60\n        /* \"Tast1/Reverse/Reverse.sol\":171:192  bytes memory strBytes */\n      0x00\n        /* \"Tast1/Reverse/Reverse.sol\":201:206  input */\n      dup3\n        /* \"Tast1/Reverse/Reverse.sol\":171:207  bytes memory strBytes = bytes(input) */\n      swap1\n      pop\n        /* \"Tast1/Reverse/Reverse.sol\":216:230  uint256 length */\n      0x00\n        /* \"Tast1/Reverse/Reverse.sol\":233:241  strBytes */\n      dup2\n        /* \"Tast1/Reverse/Reverse.sol\":233:248  strBytes.length */\n      mload\n        /* \"Tast1/Reverse/Reverse.sol\":216:248  uint256 length = strBytes.length */\n      swap1\n      pop\n        /* \"Tast1/Reverse/Reverse.sol\":269:278  uint256 i */\n      0x00\n        /* \"Tast1/Reverse/Reverse.sol\":265:436  for(uint256 i=0;i<length/2;i++) {... */\n    tag_11:\n        /* \"Tast1/Reverse/Reverse.sol\":290:291  2 */\n      0x02\n        /* \"Tast1/Reverse/Reverse.sol\":283:289  length */\n      dup3\n        /* \"Tast1/Reverse/Reverse.sol\":283:291  length/2 */\n      tag_14\n      swap2\n      swap1\n      tag_15\n      jump\t// in\n    tag_14:\n        /* \"Tast1/Reverse/Reverse.sol\":281:282  i */\n      dup2\n        /* \"Tast1/Reverse/Reverse.sol\":281:291  i<length/2 */\n      lt\n        /* \"Tast1/Reverse/Reverse.sol\":265:436  for(uint256 i=0;i<length/2;i++) {... */\n      iszero\n      tag_12\n      jumpi\n        /* \"Tast1/Reverse/Reverse.sol\":311:322  bytes1 temp */\n      0x00\n        /* \"Tast1/Reverse/Reverse.sol\":325:333  strBytes */\n      dup4\n        /* \"Tast1/Reverse/Reverse.sol\":334:335  i */\n      dup3\n        /* \"Tast1/Reverse/Reverse.sol\":325:336  strBytes[i] */\n      dup2\n      mload\n      dup2\n      lt\n      tag_16\n      jumpi\n      tag_17\n      tag_18\n      jump\t// in\n    tag_17:\n    tag_16:\n      0x20\n      add\n      add\n      mload\n      0xf8\n      shr\n      0xf8\n      shl\n        /* \"Tast1/Reverse/Reverse.sol\":311:336  bytes1 temp = strBytes[i] */\n      swap1\n      pop\n        /* \"Tast1/Reverse/Reverse.sol\":365:373  strBytes */\n      dup4\n        /* \"Tast1/Reverse/Reverse.sol\":383:384  1 */\n      0x01\n        /* \"Tast1/Reverse/Reverse.sol\":381:382  i */\n      dup4\n        /* \"Tast1/Reverse/Reverse.sol\":374:380  length */\n      dup6\n        /* \"Tast1/Reverse/Reverse.sol\":374:382  length-i */\n      tag_19\n      swap2\n      swap1\n      tag_20\n      jump\t// in\n    tag_19:\n        /* \"Tast1/Reverse/Reverse.sol\":374:384  length-i-1 */\n      tag_21\n      swap2\n      swap1\n      tag_20\n      jump\t// in\n    tag_21:\n        /* \"Tast1/Reverse/Reverse.sol\":365:385  strBytes[length-i-1] */\n      dup2\n      mload\n      dup2\n      lt\n      tag_22\n      jumpi\n      tag_23\n      tag_18\n      jump\t// in\n    tag_23:\n    tag_22:\n      0x20\n      add\n      add\n      mload\n      0xf8\n      shr\n      0xf8\n      shl\n        /* \"Tast1/Reverse/Reverse.sol\":351:359  strBytes */\n      dup5\n        /* \"Tast1/Reverse/Reverse.sol\":360:361  i */\n      dup4\n        /* \"Tast1/Reverse/Reverse.sol\":351:362  strBytes[i] */\n      dup2\n      mload\n      dup2\n      lt\n      tag_24\n      jumpi\n      tag_25\n      tag_18\n      jump\t// in\n    tag_25:\n    tag_24:\n      0x20\n      add\n      add\n        /* \"Tast1/Reverse/Reverse.sol\":351:385  strBytes[i] = strBytes[length-i-1] */\n      swap1\n      not(0xffffffffffffffffffffffffffffffffffffffffffffffffffffffffffffff)\n      and\n      swap1\n      dup2\n      0x00\n      byte\n      swap1\n      mstore8\n      pop\n        /* \"Tast1/Reverse/Reverse.sol\":422:426  temp */\n      dup1\n        /* \"Tast1/Reverse/Reverse.sol\":399:407  strBytes */\n      dup5\n        /* \"Tast1/Reverse/Reverse.sol\":417:418  1 */\n      0x01\n        /* \"Tast1/Reverse/Reverse.sol\":415:416  i */\n      dup5\n        /* \"Tast1/Reverse/Reverse.sol\":408:414  length */\n      dup7\n        /* \"Tast1/Reverse/Reverse.sol\":408:416  length-i */\n      tag_26\n      swap2\n      swap1\n      tag_20\n      jump\t// in\n    tag_26:\n        /* \"Tast1/Reverse/Reverse.sol\":408:418  length-i-1 */\n      tag_27\n      swap2\n      swap1\n      tag_20\n      jump\t// in\n    tag_27:\n        /* \"Tast1/Reverse/Reverse.sol\":399:419  strBytes[length-i-1] */\n      dup2\n      mload\n      dup2\n      lt\n      tag_28\n      jumpi\n      tag_29\n      tag_18\n      jump\t// in\n    tag_29:\n    tag_28:\n      0x20\n      add\n      add\n        /* \"Tast1/Reverse/Reverse.sol\":399:426  strBytes[length-i-1] = temp */\n      swap1\n      not(0xffffffffffffffffffffffffffffffffffffffffffffffffffffffffffffff)\n      and\n      swap1\n      dup2\n      0x00\n      byte\n      swap1\n      mstore8\n      pop\n        /* \"Tast1/Reverse/Reverse.sol\":297:436  {... */\n      pop\n        /* \"Tast1/Reverse/Reverse.sol\":292:295  i++ */\n      dup1\n      dup1\n      0x01\n      add\n      swap2\n      pop\n      pop\n        /* \"Tast1/Reverse/Reverse.sol\":265:436  for(uint256 i=0;i<length/2;i++) {... */\n      jump(tag_11)\n    tag_12:\n      pop\n        /* \"Tast1/Reverse/Reverse.sol\":458:466  strBytes */\n      dup2\n        /* \"Tast1/Reverse/Reverse.sol\":444:467  return string(strBytes) */\n      swap3\n      pop\n      pop\n      pop\n        /* \"Tast1/Reverse/Reverse.sol\":82:474  function reverseString(string memory input) public pure returns (string memory) {... */\n      swap2\n      swap1\n      pop\n      jump\t// out\n        /* \"#utility.yul\":7:82   */\n    tag_30:\n        /* \"#utility.yul\":40:46   */\n      0x00\n        /* \"#utility.yul\":73:75   */\n      0x40\n        /* \"#utility.yul\":67:76   */\n      mload\n        /* \"#utility.yul\":57:76   */\n      swap1\n      pop\n        /* \"#utility.yul\":7:82   */\n      swap1\n      jump\t// out\n        /* \"#utility.yul\":88:205   */\n    tag_31:\n        /* \"#utility.yul\":197:198   */\n      0x00\n        /* \"#utility.yul\":194:195   */\n      dup1\n        /* \"#utility.yul\":187:199   */\n      revert\n        /* \"#utility.yul\":211:328   */\n    tag_32:\n        /* \"#utility.yul\":320:321   */\n      0x00\n        /* \"#utility.yul\":317:318   */\n      dup1\n        /* \"#utility.yul\":310:322   */\n      revert\n        /* \"#utility.yul\":334:451   */\n    tag_33:\n        /* \"#utility.yul\":443:444   */\n      0x00\n        /* \"#utility.yul\":440:441   */\n      dup1\n        /* \"#utility.yul\":433:445   */\n      revert\n        /* \"#utility.yul\":457:574   */\n    tag_34:\n        /* \"#utility.yul\":566:567   */\n      0x00\n        /* \"#utility.yul\":563:564   */\n      dup1\n        /* \"#utility.yul\":556:568   */\n      revert\n        /* \"#utility.yul\":580:682   */\n    tag_35:\n        /* \"#utility.yul\":621:627   */\n      0x00\n        /* \"#utility.yul\":672:674   */\n      0x1f\n        /* \"#utility.yul\":668:675   */\n      not\n        /* \"#utility.yul\":663:665   */\n      0x1f\n        /* \"#utility.yul\":656:661   */\n      dup4\n        /* \"#utility.yul\":652:666   */\n      add\n        /* \"#utility.yul\":648:676   */\n      and\n        /* \"#utility.yul\":638:676   */\n      swap1\n      pop\n        /* \"#utility.yul\":580:682   */\n      swap2\n      swap1\n      pop\n      jump\t// out\n        /* \"#utility.yul\":688:868   */\n    tag_36:\n        /* \"#utility.yul\":736:813   */\n      0x4e487b7100000000000000000000000000000000000000000000000000000000\n        /* \"#utility.yul\":733:734   */\n      0x00\n        /* \"#utility.yul\":726:814   */\n      mstore\n        /* \"#utility.yul\":833:837   */\n      0x41\n        /* \"#utility.yul\":830:831   */\n      0x04\n        /* \"#utility.yul\":823:838   */\n      mstore\n        /* \"#utility.yul\":857:861   */\n      0x24\n        /* \"#utility.yul\":854:855   */\n      0x00\n        /* \"#utility.yul\":847:862   */\n      revert\n        /* \"#utility.yul\":874:1155   */\n    tag_37:\n        /* \"#utility.yul\":957:984   */\n      tag_59\n        /* \"#utility.yul\":979:983   */\n      dup3\n        /* \"#utility.yul\":957:984   */\n      tag_35\n      jump\t// in\n    tag_59:\n        /* \"#utility.yul\":949:955   */\n      dup2\n        /* \"#utility.yul\":945:985   */\n      add\n        /* \"#utility.yul\":1087:1093   */\n      dup2\n        /* \"#utility.yul\":1075:1085   */\n      dup2\n        /* \"#utility.yul\":1072:1094   */\n      lt\n        /* \"#utility.yul\":1051:1069   */\n      0xffffffffffffffff\n        /* \"#utility.yul\":1039:1049   */\n      dup3\n        /* \"#utility.yul\":1036:1070   */\n      gt\n        /* \"#utility.yul\":1033:1095   */\n      or\n        /* \"#utility.yul\":1030:1118   */\n      iszero\n      tag_60\n      jumpi\n        /* \"#utility.yul\":1098:1116   */\n      tag_61\n      tag_36\n      jump\t// in\n    tag_61:\n        /* \"#utility.yul\":1030:1118   */\n    tag_60:\n        /* \"#utility.yul\":1138:1148   */\n      dup1\n        /* \"#utility.yul\":1134:1136   */\n      0x40\n        /* \"#utility.yul\":1127:1149   */\n      mstore\n        /* \"#utility.yul\":917:1155   */\n      pop\n        /* \"#utility.yul\":874:1155   */\n      pop\n      pop\n      jump\t// out\n        /* \"#utility.yul\":1161:1290   */\n    tag_38:\n        /* \"#utility.yul\":1195:1201   */\n      0x00\n        /* \"#utility.yul\":1222:1242   */\n      tag_63\n      tag_30\n      jump\t// in\n    tag_63:\n        /* \"#utility.yul\":1212:1242   */\n      swap1\n      pop\n        /* \"#utility.yul\":1251:1284   */\n      tag_64\n        /* \"#utility.yul\":1279:1283   */\n      dup3\n        /* \"#utility.yul\":1271:1277   */\n      dup3\n        /* \"#utility.yul\":1251:1284   */\n      tag_37\n      jump\t// in\n    tag_64:\n        /* \"#utility.yul\":1161:1290   */\n      swap2\n      swap1\n      pop\n      jump\t// out\n        /* \"#utility.yul\":1296:1604   */\n    tag_39:\n        /* \"#utility.yul\":1358:1362   */\n      0x00\n        /* \"#utility.yul\":1448:1466   */\n      0xffffffffffffffff\n        /* \"#utility.yul\":1440:1446   */\n      dup3\n        /* \"#utility.yul\":1437:1467   */\n      gt\n        /* \"#utility.yul\":1434:1490   */\n      iszero\n      tag_66\n      jumpi\n        /* \"#utility.yul\":1470:1488   */\n      tag_67\n      tag_36\n      jump\t// in\n    tag_67:\n        /* \"#utility.yul\":1434:1490   */\n    tag_66:\n        /* \"#utility.yul\":1508:1537   */\n      tag_68\n        /* \"#utility.yul\":1530:1536   */\n      dup3\n        /* \"#utility.yul\":1508:1537   */\n      tag_35\n      jump\t// in\n    tag_68:\n        /* \"#utility.yul\":1500:1537   */\n      swap1\n      pop\n        /* \"#utility.yul\":1592:1596   */\n      0x20\n        /* \"#utility.yul\":1586:1590   */\n      dup2\n        /* \"#utility.yul\":1582:1597   */\n      add\n        /* \"#utility.yul\":1574:1597   */\n      swap1\n      pop\n        /* \"#utility.yul\":1296:1604   */\n      swap2\n      swap1\n      pop\n      jump\t// out\n        /* \"#utility.yul\":1610:1758   */\n    tag_40:\n        /* \"#utility.yul\":1708:1714   */\n      dup3\n        /* \"#utility.yul\":1703:1706   */\n      dup2\n        /* \"#utility.yul\":1698:1701   */\n      dup4\n        /* \"#utility.yul\":1685:1715   */\n      calldatacopy\n        /* \"#utility.yul\":1749:1750   */\n      0x00\n        /* \"#utility.yul\":1740:1746   */\n      dup4\n        /* \"#utility.yul\":1735:1738   */\n      dup4\n        /* \"#utility.yul\":1731:1747   */\n      add\n        /* \"#utility.yul\":1724:1751   */\n      mstore\n        /* \"#utility.yul\":1610:1758   */\n      pop\n      pop\n      pop\n      jump\t// out\n        /* \"#utility.yul\":1764:2189   */\n    tag_41:\n        /* \"#utility.yul\":1842:1847   */\n      0x00\n        /* \"#utility.yul\":1867:1933   */\n      tag_71\n        /* \"#utility.yul\":1883:1932   */\n      tag_72\n        /* \"#utility.yul\":1925:1931   */\n      dup5\n        /* \"#utility.yul\":1883:1932   */\n      tag_39\n      jump\t// in\n    tag_72:\n        /* \"#utility.yul\":1867:1933   */\n      tag_38\n      jump\t// in\n    tag_71:\n        /* \"#utility.yul\":1858:1933   */\n      swap1\n      pop\n        /* \"#utility.yul\":1956:1962   */\n      dup3\n        /* \"#utility.yul\":1949:1954   */\n      dup2\n        /* \"#utility.yul\":1942:1963   */\n      mstore\n        /* \"#utility.yul\":1994:1998   */\n      0x20\n        /* \"#utility.yul\":1987:1992   */\n      dup2\n        /* \"#utility.yul\":1983:1999   */\n      add\n        /* \"#utility.yul\":2032:2035   */\n      dup5\n        /* \"#utility.yul\":2023:2029   */\n      dup5\n        /* \"#utility.yul\":2018:2021   */\n      dup5\n        /* \"#utility.yul\":2014:2030   */\n      add\n        /* \"#utility.yul\":2011:2036   */\n      gt\n        /* \"#utility.yul\":2008:2120   */\n      iszero\n      tag_73\n      jumpi\n        /* \"#utility.yul\":2039:2118   */\n      tag_74\n      tag_34\n      jump\t// in\n    tag_74:\n        /* \"#utility.yul\":2008:2120   */\n    tag_73:\n        /* \"#utility.yul\":2129:2183   */\n      tag_75\n        /* \"#utility.yul\":2176:2182   */\n      dup5\n        /* \"#utility.yul\":2171:2174   */\n      dup3\n        /* \"#utility.yul\":2166:2169   */\n      dup6\n        /* \"#utility.yul\":2129:2183   */\n      tag_40\n      jump\t// in\n    tag_75:\n        /* \"#utility.yul\":1848:2189   */\n      pop\n        /* \"#utility.yul\":1764:2189   */\n      swap4\n      swap3\n      pop\n      pop\n      pop\n      jump\t// out\n        /* \"#utility.yul\":2209:2549   */\n    tag_42:\n        /* \"#utility.yul\":2265:2270   */\n      0x00\n        /* \"#utility.yul\":2314:2317   */\n      dup3\n        /* \"#utility.yul\":2307:2311   */\n      0x1f\n        /* \"#utility.yul\":2299:2305   */\n      dup4\n        /* \"#utility.yul\":2295:2312   */\n      add\n        /* \"#utility.yul\":2291:2318   */\n      slt\n        /* \"#utility.yul\":2281:2403   */\n      tag_77\n      jumpi\n        /* \"#utility.yul\":2322:2401   */\n      tag_78\n      tag_33\n      jump\t// in\n    tag_78:\n        /* \"#utility.yul\":2281:2403   */\n    tag_77:\n        /* \"#utility.yul\":2439:2445   */\n      dup2\n        /* \"#utility.yul\":2426:2446   */\n      calldataload\n        /* \"#utility.yul\":2464:2543   */\n      tag_79\n        /* \"#utility.yul\":2539:2542   */\n      dup5\n        /* \"#utility.yul\":2531:2537   */\n      dup3\n        /* \"#utility.yul\":2524:2528   */\n      0x20\n        /* \"#utility.yul\":2516:2522   */\n      dup7\n        /* \"#utility.yul\":2512:2529   */\n      add\n        /* \"#utility.yul\":2464:2543   */\n      tag_41\n      jump\t// in\n    tag_79:\n        /* \"#utility.yul\":2455:2543   */\n      swap2\n      pop\n        /* \"#utility.yul\":2271:2549   */\n      pop\n        /* \"#utility.yul\":2209:2549   */\n      swap3\n      swap2\n      pop\n      pop\n      jump\t// out\n        /* \"#utility.yul\":2555:3064   */\n    tag_6:\n        /* \"#utility.yul\":2624:2630   */\n      0x00\n        /* \"#utility.yul\":2673:2675   */\n      0x20\n        /* \"#utility.yul\":2661:2670   */\n      dup3\n        /* \"#utility.yul\":2652:2659   */\n      dup5\n        /* \"#utility.yul\":2648:2671   */\n      sub\n        /* \"#utility.yul\":2644:2676   */\n      slt\n        /* \"#utility.yul\":2641:2760   */\n      iszero\n      tag_81\n      jumpi\n        /* \"#utility.yul\":2679:2758   */\n      tag_82\n      tag_31\n      jump\t// in\n    tag_82:\n        /* \"#utility.yul\":2641:2760   */\n    tag_81:\n        /* \"#utility.yul\":2827:2828   */\n      0x00\n        /* \"#utility.yul\":2816:2825   */\n      dup3\n        /* \"#utility.yul\":2812:2829   */\n      add\n        /* \"#utility.yul\":2799:2830   */\n      calldataload\n        /* \"#utility.yul\":2857:2875   */\n      0xffffffffffffffff\n        /* \"#utility.yul\":2849:2855   */\n      dup2\n        /* \"#utility.yul\":2846:2876   */\n      gt\n        /* \"#utility.yul\":2843:2960   */\n      iszero\n      tag_83\n      jumpi\n        /* \"#utility.yul\":2879:2958   */\n      tag_84\n      tag_32\n      jump\t// in\n    tag_84:\n        /* \"#utility.yul\":2843:2960   */\n    tag_83:\n        /* \"#utility.yul\":2984:3047   */\n      tag_85\n        /* \"#utility.yul\":3039:3046   */\n      dup5\n        /* \"#utility.yul\":3030:3036   */\n      dup3\n        /* \"#utility.yul\":3019:3028   */\n      dup6\n        /* \"#utility.yul\":3015:3037   */\n      add\n        /* \"#utility.yul\":2984:3047   */\n      tag_42\n      jump\t// in\n    tag_85:\n        /* \"#utility.yul\":2974:3047   */\n      swap2\n      pop\n        /* \"#utility.yul\":2770:3057   */\n      pop\n        /* \"#utility.yul\":2555:3064   */\n      swap3\n      swap2\n      pop\n      pop\n      jump\t// out\n        /* \"#utility.yul\":3070:3169   */\n    tag_43:\n        /* \"#utility.yul\":3122:3128   */\n      0x00\n        /* \"#utility.yul\":3156:3161   */\n      dup2\n        /* \"#utility.yul\":3150:3162   */\n      mload\n        /* \"#utility.yul\":3140:3162   */\n      swap1\n      pop\n        /* \"#utility.yul\":3070:3169   */\n      swap2\n      swap1\n      pop\n      jump\t// out\n        /* \"#utility.yul\":3175:3344   */\n    tag_44:\n        /* \"#utility.yul\":3259:3270   */\n      0x00\n        /* \"#utility.yul\":3293:3299   */\n      dup3\n        /* \"#utility.yul\":3288:3291   */\n      dup3\n        /* \"#utility.yul\":3281:3300   */\n      mstore\n        /* \"#utility.yul\":3333:3337   */\n      0x20\n        /* \"#utility.yul\":3328:3331   */\n      dup3\n        /* \"#utility.yul\":3324:3338   */\n      add\n        /* \"#utility.yul\":3309:3338   */\n      swap1\n      pop\n        /* \"#utility.yul\":3175:3344   */\n      swap3\n      swap2\n      pop\n      pop\n      jump\t// out\n        /* \"#utility.yul\":3350:3598   */\n    tag_45:\n        /* \"#utility.yul\":3432:3433   */\n      0x00\n        /* \"#utility.yul\":3442:3555   */\n    tag_89:\n        /* \"#utility.yul\":3456:3462   */\n      dup4\n        /* \"#utility.yul\":3453:3454   */\n      dup2\n        /* \"#utility.yul\":3450:3463   */\n      lt\n        /* \"#utility.yul\":3442:3555   */\n      iszero\n      tag_91\n      jumpi\n        /* \"#utility.yul\":3541:3542   */\n      dup1\n        /* \"#utility.yul\":3536:3539   */\n      dup3\n        /* \"#utility.yul\":3532:3543   */\n      add\n        /* \"#utility.yul\":3526:3544   */\n      mload\n        /* \"#utility.yul\":3522:3523   */\n      dup2\n        /* \"#utility.yul\":3517:3520   */\n      dup5\n        /* \"#utility.yul\":3513:3524   */\n      add\n        /* \"#utility.yul\":3506:3545   */\n      mstore\n        /* \"#utility.yul\":3478:3480   */\n      0x20\n        /* \"#utility.yul\":3475:3476   */\n      dup2\n        /* \"#utility.yul\":3471:3481   */\n      add\n        /* \"#utility.yul\":3466:3481   */\n      swap1\n      pop\n        /* \"#utility.yul\":3442:3555   */\n      jump(tag_89)\n    tag_91:\n        /* \"#utility.yul\":3589:3590   */\n      0x00\n        /* \"#utility.yul\":3580:3586   */\n      dup5\n        /* \"#utility.yul\":3575:3578   */\n      dup5\n        /* \"#utility.yul\":3571:3587   */\n      add\n        /* \"#utility.yul\":3564:3591   */\n      mstore\n        /* \"#utility.yul\":3412:3598   */\n      pop\n        /* \"#utility.yul\":3350:3598   */\n      pop\n      pop\n      pop\n      jump\t// out\n        /* \"#utility.yul\":3604:3981   */\n    tag_46:\n        /* \"#utility.yul\":3692:3695   */\n      0x00\n        /* \"#utility.yul\":3720:3759   */\n      tag_93\n        /* \"#utility.yul\":3753:3758   */\n      dup3\n        /* \"#utility.yul\":3720:3759   */\n      tag_43\n      jump\t// in\n    tag_93:\n        /* \"#utility.yul\":3775:3846   */\n      tag_94\n        /* \"#utility.yul\":3839:3845   */\n      dup2\n        /* \"#utility.yul\":3834:3837   */\n      dup6\n        /* \"#utility.yul\":3775:3846   */\n      tag_44\n      jump\t// in\n    tag_94:\n        /* \"#utility.yul\":3768:3846   */\n      swap4\n      pop\n        /* \"#utility.yul\":3855:3920   */\n      tag_95\n        /* \"#utility.yul\":3913:3919   */\n      dup2\n        /* \"#utility.yul\":3908:3911   */\n      dup6\n        /* \"#utility.yul\":3901:3905   */\n      0x20\n        /* \"#utility.yul\":3894:3899   */\n      dup7\n        /* \"#utility.yul\":3890:3906   */\n      add\n        /* \"#utility.yul\":3855:3920   */\n      tag_45\n      jump\t// in\n    tag_95:\n        /* \"#utility.yul\":3945:3974   */\n      tag_96\n        /* \"#utility.yul\":3967:3973   */\n      dup2\n        /* \"#utility.yul\":3945:3974   */\n      tag_35\n      jump\t// in\n    tag_96:\n        /* \"#utility.yul\":3940:3943   */\n      dup5\n        /* \"#utility.yul\":3936:3975   */\n      add\n        /* \"#utility.yul\":3929:3975   */\n      swap2\n      pop\n        /* \"#utility.yul\":3696:3981   */\n      pop\n        /* \"#utility.yul\":3604:3981   */\n      swap3\n      swap2\n      pop\n      pop\n      jump\t// out\n        /* \"#utility.yul\":3987:4300   */\n    tag_9:\n        /* \"#utility.yul\":4100:4104   */\n      0x00\n        /* \"#utility.yul\":4138:4140   */\n      0x20\n        /* \"#utility.yul\":4127:4136   */\n      dup3\n        /* \"#utility.yul\":4123:4141   */\n      add\n        /* \"#utility.yul\":4115:4141   */\n      swap1\n      pop\n        /* \"#utility.yul\":4187:4196   */\n      dup2\n        /* \"#utility.yul\":4181:4185   */\n      dup2\n        /* \"#utility.yul\":4177:4197   */\n      sub\n        /* \"#utility.yul\":4173:4174   */\n      0x00\n        /* \"#utility.yul\":4162:4171   */\n      dup4\n        /* \"#utility.yul\":4158:4175   */\n      add\n        /* \"#utility.yul\":4151:4198   */\n      mstore\n        /* \"#utility.yul\":4215:4293   */\n      tag_98\n        /* \"#utility.yul\":4288:4292   */\n      dup2\n        /* \"#utility.yul\":4279:4285   */\n      dup5\n        /* \"#utility.yul\":4215:4293   */\n      tag_46\n      jump\t// in\n    tag_98:\n        /* \"#utility.yul\":4207:4293   */\n      swap1\n      pop\n        /* \"#utility.yul\":3987:4300   */\n      swap3\n      swap2\n      pop\n      pop\n      jump\t// out\n        /* \"#utility.yul\":4306:4383   */\n    tag_47:\n        /* \"#utility.yul\":4343:4350   */\n      0x00\n        /* \"#utility.yul\":4372:4377   */\n      dup2\n        /* \"#utility.yul\":4361:4377   */\n      swap1\n      pop\n        /* \"#utility.yul\":4306:4383   */\n      swap2\n      swap1\n      pop\n      jump\t// out\n        /* \"#utility.yul\":4389:4569   */\n    tag_48:\n        /* \"#utility.yul\":4437:4514   */\n      0x4e487b7100000000000000000000000000000000000000000000000000000000\n        /* \"#utility.yul\":4434:4435   */\n      0x00\n        /* \"#utility.yul\":4427:4515   */\n      mstore\n        /* \"#utility.yul\":4534:4538   */\n      0x12\n        /* \"#utility.yul\":4531:4532   */\n      0x04\n        /* \"#utility.yul\":4524:4539   */\n      mstore\n        /* \"#utility.yul\":4558:4562   */\n      0x24\n        /* \"#utility.yul\":4555:4556   */\n      0x00\n        /* \"#utility.yul\":4548:4563   */\n      revert\n        /* \"#utility.yul\":4575:4755   */\n    tag_49:\n        /* \"#utility.yul\":4623:4700   */\n      0x4e487b7100000000000000000000000000000000000000000000000000000000\n        /* \"#utility.yul\":4620:4621   */\n      0x00\n        /* \"#utility.yul\":4613:4701   */\n      mstore\n        /* \"#utility.yul\":4720:4724   */\n      0x11\n        /* \"#utility.yul\":4717:4718   */\n      0x04\n        /* \"#utility.yul\":4710:4725   */\n      mstore\n        /* \"#utility.yul\":4744:4748   */\n      0x24\n        /* \"#utility.yul\":4741:4742   */\n      0x00\n        /* \"#utility.yul\":4734:4749   */\n      revert\n        /* \"#utility.yul\":4761:4946   */\n    tag_15:\n        /* \"#utility.yul\":4801:4802   */\n      0x00\n        /* \"#utility.yul\":4818:4838   */\n      tag_103\n        /* \"#utility.yul\":4836:4837   */\n      dup3\n        /* \"#utility.yul\":4818:4838   */\n      tag_47\n      jump\t// in\n    tag_103:\n        /* \"#utility.yul\":4813:4838   */\n      swap2\n      pop\n        /* \"#utility.yul\":4852:4872   */\n      tag_104\n        /* \"#utility.yul\":4870:4871   */\n      dup4\n        /* \"#utility.yul\":4852:4872   */\n      tag_47\n      jump\t// in\n    tag_104:\n        /* \"#utility.yul\":4847:4872   */\n      swap3\n      pop\n        /* \"#utility.yul\":4891:4892   */\n      dup3\n        /* \"#utility.yul\":4881:4916   */\n      tag_105\n      jumpi\n        /* \"#utility.yul\":4896:4914   */\n      tag_106\n      tag_48\n      jump\t// in\n    tag_106:\n        /* \"#utility.yul\":4881:4916   */\n    tag_105:\n        /* \"#utility.yul\":4938:4939   */\n      dup3\n        /* \"#utility.yul\":4935:4936   */\n      dup3\n        /* \"#utility.yul\":4931:4940   */\n      div\n        /* \"#utility.yul\":4926:4940   */\n      swap1\n      pop\n        /* \"#utility.yul\":4761:4946   */\n      swap3\n      swap2\n      pop\n      pop\n      jump\t// out\n        /* \"#utility.yul\":4952:5132   */\n    tag_18:\n        /* \"#utility.yul\":5000:5077   */\n      0x4e487b7100000000000000000000000000000000000000000000000000000000\n        /* \"#utility.yul\":4997:4998   */\n      0x00\n        /* \"#utility.yul\":4990:5078   */\n      mstore\n        /* \"#utility.yul\":5097:5101   */\n      0x32\n        /* \"#utility.yul\":5094:5095   */\n      0x04\n        /* \"#utility.yul\":5087:5102   */\n      mstore\n        /* \"#utility.yul\":5121:5125   */\n      0x24\n        /* \"#utility.yul\":5118:5119   */\n      0x00\n        /* \"#utility.yul\":5111:5126   */\n      revert\n        /* \"#utility.yul\":5138:5332   */\n    tag_20:\n        /* \"#utility.yul\":5178:5182   */\n      0x00\n        /* \"#utility.yul\":5198:5218   */\n      tag_109\n        /* \"#utility.yul\":5216:5217   */\n      dup3\n        /* \"#utility.yul\":5198:5218   */\n      tag_47\n      jump\t// in\n    tag_109:\n        /* \"#utility.yul\":5193:5218   */\n      swap2\n      pop\n        /* \"#utility.yul\":5232:5252   */\n      tag_110\n        /* \"#utility.yul\":5250:5251   */\n      dup4\n        /* \"#utility.yul\":5232:5252   */\n      tag_47\n      jump\t// in\n    tag_110:\n        /* \"#utility.yul\":5227:5252   */\n      swap3\n      pop\n        /* \"#utility.yul\":5276:5277   */\n      dup3\n        /* \"#utility.yul\":5273:5274   */\n      dup3\n        /* \"#utility.yul\":5269:5278   */\n      sub\n        /* \"#utility.yul\":5261:5278   */\n      swap1\n      pop\n        /* \"#utility.yul\":5300:5301   */\n      dup2\n        /* \"#utility.yul\":5294:5298   */\n      dup2\n        /* \"#utility.yul\":5291:5302   */\n      gt\n        /* \"#utility.yul\":5288:5325   */\n      iszero\n      tag_111\n      jumpi\n        /* \"#utility.yul\":5305:5323   */\n      tag_112\n      tag_49\n      jump\t// in\n    tag_112:\n        /* \"#utility.yul\":5288:5325   */\n    tag_111:\n        /* \"#utility.yul\":5138:5332   */\n      swap3\n      swap2\n      pop\n      pop\n      jump\t// out\n\n    auxdata: 0xa2646970667358221220df80775a2865d8804013fbca4d0b0753acf1bdf5cdf688fae2492fe02ff1218264736f6c634300081a0033\n}\n",
				"bytecode": {
					"linkReferences": {},
					"object": "6080604052348015600e575f80fd5b506104de8061001c5f395ff3fe608060405234801561000f575f80fd5b5060043610610029575f3560e01c80635729c2111461002d575b5f80fd5b610047600480360381019061004291906102d4565b61005d565b6040516100549190610395565b60405180910390f35b60605f8290505f815190505f5b6002826100779190610418565b81101561017c575f83828151811061009257610091610448565b5b602001015160f81c60f81b905083600183856100ae9190610475565b6100b89190610475565b815181106100c9576100c8610448565b5b602001015160f81c60f81b8483815181106100e7576100e6610448565b5b60200101907effffffffffffffffffffffffffffffffffffffffffffffffffffffffffffff191690815f1a9053508084600184866101259190610475565b61012f9190610475565b815181106101405761013f610448565b5b60200101907effffffffffffffffffffffffffffffffffffffffffffffffffffffffffffff191690815f1a90535050808060010191505061006a565b508192505050919050565b5f604051905090565b5f80fd5b5f80fd5b5f80fd5b5f80fd5b5f601f19601f8301169050919050565b7f4e487b71000000000000000000000000000000000000000000000000000000005f52604160045260245ffd5b6101e6826101a0565b810181811067ffffffffffffffff82111715610205576102046101b0565b5b80604052505050565b5f610217610187565b905061022382826101dd565b919050565b5f67ffffffffffffffff821115610242576102416101b0565b5b61024b826101a0565b9050602081019050919050565b828183375f83830152505050565b5f61027861027384610228565b61020e565b9050828152602081018484840111156102945761029361019c565b5b61029f848285610258565b509392505050565b5f82601f8301126102bb576102ba610198565b5b81356102cb848260208601610266565b91505092915050565b5f602082840312156102e9576102e8610190565b5b5f82013567ffffffffffffffff81111561030657610305610194565b5b610312848285016102a7565b91505092915050565b5f81519050919050565b5f82825260208201905092915050565b5f5b83811015610352578082015181840152602081019050610337565b5f8484015250505050565b5f6103678261031b565b6103718185610325565b9350610381818560208601610335565b61038a816101a0565b840191505092915050565b5f6020820190508181035f8301526103ad818461035d565b905092915050565b5f819050919050565b7f4e487b71000000000000000000000000000000000000000000000000000000005f52601260045260245ffd5b7f4e487b71000000000000000000000000000000000000000000000000000000005f52601160045260245ffd5b5f610422826103b5565b915061042d836103b5565b92508261043d5761043c6103be565b5b828204905092915050565b7f4e487b71000000000000000000000000000000000000000000000000000000005f52603260045260245ffd5b5f61047f826103b5565b915061048a836103b5565b92508282039050818111156104a2576104a16103eb565b5b9291505056fea2646970667358221220df80775a2865d8804013fbca4d0b0753acf1bdf5cdf688fae2492fe02ff1218264736f6c634300081a0033",
					"opcodes": "PUSH1 0x80 PUSH1 0x40 MSTORE CALLVALUE DUP1 ISZERO PUSH1 0xE JUMPI PUSH0 DUP1 REVERT JUMPDEST POP PUSH2 0x4DE DUP1 PUSH2 0x1C PUSH0 CODECOPY PUSH0 RETURN INVALID PUSH1 0x80 PUSH1 0x40 MSTORE CALLVALUE DUP1 ISZERO PUSH2 0xF JUMPI PUSH0 DUP1 REVERT JUMPDEST POP PUSH1 0x4 CALLDATASIZE LT PUSH2 0x29 JUMPI PUSH0 CALLDATALOAD PUSH1 0xE0 SHR DUP1 PUSH4 0x5729C211 EQ PUSH2 0x2D JUMPI JUMPDEST PUSH0 DUP1 REVERT JUMPDEST PUSH2 0x47 PUSH1 0x4 DUP1 CALLDATASIZE SUB DUP2 ADD SWAP1 PUSH2 0x42 SWAP2 SWAP1 PUSH2 0x2D4 JUMP JUMPDEST PUSH2 0x5D JUMP JUMPDEST PUSH1 0x40 MLOAD PUSH2 0x54 SWAP2 SWAP1 PUSH2 0x395 JUMP JUMPDEST PUSH1 0x40 MLOAD DUP1 SWAP2 SUB SWAP1 RETURN JUMPDEST PUSH1 0x60 PUSH0 DUP3 SWAP1 POP PUSH0 DUP2 MLOAD SWAP1 POP PUSH0 JUMPDEST PUSH1 0x2 DUP3 PUSH2 0x77 SWAP2 SWAP1 PUSH2 0x418 JUMP JUMPDEST DUP2 LT ISZERO PUSH2 0x17C JUMPI PUSH0 DUP4 DUP3 DUP2 MLOAD DUP2 LT PUSH2 0x92 JUMPI PUSH2 0x91 PUSH2 0x448 JUMP JUMPDEST JUMPDEST PUSH1 0x20 ADD ADD MLOAD PUSH1 0xF8 SHR PUSH1 0xF8 SHL SWAP1 POP DUP4 PUSH1 0x1 DUP4 DUP6 PUSH2 0xAE SWAP2 SWAP1 PUSH2 0x475 JUMP JUMPDEST PUSH2 0xB8 SWAP2 SWAP1 PUSH2 0x475 JUMP JUMPDEST DUP2 MLOAD DUP2 LT PUSH2 0xC9 JUMPI PUSH2 0xC8 PUSH2 0x448 JUMP JUMPDEST JUMPDEST PUSH1 0x20 ADD ADD MLOAD PUSH1 0xF8 SHR PUSH1 0xF8 SHL DUP5 DUP4 DUP2 MLOAD DUP2 LT PUSH2 0xE7 JUMPI PUSH2 0xE6 PUSH2 0x448 JUMP JUMPDEST JUMPDEST PUSH1 0x20 ADD ADD SWAP1 PUSH31 0xFFFFFFFFFFFFFFFFFFFFFFFFFFFFFFFFFFFFFFFFFFFFFFFFFFFFFFFFFFFFFF NOT AND SWAP1 DUP2 PUSH0 BYTE SWAP1 MSTORE8 POP DUP1 DUP5 PUSH1 0x1 DUP5 DUP7 PUSH2 0x125 SWAP2 SWAP1 PUSH2 0x475 JUMP JUMPDEST PUSH2 0x12F SWAP2 SWAP1 PUSH2 0x475 JUMP JUMPDEST DUP2 MLOAD DUP2 LT PUSH2 0x140 JUMPI PUSH2 0x13F PUSH2 0x448 JUMP JUMPDEST JUMPDEST PUSH1 0x20 ADD ADD SWAP1 PUSH31 0xFFFFFFFFFFFFFFFFFFFFFFFFFFFFFFFFFFFFFFFFFFFFFFFFFFFFFFFFFFFFFF NOT AND SWAP1 DUP2 PUSH0 BYTE SWAP1 MSTORE8 POP POP DUP1 DUP1 PUSH1 0x1 ADD SWAP2 POP POP PUSH2 0x6A JUMP JUMPDEST POP DUP2 SWAP3 POP POP POP SWAP2 SWAP1 POP JUMP JUMPDEST PUSH0 PUSH1 0x40 MLOAD SWAP1 POP SWAP1 JUMP JUMPDEST PUSH0 DUP1 REVERT JUMPDEST PUSH0 DUP1 REVERT JUMPDEST PUSH0 DUP1 REVERT JUMPDEST PUSH0 DUP1 REVERT JUMPDEST PUSH0 PUSH1 0x1F NOT PUSH1 0x1F DUP4 ADD AND SWAP1 POP SWAP2 SWAP1 POP JUMP JUMPDEST PUSH32 0x4E487B7100000000000000000000000000000000000000000000000000000000 PUSH0 MSTORE PUSH1 0x41 PUSH1 0x4 MSTORE PUSH1 0x24 PUSH0 REVERT JUMPDEST PUSH2 0x1E6 DUP3 PUSH2 0x1A0 JUMP JUMPDEST DUP2 ADD DUP2 DUP2 LT PUSH8 0xFFFFFFFFFFFFFFFF DUP3 GT OR ISZERO PUSH2 0x205 JUMPI PUSH2 0x204 PUSH2 0x1B0 JUMP JUMPDEST JUMPDEST DUP1 PUSH1 0x40 MSTORE POP POP POP JUMP JUMPDEST PUSH0 PUSH2 0x217 PUSH2 0x187 JUMP JUMPDEST SWAP1 POP PUSH2 0x223 DUP3 DUP3 PUSH2 0x1DD JUMP JUMPDEST SWAP2 SWAP1 POP JUMP JUMPDEST PUSH0 PUSH8 0xFFFFFFFFFFFFFFFF DUP3 GT ISZERO PUSH2 0x242 JUMPI PUSH2 0x241 PUSH2 0x1B0 JUMP JUMPDEST JUMPDEST PUSH2 0x24B DUP3 PUSH2 0x1A0 JUMP JUMPDEST SWAP1 POP PUSH1 0x20 DUP2 ADD SWAP1 POP SWAP2 SWAP1 POP JUMP JUMPDEST DUP3 DUP2 DUP4 CALLDATACOPY PUSH0 DUP4 DUP4 ADD MSTORE POP POP POP JUMP JUMPDEST PUSH0 PUSH2 0x278 PUSH2 0x273 DUP5 PUSH2 0x228 JUMP JUMPDEST PUSH2 0x20E JUMP JUMPDEST SWAP1 POP DUP3 DUP2 MSTORE PUSH1 0x20 DUP2 ADD DUP5 DUP5 DUP5 ADD GT ISZERO PUSH2 0x294 JUMPI PUSH2 0x293 PUSH2 0x19C JUMP JUMPDEST JUMPDEST PUSH2 0x29F DUP5 DUP3 DUP6 PUSH2 0x258 JUMP JUMPDEST POP SWAP4 SWAP3 POP POP POP JUMP JUMPDEST PUSH0 DUP3 PUSH1 0x1F DUP4 ADD SLT PUSH2 0x2BB JUMPI PUSH2 0x2BA PUSH2 0x198 JUMP JUMPDEST JUMPDEST DUP2 CALLDATALOAD PUSH2 0x2CB DUP5 DUP3 PUSH1 0x20 DUP7 ADD PUSH2 0x266 JUMP JUMPDEST SWAP2 POP POP SWAP3 SWAP2 POP POP JUMP JUMPDEST PUSH0 PUSH1 0x20 DUP3 DUP5 SUB SLT ISZERO PUSH2 0x2E9 JUMPI PUSH2 0x2E8 PUSH2 0x190 JUMP JUMPDEST JUMPDEST PUSH0 DUP3 ADD CALLDATALOAD PUSH8 0xFFFFFFFFFFFFFFFF DUP2 GT ISZERO PUSH2 0x306 JUMPI PUSH2 0x305 PUSH2 0x194 JUMP JUMPDEST JUMPDEST PUSH2 0x312 DUP5 DUP3 DUP6 ADD PUSH2 0x2A7 JUMP JUMPDEST SWAP2 POP POP SWAP3 SWAP2 POP POP JUMP JUMPDEST PUSH0 DUP2 MLOAD SWAP1 POP SWAP2 SWAP1 POP JUMP JUMPDEST PUSH0 DUP3 DUP3 MSTORE PUSH1 0x20 DUP3 ADD SWAP1 POP SWAP3 SWAP2 POP POP JUMP JUMPDEST PUSH0 JUMPDEST DUP4 DUP2 LT ISZERO PUSH2 0x352 JUMPI DUP1 DUP3 ADD MLOAD DUP2 DUP5 ADD MSTORE PUSH1 0x20 DUP2 ADD SWAP1 POP PUSH2 0x337 JUMP JUMPDEST PUSH0 DUP5 DUP5 ADD MSTORE POP POP POP POP JUMP JUMPDEST PUSH0 PUSH2 0x367 DUP3 PUSH2 0x31B JUMP JUMPDEST PUSH2 0x371 DUP2 DUP6 PUSH2 0x325 JUMP JUMPDEST SWAP4 POP PUSH2 0x381 DUP2 DUP6 PUSH1 0x20 DUP7 ADD PUSH2 0x335 JUMP JUMPDEST PUSH2 0x38A DUP2 PUSH2 0x1A0 JUMP JUMPDEST DUP5 ADD SWAP2 POP POP SWAP3 SWAP2 POP POP JUMP JUMPDEST PUSH0 PUSH1 0x20 DUP3 ADD SWAP1 POP DUP2 DUP2 SUB PUSH0 DUP4 ADD MSTORE PUSH2 0x3AD DUP2 DUP5 PUSH2 0x35D JUMP JUMPDEST SWAP1 POP SWAP3 SWAP2 POP POP JUMP JUMPDEST PUSH0 DUP2 SWAP1 POP SWAP2 SWAP1 POP JUMP JUMPDEST PUSH32 0x4E487B7100000000000000000000000000000000000000000000000000000000 PUSH0 MSTORE PUSH1 0x12 PUSH1 0x4 MSTORE PUSH1 0x24 PUSH0 REVERT JUMPDEST PUSH32 0x4E487B7100000000000000000000000000000000000000000000000000000000 PUSH0 MSTORE PUSH1 0x11 PUSH1 0x4 MSTORE PUSH1 0x24 PUSH0 REVERT JUMPDEST PUSH0 PUSH2 0x422 DUP3 PUSH2 0x3B5 JUMP JUMPDEST SWAP2 POP PUSH2 0x42D DUP4 PUSH2 0x3B5 JUMP JUMPDEST SWAP3 POP DUP3 PUSH2 0x43D JUMPI PUSH2 0x43C PUSH2 0x3BE JUMP JUMPDEST JUMPDEST DUP3 DUP3 DIV SWAP1 POP SWAP3 SWAP2 POP POP JUMP JUMPDEST PUSH32 0x4E487B7100000000000000000000000000000000000000000000000000000000 PUSH0 MSTORE PUSH1 0x32 PUSH1 0x4 MSTORE PUSH1 0x24 PUSH0 REVERT JUMPDEST PUSH0 PUSH2 0x47F DUP3 PUSH2 0x3B5 JUMP JUMPDEST SWAP2 POP PUSH2 0x48A DUP4 PUSH2 0x3B5 JUMP JUMPDEST SWAP3 POP DUP3 DUP3 SUB SWAP1 POP DUP2 DUP2 GT ISZERO PUSH2 0x4A2 JUMPI PUSH2 0x4A1 PUSH2 0x3EB JUMP JUMPDEST JUMPDEST SWAP3 SWAP2 POP POP JUMP INVALID LOG2 PUSH5 0x6970667358 0x22 SLT KECCAK256 0xDF DUP1 PUSH24 0x5A2865D8804013FBCA4D0B0753ACF1BDF5CDF688FAE2492F 0xE0 0x2F CALL 0x21 DUP3 PUSH5 0x736F6C6343 STOP ADDMOD BYTE STOP CALLER "
				},
				"gasEstimates": {
					"creation": {
						"codeDepositCost": "249200",
						"executionCost": "285",
						"totalCost": "249485"
					},
					"external": {
						"reverseString(string)": "infinite"
					}
				},
				"methodIdentifiers": {
					"reverseString(string)": "5729c211"
				}
			},
			"storageLayout": {
				"storage": [],
				"types": null
			},
			"userdoc": {
				"kind": "user",
				"methods": {},
				"version": 1
			}
		}
	}
}