{
	"data": {
		"bytecode": {
			"linkReferences": {},
			"object": "608060405234801561000f575f5ffd5b506040518060400160405280600381526020017f4e544600000000000000000000000000000000000000000000000000000000008152506040518060400160405280600381526020017f4d49540000000000000000000000000000000000000000000000000000000000815250815f908161008a91906102df565b50806001908161009a91906102df565b5050506103ae565b5f81519050919050565b7f4e487b71000000000000000000000000000000000000000000000000000000005f52604160045260245ffd5b7f4e487b71000000000000000000000000000000000000000000000000000000005f52602260045260245ffd5b5f600282049050600182168061011d57607f821691505b6020821081036101305761012f6100d9565b5b50919050565b5f819050815f5260205f209050919050565b5f6020601f8301049050919050565b5f82821b905092915050565b5f600883026101927fffffffffffffffffffffffffffffffffffffffffffffffffffffffffffffffff82610157565b61019c8683610157565b95508019841693508086168417925050509392505050565b5f819050919050565b5f819050919050565b5f6101e06101db6101d6846101b4565b6101bd565b6101b4565b9050919050565b5f819050919050565b6101f9836101c6565b61020d610205826101e7565b848454610163565b825550505050565b5f5f905090565b610224610215565b61022f8184846101f0565b505050565b5b81811015610252576102475f8261021c565b600181019050610235565b5050565b601f8211156102975761026881610136565b61027184610148565b81016020851015610280578190505b61029461028c85610148565b830182610234565b50505b505050565b5f82821c905092915050565b5f6102b75f198460080261029c565b1980831691505092915050565b5f6102cf83836102a8565b9150826002028217905092915050565b6102e8826100a2565b67ffffffffffffffff811115610301576103006100ac565b5b61030b8254610106565b610316828285610256565b5f60209050601f831160018114610347575f8415610335578287015190505b61033f85826102c4565b8655506103a6565b601f19841661035586610136565b5f5b8281101561037c57848901518255600182019150602085019450602081019050610357565b868310156103995784890151610395601f8916826102a8565b8355505b6001600288020188555050505b505050505050565b611e57806103bb5f395ff3fe608060405234801561000f575f5ffd5b50600436106100e8575f3560e01c806370a082311161008a578063a22cb46511610064578063a22cb46514610258578063b88d4fde14610274578063c87b56dd14610290578063e985e9c5146102c0576100e8565b806370a08231146101ee5780638c366a071461021e57806395d89b411461023a576100e8565b8063095ea7b3116100c6578063095ea7b31461016a57806323b872dd1461018657806342842e0e146101a25780636352211e146101be576100e8565b806301ffc9a7146100ec57806306fdde031461011c578063081812fc1461013a575b5f5ffd5b61010660048036038101906101019190611413565b6102f0565b6040516101139190611458565b60405180910390f35b6101246103d1565b60405161013191906114e1565b60405180910390f35b610154600480360381019061014f9190611534565b610460565b604051610161919061159e565b60405180910390f35b610184600480360381019061017f91906115e1565b61047b565b005b6101a0600480360381019061019b919061161f565b610491565b005b6101bc60048036038101906101b7919061161f565b610590565b005b6101d860048036038101906101d39190611534565b6105af565b6040516101e5919061159e565b60405180910390f35b6102086004803603810190610203919061166f565b6105c0565b60405161021591906116a9565b60405180910390f35b610238600480360381019061023391906117ee565b610676565b005b6102426106a4565b60405161024f91906114e1565b60405180910390f35b610272600480360381019061026d9190611884565b610734565b005b61028e60048036038101906102899190611960565b61074a565b005b6102aa60048036038101906102a59190611534565b61076f565b6040516102b791906114e1565b60405180910390f35b6102da60048036038101906102d591906119e0565b610810565b6040516102e79190611458565b60405180910390f35b5f7f80ac58cd000000000000000000000000000000000000000000000000000000007bffffffffffffffffffffffffffffffffffffffffffffffffffffffff1916827bffffffffffffffffffffffffffffffffffffffffffffffffffffffff191614806103ba57507f5b5e139f000000000000000000000000000000000000000000000000000000007bffffffffffffffffffffffffffffffffffffffffffffffffffffffff1916827bffffffffffffffffffffffffffffffffffffffffffffffffffffffff1916145b806103ca57506103c98261089e565b5b9050919050565b60605f80546103df90611a4b565b80601f016020809104026020016040519081016040528092919081815260200182805461040b90611a4b565b80156104565780601f1061042d57610100808354040283529160200191610456565b820191905f5260205f20905b81548152906001019060200180831161043957829003601f168201915b5050505050905090565b5f61046a82610907565b506104748261098d565b9050919050565b61048d82826104886109c6565b6109cd565b5050565b5f73ffffffffffffffffffffffffffffffffffffffff168273ffffffffffffffffffffffffffffffffffffffff1603610501575f6040517f64a0ae920000000000000000000000000000000000000000000000000000000081526004016104f8919061159e565b60405180910390fd5b5f610514838361050f6109c6565b6109df565b90508373ffffffffffffffffffffffffffffffffffffffff168173ffffffffffffffffffffffffffffffffffffffff161461058a578382826040517f64283d7b00000000000000000000000000000000000000000000000000000000815260040161058193929190611a7b565b60405180910390fd5b50505050565b6105aa83838360405180602001604052805f81525061074a565b505050565b5f6105b982610907565b9050919050565b5f5f73ffffffffffffffffffffffffffffffffffffffff168273ffffffffffffffffffffffffffffffffffffffff1603610631575f6040517f89c62b64000000000000000000000000000000000000000000000000000000008152600401610628919061159e565b60405180910390fd5b60035f8373ffffffffffffffffffffffffffffffffffffffff1673ffffffffffffffffffffffffffffffffffffffff1681526020019081526020015f20549050919050565b8060065f8481526020019081526020015f2090816106949190611c50565b5061069f8383610bea565b505050565b6060600180546106b390611a4b565b80601f01602080910402602001604051908101604052809291908181526020018280546106df90611a4b565b801561072a5780601f106107015761010080835404028352916020019161072a565b820191905f5260205f20905b81548152906001019060200180831161070d57829003601f168201915b5050505050905090565b61074661073f6109c6565b8383610c07565b5050565b610755848484610491565b6107696107606109c6565b85858585610d70565b50505050565b606060065f8381526020019081526020015f20805461078d90611a4b565b80601f01602080910402602001604051908101604052809291908181526020018280546107b990611a4b565b80156108045780601f106107db57610100808354040283529160200191610804565b820191905f5260205f20905b8154815290600101906020018083116107e757829003601f168201915b50505050509050919050565b5f60055f8473ffffffffffffffffffffffffffffffffffffffff1673ffffffffffffffffffffffffffffffffffffffff1681526020019081526020015f205f8373ffffffffffffffffffffffffffffffffffffffff1673ffffffffffffffffffffffffffffffffffffffff1681526020019081526020015f205f9054906101000a900460ff16905092915050565b5f7f01ffc9a7000000000000000000000000000000000000000000000000000000007bffffffffffffffffffffffffffffffffffffffffffffffffffffffff1916827bffffffffffffffffffffffffffffffffffffffffffffffffffffffff1916149050919050565b5f5f61091283610f1c565b90505f73ffffffffffffffffffffffffffffffffffffffff168173ffffffffffffffffffffffffffffffffffffffff160361098457826040517f7e27328900000000000000000000000000000000000000000000000000000000815260040161097b91906116a9565b60405180910390fd5b80915050919050565b5f60045f8381526020019081526020015f205f9054906101000a900473ffffffffffffffffffffffffffffffffffffffff169050919050565b5f33905090565b6109da8383836001610f55565b505050565b5f5f6109ea84610f1c565b90505f73ffffffffffffffffffffffffffffffffffffffff168373ffffffffffffffffffffffffffffffffffffffff1614610a2b57610a2a818486611114565b5b5f73ffffffffffffffffffffffffffffffffffffffff168173ffffffffffffffffffffffffffffffffffffffff1614610ab657610a6a5f855f5f610f55565b600160035f8373ffffffffffffffffffffffffffffffffffffffff1673ffffffffffffffffffffffffffffffffffffffff1681526020019081526020015f205f82825403925050819055505b5f73ffffffffffffffffffffffffffffffffffffffff168573ffffffffffffffffffffffffffffffffffffffff1614610b3557600160035f8773ffffffffffffffffffffffffffffffffffffffff1673ffffffffffffffffffffffffffffffffffffffff1681526020019081526020015f205f82825401925050819055505b8460025f8681526020019081526020015f205f6101000a81548173ffffffffffffffffffffffffffffffffffffffff021916908373ffffffffffffffffffffffffffffffffffffffff160217905550838573ffffffffffffffffffffffffffffffffffffffff168273ffffffffffffffffffffffffffffffffffffffff167fddf252ad1be2c89b69c2b068fc378daa952ba7f163c4a11628f55a4df523b3ef60405160405180910390a4809150509392505050565b610c03828260405180602001604052805f8152506111d7565b5050565b5f73ffffffffffffffffffffffffffffffffffffffff168273ffffffffffffffffffffffffffffffffffffffff1603610c7757816040517f5b08ba18000000000000000000000000000000000000000000000000000000008152600401610c6e919061159e565b60405180910390fd5b8060055f8573ffffffffffffffffffffffffffffffffffffffff1673ffffffffffffffffffffffffffffffffffffffff1681526020019081526020015f205f8473ffffffffffffffffffffffffffffffffffffffff1673ffffffffffffffffffffffffffffffffffffffff1681526020019081526020015f205f6101000a81548160ff0219169083151502179055508173ffffffffffffffffffffffffffffffffffffffff168373ffffffffffffffffffffffffffffffffffffffff167f17307eab39ab6107e8899845ad3d59bd9653f200f220920489ca2b5937696c3183604051610d639190611458565b60405180910390a3505050565b5f8373ffffffffffffffffffffffffffffffffffffffff163b1115610f15578273ffffffffffffffffffffffffffffffffffffffff1663150b7a02868685856040518563ffffffff1660e01b8152600401610dce9493929190611d71565b6020604051808303815f875af1925050508015610e0957506040513d601f19601f82011682018060405250810190610e069190611dcf565b60015b610e8a573d805f8114610e37576040519150601f19603f3d011682016040523d82523d5f602084013e610e3c565b606091505b505f815103610e8257836040517f64a0ae92000000000000000000000000000000000000000000000000000000008152600401610e79919061159e565b60405180910390fd5b805181602001fd5b63150b7a0260e01b7bffffffffffffffffffffffffffffffffffffffffffffffffffffffff1916817bffffffffffffffffffffffffffffffffffffffffffffffffffffffff191614610f1357836040517f64a0ae92000000000000000000000000000000000000000000000000000000008152600401610f0a919061159e565b60405180910390fd5b505b5050505050565b5f60025f8381526020019081526020015f205f9054906101000a900473ffffffffffffffffffffffffffffffffffffffff169050919050565b8080610f8d57505f73ffffffffffffffffffffffffffffffffffffffff168273ffffffffffffffffffffffffffffffffffffffff1614155b156110bf575f610f9c84610907565b90505f73ffffffffffffffffffffffffffffffffffffffff168373ffffffffffffffffffffffffffffffffffffffff161415801561100657508273ffffffffffffffffffffffffffffffffffffffff168173ffffffffffffffffffffffffffffffffffffffff1614155b801561101957506110178184610810565b155b1561105b57826040517fa9fbf51f000000000000000000000000000000000000000000000000000000008152600401611052919061159e565b60405180910390fd5b81156110bd57838573ffffffffffffffffffffffffffffffffffffffff168273ffffffffffffffffffffffffffffffffffffffff167f8c5be1e5ebec7d5bd14f71427d1e84f3dd0314c0f7b2291e5b200ac8c7c3b92560405160405180910390a45b505b8360045f8581526020019081526020015f205f6101000a81548173ffffffffffffffffffffffffffffffffffffffff021916908373ffffffffffffffffffffffffffffffffffffffff16021790555050505050565b61111f8383836111fa565b6111d2575f73ffffffffffffffffffffffffffffffffffffffff168373ffffffffffffffffffffffffffffffffffffffff160361119357806040517f7e27328900000000000000000000000000000000000000000000000000000000815260040161118a91906116a9565b60405180910390fd5b81816040517f177e802f0000000000000000000000000000000000000000000000000000000081526004016111c9929190611dfa565b60405180910390fd5b505050565b6111e183836112ba565b6111f56111ec6109c6565b5f858585610d70565b505050565b5f5f73ffffffffffffffffffffffffffffffffffffffff168373ffffffffffffffffffffffffffffffffffffffff16141580156112b157508273ffffffffffffffffffffffffffffffffffffffff168473ffffffffffffffffffffffffffffffffffffffff16148061127257506112718484610810565b5b806112b057508273ffffffffffffffffffffffffffffffffffffffff166112988361098d565b73ffffffffffffffffffffffffffffffffffffffff16145b5b90509392505050565b5f73ffffffffffffffffffffffffffffffffffffffff168273ffffffffffffffffffffffffffffffffffffffff160361132a575f6040517f64a0ae92000000000000000000000000000000000000000000000000000000008152600401611321919061159e565b60405180910390fd5b5f61133683835f6109df565b90505f73ffffffffffffffffffffffffffffffffffffffff168173ffffffffffffffffffffffffffffffffffffffff16146113a8575f6040517f73c6ac6e00000000000000000000000000000000000000000000000000000000815260040161139f919061159e565b60405180910390fd5b505050565b5f604051905090565b5f5ffd5b5f5ffd5b5f7fffffffff0000000000000000000000000000000000000000000000000000000082169050919050565b6113f2816113be565b81146113fc575f5ffd5b50565b5f8135905061140d816113e9565b92915050565b5f60208284031215611428576114276113b6565b5b5f611435848285016113ff565b91505092915050565b5f8115159050919050565b6114528161143e565b82525050565b5f60208201905061146b5f830184611449565b92915050565b5f81519050919050565b5f82825260208201905092915050565b8281835e5f83830152505050565b5f601f19601f8301169050919050565b5f6114b382611471565b6114bd818561147b565b93506114cd81856020860161148b565b6114d681611499565b840191505092915050565b5f6020820190508181035f8301526114f981846114a9565b905092915050565b5f819050919050565b61151381611501565b811461151d575f5ffd5b50565b5f8135905061152e8161150a565b92915050565b5f60208284031215611549576115486113b6565b5b5f61155684828501611520565b91505092915050565b5f73ffffffffffffffffffffffffffffffffffffffff82169050919050565b5f6115888261155f565b9050919050565b6115988161157e565b82525050565b5f6020820190506115b15f83018461158f565b92915050565b6115c08161157e565b81146115ca575f5ffd5b50565b5f813590506115db816115b7565b92915050565b5f5f604083850312156115f7576115f66113b6565b5b5f611604858286016115cd565b925050602061161585828601611520565b9150509250929050565b5f5f5f60608486031215611636576116356113b6565b5b5f611643868287016115cd565b9350506020611654868287016115cd565b925050604061166586828701611520565b9150509250925092565b5f60208284031215611684576116836113b6565b5b5f611691848285016115cd565b91505092915050565b6116a381611501565b82525050565b5f6020820190506116bc5f83018461169a565b92915050565b5f5ffd5b5f5ffd5b7f4e487b71000000000000000000000000000000000000000000000000000000005f52604160045260245ffd5b61170082611499565b810181811067ffffffffffffffff8211171561171f5761171e6116ca565b5b80604052505050565b5f6117316113ad565b905061173d82826116f7565b919050565b5f67ffffffffffffffff82111561175c5761175b6116ca565b5b61176582611499565b9050602081019050919050565b828183375f83830152505050565b5f61179261178d84611742565b611728565b9050828152602081018484840111156117ae576117ad6116c6565b5b6117b9848285611772565b509392505050565b5f82601f8301126117d5576117d46116c2565b5b81356117e5848260208601611780565b91505092915050565b5f5f5f60608486031215611805576118046113b6565b5b5f611812868287016115cd565b935050602061182386828701611520565b925050604084013567ffffffffffffffff811115611844576118436113ba565b5b611850868287016117c1565b9150509250925092565b6118638161143e565b811461186d575f5ffd5b50565b5f8135905061187e8161185a565b92915050565b5f5f6040838503121561189a576118996113b6565b5b5f6118a7858286016115cd565b92505060206118b885828601611870565b9150509250929050565b5f67ffffffffffffffff8211156118dc576118db6116ca565b5b6118e582611499565b9050602081019050919050565b5f6119046118ff846118c2565b611728565b9050828152602081018484840111156119205761191f6116c6565b5b61192b848285611772565b509392505050565b5f82601f830112611947576119466116c2565b5b81356119578482602086016118f2565b91505092915050565b5f5f5f5f60808587031215611978576119776113b6565b5b5f611985878288016115cd565b9450506020611996878288016115cd565b93505060406119a787828801611520565b925050606085013567ffffffffffffffff8111156119c8576119c76113ba565b5b6119d487828801611933565b91505092959194509250565b5f5f604083850312156119f6576119f56113b6565b5b5f611a03858286016115cd565b9250506020611a14858286016115cd565b9150509250929050565b7f4e487b71000000000000000000000000000000000000000000000000000000005f52602260045260245ffd5b5f6002820490506001821680611a6257607f821691505b602082108103611a7557611a74611a1e565b5b50919050565b5f606082019050611a8e5f83018661158f565b611a9b602083018561169a565b611aa8604083018461158f565b949350505050565b5f819050815f5260205f209050919050565b5f6020601f8301049050919050565b5f82821b905092915050565b5f60088302611b0c7fffffffffffffffffffffffffffffffffffffffffffffffffffffffffffffffff82611ad1565b611b168683611ad1565b95508019841693508086168417925050509392505050565b5f819050919050565b5f611b51611b4c611b4784611501565b611b2e565b611501565b9050919050565b5f819050919050565b611b6a83611b37565b611b7e611b7682611b58565b848454611add565b825550505050565b5f5f905090565b611b95611b86565b611ba0818484611b61565b505050565b5b81811015611bc357611bb85f82611b8d565b600181019050611ba6565b5050565b601f821115611c0857611bd981611ab0565b611be284611ac2565b81016020851015611bf1578190505b611c05611bfd85611ac2565b830182611ba5565b50505b505050565b5f82821c905092915050565b5f611c285f1984600802611c0d565b1980831691505092915050565b5f611c408383611c19565b9150826002028217905092915050565b611c5982611471565b67ffffffffffffffff811115611c7257611c716116ca565b5b611c7c8254611a4b565b611c87828285611bc7565b5f60209050601f831160018114611cb8575f8415611ca6578287015190505b611cb08582611c35565b865550611d17565b601f198416611cc686611ab0565b5f5b82811015611ced57848901518255600182019150602085019450602081019050611cc8565b86831015611d0a5784890151611d06601f891682611c19565b8355505b6001600288020188555050505b505050505050565b5f81519050919050565b5f82825260208201905092915050565b5f611d4382611d1f565b611d4d8185611d29565b9350611d5d81856020860161148b565b611d6681611499565b840191505092915050565b5f608082019050611d845f83018761158f565b611d91602083018661158f565b611d9e604083018561169a565b8181036060830152611db08184611d39565b905095945050505050565b5f81519050611dc9816113e9565b92915050565b5f60208284031215611de457611de36113b6565b5b5f611df184828501611dbb565b91505092915050565b5f604082019050611e0d5f83018561158f565b611e1a602083018461169a565b939250505056fea264697066735822122003ae6578d8d600e9ae1b28a66c798ac64a87f00a189d858ca704739df2f108d764736f6c634300081e0033",
			"opcodes": "PUSH1 0x80 PUSH1 0x40 MSTORE CALLVALUE DUP1 ISZERO PUSH2 0xF JUMPI PUSH0 PUSH0 REVERT JUMPDEST POP PUSH1 0x40 MLOAD DUP1 PUSH1 0x40 ADD PUSH1 0x40 MSTORE DUP1 PUSH1 0x3 DUP2 MSTORE PUSH1 0x20 ADD PUSH32 0x4E54460000000000000000000000000000000000000000000000000000000000 DUP2 MSTORE POP PUSH1 0x40 MLOAD DUP1 PUSH1 0x40 ADD PUSH1 0x40 MSTORE DUP1 PUSH1 0x3 DUP2 MSTORE PUSH1 0x20 ADD PUSH32 0x4D49540000000000000000000000000000000000000000000000000000000000 DUP2 MSTORE POP DUP2 PUSH0 SWAP1 DUP2 PUSH2 0x8A SWAP2 SWAP1 PUSH2 0x2DF JUMP JUMPDEST POP DUP1 PUSH1 0x1 SWAP1 DUP2 PUSH2 0x9A SWAP2 SWAP1 PUSH2 0x2DF JUMP JUMPDEST POP POP POP PUSH2 0x3AE JUMP JUMPDEST PUSH0 DUP2 MLOAD SWAP1 POP SWAP2 SWAP1 POP JUMP JUMPDEST PUSH32 0x4E487B7100000000000000000000000000000000000000000000000000000000 PUSH0 MSTORE PUSH1 0x41 PUSH1 0x4 MSTORE PUSH1 0x24 PUSH0 REVERT JUMPDEST PUSH32 0x4E487B7100000000000000000000000000000000000000000000000000000000 PUSH0 MSTORE PUSH1 0x22 PUSH1 0x4 MSTORE PUSH1 0x24 PUSH0 REVERT JUMPDEST PUSH0 PUSH1 0x2 DUP3 DIV SWAP1 POP PUSH1 0x1 DUP3 AND DUP1 PUSH2 0x11D JUMPI PUSH1 0x7F DUP3 AND SWAP2 POP JUMPDEST PUSH1 0x20 DUP3 LT DUP2 SUB PUSH2 0x130 JUMPI PUSH2 0x12F PUSH2 0xD9 JUMP JUMPDEST JUMPDEST POP SWAP2 SWAP1 POP JUMP JUMPDEST PUSH0 DUP2 SWAP1 POP DUP2 PUSH0 MSTORE PUSH1 0x20 PUSH0 KECCAK256 SWAP1 POP SWAP2 SWAP1 POP JUMP JUMPDEST PUSH0 PUSH1 0x20 PUSH1 0x1F DUP4 ADD DIV SWAP1 POP SWAP2 SWAP1 POP JUMP JUMPDEST PUSH0 DUP3 DUP3 SHL SWAP1 POP SWAP3 SWAP2 POP POP JUMP JUMPDEST PUSH0 PUSH1 0x8 DUP4 MUL PUSH2 0x192 PUSH32 0xFFFFFFFFFFFFFFFFFFFFFFFFFFFFFFFFFFFFFFFFFFFFFFFFFFFFFFFFFFFFFFFF DUP3 PUSH2 0x157 JUMP JUMPDEST PUSH2 0x19C DUP7 DUP4 PUSH2 0x157 JUMP JUMPDEST SWAP6 POP DUP1 NOT DUP5 AND SWAP4 POP DUP1 DUP7 AND DUP5 OR SWAP3 POP POP POP SWAP4 SWAP3 POP POP POP JUMP JUMPDEST PUSH0 DUP2 SWAP1 POP SWAP2 SWAP1 POP JUMP JUMPDEST PUSH0 DUP2 SWAP1 POP SWAP2 SWAP1 POP JUMP JUMPDEST PUSH0 PUSH2 0x1E0 PUSH2 0x1DB PUSH2 0x1D6 DUP5 PUSH2 0x1B4 JUMP JUMPDEST PUSH2 0x1BD JUMP JUMPDEST PUSH2 0x1B4 JUMP JUMPDEST SWAP1 POP SWAP2 SWAP1 POP JUMP JUMPDEST PUSH0 DUP2 SWAP1 POP SWAP2 SWAP1 POP JUMP JUMPDEST PUSH2 0x1F9 DUP4 PUSH2 0x1C6 JUMP JUMPDEST PUSH2 0x20D PUSH2 0x205 DUP3 PUSH2 0x1E7 JUMP JUMPDEST DUP5 DUP5 SLOAD PUSH2 0x163 JUMP JUMPDEST DUP3 SSTORE POP POP POP POP JUMP JUMPDEST PUSH0 PUSH0 SWAP1 POP SWAP1 JUMP JUMPDEST PUSH2 0x224 PUSH2 0x215 JUMP JUMPDEST PUSH2 0x22F DUP2 DUP5 DUP5 PUSH2 0x1F0 JUMP JUMPDEST POP POP POP JUMP JUMPDEST JUMPDEST DUP2 DUP2 LT ISZERO PUSH2 0x252 JUMPI PUSH2 0x247 PUSH0 DUP3 PUSH2 0x21C JUMP JUMPDEST PUSH1 0x1 DUP2 ADD SWAP1 POP PUSH2 0x235 JUMP JUMPDEST POP POP JUMP JUMPDEST PUSH1 0x1F DUP3 GT ISZERO PUSH2 0x297 JUMPI PUSH2 0x268 DUP2 PUSH2 0x136 JUMP JUMPDEST PUSH2 0x271 DUP5 PUSH2 0x148 JUMP JUMPDEST DUP2 ADD PUSH1 0x20 DUP6 LT ISZERO PUSH2 0x280 JUMPI DUP2 SWAP1 POP JUMPDEST PUSH2 0x294 PUSH2 0x28C DUP6 PUSH2 0x148 JUMP JUMPDEST DUP4 ADD DUP3 PUSH2 0x234 JUMP JUMPDEST POP POP JUMPDEST POP POP POP JUMP JUMPDEST PUSH0 DUP3 DUP3 SHR SWAP1 POP SWAP3 SWAP2 POP POP JUMP JUMPDEST PUSH0 PUSH2 0x2B7 PUSH0 NOT DUP5 PUSH1 0x8 MUL PUSH2 0x29C JUMP JUMPDEST NOT DUP1 DUP4 AND SWAP2 POP POP SWAP3 SWAP2 POP POP JUMP JUMPDEST PUSH0 PUSH2 0x2CF DUP4 DUP4 PUSH2 0x2A8 JUMP JUMPDEST SWAP2 POP DUP3 PUSH1 0x2 MUL DUP3 OR SWAP1 POP SWAP3 SWAP2 POP POP JUMP JUMPDEST PUSH2 0x2E8 DUP3 PUSH2 0xA2 JUMP JUMPDEST PUSH8 0xFFFFFFFFFFFFFFFF DUP2 GT ISZERO PUSH2 0x301 JUMPI PUSH2 0x300 PUSH2 0xAC JUMP JUMPDEST JUMPDEST PUSH2 0x30B DUP3 SLOAD PUSH2 0x106 JUMP JUMPDEST PUSH2 0x316 DUP3 DUP3 DUP6 PUSH2 0x256 JUMP JUMPDEST PUSH0 PUSH1 0x20 SWAP1 POP PUSH1 0x1F DUP4 GT PUSH1 0x1 DUP2 EQ PUSH2 0x347 JUMPI PUSH0 DUP5 ISZERO PUSH2 0x335 JUMPI DUP3 DUP8 ADD MLOAD SWAP1 POP JUMPDEST PUSH2 0x33F DUP6 DUP3 PUSH2 0x2C4 JUMP JUMPDEST DUP7 SSTORE POP PUSH2 0x3A6 JUMP JUMPDEST PUSH1 0x1F NOT DUP5 AND PUSH2 0x355 DUP7 PUSH2 0x136 JUMP JUMPDEST PUSH0 JUMPDEST DUP3 DUP2 LT ISZERO PUSH2 0x37C JUMPI DUP5 DUP10 ADD MLOAD DUP3 SSTORE PUSH1 0x1 DUP3 ADD SWAP2 POP PUSH1 0x20 DUP6 ADD SWAP5 POP PUSH1 0x20 DUP2 ADD SWAP1 POP PUSH2 0x357 JUMP JUMPDEST DUP7 DUP4 LT ISZERO PUSH2 0x399 JUMPI DUP5 DUP10 ADD MLOAD PUSH2 0x395 PUSH1 0x1F DUP10 AND DUP3 PUSH2 0x2A8 JUMP JUMPDEST DUP4 SSTORE POP JUMPDEST PUSH1 0x1 PUSH1 0x2 DUP9 MUL ADD DUP9 SSTORE POP POP POP JUMPDEST POP POP POP POP POP POP JUMP JUMPDEST PUSH2 0x1E57 DUP1 PUSH2 0x3BB PUSH0 CODECOPY PUSH0 RETURN INVALID PUSH1 0x80 PUSH1 0x40 MSTORE CALLVALUE DUP1 ISZERO PUSH2 0xF JUMPI PUSH0 PUSH0 REVERT JUMPDEST POP PUSH1 0x4 CALLDATASIZE LT PUSH2 0xE8 JUMPI PUSH0 CALLDATALOAD PUSH1 0xE0 SHR DUP1 PUSH4 0x70A08231 GT PUSH2 0x8A JUMPI DUP1 PUSH4 0xA22CB465 GT PUSH2 0x64 JUMPI DUP1 PUSH4 0xA22CB465 EQ PUSH2 0x258 JUMPI DUP1 PUSH4 0xB88D4FDE EQ PUSH2 0x274 JUMPI DUP1 PUSH4 0xC87B56DD EQ PUSH2 0x290 JUMPI DUP1 PUSH4 0xE985E9C5 EQ PUSH2 0x2C0 JUMPI PUSH2 0xE8 JUMP JUMPDEST DUP1 PUSH4 0x70A08231 EQ PUSH2 0x1EE JUMPI DUP1 PUSH4 0x8C366A07 EQ PUSH2 0x21E JUMPI DUP1 PUSH4 0x95D89B41 EQ PUSH2 0x23A JUMPI PUSH2 0xE8 JUMP JUMPDEST DUP1 PUSH4 0x95EA7B3 GT PUSH2 0xC6 JUMPI DUP1 PUSH4 0x95EA7B3 EQ PUSH2 0x16A JUMPI DUP1 PUSH4 0x23B872DD EQ PUSH2 0x186 JUMPI DUP1 PUSH4 0x42842E0E EQ PUSH2 0x1A2 JUMPI DUP1 PUSH4 0x6352211E EQ PUSH2 0x1BE JUMPI PUSH2 0xE8 JUMP JUMPDEST DUP1 PUSH4 0x1FFC9A7 EQ PUSH2 0xEC JUMPI DUP1 PUSH4 0x6FDDE03 EQ PUSH2 0x11C JUMPI DUP1 PUSH4 0x81812FC EQ PUSH2 0x13A JUMPI JUMPDEST PUSH0 PUSH0 REVERT JUMPDEST PUSH2 0x106 PUSH1 0x4 DUP1 CALLDATASIZE SUB DUP2 ADD SWAP1 PUSH2 0x101 SWAP2 SWAP1 PUSH2 0x1413 JUMP JUMPDEST PUSH2 0x2F0 JUMP JUMPDEST PUSH1 0x40 MLOAD PUSH2 0x113 SWAP2 SWAP1 PUSH2 0x1458 JUMP JUMPDEST PUSH1 0x40 MLOAD DUP1 SWAP2 SUB SWAP1 RETURN JUMPDEST PUSH2 0x124 PUSH2 0x3D1 JUMP JUMPDEST PUSH1 0x40 MLOAD PUSH2 0x131 SWAP2 SWAP1 PUSH2 0x14E1 JUMP JUMPDEST PUSH1 0x40 MLOAD DUP1 SWAP2 SUB SWAP1 RETURN JUMPDEST PUSH2 0x154 PUSH1 0x4 DUP1 CALLDATASIZE SUB DUP2 ADD SWAP1 PUSH2 0x14F SWAP2 SWAP1 PUSH2 0x1534 JUMP JUMPDEST PUSH2 0x460 JUMP JUMPDEST PUSH1 0x40 MLOAD PUSH2 0x161 SWAP2 SWAP1 PUSH2 0x159E JUMP JUMPDEST PUSH1 0x40 MLOAD DUP1 SWAP2 SUB SWAP1 RETURN JUMPDEST PUSH2 0x184 PUSH1 0x4 DUP1 CALLDATASIZE SUB DUP2 ADD SWAP1 PUSH2 0x17F SWAP2 SWAP1 PUSH2 0x15E1 JUMP JUMPDEST PUSH2 0x47B JUMP JUMPDEST STOP JUMPDEST PUSH2 0x1A0 PUSH1 0x4 DUP1 CALLDATASIZE SUB DUP2 ADD SWAP1 PUSH2 0x19B SWAP2 SWAP1 PUSH2 0x161F JUMP JUMPDEST PUSH2 0x491 JUMP JUMPDEST STOP JUMPDEST PUSH2 0x1BC PUSH1 0x4 DUP1 CALLDATASIZE SUB DUP2 ADD SWAP1 PUSH2 0x1B7 SWAP2 SWAP1 PUSH2 0x161F JUMP JUMPDEST PUSH2 0x590 JUMP JUMPDEST STOP JUMPDEST PUSH2 0x1D8 PUSH1 0x4 DUP1 CALLDATASIZE SUB DUP2 ADD SWAP1 PUSH2 0x1D3 SWAP2 SWAP1 PUSH2 0x1534 JUMP JUMPDEST PUSH2 0x5AF JUMP JUMPDEST PUSH1 0x40 MLOAD PUSH2 0x1E5 SWAP2 SWAP1 PUSH2 0x159E JUMP JUMPDEST PUSH1 0x40 MLOAD DUP1 SWAP2 SUB SWAP1 RETURN JUMPDEST PUSH2 0x208 PUSH1 0x4 DUP1 CALLDATASIZE SUB DUP2 ADD SWAP1 PUSH2 0x203 SWAP2 SWAP1 PUSH2 0x166F JUMP JUMPDEST PUSH2 0x5C0 JUMP JUMPDEST PUSH1 0x40 MLOAD PUSH2 0x215 SWAP2 SWAP1 PUSH2 0x16A9 JUMP JUMPDEST PUSH1 0x40 MLOAD DUP1 SWAP2 SUB SWAP1 RETURN JUMPDEST PUSH2 0x238 PUSH1 0x4 DUP1 CALLDATASIZE SUB DUP2 ADD SWAP1 PUSH2 0x233 SWAP2 SWAP1 PUSH2 0x17EE JUMP JUMPDEST PUSH2 0x676 JUMP JUMPDEST STOP JUMPDEST PUSH2 0x242 PUSH2 0x6A4 JUMP JUMPDEST PUSH1 0x40 MLOAD PUSH2 0x24F SWAP2 SWAP1 PUSH2 0x14E1 JUMP JUMPDEST PUSH1 0x40 MLOAD DUP1 SWAP2 SUB SWAP1 RETURN JUMPDEST PUSH2 0x272 PUSH1 0x4 DUP1 CALLDATASIZE SUB DUP2 ADD SWAP1 PUSH2 0x26D SWAP2 SWAP1 PUSH2 0x1884 JUMP JUMPDEST PUSH2 0x734 JUMP JUMPDEST STOP JUMPDEST PUSH2 0x28E PUSH1 0x4 DUP1 CALLDATASIZE SUB DUP2 ADD SWAP1 PUSH2 0x289 SWAP2 SWAP1 PUSH2 0x1960 JUMP JUMPDEST PUSH2 0x74A JUMP JUMPDEST STOP JUMPDEST PUSH2 0x2AA PUSH1 0x4 DUP1 CALLDATASIZE SUB DUP2 ADD SWAP1 PUSH2 0x2A5 SWAP2 SWAP1 PUSH2 0x1534 JUMP JUMPDEST PUSH2 0x76F JUMP JUMPDEST PUSH1 0x40 MLOAD PUSH2 0x2B7 SWAP2 SWAP1 PUSH2 0x14E1 JUMP JUMPDEST PUSH1 0x40 MLOAD DUP1 SWAP2 SUB SWAP1 RETURN JUMPDEST PUSH2 0x2DA PUSH1 0x4 DUP1 CALLDATASIZE SUB DUP2 ADD SWAP1 PUSH2 0x2D5 SWAP2 SWAP1 PUSH2 0x19E0 JUMP JUMPDEST PUSH2 0x810 JUMP JUMPDEST PUSH1 0x40 MLOAD PUSH2 0x2E7 SWAP2 SWAP1 PUSH2 0x1458 JUMP JUMPDEST PUSH1 0x40 MLOAD DUP1 SWAP2 SUB SWAP1 RETURN JUMPDEST PUSH0 PUSH32 0x80AC58CD00000000000000000000000000000000000000000000000000000000 PUSH28 0xFFFFFFFFFFFFFFFFFFFFFFFFFFFFFFFFFFFFFFFFFFFFFFFFFFFFFFFF NOT AND DUP3 PUSH28 0xFFFFFFFFFFFFFFFFFFFFFFFFFFFFFFFFFFFFFFFFFFFFFFFFFFFFFFFF NOT AND EQ DUP1 PUSH2 0x3BA JUMPI POP PUSH32 0x5B5E139F00000000000000000000000000000000000000000000000000000000 PUSH28 0xFFFFFFFFFFFFFFFFFFFFFFFFFFFFFFFFFFFFFFFFFFFFFFFFFFFFFFFF NOT AND DUP3 PUSH28 0xFFFFFFFFFFFFFFFFFFFFFFFFFFFFFFFFFFFFFFFFFFFFFFFFFFFFFFFF NOT AND EQ JUMPDEST DUP1 PUSH2 0x3CA JUMPI POP PUSH2 0x3C9 DUP3 PUSH2 0x89E JUMP JUMPDEST JUMPDEST SWAP1 POP SWAP2 SWAP1 POP JUMP JUMPDEST PUSH1 0x60 PUSH0 DUP1 SLOAD PUSH2 0x3DF SWAP1 PUSH2 0x1A4B JUMP JUMPDEST DUP1 PUSH1 0x1F ADD PUSH1 0x20 DUP1 SWAP2 DIV MUL PUSH1 0x20 ADD PUSH1 0x40 MLOAD SWAP1 DUP2 ADD PUSH1 0x40 MSTORE DUP1 SWAP3 SWAP2 SWAP1 DUP2 DUP2 MSTORE PUSH1 0x20 ADD DUP3 DUP1 SLOAD PUSH2 0x40B SWAP1 PUSH2 0x1A4B JUMP JUMPDEST DUP1 ISZERO PUSH2 0x456 JUMPI DUP1 PUSH1 0x1F LT PUSH2 0x42D JUMPI PUSH2 0x100 DUP1 DUP4 SLOAD DIV MUL DUP4 MSTORE SWAP2 PUSH1 0x20 ADD SWAP2 PUSH2 0x456 JUMP JUMPDEST DUP3 ADD SWAP2 SWAP1 PUSH0 MSTORE PUSH1 0x20 PUSH0 KECCAK256 SWAP1 JUMPDEST DUP2 SLOAD DUP2 MSTORE SWAP1 PUSH1 0x1 ADD SWAP1 PUSH1 0x20 ADD DUP1 DUP4 GT PUSH2 0x439 JUMPI DUP3 SWAP1 SUB PUSH1 0x1F AND DUP3 ADD SWAP2 JUMPDEST POP POP POP POP POP SWAP1 POP SWAP1 JUMP JUMPDEST PUSH0 PUSH2 0x46A DUP3 PUSH2 0x907 JUMP JUMPDEST POP PUSH2 0x474 DUP3 PUSH2 0x98D JUMP JUMPDEST SWAP1 POP SWAP2 SWAP1 POP JUMP JUMPDEST PUSH2 0x48D DUP3 DUP3 PUSH2 0x488 PUSH2 0x9C6 JUMP JUMPDEST PUSH2 0x9CD JUMP JUMPDEST POP POP JUMP JUMPDEST PUSH0 PUSH20 0xFFFFFFFFFFFFFFFFFFFFFFFFFFFFFFFFFFFFFFFF AND DUP3 PUSH20 0xFFFFFFFFFFFFFFFFFFFFFFFFFFFFFFFFFFFFFFFF AND SUB PUSH2 0x501 JUMPI PUSH0 PUSH1 0x40 MLOAD PUSH32 0x64A0AE9200000000000000000000000000000000000000000000000000000000 DUP2 MSTORE PUSH1 0x4 ADD PUSH2 0x4F8 SWAP2 SWAP1 PUSH2 0x159E JUMP JUMPDEST PUSH1 0x40 MLOAD DUP1 SWAP2 SUB SWAP1 REVERT JUMPDEST PUSH0 PUSH2 0x514 DUP4 DUP4 PUSH2 0x50F PUSH2 0x9C6 JUMP JUMPDEST PUSH2 0x9DF JUMP JUMPDEST SWAP1 POP DUP4 PUSH20 0xFFFFFFFFFFFFFFFFFFFFFFFFFFFFFFFFFFFFFFFF AND DUP2 PUSH20 0xFFFFFFFFFFFFFFFFFFFFFFFFFFFFFFFFFFFFFFFF AND EQ PUSH2 0x58A JUMPI DUP4 DUP3 DUP3 PUSH1 0x40 MLOAD PUSH32 0x64283D7B00000000000000000000000000000000000000000000000000000000 DUP2 MSTORE PUSH1 0x4 ADD PUSH2 0x581 SWAP4 SWAP3 SWAP2 SWAP1 PUSH2 0x1A7B JUMP JUMPDEST PUSH1 0x40 MLOAD DUP1 SWAP2 SUB SWAP1 REVERT JUMPDEST POP POP POP POP JUMP JUMPDEST PUSH2 0x5AA DUP4 DUP4 DUP4 PUSH1 0x40 MLOAD DUP1 PUSH1 0x20 ADD PUSH1 0x40 MSTORE DUP1 PUSH0 DUP2 MSTORE POP PUSH2 0x74A JUMP JUMPDEST POP POP POP JUMP JUMPDEST PUSH0 PUSH2 0x5B9 DUP3 PUSH2 0x907 JUMP JUMPDEST SWAP1 POP SWAP2 SWAP1 POP JUMP JUMPDEST PUSH0 PUSH0 PUSH20 0xFFFFFFFFFFFFFFFFFFFFFFFFFFFFFFFFFFFFFFFF AND DUP3 PUSH20 0xFFFFFFFFFFFFFFFFFFFFFFFFFFFFFFFFFFFFFFFF AND SUB PUSH2 0x631 JUMPI PUSH0 PUSH1 0x40 MLOAD PUSH32 0x89C62B6400000000000000000000000000000000000000000000000000000000 DUP2 MSTORE PUSH1 0x4 ADD PUSH2 0x628 SWAP2 SWAP1 PUSH2 0x159E JUMP JUMPDEST PUSH1 0x40 MLOAD DUP1 SWAP2 SUB SWAP1 REVERT JUMPDEST PUSH1 0x3 PUSH0 DUP4 PUSH20 0xFFFFFFFFFFFFFFFFFFFFFFFFFFFFFFFFFFFFFFFF AND PUSH20 0xFFFFFFFFFFFFFFFFFFFFFFFFFFFFFFFFFFFFFFFF AND DUP2 MSTORE PUSH1 0x20 ADD SWAP1 DUP2 MSTORE PUSH1 0x20 ADD PUSH0 KECCAK256 SLOAD SWAP1 POP SWAP2 SWAP1 POP JUMP JUMPDEST DUP1 PUSH1 0x6 PUSH0 DUP5 DUP2 MSTORE PUSH1 0x20 ADD SWAP1 DUP2 MSTORE PUSH1 0x20 ADD PUSH0 KECCAK256 SWAP1 DUP2 PUSH2 0x694 SWAP2 SWAP1 PUSH2 0x1C50 JUMP JUMPDEST POP PUSH2 0x69F DUP4 DUP4 PUSH2 0xBEA JUMP JUMPDEST POP POP POP JUMP JUMPDEST PUSH1 0x60 PUSH1 0x1 DUP1 SLOAD PUSH2 0x6B3 SWAP1 PUSH2 0x1A4B JUMP JUMPDEST DUP1 PUSH1 0x1F ADD PUSH1 0x20 DUP1 SWAP2 DIV MUL PUSH1 0x20 ADD PUSH1 0x40 MLOAD SWAP1 DUP2 ADD PUSH1 0x40 MSTORE DUP1 SWAP3 SWAP2 SWAP1 DUP2 DUP2 MSTORE PUSH1 0x20 ADD DUP3 DUP1 SLOAD PUSH2 0x6DF SWAP1 PUSH2 0x1A4B JUMP JUMPDEST DUP1 ISZERO PUSH2 0x72A JUMPI DUP1 PUSH1 0x1F LT PUSH2 0x701 JUMPI PUSH2 0x100 DUP1 DUP4 SLOAD DIV MUL DUP4 MSTORE SWAP2 PUSH1 0x20 ADD SWAP2 PUSH2 0x72A JUMP JUMPDEST DUP3 ADD SWAP2 SWAP1 PUSH0 MSTORE PUSH1 0x20 PUSH0 KECCAK256 SWAP1 JUMPDEST DUP2 SLOAD DUP2 MSTORE SWAP1 PUSH1 0x1 ADD SWAP1 PUSH1 0x20 ADD DUP1 DUP4 GT PUSH2 0x70D JUMPI DUP3 SWAP1 SUB PUSH1 0x1F AND DUP3 ADD SWAP2 JUMPDEST POP POP POP POP POP SWAP1 POP SWAP1 JUMP JUMPDEST PUSH2 0x746 PUSH2 0x73F PUSH2 0x9C6 JUMP JUMPDEST DUP4 DUP4 PUSH2 0xC07 JUMP JUMPDEST POP POP JUMP JUMPDEST PUSH2 0x755 DUP5 DUP5 DUP5 PUSH2 0x491 JUMP JUMPDEST PUSH2 0x769 PUSH2 0x760 PUSH2 0x9C6 JUMP JUMPDEST DUP6 DUP6 DUP6 DUP6 PUSH2 0xD70 JUMP JUMPDEST POP POP POP POP JUMP JUMPDEST PUSH1 0x60 PUSH1 0x6 PUSH0 DUP4 DUP2 MSTORE PUSH1 0x20 ADD SWAP1 DUP2 MSTORE PUSH1 0x20 ADD PUSH0 KECCAK256 DUP1 SLOAD PUSH2 0x78D SWAP1 PUSH2 0x1A4B JUMP JUMPDEST DUP1 PUSH1 0x1F ADD PUSH1 0x20 DUP1 SWAP2 DIV MUL PUSH1 0x20 ADD PUSH1 0x40 MLOAD SWAP1 DUP2 ADD PUSH1 0x40 MSTORE DUP1 SWAP3 SWAP2 SWAP1 DUP2 DUP2 MSTORE PUSH1 0x20 ADD DUP3 DUP1 SLOAD PUSH2 0x7B9 SWAP1 PUSH2 0x1A4B JUMP JUMPDEST DUP1 ISZERO PUSH2 0x804 JUMPI DUP1 PUSH1 0x1F LT PUSH2 0x7DB JUMPI PUSH2 0x100 DUP1 DUP4 SLOAD DIV MUL DUP4 MSTORE SWAP2 PUSH1 0x20 ADD SWAP2 PUSH2 0x804 JUMP JUMPDEST DUP3 ADD SWAP2 SWAP1 PUSH0 MSTORE PUSH1 0x20 PUSH0 KECCAK256 SWAP1 JUMPDEST DUP2 SLOAD DUP2 MSTORE SWAP1 PUSH1 0x1 ADD SWAP1 PUSH1 0x20 ADD DUP1 DUP4 GT PUSH2 0x7E7 JUMPI DUP3 SWAP1 SUB PUSH1 0x1F AND DUP3 ADD SWAP2 JUMPDEST POP POP POP POP POP SWAP1 POP SWAP2 SWAP1 POP JUMP JUMPDEST PUSH0 PUSH1 0x5 PUSH0 DUP5 PUSH20 0xFFFFFFFFFFFFFFFFFFFFFFFFFFFFFFFFFFFFFFFF AND PUSH20 0xFFFFFFFFFFFFFFFFFFFFFFFFFFFFFFFFFFFFFFFF AND DUP2 MSTORE PUSH1 0x20 ADD SWAP1 DUP2 MSTORE PUSH1 0x20 ADD PUSH0 KECCAK256 PUSH0 DUP4 PUSH20 0xFFFFFFFFFFFFFFFFFFFFFFFFFFFFFFFFFFFFFFFF AND PUSH20 0xFFFFFFFFFFFFFFFFFFFFFFFFFFFFFFFFFFFFFFFF AND DUP2 MSTORE PUSH1 0x20 ADD SWAP1 DUP2 MSTORE PUSH1 0x20 ADD PUSH0 KECCAK256 PUSH0 SWAP1 SLOAD SWAP1 PUSH2 0x100 EXP SWAP1 DIV PUSH1 0xFF AND SWAP1 POP SWAP3 SWAP2 POP POP JUMP JUMPDEST PUSH0 PUSH32 0x1FFC9A700000000000000000000000000000000000000000000000000000000 PUSH28 0xFFFFFFFFFFFFFFFFFFFFFFFFFFFFFFFFFFFFFFFFFFFFFFFFFFFFFFFF NOT AND DUP3 PUSH28 0xFFFFFFFFFFFFFFFFFFFFFFFFFFFFFFFFFFFFFFFFFFFFFFFFFFFFFFFF NOT AND EQ SWAP1 POP SWAP2 SWAP1 POP JUMP JUMPDEST PUSH0 PUSH0 PUSH2 0x912 DUP4 PUSH2 0xF1C JUMP JUMPDEST SWAP1 POP PUSH0 PUSH20 0xFFFFFFFFFFFFFFFFFFFFFFFFFFFFFFFFFFFFFFFF AND DUP2 PUSH20 0xFFFFFFFFFFFFFFFFFFFFFFFFFFFFFFFFFFFFFFFF AND SUB PUSH2 0x984 JUMPI DUP3 PUSH1 0x40 MLOAD PUSH32 0x7E27328900000000000000000000000000000000000000000000000000000000 DUP2 MSTORE PUSH1 0x4 ADD PUSH2 0x97B SWAP2 SWAP1 PUSH2 0x16A9 JUMP JUMPDEST PUSH1 0x40 MLOAD DUP1 SWAP2 SUB SWAP1 REVERT JUMPDEST DUP1 SWAP2 POP POP SWAP2 SWAP1 POP JUMP JUMPDEST PUSH0 PUSH1 0x4 PUSH0 DUP4 DUP2 MSTORE PUSH1 0x20 ADD SWAP1 DUP2 MSTORE PUSH1 0x20 ADD PUSH0 KECCAK256 PUSH0 SWAP1 SLOAD SWAP1 PUSH2 0x100 EXP SWAP1 DIV PUSH20 0xFFFFFFFFFFFFFFFFFFFFFFFFFFFFFFFFFFFFFFFF AND SWAP1 POP SWAP2 SWAP1 POP JUMP JUMPDEST PUSH0 CALLER SWAP1 POP SWAP1 JUMP JUMPDEST PUSH2 0x9DA DUP4 DUP4 DUP4 PUSH1 0x1 PUSH2 0xF55 JUMP JUMPDEST POP POP POP JUMP JUMPDEST PUSH0 PUSH0 PUSH2 0x9EA DUP5 PUSH2 0xF1C JUMP JUMPDEST SWAP1 POP PUSH0 PUSH20 0xFFFFFFFFFFFFFFFFFFFFFFFFFFFFFFFFFFFFFFFF AND DUP4 PUSH20 0xFFFFFFFFFFFFFFFFFFFFFFFFFFFFFFFFFFFFFFFF AND EQ PUSH2 0xA2B JUMPI PUSH2 0xA2A DUP2 DUP5 DUP7 PUSH2 0x1114 JUMP JUMPDEST JUMPDEST PUSH0 PUSH20 0xFFFFFFFFFFFFFFFFFFFFFFFFFFFFFFFFFFFFFFFF AND DUP2 PUSH20 0xFFFFFFFFFFFFFFFFFFFFFFFFFFFFFFFFFFFFFFFF AND EQ PUSH2 0xAB6 JUMPI PUSH2 0xA6A PUSH0 DUP6 PUSH0 PUSH0 PUSH2 0xF55 JUMP JUMPDEST PUSH1 0x1 PUSH1 0x3 PUSH0 DUP4 PUSH20 0xFFFFFFFFFFFFFFFFFFFFFFFFFFFFFFFFFFFFFFFF AND PUSH20 0xFFFFFFFFFFFFFFFFFFFFFFFFFFFFFFFFFFFFFFFF AND DUP2 MSTORE PUSH1 0x20 ADD SWAP1 DUP2 MSTORE PUSH1 0x20 ADD PUSH0 KECCAK256 PUSH0 DUP3 DUP3 SLOAD SUB SWAP3 POP POP DUP2 SWAP1 SSTORE POP JUMPDEST PUSH0 PUSH20 0xFFFFFFFFFFFFFFFFFFFFFFFFFFFFFFFFFFFFFFFF AND DUP6 PUSH20 0xFFFFFFFFFFFFFFFFFFFFFFFFFFFFFFFFFFFFFFFF AND EQ PUSH2 0xB35 JUMPI PUSH1 0x1 PUSH1 0x3 PUSH0 DUP8 PUSH20 0xFFFFFFFFFFFFFFFFFFFFFFFFFFFFFFFFFFFFFFFF AND PUSH20 0xFFFFFFFFFFFFFFFFFFFFFFFFFFFFFFFFFFFFFFFF AND DUP2 MSTORE PUSH1 0x20 ADD SWAP1 DUP2 MSTORE PUSH1 0x20 ADD PUSH0 KECCAK256 PUSH0 DUP3 DUP3 SLOAD ADD SWAP3 POP POP DUP2 SWAP1 SSTORE POP JUMPDEST DUP5 PUSH1 0x2 PUSH0 DUP7 DUP2 MSTORE PUSH1 0x20 ADD SWAP1 DUP2 MSTORE PUSH1 0x20 ADD PUSH0 KECCAK256 PUSH0 PUSH2 0x100 EXP DUP2 SLOAD DUP2 PUSH20 0xFFFFFFFFFFFFFFFFFFFFFFFFFFFFFFFFFFFFFFFF MUL NOT AND SWAP1 DUP4 PUSH20 0xFFFFFFFFFFFFFFFFFFFFFFFFFFFFFFFFFFFFFFFF AND MUL OR SWAP1 SSTORE POP DUP4 DUP6 PUSH20 0xFFFFFFFFFFFFFFFFFFFFFFFFFFFFFFFFFFFFFFFF AND DUP3 PUSH20 0xFFFFFFFFFFFFFFFFFFFFFFFFFFFFFFFFFFFFFFFF AND PUSH32 0xDDF252AD1BE2C89B69C2B068FC378DAA952BA7F163C4A11628F55A4DF523B3EF PUSH1 0x40 MLOAD PUSH1 0x40 MLOAD DUP1 SWAP2 SUB SWAP1 LOG4 DUP1 SWAP2 POP POP SWAP4 SWAP3 POP POP POP JUMP JUMPDEST PUSH2 0xC03 DUP3 DUP3 PUSH1 0x40 MLOAD DUP1 PUSH1 0x20 ADD PUSH1 0x40 MSTORE DUP1 PUSH0 DUP2 MSTORE POP PUSH2 0x11D7 JUMP JUMPDEST POP POP JUMP JUMPDEST PUSH0 PUSH20 0xFFFFFFFFFFFFFFFFFFFFFFFFFFFFFFFFFFFFFFFF AND DUP3 PUSH20 0xFFFFFFFFFFFFFFFFFFFFFFFFFFFFFFFFFFFFFFFF AND SUB PUSH2 0xC77 JUMPI DUP2 PUSH1 0x40 MLOAD PUSH32 0x5B08BA1800000000000000000000000000000000000000000000000000000000 DUP2 MSTORE PUSH1 0x4 ADD PUSH2 0xC6E SWAP2 SWAP1 PUSH2 0x159E JUMP JUMPDEST PUSH1 0x40 MLOAD DUP1 SWAP2 SUB SWAP1 REVERT JUMPDEST DUP1 PUSH1 0x5 PUSH0 DUP6 PUSH20 0xFFFFFFFFFFFFFFFFFFFFFFFFFFFFFFFFFFFFFFFF AND PUSH20 0xFFFFFFFFFFFFFFFFFFFFFFFFFFFFFFFFFFFFFFFF AND DUP2 MSTORE PUSH1 0x20 ADD SWAP1 DUP2 MSTORE PUSH1 0x20 ADD PUSH0 KECCAK256 PUSH0 DUP5 PUSH20 0xFFFFFFFFFFFFFFFFFFFFFFFFFFFFFFFFFFFFFFFF AND PUSH20 0xFFFFFFFFFFFFFFFFFFFFFFFFFFFFFFFFFFFFFFFF AND DUP2 MSTORE PUSH1 0x20 ADD SWAP1 DUP2 MSTORE PUSH1 0x20 ADD PUSH0 KECCAK256 PUSH0 PUSH2 0x100 EXP DUP2 SLOAD DUP2 PUSH1 0xFF MUL NOT AND SWAP1 DUP4 ISZERO ISZERO MUL OR SWAP1 SSTORE POP DUP2 PUSH20 0xFFFFFFFFFFFFFFFFFFFFFFFFFFFFFFFFFFFFFFFF AND DUP4 PUSH20 0xFFFFFFFFFFFFFFFFFFFFFFFFFFFFFFFFFFFFFFFF AND PUSH32 0x17307EAB39AB6107E8899845AD3D59BD9653F200F220920489CA2B5937696C31 DUP4 PUSH1 0x40 MLOAD PUSH2 0xD63 SWAP2 SWAP1 PUSH2 0x1458 JUMP JUMPDEST PUSH1 0x40 MLOAD DUP1 SWAP2 SUB SWAP1 LOG3 POP POP POP JUMP JUMPDEST PUSH0 DUP4 PUSH20 0xFFFFFFFFFFFFFFFFFFFFFFFFFFFFFFFFFFFFFFFF AND EXTCODESIZE GT ISZERO PUSH2 0xF15 JUMPI DUP3 PUSH20 0xFFFFFFFFFFFFFFFFFFFFFFFFFFFFFFFFFFFFFFFF AND PUSH4 0x150B7A02 DUP7 DUP7 DUP6 DUP6 PUSH1 0x40 MLOAD DUP6 PUSH4 0xFFFFFFFF AND PUSH1 0xE0 SHL DUP2 MSTORE PUSH1 0x4 ADD PUSH2 0xDCE SWAP5 SWAP4 SWAP3 SWAP2 SWAP1 PUSH2 0x1D71 JUMP JUMPDEST PUSH1 0x20 PUSH1 0x40 MLOAD DUP1 DUP4 SUB DUP2 PUSH0 DUP8 GAS CALL SWAP3 POP POP POP DUP1 ISZERO PUSH2 0xE09 JUMPI POP PUSH1 0x40 MLOAD RETURNDATASIZE PUSH1 0x1F NOT PUSH1 0x1F DUP3 ADD AND DUP3 ADD DUP1 PUSH1 0x40 MSTORE POP DUP2 ADD SWAP1 PUSH2 0xE06 SWAP2 SWAP1 PUSH2 0x1DCF JUMP JUMPDEST PUSH1 0x1 JUMPDEST PUSH2 0xE8A JUMPI RETURNDATASIZE DUP1 PUSH0 DUP2 EQ PUSH2 0xE37 JUMPI PUSH1 0x40 MLOAD SWAP2 POP PUSH1 0x1F NOT PUSH1 0x3F RETURNDATASIZE ADD AND DUP3 ADD PUSH1 0x40 MSTORE RETURNDATASIZE DUP3 MSTORE RETURNDATASIZE PUSH0 PUSH1 0x20 DUP5 ADD RETURNDATACOPY PUSH2 0xE3C JUMP JUMPDEST PUSH1 0x60 SWAP2 POP JUMPDEST POP PUSH0 DUP2 MLOAD SUB PUSH2 0xE82 JUMPI DUP4 PUSH1 0x40 MLOAD PUSH32 0x64A0AE9200000000000000000000000000000000000000000000000000000000 DUP2 MSTORE PUSH1 0x4 ADD PUSH2 0xE79 SWAP2 SWAP1 PUSH2 0x159E JUMP JUMPDEST PUSH1 0x40 MLOAD DUP1 SWAP2 SUB SWAP1 REVERT JUMPDEST DUP1 MLOAD DUP2 PUSH1 0x20 ADD REVERT JUMPDEST PUSH4 0x150B7A02 PUSH1 0xE0 SHL PUSH28 0xFFFFFFFFFFFFFFFFFFFFFFFFFFFFFFFFFFFFFFFFFFFFFFFFFFFFFFFF NOT AND DUP2 PUSH28 0xFFFFFFFFFFFFFFFFFFFFFFFFFFFFFFFFFFFFFFFFFFFFFFFFFFFFFFFF NOT AND EQ PUSH2 0xF13 JUMPI DUP4 PUSH1 0x40 MLOAD PUSH32 0x64A0AE9200000000000000000000000000000000000000000000000000000000 DUP2 MSTORE PUSH1 0x4 ADD PUSH2 0xF0A SWAP2 SWAP1 PUSH2 0x159E JUMP JUMPDEST PUSH1 0x40 MLOAD DUP1 SWAP2 SUB SWAP1 REVERT JUMPDEST POP JUMPDEST POP POP POP POP POP JUMP JUMPDEST PUSH0 PUSH1 0x2 PUSH0 DUP4 DUP2 MSTORE PUSH1 0x20 ADD SWAP1 DUP2 MSTORE PUSH1 0x20 ADD PUSH0 KECCAK256 PUSH0 SWAP1 SLOAD SWAP1 PUSH2 0x100 EXP SWAP1 DIV PUSH20 0xFFFFFFFFFFFFFFFFFFFFFFFFFFFFFFFFFFFFFFFF AND SWAP1 POP SWAP2 SWAP1 POP JUMP JUMPDEST DUP1 DUP1 PUSH2 0xF8D JUMPI POP PUSH0 PUSH20 0xFFFFFFFFFFFFFFFFFFFFFFFFFFFFFFFFFFFFFFFF AND DUP3 PUSH20 0xFFFFFFFFFFFFFFFFFFFFFFFFFFFFFFFFFFFFFFFF AND EQ ISZERO JUMPDEST ISZERO PUSH2 0x10BF JUMPI PUSH0 PUSH2 0xF9C DUP5 PUSH2 0x907 JUMP JUMPDEST SWAP1 POP PUSH0 PUSH20 0xFFFFFFFFFFFFFFFFFFFFFFFFFFFFFFFFFFFFFFFF AND DUP4 PUSH20 0xFFFFFFFFFFFFFFFFFFFFFFFFFFFFFFFFFFFFFFFF AND EQ ISZERO DUP1 ISZERO PUSH2 0x1006 JUMPI POP DUP3 PUSH20 0xFFFFFFFFFFFFFFFFFFFFFFFFFFFFFFFFFFFFFFFF AND DUP2 PUSH20 0xFFFFFFFFFFFFFFFFFFFFFFFFFFFFFFFFFFFFFFFF AND EQ ISZERO JUMPDEST DUP1 ISZERO PUSH2 0x1019 JUMPI POP PUSH2 0x1017 DUP2 DUP5 PUSH2 0x810 JUMP JUMPDEST ISZERO JUMPDEST ISZERO PUSH2 0x105B JUMPI DUP3 PUSH1 0x40 MLOAD PUSH32 0xA9FBF51F00000000000000000000000000000000000000000000000000000000 DUP2 MSTORE PUSH1 0x4 ADD PUSH2 0x1052 SWAP2 SWAP1 PUSH2 0x159E JUMP JUMPDEST PUSH1 0x40 MLOAD DUP1 SWAP2 SUB SWAP1 REVERT JUMPDEST DUP2 ISZERO PUSH2 0x10BD JUMPI DUP4 DUP6 PUSH20 0xFFFFFFFFFFFFFFFFFFFFFFFFFFFFFFFFFFFFFFFF AND DUP3 PUSH20 0xFFFFFFFFFFFFFFFFFFFFFFFFFFFFFFFFFFFFFFFF AND PUSH32 0x8C5BE1E5EBEC7D5BD14F71427D1E84F3DD0314C0F7B2291E5B200AC8C7C3B925 PUSH1 0x40 MLOAD PUSH1 0x40 MLOAD DUP1 SWAP2 SUB SWAP1 LOG4 JUMPDEST POP JUMPDEST DUP4 PUSH1 0x4 PUSH0 DUP6 DUP2 MSTORE PUSH1 0x20 ADD SWAP1 DUP2 MSTORE PUSH1 0x20 ADD PUSH0 KECCAK256 PUSH0 PUSH2 0x100 EXP DUP2 SLOAD DUP2 PUSH20 0xFFFFFFFFFFFFFFFFFFFFFFFFFFFFFFFFFFFFFFFF MUL NOT AND SWAP1 DUP4 PUSH20 0xFFFFFFFFFFFFFFFFFFFFFFFFFFFFFFFFFFFFFFFF AND MUL OR SWAP1 SSTORE POP POP POP POP POP JUMP JUMPDEST PUSH2 0x111F DUP4 DUP4 DUP4 PUSH2 0x11FA JUMP JUMPDEST PUSH2 0x11D2 JUMPI PUSH0 PUSH20 0xFFFFFFFFFFFFFFFFFFFFFFFFFFFFFFFFFFFFFFFF AND DUP4 PUSH20 0xFFFFFFFFFFFFFFFFFFFFFFFFFFFFFFFFFFFFFFFF AND SUB PUSH2 0x1193 JUMPI DUP1 PUSH1 0x40 MLOAD PUSH32 0x7E27328900000000000000000000000000000000000000000000000000000000 DUP2 MSTORE PUSH1 0x4 ADD PUSH2 0x118A SWAP2 SWAP1 PUSH2 0x16A9 JUMP JUMPDEST PUSH1 0x40 MLOAD DUP1 SWAP2 SUB SWAP1 REVERT JUMPDEST DUP2 DUP2 PUSH1 0x40 MLOAD PUSH32 0x177E802F00000000000000000000000000000000000000000000000000000000 DUP2 MSTORE PUSH1 0x4 ADD PUSH2 0x11C9 SWAP3 SWAP2 SWAP1 PUSH2 0x1DFA JUMP JUMPDEST PUSH1 0x40 MLOAD DUP1 SWAP2 SUB SWAP1 REVERT JUMPDEST POP POP POP JUMP JUMPDEST PUSH2 0x11E1 DUP4 DUP4 PUSH2 0x12BA JUMP JUMPDEST PUSH2 0x11F5 PUSH2 0x11EC PUSH2 0x9C6 JUMP JUMPDEST PUSH0 DUP6 DUP6 DUP6 PUSH2 0xD70 JUMP JUMPDEST POP POP POP JUMP JUMPDEST PUSH0 PUSH0 PUSH20 0xFFFFFFFFFFFFFFFFFFFFFFFFFFFFFFFFFFFFFFFF AND DUP4 PUSH20 0xFFFFFFFFFFFFFFFFFFFFFFFFFFFFFFFFFFFFFFFF AND EQ ISZERO DUP1 ISZERO PUSH2 0x12B1 JUMPI POP DUP3 PUSH20 0xFFFFFFFFFFFFFFFFFFFFFFFFFFFFFFFFFFFFFFFF AND DUP5 PUSH20 0xFFFFFFFFFFFFFFFFFFFFFFFFFFFFFFFFFFFFFFFF AND EQ DUP1 PUSH2 0x1272 JUMPI POP PUSH2 0x1271 DUP5 DUP5 PUSH2 0x810 JUMP JUMPDEST JUMPDEST DUP1 PUSH2 0x12B0 JUMPI POP DUP3 PUSH20 0xFFFFFFFFFFFFFFFFFFFFFFFFFFFFFFFFFFFFFFFF AND PUSH2 0x1298 DUP4 PUSH2 0x98D JUMP JUMPDEST PUSH20 0xFFFFFFFFFFFFFFFFFFFFFFFFFFFFFFFFFFFFFFFF AND EQ JUMPDEST JUMPDEST SWAP1 POP SWAP4 SWAP3 POP POP POP JUMP JUMPDEST PUSH0 PUSH20 0xFFFFFFFFFFFFFFFFFFFFFFFFFFFFFFFFFFFFFFFF AND DUP3 PUSH20 0xFFFFFFFFFFFFFFFFFFFFFFFFFFFFFFFFFFFFFFFF AND SUB PUSH2 0x132A JUMPI PUSH0 PUSH1 0x40 MLOAD PUSH32 0x64A0AE9200000000000000000000000000000000000000000000000000000000 DUP2 MSTORE PUSH1 0x4 ADD PUSH2 0x1321 SWAP2 SWAP1 PUSH2 0x159E JUMP JUMPDEST PUSH1 0x40 MLOAD DUP1 SWAP2 SUB SWAP1 REVERT JUMPDEST PUSH0 PUSH2 0x1336 DUP4 DUP4 PUSH0 PUSH2 0x9DF JUMP JUMPDEST SWAP1 POP PUSH0 PUSH20 0xFFFFFFFFFFFFFFFFFFFFFFFFFFFFFFFFFFFFFFFF AND DUP2 PUSH20 0xFFFFFFFFFFFFFFFFFFFFFFFFFFFFFFFFFFFFFFFF AND EQ PUSH2 0x13A8 JUMPI PUSH0 PUSH1 0x40 MLOAD PUSH32 0x73C6AC6E00000000000000000000000000000000000000000000000000000000 DUP2 MSTORE PUSH1 0x4 ADD PUSH2 0x139F SWAP2 SWAP1 PUSH2 0x159E JUMP JUMPDEST PUSH1 0x40 MLOAD DUP1 SWAP2 SUB SWAP1 REVERT JUMPDEST POP POP POP JUMP JUMPDEST PUSH0 PUSH1 0x40 MLOAD SWAP1 POP SWAP1 JUMP JUMPDEST PUSH0 PUSH0 REVERT JUMPDEST PUSH0 PUSH0 REVERT JUMPDEST PUSH0 PUSH32 0xFFFFFFFF00000000000000000000000000000000000000000000000000000000 DUP3 AND SWAP1 POP SWAP2 SWAP1 POP JUMP JUMPDEST PUSH2 0x13F2 DUP2 PUSH2 0x13BE JUMP JUMPDEST DUP2 EQ PUSH2 0x13FC JUMPI PUSH0 PUSH0 REVERT JUMPDEST POP JUMP JUMPDEST PUSH0 DUP2 CALLDATALOAD SWAP1 POP PUSH2 0x140D DUP2 PUSH2 0x13E9 JUMP JUMPDEST SWAP3 SWAP2 POP POP JUMP JUMPDEST PUSH0 PUSH1 0x20 DUP3 DUP5 SUB SLT ISZERO PUSH2 0x1428 JUMPI PUSH2 0x1427 PUSH2 0x13B6 JUMP JUMPDEST JUMPDEST PUSH0 PUSH2 0x1435 DUP5 DUP3 DUP6 ADD PUSH2 0x13FF JUMP JUMPDEST SWAP2 POP POP SWAP3 SWAP2 POP POP JUMP JUMPDEST PUSH0 DUP2 ISZERO ISZERO SWAP1 POP SWAP2 SWAP1 POP JUMP JUMPDEST PUSH2 0x1452 DUP2 PUSH2 0x143E JUMP JUMPDEST DUP3 MSTORE POP POP JUMP JUMPDEST PUSH0 PUSH1 0x20 DUP3 ADD SWAP1 POP PUSH2 0x146B PUSH0 DUP4 ADD DUP5 PUSH2 0x1449 JUMP JUMPDEST SWAP3 SWAP2 POP POP JUMP JUMPDEST PUSH0 DUP2 MLOAD SWAP1 POP SWAP2 SWAP1 POP JUMP JUMPDEST PUSH0 DUP3 DUP3 MSTORE PUSH1 0x20 DUP3 ADD SWAP1 POP SWAP3 SWAP2 POP POP JUMP JUMPDEST DUP3 DUP2 DUP4 MCOPY PUSH0 DUP4 DUP4 ADD MSTORE POP POP POP JUMP JUMPDEST PUSH0 PUSH1 0x1F NOT PUSH1 0x1F DUP4 ADD AND SWAP1 POP SWAP2 SWAP1 POP JUMP JUMPDEST PUSH0 PUSH2 0x14B3 DUP3 PUSH2 0x1471 JUMP JUMPDEST PUSH2 0x14BD DUP2 DUP6 PUSH2 0x147B JUMP JUMPDEST SWAP4 POP PUSH2 0x14CD DUP2 DUP6 PUSH1 0x20 DUP7 ADD PUSH2 0x148B JUMP JUMPDEST PUSH2 0x14D6 DUP2 PUSH2 0x1499 JUMP JUMPDEST DUP5 ADD SWAP2 POP POP SWAP3 SWAP2 POP POP JUMP JUMPDEST PUSH0 PUSH1 0x20 DUP3 ADD SWAP1 POP DUP2 DUP2 SUB PUSH0 DUP4 ADD MSTORE PUSH2 0x14F9 DUP2 DUP5 PUSH2 0x14A9 JUMP JUMPDEST SWAP1 POP SWAP3 SWAP2 POP POP JUMP JUMPDEST PUSH0 DUP2 SWAP1 POP SWAP2 SWAP1 POP JUMP JUMPDEST PUSH2 0x1513 DUP2 PUSH2 0x1501 JUMP JUMPDEST DUP2 EQ PUSH2 0x151D JUMPI PUSH0 PUSH0 REVERT JUMPDEST POP JUMP JUMPDEST PUSH0 DUP2 CALLDATALOAD SWAP1 POP PUSH2 0x152E DUP2 PUSH2 0x150A JUMP JUMPDEST SWAP3 SWAP2 POP POP JUMP JUMPDEST PUSH0 PUSH1 0x20 DUP3 DUP5 SUB SLT ISZERO PUSH2 0x1549 JUMPI PUSH2 0x1548 PUSH2 0x13B6 JUMP JUMPDEST JUMPDEST PUSH0 PUSH2 0x1556 DUP5 DUP3 DUP6 ADD PUSH2 0x1520 JUMP JUMPDEST SWAP2 POP POP SWAP3 SWAP2 POP POP JUMP JUMPDEST PUSH0 PUSH20 0xFFFFFFFFFFFFFFFFFFFFFFFFFFFFFFFFFFFFFFFF DUP3 AND SWAP1 POP SWAP2 SWAP1 POP JUMP JUMPDEST PUSH0 PUSH2 0x1588 DUP3 PUSH2 0x155F JUMP JUMPDEST SWAP1 POP SWAP2 SWAP1 POP JUMP JUMPDEST PUSH2 0x1598 DUP2 PUSH2 0x157E JUMP JUMPDEST DUP3 MSTORE POP POP JUMP JUMPDEST PUSH0 PUSH1 0x20 DUP3 ADD SWAP1 POP PUSH2 0x15B1 PUSH0 DUP4 ADD DUP5 PUSH2 0x158F JUMP JUMPDEST SWAP3 SWAP2 POP POP JUMP JUMPDEST PUSH2 0x15C0 DUP2 PUSH2 0x157E JUMP JUMPDEST DUP2 EQ PUSH2 0x15CA JUMPI PUSH0 PUSH0 REVERT JUMPDEST POP JUMP JUMPDEST PUSH0 DUP2 CALLDATALOAD SWAP1 POP PUSH2 0x15DB DUP2 PUSH2 0x15B7 JUMP JUMPDEST SWAP3 SWAP2 POP POP JUMP JUMPDEST PUSH0 PUSH0 PUSH1 0x40 DUP4 DUP6 SUB SLT ISZERO PUSH2 0x15F7 JUMPI PUSH2 0x15F6 PUSH2 0x13B6 JUMP JUMPDEST JUMPDEST PUSH0 PUSH2 0x1604 DUP6 DUP3 DUP7 ADD PUSH2 0x15CD JUMP JUMPDEST SWAP3 POP POP PUSH1 0x20 PUSH2 0x1615 DUP6 DUP3 DUP7 ADD PUSH2 0x1520 JUMP JUMPDEST SWAP2 POP POP SWAP3 POP SWAP3 SWAP1 POP JUMP JUMPDEST PUSH0 PUSH0 PUSH0 PUSH1 0x60 DUP5 DUP7 SUB SLT ISZERO PUSH2 0x1636 JUMPI PUSH2 0x1635 PUSH2 0x13B6 JUMP JUMPDEST JUMPDEST PUSH0 PUSH2 0x1643 DUP7 DUP3 DUP8 ADD PUSH2 0x15CD JUMP JUMPDEST SWAP4 POP POP PUSH1 0x20 PUSH2 0x1654 DUP7 DUP3 DUP8 ADD PUSH2 0x15CD JUMP JUMPDEST SWAP3 POP POP PUSH1 0x40 PUSH2 0x1665 DUP7 DUP3 DUP8 ADD PUSH2 0x1520 JUMP JUMPDEST SWAP2 POP POP SWAP3 POP SWAP3 POP SWAP3 JUMP JUMPDEST PUSH0 PUSH1 0x20 DUP3 DUP5 SUB SLT ISZERO PUSH2 0x1684 JUMPI PUSH2 0x1683 PUSH2 0x13B6 JUMP JUMPDEST JUMPDEST PUSH0 PUSH2 0x1691 DUP5 DUP3 DUP6 ADD PUSH2 0x15CD JUMP JUMPDEST SWAP2 POP POP SWAP3 SWAP2 POP POP JUMP JUMPDEST PUSH2 0x16A3 DUP2 PUSH2 0x1501 JUMP JUMPDEST DUP3 MSTORE POP POP JUMP JUMPDEST PUSH0 PUSH1 0x20 DUP3 ADD SWAP1 POP PUSH2 0x16BC PUSH0 DUP4 ADD DUP5 PUSH2 0x169A JUMP JUMPDEST SWAP3 SWAP2 POP POP JUMP JUMPDEST PUSH0 PUSH0 REVERT JUMPDEST PUSH0 PUSH0 REVERT JUMPDEST PUSH32 0x4E487B7100000000000000000000000000000000000000000000000000000000 PUSH0 MSTORE PUSH1 0x41 PUSH1 0x4 MSTORE PUSH1 0x24 PUSH0 REVERT JUMPDEST PUSH2 0x1700 DUP3 PUSH2 0x1499 JUMP JUMPDEST DUP2 ADD DUP2 DUP2 LT PUSH8 0xFFFFFFFFFFFFFFFF DUP3 GT OR ISZERO PUSH2 0x171F JUMPI PUSH2 0x171E PUSH2 0x16CA JUMP JUMPDEST JUMPDEST DUP1 PUSH1 0x40 MSTORE POP POP POP JUMP JUMPDEST PUSH0 PUSH2 0x1731 PUSH2 0x13AD JUMP JUMPDEST SWAP1 POP PUSH2 0x173D DUP3 DUP3 PUSH2 0x16F7 JUMP JUMPDEST SWAP2 SWAP1 POP JUMP JUMPDEST PUSH0 PUSH8 0xFFFFFFFFFFFFFFFF DUP3 GT ISZERO PUSH2 0x175C JUMPI PUSH2 0x175B PUSH2 0x16CA JUMP JUMPDEST JUMPDEST PUSH2 0x1765 DUP3 PUSH2 0x1499 JUMP JUMPDEST SWAP1 POP PUSH1 0x20 DUP2 ADD SWAP1 POP SWAP2 SWAP1 POP JUMP JUMPDEST DUP3 DUP2 DUP4 CALLDATACOPY PUSH0 DUP4 DUP4 ADD MSTORE POP POP POP JUMP JUMPDEST PUSH0 PUSH2 0x1792 PUSH2 0x178D DUP5 PUSH2 0x1742 JUMP JUMPDEST PUSH2 0x1728 JUMP JUMPDEST SWAP1 POP DUP3 DUP2 MSTORE PUSH1 0x20 DUP2 ADD DUP5 DUP5 DUP5 ADD GT ISZERO PUSH2 0x17AE JUMPI PUSH2 0x17AD PUSH2 0x16C6 JUMP JUMPDEST JUMPDEST PUSH2 0x17B9 DUP5 DUP3 DUP6 PUSH2 0x1772 JUMP JUMPDEST POP SWAP4 SWAP3 POP POP POP JUMP JUMPDEST PUSH0 DUP3 PUSH1 0x1F DUP4 ADD SLT PUSH2 0x17D5 JUMPI PUSH2 0x17D4 PUSH2 0x16C2 JUMP JUMPDEST JUMPDEST DUP2 CALLDATALOAD PUSH2 0x17E5 DUP5 DUP3 PUSH1 0x20 DUP7 ADD PUSH2 0x1780 JUMP JUMPDEST SWAP2 POP POP SWAP3 SWAP2 POP POP JUMP JUMPDEST PUSH0 PUSH0 PUSH0 PUSH1 0x60 DUP5 DUP7 SUB SLT ISZERO PUSH2 0x1805 JUMPI PUSH2 0x1804 PUSH2 0x13B6 JUMP JUMPDEST JUMPDEST PUSH0 PUSH2 0x1812 DUP7 DUP3 DUP8 ADD PUSH2 0x15CD JUMP JUMPDEST SWAP4 POP POP PUSH1 0x20 PUSH2 0x1823 DUP7 DUP3 DUP8 ADD PUSH2 0x1520 JUMP JUMPDEST SWAP3 POP POP PUSH1 0x40 DUP5 ADD CALLDATALOAD PUSH8 0xFFFFFFFFFFFFFFFF DUP2 GT ISZERO PUSH2 0x1844 JUMPI PUSH2 0x1843 PUSH2 0x13BA JUMP JUMPDEST JUMPDEST PUSH2 0x1850 DUP7 DUP3 DUP8 ADD PUSH2 0x17C1 JUMP JUMPDEST SWAP2 POP POP SWAP3 POP SWAP3 POP SWAP3 JUMP JUMPDEST PUSH2 0x1863 DUP2 PUSH2 0x143E JUMP JUMPDEST DUP2 EQ PUSH2 0x186D JUMPI PUSH0 PUSH0 REVERT JUMPDEST POP JUMP JUMPDEST PUSH0 DUP2 CALLDATALOAD SWAP1 POP PUSH2 0x187E DUP2 PUSH2 0x185A JUMP JUMPDEST SWAP3 SWAP2 POP POP JUMP JUMPDEST PUSH0 PUSH0 PUSH1 0x40 DUP4 DUP6 SUB SLT ISZERO PUSH2 0x189A JUMPI PUSH2 0x1899 PUSH2 0x13B6 JUMP JUMPDEST JUMPDEST PUSH0 PUSH2 0x18A7 DUP6 DUP3 DUP7 ADD PUSH2 0x15CD JUMP JUMPDEST SWAP3 POP POP PUSH1 0x20 PUSH2 0x18B8 DUP6 DUP3 DUP7 ADD PUSH2 0x1870 JUMP JUMPDEST SWAP2 POP POP SWAP3 POP SWAP3 SWAP1 POP JUMP JUMPDEST PUSH0 PUSH8 0xFFFFFFFFFFFFFFFF DUP3 GT ISZERO PUSH2 0x18DC JUMPI PUSH2 0x18DB PUSH2 0x16CA JUMP JUMPDEST JUMPDEST PUSH2 0x18E5 DUP3 PUSH2 0x1499 JUMP JUMPDEST SWAP1 POP PUSH1 0x20 DUP2 ADD SWAP1 POP SWAP2 SWAP1 POP JUMP JUMPDEST PUSH0 PUSH2 0x1904 PUSH2 0x18FF DUP5 PUSH2 0x18C2 JUMP JUMPDEST PUSH2 0x1728 JUMP JUMPDEST SWAP1 POP DUP3 DUP2 MSTORE PUSH1 0x20 DUP2 ADD DUP5 DUP5 DUP5 ADD GT ISZERO PUSH2 0x1920 JUMPI PUSH2 0x191F PUSH2 0x16C6 JUMP JUMPDEST JUMPDEST PUSH2 0x192B DUP5 DUP3 DUP6 PUSH2 0x1772 JUMP JUMPDEST POP SWAP4 SWAP3 POP POP POP JUMP JUMPDEST PUSH0 DUP3 PUSH1 0x1F DUP4 ADD SLT PUSH2 0x1947 JUMPI PUSH2 0x1946 PUSH2 0x16C2 JUMP JUMPDEST JUMPDEST DUP2 CALLDATALOAD PUSH2 0x1957 DUP5 DUP3 PUSH1 0x20 DUP7 ADD PUSH2 0x18F2 JUMP JUMPDEST SWAP2 POP POP SWAP3 SWAP2 POP POP JUMP JUMPDEST PUSH0 PUSH0 PUSH0 PUSH0 PUSH1 0x80 DUP6 DUP8 SUB SLT ISZERO PUSH2 0x1978 JUMPI PUSH2 0x1977 PUSH2 0x13B6 JUMP JUMPDEST JUMPDEST PUSH0 PUSH2 0x1985 DUP8 DUP3 DUP9 ADD PUSH2 0x15CD JUMP JUMPDEST SWAP5 POP POP PUSH1 0x20 PUSH2 0x1996 DUP8 DUP3 DUP9 ADD PUSH2 0x15CD JUMP JUMPDEST SWAP4 POP POP PUSH1 0x40 PUSH2 0x19A7 DUP8 DUP3 DUP9 ADD PUSH2 0x1520 JUMP JUMPDEST SWAP3 POP POP PUSH1 0x60 DUP6 ADD CALLDATALOAD PUSH8 0xFFFFFFFFFFFFFFFF DUP2 GT ISZERO PUSH2 0x19C8 JUMPI PUSH2 0x19C7 PUSH2 0x13BA JUMP JUMPDEST JUMPDEST PUSH2 0x19D4 DUP8 DUP3 DUP9 ADD PUSH2 0x1933 JUMP JUMPDEST SWAP2 POP POP SWAP3 SWAP6 SWAP2 SWAP5 POP SWAP3 POP JUMP JUMPDEST PUSH0 PUSH0 PUSH1 0x40 DUP4 DUP6 SUB SLT ISZERO PUSH2 0x19F6 JUMPI PUSH2 0x19F5 PUSH2 0x13B6 JUMP JUMPDEST JUMPDEST PUSH0 PUSH2 0x1A03 DUP6 DUP3 DUP7 ADD PUSH2 0x15CD JUMP JUMPDEST SWAP3 POP POP PUSH1 0x20 PUSH2 0x1A14 DUP6 DUP3 DUP7 ADD PUSH2 0x15CD JUMP JUMPDEST SWAP2 POP POP SWAP3 POP SWAP3 SWAP1 POP JUMP JUMPDEST PUSH32 0x4E487B7100000000000000000000000000000000000000000000000000000000 PUSH0 MSTORE PUSH1 0x22 PUSH1 0x4 MSTORE PUSH1 0x24 PUSH0 REVERT JUMPDEST PUSH0 PUSH1 0x2 DUP3 DIV SWAP1 POP PUSH1 0x1 DUP3 AND DUP1 PUSH2 0x1A62 JUMPI PUSH1 0x7F DUP3 AND SWAP2 POP JUMPDEST PUSH1 0x20 DUP3 LT DUP2 SUB PUSH2 0x1A75 JUMPI PUSH2 0x1A74 PUSH2 0x1A1E JUMP JUMPDEST JUMPDEST POP SWAP2 SWAP1 POP JUMP JUMPDEST PUSH0 PUSH1 0x60 DUP3 ADD SWAP1 POP PUSH2 0x1A8E PUSH0 DUP4 ADD DUP7 PUSH2 0x158F JUMP JUMPDEST PUSH2 0x1A9B PUSH1 0x20 DUP4 ADD DUP6 PUSH2 0x169A JUMP JUMPDEST PUSH2 0x1AA8 PUSH1 0x40 DUP4 ADD DUP5 PUSH2 0x158F JUMP JUMPDEST SWAP5 SWAP4 POP POP POP POP JUMP JUMPDEST PUSH0 DUP2 SWAP1 POP DUP2 PUSH0 MSTORE PUSH1 0x20 PUSH0 KECCAK256 SWAP1 POP SWAP2 SWAP1 POP JUMP JUMPDEST PUSH0 PUSH1 0x20 PUSH1 0x1F DUP4 ADD DIV SWAP1 POP SWAP2 SWAP1 POP JUMP JUMPDEST PUSH0 DUP3 DUP3 SHL SWAP1 POP SWAP3 SWAP2 POP POP JUMP JUMPDEST PUSH0 PUSH1 0x8 DUP4 MUL PUSH2 0x1B0C PUSH32 0xFFFFFFFFFFFFFFFFFFFFFFFFFFFFFFFFFFFFFFFFFFFFFFFFFFFFFFFFFFFFFFFF DUP3 PUSH2 0x1AD1 JUMP JUMPDEST PUSH2 0x1B16 DUP7 DUP4 PUSH2 0x1AD1 JUMP JUMPDEST SWAP6 POP DUP1 NOT DUP5 AND SWAP4 POP DUP1 DUP7 AND DUP5 OR SWAP3 POP POP POP SWAP4 SWAP3 POP POP POP JUMP JUMPDEST PUSH0 DUP2 SWAP1 POP SWAP2 SWAP1 POP JUMP JUMPDEST PUSH0 PUSH2 0x1B51 PUSH2 0x1B4C PUSH2 0x1B47 DUP5 PUSH2 0x1501 JUMP JUMPDEST PUSH2 0x1B2E JUMP JUMPDEST PUSH2 0x1501 JUMP JUMPDEST SWAP1 POP SWAP2 SWAP1 POP JUMP JUMPDEST PUSH0 DUP2 SWAP1 POP SWAP2 SWAP1 POP JUMP JUMPDEST PUSH2 0x1B6A DUP4 PUSH2 0x1B37 JUMP JUMPDEST PUSH2 0x1B7E PUSH2 0x1B76 DUP3 PUSH2 0x1B58 JUMP JUMPDEST DUP5 DUP5 SLOAD PUSH2 0x1ADD JUMP JUMPDEST DUP3 SSTORE POP POP POP POP JUMP JUMPDEST PUSH0 PUSH0 SWAP1 POP SWAP1 JUMP JUMPDEST PUSH2 0x1B95 PUSH2 0x1B86 JUMP JUMPDEST PUSH2 0x1BA0 DUP2 DUP5 DUP5 PUSH2 0x1B61 JUMP JUMPDEST POP POP POP JUMP JUMPDEST JUMPDEST DUP2 DUP2 LT ISZERO PUSH2 0x1BC3 JUMPI PUSH2 0x1BB8 PUSH0 DUP3 PUSH2 0x1B8D JUMP JUMPDEST PUSH1 0x1 DUP2 ADD SWAP1 POP PUSH2 0x1BA6 JUMP JUMPDEST POP POP JUMP JUMPDEST PUSH1 0x1F DUP3 GT ISZERO PUSH2 0x1C08 JUMPI PUSH2 0x1BD9 DUP2 PUSH2 0x1AB0 JUMP JUMPDEST PUSH2 0x1BE2 DUP5 PUSH2 0x1AC2 JUMP JUMPDEST DUP2 ADD PUSH1 0x20 DUP6 LT ISZERO PUSH2 0x1BF1 JUMPI DUP2 SWAP1 POP JUMPDEST PUSH2 0x1C05 PUSH2 0x1BFD DUP6 PUSH2 0x1AC2 JUMP JUMPDEST DUP4 ADD DUP3 PUSH2 0x1BA5 JUMP JUMPDEST POP POP JUMPDEST POP POP POP JUMP JUMPDEST PUSH0 DUP3 DUP3 SHR SWAP1 POP SWAP3 SWAP2 POP POP JUMP JUMPDEST PUSH0 PUSH2 0x1C28 PUSH0 NOT DUP5 PUSH1 0x8 MUL PUSH2 0x1C0D JUMP JUMPDEST NOT DUP1 DUP4 AND SWAP2 POP POP SWAP3 SWAP2 POP POP JUMP JUMPDEST PUSH0 PUSH2 0x1C40 DUP4 DUP4 PUSH2 0x1C19 JUMP JUMPDEST SWAP2 POP DUP3 PUSH1 0x2 MUL DUP3 OR SWAP1 POP SWAP3 SWAP2 POP POP JUMP JUMPDEST PUSH2 0x1C59 DUP3 PUSH2 0x1471 JUMP JUMPDEST PUSH8 0xFFFFFFFFFFFFFFFF DUP2 GT ISZERO PUSH2 0x1C72 JUMPI PUSH2 0x1C71 PUSH2 0x16CA JUMP JUMPDEST JUMPDEST PUSH2 0x1C7C DUP3 SLOAD PUSH2 0x1A4B JUMP JUMPDEST PUSH2 0x1C87 DUP3 DUP3 DUP6 PUSH2 0x1BC7 JUMP JUMPDEST PUSH0 PUSH1 0x20 SWAP1 POP PUSH1 0x1F DUP4 GT PUSH1 0x1 DUP2 EQ PUSH2 0x1CB8 JUMPI PUSH0 DUP5 ISZERO PUSH2 0x1CA6 JUMPI DUP3 DUP8 ADD MLOAD SWAP1 POP JUMPDEST PUSH2 0x1CB0 DUP6 DUP3 PUSH2 0x1C35 JUMP JUMPDEST DUP7 SSTORE POP PUSH2 0x1D17 JUMP JUMPDEST PUSH1 0x1F NOT DUP5 AND PUSH2 0x1CC6 DUP7 PUSH2 0x1AB0 JUMP JUMPDEST PUSH0 JUMPDEST DUP3 DUP2 LT ISZERO PUSH2 0x1CED JUMPI DUP5 DUP10 ADD MLOAD DUP3 SSTORE PUSH1 0x1 DUP3 ADD SWAP2 POP PUSH1 0x20 DUP6 ADD SWAP5 POP PUSH1 0x20 DUP2 ADD SWAP1 POP PUSH2 0x1CC8 JUMP JUMPDEST DUP7 DUP4 LT ISZERO PUSH2 0x1D0A JUMPI DUP5 DUP10 ADD MLOAD PUSH2 0x1D06 PUSH1 0x1F DUP10 AND DUP3 PUSH2 0x1C19 JUMP JUMPDEST DUP4 SSTORE POP JUMPDEST PUSH1 0x1 PUSH1 0x2 DUP9 MUL ADD DUP9 SSTORE POP POP POP JUMPDEST POP POP POP POP POP POP JUMP JUMPDEST PUSH0 DUP2 MLOAD SWAP1 POP SWAP2 SWAP1 POP JUMP JUMPDEST PUSH0 DUP3 DUP3 MSTORE PUSH1 0x20 DUP3 ADD SWAP1 POP SWAP3 SWAP2 POP POP JUMP JUMPDEST PUSH0 PUSH2 0x1D43 DUP3 PUSH2 0x1D1F JUMP JUMPDEST PUSH2 0x1D4D DUP2 DUP6 PUSH2 0x1D29 JUMP JUMPDEST SWAP4 POP PUSH2 0x1D5D DUP2 DUP6 PUSH1 0x20 DUP7 ADD PUSH2 0x148B JUMP JUMPDEST PUSH2 0x1D66 DUP2 PUSH2 0x1499 JUMP JUMPDEST DUP5 ADD SWAP2 POP POP SWAP3 SWAP2 POP POP JUMP JUMPDEST PUSH0 PUSH1 0x80 DUP3 ADD SWAP1 POP PUSH2 0x1D84 PUSH0 DUP4 ADD DUP8 PUSH2 0x158F JUMP JUMPDEST PUSH2 0x1D91 PUSH1 0x20 DUP4 ADD DUP7 PUSH2 0x158F JUMP JUMPDEST PUSH2 0x1D9E PUSH1 0x40 DUP4 ADD DUP6 PUSH2 0x169A JUMP JUMPDEST DUP2 DUP2 SUB PUSH1 0x60 DUP4 ADD MSTORE PUSH2 0x1DB0 DUP2 DUP5 PUSH2 0x1D39 JUMP JUMPDEST SWAP1 POP SWAP6 SWAP5 POP POP POP POP POP JUMP JUMPDEST PUSH0 DUP2 MLOAD SWAP1 POP PUSH2 0x1DC9 DUP2 PUSH2 0x13E9 JUMP JUMPDEST SWAP3 SWAP2 POP POP JUMP JUMPDEST PUSH0 PUSH1 0x20 DUP3 DUP5 SUB SLT ISZERO PUSH2 0x1DE4 JUMPI PUSH2 0x1DE3 PUSH2 0x13B6 JUMP JUMPDEST JUMPDEST PUSH0 PUSH2 0x1DF1 DUP5 DUP3 DUP6 ADD PUSH2 0x1DBB JUMP JUMPDEST SWAP2 POP POP SWAP3 SWAP2 POP POP JUMP JUMPDEST PUSH0 PUSH1 0x40 DUP3 ADD SWAP1 POP PUSH2 0x1E0D PUSH0 DUP4 ADD DUP6 PUSH2 0x158F JUMP JUMPDEST PUSH2 0x1E1A PUSH1 0x20 DUP4 ADD DUP5 PUSH2 0x169A JUMP JUMPDEST SWAP4 SWAP3 POP POP POP JUMP INVALID LOG2 PUSH5 0x6970667358 0x22 SLT KECCAK256 SUB 0xAE PUSH6 0x78D8D600E9AE SHL 0x28 0xA6 PUSH13 0x798AC64A87F00A189D858CA704 PUSH20 0x9DF2F108D764736F6C634300081E003300000000 "
		},
		"gasEstimates": {
			"creation": {
				"codeDepositCost": "1553400",
				"executionCost": "infinite",
				"totalCost": "infinite"
			},
			"external": {
				"approve(address,uint256)": "infinite",
				"balanceOf(address)": "infinite",
				"getApproved(uint256)": "infinite",
				"isApprovedForAll(address,address)": "infinite",
				"mintNTF(address,uint256,string)": "infinite",
				"name()": "infinite",
				"ownerOf(uint256)": "infinite",
				"safeTransferFrom(address,address,uint256)": "infinite",
				"safeTransferFrom(address,address,uint256,bytes)": "infinite",
				"setApprovalForAll(address,bool)": "infinite",
				"supportsInterface(bytes4)": "787",
				"symbol()": "infinite",
				"tokenURI(uint256)": "infinite",
				"transferFrom(address,address,uint256)": "infinite"
			}
		},
		"methodIdentifiers": {
			"approve(address,uint256)": "095ea7b3",
			"balanceOf(address)": "70a08231",
			"getApproved(uint256)": "081812fc",
			"isApprovedForAll(address,address)": "e985e9c5",
			"mintNTF(address,uint256,string)": "8c366a07",
			"name()": "06fdde03",
			"ownerOf(uint256)": "6352211e",
			"safeTransferFrom(address,address,uint256)": "42842e0e",
			"safeTransferFrom(address,address,uint256,bytes)": "b88d4fde",
			"setApprovalForAll(address,bool)": "a22cb465",
			"supportsInterface(bytes4)": "01ffc9a7",
			"symbol()": "95d89b41",
			"tokenURI(uint256)": "c87b56dd",
			"transferFrom(address,address,uint256)": "23b872dd"
		}
	},
	"abi": [
		{
			"inputs": [],
			"stateMutability": "nonpayable",
			"type": "constructor"
		},
		{
			"inputs": [
				{
					"internalType": "address",
					"name": "sender",
					"type": "address"
				},
				{
					"internalType": "uint256",
					"name": "tokenId",
					"type": "uint256"
				},
				{
					"internalType": "address",
					"name": "owner",
					"type": "address"
				}
			],
			"name": "ERC721IncorrectOwner",
			"type": "error"
		},
		{
			"inputs": [
				{
					"internalType": "address",
					"name": "operator",
					"type": "address"
				},
				{
					"internalType": "uint256",
					"name": "tokenId",
					"type": "uint256"
				}
			],
			"name": "ERC721InsufficientApproval",
			"type": "error"
		},
		{
			"inputs": [
				{
					"internalType": "address",
					"name": "approver",
					"type": "address"
				}
			],
			"name": "ERC721InvalidApprover",
			"type": "error"
		},
		{
			"inputs": [
				{
					"internalType": "address",
					"name": "operator",
					"type": "address"
				}
			],
			"name": "ERC721InvalidOperator",
			"type": "error"
		},
		{
			"inputs": [
				{
					"internalType": "address",
					"name": "owner",
					"type": "address"
				}
			],
			"name": "ERC721InvalidOwner",
			"type": "error"
		},
		{
			"inputs": [
				{
					"internalType": "address",
					"name": "receiver",
					"type": "address"
				}
			],
			"name": "ERC721InvalidReceiver",
			"type": "error"
		},
		{
			"inputs": [
				{
					"internalType": "address",
					"name": "sender",
					"type": "address"
				}
			],
			"name": "ERC721InvalidSender",
			"type": "error"
		},
		{
			"inputs": [
				{
					"internalType": "uint256",
					"name": "tokenId",
					"type": "uint256"
				}
			],
			"name": "ERC721NonexistentToken",
			"type": "error"
		},
		{
			"anonymous": false,
			"inputs": [
				{
					"indexed": true,
					"internalType": "address",
					"name": "owner",
					"type": "address"
				},
				{
					"indexed": true,
					"internalType": "address",
					"name": "approved",
					"type": "address"
				},
				{
					"indexed": true,
					"internalType": "uint256",
					"name": "tokenId",
					"type": "uint256"
				}
			],
			"name": "Approval",
			"type": "event"
		},
		{
			"anonymous": false,
			"inputs": [
				{
					"indexed": true,
					"internalType": "address",
					"name": "owner",
					"type": "address"
				},
				{
					"indexed": true,
					"internalType": "address",
					"name": "operator",
					"type": "address"
				},
				{
					"indexed": false,
					"internalType": "bool",
					"name": "approved",
					"type": "bool"
				}
			],
			"name": "ApprovalForAll",
			"type": "event"
		},
		{
			"anonymous": false,
			"inputs": [
				{
					"indexed": true,
					"internalType": "address",
					"name": "from",
					"type": "address"
				},
				{
					"indexed": true,
					"internalType": "address",
					"name": "to",
					"type": "address"
				},
				{
					"indexed": true,
					"internalType": "uint256",
					"name": "tokenId",
					"type": "uint256"
				}
			],
			"name": "Transfer",
			"type": "event"
		},
		{
			"inputs": [
				{
					"internalType": "address",
					"name": "to",
					"type": "address"
				},
				{
					"internalType": "uint256",
					"name": "tokenId",
					"type": "uint256"
				}
			],
			"name": "approve",
			"outputs": [],
			"stateMutability": "nonpayable",
			"type": "function"
		},
		{
			"inputs": [
				{
					"internalType": "address",
					"name": "owner",
					"type": "address"
				}
			],
			"name": "balanceOf",
			"outputs": [
				{
					"internalType": "uint256",
					"name": "",
					"type": "uint256"
				}
			],
			"stateMutability": "view",
			"type": "function"
		},
		{
			"inputs": [
				{
					"internalType": "uint256",
					"name": "tokenId",
					"type": "uint256"
				}
			],
			"name": "getApproved",
			"outputs": [
				{
					"internalType": "address",
					"name": "",
					"type": "address"
				}
			],
			"stateMutability": "view",
			"type": "function"
		},
		{
			"inputs": [
				{
					"internalType": "address",
					"name": "owner",
					"type": "address"
				},
				{
					"internalType": "address",
					"name": "operator",
					"type": "address"
				}
			],
			"name": "isApprovedForAll",
			"outputs": [
				{
					"internalType": "bool",
					"name": "",
					"type": "bool"
				}
			],
			"stateMutability": "view",
			"type": "function"
		},
		{
			"inputs": [
				{
					"internalType": "address",
					"name": "to",
					"type": "address"
				},
				{
					"internalType": "uint256",
					"name": "tokenId",
					"type": "uint256"
				},
				{
					"internalType": "string",
					"name": "myTokenURI",
					"type": "string"
				}
			],
			"name": "mintNTF",
			"outputs": [],
			"stateMutability": "nonpayable",
			"type": "function"
		},
		{
			"inputs": [],
			"name": "name",
			"outputs": [
				{
					"internalType": "string",
					"name": "",
					"type": "string"
				}
			],
			"stateMutability": "view",
			"type": "function"
		},
		{
			"inputs": [
				{
					"internalType": "uint256",
					"name": "tokenId",
					"type": "uint256"
				}
			],
			"name": "ownerOf",
			"outputs": [
				{
					"internalType": "address",
					"name": "",
					"type": "address"
				}
			],
			"stateMutability": "view",
			"type": "function"
		},
		{
			"inputs": [
				{
					"internalType": "address",
					"name": "from",
					"type": "address"
				},
				{
					"internalType": "address",
					"name": "to",
					"type": "address"
				},
				{
					"internalType": "uint256",
					"name": "tokenId",
					"type": "uint256"
				}
			],
			"name": "safeTransferFrom",
			"outputs": [],
			"stateMutability": "nonpayable",
			"type": "function"
		},
		{
			"inputs": [
				{
					"internalType": "address",
					"name": "from",
					"type": "address"
				},
				{
					"internalType": "address",
					"name": "to",
					"type": "address"
				},
				{
					"internalType": "uint256",
					"name": "tokenId",
					"type": "uint256"
				},
				{
					"internalType": "bytes",
					"name": "data",
					"type": "bytes"
				}
			],
			"name": "safeTransferFrom",
			"outputs": [],
			"stateMutability": "nonpayable",
			"type": "function"
		},
		{
			"inputs": [
				{
					"internalType": "address",
					"name": "operator",
					"type": "address"
				},
				{
					"internalType": "bool",
					"name": "approved",
					"type": "bool"
				}
			],
			"name": "setApprovalForAll",
			"outputs": [],
			"stateMutability": "nonpayable",
			"type": "function"
		},
		{
			"inputs": [
				{
					"internalType": "bytes4",
					"name": "interfaceId",
					"type": "bytes4"
				}
			],
			"name": "supportsInterface",
			"outputs": [
				{
					"internalType": "bool",
					"name": "",
					"type": "bool"
				}
			],
			"stateMutability": "view",
			"type": "function"
		},
		{
			"inputs": [],
			"name": "symbol",
			"outputs": [
				{
					"internalType": "string",
					"name": "",
					"type": "string"
				}
			],
			"stateMutability": "view",
			"type": "function"
		},
		{
			"inputs": [
				{
					"internalType": "uint256",
					"name": "tokenId",
					"type": "uint256"
				}
			],
			"name": "tokenURI",
			"outputs": [
				{
					"internalType": "string",
					"name": "",
					"type": "string"
				}
			],
			"stateMutability": "view",
			"type": "function"
		},
		{
			"inputs": [
				{
					"internalType": "address",
					"name": "from",
					"type": "address"
				},
				{
					"internalType": "address",
					"name": "to",
					"type": "address"
				},
				{
					"internalType": "uint256",
					"name": "tokenId",
					"type": "uint256"
				}
			],
			"name": "transferFrom",
			"outputs": [],
			"stateMutability": "nonpayable",
			"type": "function"
		}
	]
}