{
	"Vote/Voting.sol": {
		"Vote": {
			"abi": [
				{
					"inputs": [
						{
							"internalType": "uint256",
							"name": "",
							"type": "uint256"
						}
					],
					"name": "acounts",
					"outputs": [
						{
							"internalType": "string",
							"name": "",
							"type": "string"
						}
					],
					"stateMutability": "view",
					"type": "function"
				},
				{
					"inputs": [
						{
							"internalType": "address",
							"name": "",
							"type": "address"
						}
					],
					"name": "exists",
					"outputs": [
						{
							"internalType": "bool",
							"name": "",
							"type": "bool"
						}
					],
					"stateMutability": "view",
					"type": "function"
				},
				{
					"inputs": [
						{
							"internalType": "string",
							"name": "user",
							"type": "string"
						}
					],
					"name": "getVotes",
					"outputs": [
						{
							"internalType": "uint256",
							"name": "",
							"type": "uint256"
						}
					],
					"stateMutability": "view",
					"type": "function"
				},
				{
					"inputs": [],
					"name": "resetVoters",
					"outputs": [],
					"stateMutability": "nonpayable",
					"type": "function"
				},
				{
					"inputs": [
						{
							"internalType": "string",
							"name": "user",
							"type": "string"
						}
					],
					"name": "setVotes",
					"outputs": [],
					"stateMutability": "nonpayable",
					"type": "function"
				},
				{
					"inputs": [
						{
							"internalType": "string",
							"name": "",
							"type": "string"
						}
					],
					"name": "votesMap",
					"outputs": [
						{
							"internalType": "uint256",
							"name": "",
							"type": "uint256"
						}
					],
					"stateMutability": "view",
					"type": "function"
				}
			],
			"devdoc": {
				"kind": "dev",
				"methods": {},
				"version": 1
			},
			"evm": {
				"assembly": "    /* \"Vote/Voting.sol\":57:768  contract Vote {... */\n  mstore(0x40, 0x80)\n  callvalue\n  dup1\n  iszero\n  tag_1\n  jumpi\n  0x00\n  dup1\n  revert\ntag_1:\n  pop\n  dataSize(sub_0)\n  dup1\n  dataOffset(sub_0)\n  0x00\n  codecopy\n  0x00\n  return\nstop\n\nsub_0: assembly {\n        /* \"Vote/Voting.sol\":57:768  contract Vote {... */\n      mstore(0x40, 0x80)\n      callvalue\n      dup1\n      iszero\n      tag_1\n      jumpi\n      0x00\n      dup1\n      revert\n    tag_1:\n      pop\n      jumpi(tag_2, lt(calldatasize, 0x04))\n      shr(0xe0, calldataload(0x00))\n      dup1\n      0x440cd69a\n      eq\n      tag_3\n      jumpi\n      dup1\n      0x54f064ca\n      eq\n      tag_4\n      jumpi\n      dup1\n      0x553bd397\n      eq\n      tag_5\n      jumpi\n      dup1\n      0x805265e5\n      eq\n      tag_6\n      jumpi\n      dup1\n      0x8ca87417\n      eq\n      tag_7\n      jumpi\n      dup1\n      0xf6a3d24e\n      eq\n      tag_8\n      jumpi\n    tag_2:\n      0x00\n      dup1\n      revert\n        /* \"Vote/Voting.sol\":77:119  mapping(string => uint256) public votesMap */\n    tag_3:\n      tag_9\n      0x04\n      dup1\n      calldatasize\n      sub\n      dup2\n      add\n      swap1\n      tag_10\n      swap2\n      swap1\n      tag_11\n      jump\t// in\n    tag_10:\n      tag_12\n      jump\t// in\n    tag_9:\n      mload(0x40)\n      tag_13\n      swap2\n      swap1\n      tag_14\n      jump\t// in\n    tag_13:\n      mload(0x40)\n      dup1\n      swap2\n      sub\n      swap1\n      return\n        /* \"Vote/Voting.sol\":202:520  function setVotes(string memory user) public {... */\n    tag_4:\n      tag_15\n      0x04\n      dup1\n      calldatasize\n      sub\n      dup2\n      add\n      swap1\n      tag_16\n      swap2\n      swap1\n      tag_11\n      jump\t// in\n    tag_16:\n      tag_17\n      jump\t// in\n    tag_15:\n      stop\n        /* \"Vote/Voting.sol\":638:766  function resetVoters() public {... */\n    tag_5:\n      tag_18\n      tag_19\n      jump\t// in\n    tag_18:\n      stop\n        /* \"Vote/Voting.sol\":526:632  function getVotes(string memory user) public view returns (uint256) {... */\n    tag_6:\n      tag_20\n      0x04\n      dup1\n      calldatasize\n      sub\n      dup2\n      add\n      swap1\n      tag_21\n      swap2\n      swap1\n      tag_11\n      jump\t// in\n    tag_21:\n      tag_22\n      jump\t// in\n    tag_20:\n      mload(0x40)\n      tag_23\n      swap2\n      swap1\n      tag_14\n      jump\t// in\n    tag_23:\n      mload(0x40)\n      dup1\n      swap2\n      sub\n      swap1\n      return\n        /* \"Vote/Voting.sol\":126:149  string[] public acounts */\n    tag_7:\n      tag_24\n      0x04\n      dup1\n      calldatasize\n      sub\n      dup2\n      add\n      swap1\n      tag_25\n      swap2\n      swap1\n      tag_26\n      jump\t// in\n    tag_25:\n      tag_27\n      jump\t// in\n    tag_24:\n      mload(0x40)\n      tag_28\n      swap2\n      swap1\n      tag_29\n      jump\t// in\n    tag_28:\n      mload(0x40)\n      dup1\n      swap2\n      sub\n      swap1\n      return\n        /* \"Vote/Voting.sol\":157:195  mapping(address => bool) public exists */\n    tag_8:\n      tag_30\n      0x04\n      dup1\n      calldatasize\n      sub\n      dup2\n      add\n      swap1\n      tag_31\n      swap2\n      swap1\n      tag_32\n      jump\t// in\n    tag_31:\n      tag_33\n      jump\t// in\n    tag_30:\n      mload(0x40)\n      tag_34\n      swap2\n      swap1\n      tag_35\n      jump\t// in\n    tag_34:\n      mload(0x40)\n      dup1\n      swap2\n      sub\n      swap1\n      return\n        /* \"Vote/Voting.sol\":77:119  mapping(string => uint256) public votesMap */\n    tag_12:\n      0x00\n      dup2\n      dup1\n      mload\n      0x20\n      dup2\n      add\n      dup3\n      add\n      dup1\n      mload\n      dup5\n      dup3\n      mstore\n      0x20\n      dup4\n      add\n      0x20\n      dup6\n      add\n      keccak256\n      dup2\n      dup4\n      mstore\n      dup1\n      swap6\n      pop\n      pop\n      pop\n      pop\n      pop\n      pop\n      0x00\n      swap2\n      pop\n      swap1\n      pop\n      sload\n      dup2\n      jump\t// out\n        /* \"Vote/Voting.sol\":202:520  function setVotes(string memory user) public {... */\n    tag_17:\n        /* \"Vote/Voting.sol\":262:270  votesMap */\n      0x00\n        /* \"Vote/Voting.sol\":271:275  user */\n      dup2\n        /* \"Vote/Voting.sol\":262:276  votesMap[user] */\n      mload(0x40)\n      tag_37\n      swap2\n      swap1\n      tag_38\n      jump\t// in\n    tag_37:\n      swap1\n      dup2\n      mstore\n      0x20\n      add\n      mload(0x40)\n      dup1\n      swap2\n      sub\n      swap1\n      keccak256\n      0x00\n        /* \"Vote/Voting.sol\":262:278  votesMap[user]++ */\n      dup2\n      sload\n      dup1\n      swap3\n      swap2\n      swap1\n      tag_39\n      swap1\n      tag_40\n      jump\t// in\n    tag_39:\n      swap2\n      swap1\n      pop\n      sstore\n      pop\n        /* \"Vote/Voting.sol\":293:299  uint i */\n      0x00\n        /* \"Vote/Voting.sol\":289:477  for(uint i = 0;i < acounts.length;i++) {... */\n    tag_41:\n        /* \"Vote/Voting.sol\":308:315  acounts */\n      0x01\n        /* \"Vote/Voting.sol\":308:322  acounts.length */\n      dup1\n      sload\n      swap1\n      pop\n        /* \"Vote/Voting.sol\":304:305  i */\n      dup2\n        /* \"Vote/Voting.sol\":304:322  i < acounts.length */\n      lt\n        /* \"Vote/Voting.sol\":289:477  for(uint i = 0;i < acounts.length;i++) {... */\n      iszero\n      tag_42\n      jumpi\n        /* \"Vote/Voting.sol\":406:410  user */\n      dup2\n        /* \"Vote/Voting.sol\":395:411  abi.encode(user) */\n      add(0x20, mload(0x40))\n      tag_44\n      swap2\n      swap1\n      tag_29\n      jump\t// in\n    tag_44:\n      mload(0x40)\n      0x20\n      dup2\n      dup4\n      sub\n      sub\n      dup2\n      mstore\n      swap1\n      0x40\n      mstore\n        /* \"Vote/Voting.sol\":385:412  keccak256(abi.encode(user)) */\n      dup1\n      mload\n      swap1\n      0x20\n      add\n      keccak256\n        /* \"Vote/Voting.sol\":368:375  acounts */\n      0x01\n        /* \"Vote/Voting.sol\":376:377  i */\n      dup3\n        /* \"Vote/Voting.sol\":368:378  acounts[i] */\n      dup2\n      sload\n      dup2\n      lt\n      tag_45\n      jumpi\n      tag_46\n      tag_47\n      jump\t// in\n    tag_46:\n    tag_45:\n      swap1\n      0x00\n      mstore\n      keccak256(0x00, 0x20)\n      add\n        /* \"Vote/Voting.sol\":357:379  abi.encode(acounts[i]) */\n      add(0x20, mload(0x40))\n      tag_49\n      swap2\n      swap1\n      tag_50\n      jump\t// in\n    tag_49:\n      mload(0x40)\n      0x20\n      dup2\n      dup4\n      sub\n      sub\n      dup2\n      mstore\n      swap1\n      0x40\n      mstore\n        /* \"Vote/Voting.sol\":347:380  keccak256(abi.encode(acounts[i])) */\n      dup1\n      mload\n      swap1\n      0x20\n      add\n      keccak256\n        /* \"Vote/Voting.sol\":347:412  keccak256(abi.encode(acounts[i])) ==  keccak256(abi.encode(user)) */\n      sub\n        /* \"Vote/Voting.sol\":342:454  if ( keccak256(abi.encode(acounts[i])) ==  keccak256(abi.encode(user))) {... */\n      tag_51\n      jumpi\n        /* \"Vote/Voting.sol\":432:440  return ; */\n      pop\n      jump(tag_36)\n        /* \"Vote/Voting.sol\":342:454  if ( keccak256(abi.encode(acounts[i])) ==  keccak256(abi.encode(user))) {... */\n    tag_51:\n        /* \"Vote/Voting.sol\":323:326  i++ */\n      dup1\n      dup1\n      0x01\n      add\n      swap2\n      pop\n      pop\n        /* \"Vote/Voting.sol\":289:477  for(uint i = 0;i < acounts.length;i++) {... */\n      jump(tag_41)\n    tag_42:\n      pop\n        /* \"Vote/Voting.sol\":486:493  acounts */\n      0x01\n        /* \"Vote/Voting.sol\":499:503  user */\n      dup2\n        /* \"Vote/Voting.sol\":486:504  acounts.push(user) */\n      swap1\n      dup1\n      0x01\n      dup2\n      sload\n      add\n      dup1\n      dup3\n      sstore\n      dup1\n      swap2\n      pop\n      pop\n      0x01\n      swap1\n      sub\n      swap1\n      0x00\n      mstore\n      keccak256(0x00, 0x20)\n      add\n      0x00\n      swap1\n      swap2\n      swap1\n      swap2\n      swap1\n      swap2\n      pop\n      swap1\n      dup2\n      tag_53\n      swap2\n      swap1\n      tag_54\n      jump\t// in\n    tag_53:\n      pop\n        /* \"Vote/Voting.sol\":202:520  function setVotes(string memory user) public {... */\n    tag_36:\n      pop\n      jump\t// out\n        /* \"Vote/Voting.sol\":638:766  function resetVoters() public {... */\n    tag_19:\n        /* \"Vote/Voting.sol\":682:688  uint i */\n      0x00\n        /* \"Vote/Voting.sol\":678:760  for(uint i=0;i<acounts.length;i++) {... */\n    tag_56:\n        /* \"Vote/Voting.sol\":693:700  acounts */\n      0x01\n        /* \"Vote/Voting.sol\":693:707  acounts.length */\n      dup1\n      sload\n      swap1\n      pop\n        /* \"Vote/Voting.sol\":691:692  i */\n      dup2\n        /* \"Vote/Voting.sol\":691:707  i<acounts.length */\n      lt\n        /* \"Vote/Voting.sol\":678:760  for(uint i=0;i<acounts.length;i++) {... */\n      iszero\n      tag_57\n      jumpi\n        /* \"Vote/Voting.sol\":748:749  0 */\n      0x00\n        /* \"Vote/Voting.sol\":727:735  votesMap */\n      dup1\n        /* \"Vote/Voting.sol\":736:743  acounts */\n      0x01\n        /* \"Vote/Voting.sol\":744:745  i */\n      dup4\n        /* \"Vote/Voting.sol\":736:746  acounts[i] */\n      dup2\n      sload\n      dup2\n      lt\n      tag_59\n      jumpi\n      tag_60\n      tag_47\n      jump\t// in\n    tag_60:\n    tag_59:\n      swap1\n      0x00\n      mstore\n      keccak256(0x00, 0x20)\n      add\n        /* \"Vote/Voting.sol\":727:747  votesMap[acounts[i]] */\n      mload(0x40)\n      tag_62\n      swap2\n      swap1\n      tag_63\n      jump\t// in\n    tag_62:\n      swap1\n      dup2\n      mstore\n      0x20\n      add\n      mload(0x40)\n      dup1\n      swap2\n      sub\n      swap1\n      keccak256\n        /* \"Vote/Voting.sol\":727:749  votesMap[acounts[i]]=0 */\n      dup2\n      swap1\n      sstore\n      pop\n        /* \"Vote/Voting.sol\":708:711  i++ */\n      dup1\n      dup1\n      0x01\n      add\n      swap2\n      pop\n      pop\n        /* \"Vote/Voting.sol\":678:760  for(uint i=0;i<acounts.length;i++) {... */\n      jump(tag_56)\n    tag_57:\n      pop\n        /* \"Vote/Voting.sol\":638:766  function resetVoters() public {... */\n      jump\t// out\n        /* \"Vote/Voting.sol\":526:632  function getVotes(string memory user) public view returns (uint256) {... */\n    tag_22:\n        /* \"Vote/Voting.sol\":585:592  uint256 */\n      0x00\n        /* \"Vote/Voting.sol\":611:619  votesMap */\n      dup1\n        /* \"Vote/Voting.sol\":620:624  user */\n      dup3\n        /* \"Vote/Voting.sol\":611:625  votesMap[user] */\n      mload(0x40)\n      tag_65\n      swap2\n      swap1\n      tag_38\n      jump\t// in\n    tag_65:\n      swap1\n      dup2\n      mstore\n      0x20\n      add\n      mload(0x40)\n      dup1\n      swap2\n      sub\n      swap1\n      keccak256\n      sload\n        /* \"Vote/Voting.sol\":604:625  return votesMap[user] */\n      swap1\n      pop\n        /* \"Vote/Voting.sol\":526:632  function getVotes(string memory user) public view returns (uint256) {... */\n      swap2\n      swap1\n      pop\n      jump\t// out\n        /* \"Vote/Voting.sol\":126:149  string[] public acounts */\n    tag_27:\n      0x01\n      dup2\n      dup2\n      sload\n      dup2\n      lt\n      tag_66\n      jumpi\n      0x00\n      dup1\n      revert\n    tag_66:\n      swap1\n      0x00\n      mstore\n      keccak256(0x00, 0x20)\n      add\n      0x00\n      swap2\n      pop\n      swap1\n      pop\n      dup1\n      sload\n      tag_68\n      swap1\n      tag_69\n      jump\t// in\n    tag_68:\n      dup1\n      0x1f\n      add\n      0x20\n      dup1\n      swap2\n      div\n      mul\n      0x20\n      add\n      mload(0x40)\n      swap1\n      dup2\n      add\n      0x40\n      mstore\n      dup1\n      swap3\n      swap2\n      swap1\n      dup2\n      dup2\n      mstore\n      0x20\n      add\n      dup3\n      dup1\n      sload\n      tag_70\n      swap1\n      tag_69\n      jump\t// in\n    tag_70:\n      dup1\n      iszero\n      tag_71\n      jumpi\n      dup1\n      0x1f\n      lt\n      tag_72\n      jumpi\n      0x0100\n      dup1\n      dup4\n      sload\n      div\n      mul\n      dup4\n      mstore\n      swap2\n      0x20\n      add\n      swap2\n      jump(tag_71)\n    tag_72:\n      dup3\n      add\n      swap2\n      swap1\n      0x00\n      mstore\n      keccak256(0x00, 0x20)\n      swap1\n    tag_73:\n      dup2\n      sload\n      dup2\n      mstore\n      swap1\n      0x01\n      add\n      swap1\n      0x20\n      add\n      dup1\n      dup4\n      gt\n      tag_73\n      jumpi\n      dup3\n      swap1\n      sub\n      0x1f\n      and\n      dup3\n      add\n      swap2\n    tag_71:\n      pop\n      pop\n      pop\n      pop\n      pop\n      dup2\n      jump\t// out\n        /* \"Vote/Voting.sol\":157:195  mapping(address => bool) public exists */\n    tag_33:\n      mstore(0x20, 0x02)\n      dup1\n      0x00\n      mstore\n      keccak256(0x00, 0x40)\n      0x00\n      swap2\n      pop\n      sload\n      swap1\n      0x0100\n      exp\n      swap1\n      div\n      0xff\n      and\n      dup2\n      jump\t// out\n        /* \"#utility.yul\":7:82   */\n    tag_74:\n        /* \"#utility.yul\":40:46   */\n      0x00\n        /* \"#utility.yul\":73:75   */\n      0x40\n        /* \"#utility.yul\":67:76   */\n      mload\n        /* \"#utility.yul\":57:76   */\n      swap1\n      pop\n        /* \"#utility.yul\":7:82   */\n      swap1\n      jump\t// out\n        /* \"#utility.yul\":88:205   */\n    tag_75:\n        /* \"#utility.yul\":197:198   */\n      0x00\n        /* \"#utility.yul\":194:195   */\n      dup1\n        /* \"#utility.yul\":187:199   */\n      revert\n        /* \"#utility.yul\":211:328   */\n    tag_76:\n        /* \"#utility.yul\":320:321   */\n      0x00\n        /* \"#utility.yul\":317:318   */\n      dup1\n        /* \"#utility.yul\":310:322   */\n      revert\n        /* \"#utility.yul\":334:451   */\n    tag_77:\n        /* \"#utility.yul\":443:444   */\n      0x00\n        /* \"#utility.yul\":440:441   */\n      dup1\n        /* \"#utility.yul\":433:445   */\n      revert\n        /* \"#utility.yul\":457:574   */\n    tag_78:\n        /* \"#utility.yul\":566:567   */\n      0x00\n        /* \"#utility.yul\":563:564   */\n      dup1\n        /* \"#utility.yul\":556:568   */\n      revert\n        /* \"#utility.yul\":580:682   */\n    tag_79:\n        /* \"#utility.yul\":621:627   */\n      0x00\n        /* \"#utility.yul\":672:674   */\n      0x1f\n        /* \"#utility.yul\":668:675   */\n      not\n        /* \"#utility.yul\":663:665   */\n      0x1f\n        /* \"#utility.yul\":656:661   */\n      dup4\n        /* \"#utility.yul\":652:666   */\n      add\n        /* \"#utility.yul\":648:676   */\n      and\n        /* \"#utility.yul\":638:676   */\n      swap1\n      pop\n        /* \"#utility.yul\":580:682   */\n      swap2\n      swap1\n      pop\n      jump\t// out\n        /* \"#utility.yul\":688:868   */\n    tag_80:\n        /* \"#utility.yul\":736:813   */\n      0x4e487b7100000000000000000000000000000000000000000000000000000000\n        /* \"#utility.yul\":733:734   */\n      0x00\n        /* \"#utility.yul\":726:814   */\n      mstore\n        /* \"#utility.yul\":833:837   */\n      0x41\n        /* \"#utility.yul\":830:831   */\n      0x04\n        /* \"#utility.yul\":823:838   */\n      mstore\n        /* \"#utility.yul\":857:861   */\n      0x24\n        /* \"#utility.yul\":854:855   */\n      0x00\n        /* \"#utility.yul\":847:862   */\n      revert\n        /* \"#utility.yul\":874:1155   */\n    tag_81:\n        /* \"#utility.yul\":957:984   */\n      tag_131\n        /* \"#utility.yul\":979:983   */\n      dup3\n        /* \"#utility.yul\":957:984   */\n      tag_79\n      jump\t// in\n    tag_131:\n        /* \"#utility.yul\":949:955   */\n      dup2\n        /* \"#utility.yul\":945:985   */\n      add\n        /* \"#utility.yul\":1087:1093   */\n      dup2\n        /* \"#utility.yul\":1075:1085   */\n      dup2\n        /* \"#utility.yul\":1072:1094   */\n      lt\n        /* \"#utility.yul\":1051:1069   */\n      0xffffffffffffffff\n        /* \"#utility.yul\":1039:1049   */\n      dup3\n        /* \"#utility.yul\":1036:1070   */\n      gt\n        /* \"#utility.yul\":1033:1095   */\n      or\n        /* \"#utility.yul\":1030:1118   */\n      iszero\n      tag_132\n      jumpi\n        /* \"#utility.yul\":1098:1116   */\n      tag_133\n      tag_80\n      jump\t// in\n    tag_133:\n        /* \"#utility.yul\":1030:1118   */\n    tag_132:\n        /* \"#utility.yul\":1138:1148   */\n      dup1\n        /* \"#utility.yul\":1134:1136   */\n      0x40\n        /* \"#utility.yul\":1127:1149   */\n      mstore\n        /* \"#utility.yul\":917:1155   */\n      pop\n        /* \"#utility.yul\":874:1155   */\n      pop\n      pop\n      jump\t// out\n        /* \"#utility.yul\":1161:1290   */\n    tag_82:\n        /* \"#utility.yul\":1195:1201   */\n      0x00\n        /* \"#utility.yul\":1222:1242   */\n      tag_135\n      tag_74\n      jump\t// in\n    tag_135:\n        /* \"#utility.yul\":1212:1242   */\n      swap1\n      pop\n        /* \"#utility.yul\":1251:1284   */\n      tag_136\n        /* \"#utility.yul\":1279:1283   */\n      dup3\n        /* \"#utility.yul\":1271:1277   */\n      dup3\n        /* \"#utility.yul\":1251:1284   */\n      tag_81\n      jump\t// in\n    tag_136:\n        /* \"#utility.yul\":1161:1290   */\n      swap2\n      swap1\n      pop\n      jump\t// out\n        /* \"#utility.yul\":1296:1604   */\n    tag_83:\n        /* \"#utility.yul\":1358:1362   */\n      0x00\n        /* \"#utility.yul\":1448:1466   */\n      0xffffffffffffffff\n        /* \"#utility.yul\":1440:1446   */\n      dup3\n        /* \"#utility.yul\":1437:1467   */\n      gt\n        /* \"#utility.yul\":1434:1490   */\n      iszero\n      tag_138\n      jumpi\n        /* \"#utility.yul\":1470:1488   */\n      tag_139\n      tag_80\n      jump\t// in\n    tag_139:\n        /* \"#utility.yul\":1434:1490   */\n    tag_138:\n        /* \"#utility.yul\":1508:1537   */\n      tag_140\n        /* \"#utility.yul\":1530:1536   */\n      dup3\n        /* \"#utility.yul\":1508:1537   */\n      tag_79\n      jump\t// in\n    tag_140:\n        /* \"#utility.yul\":1500:1537   */\n      swap1\n      pop\n        /* \"#utility.yul\":1592:1596   */\n      0x20\n        /* \"#utility.yul\":1586:1590   */\n      dup2\n        /* \"#utility.yul\":1582:1597   */\n      add\n        /* \"#utility.yul\":1574:1597   */\n      swap1\n      pop\n        /* \"#utility.yul\":1296:1604   */\n      swap2\n      swap1\n      pop\n      jump\t// out\n        /* \"#utility.yul\":1610:1758   */\n    tag_84:\n        /* \"#utility.yul\":1708:1714   */\n      dup3\n        /* \"#utility.yul\":1703:1706   */\n      dup2\n        /* \"#utility.yul\":1698:1701   */\n      dup4\n        /* \"#utility.yul\":1685:1715   */\n      calldatacopy\n        /* \"#utility.yul\":1749:1750   */\n      0x00\n        /* \"#utility.yul\":1740:1746   */\n      dup4\n        /* \"#utility.yul\":1735:1738   */\n      dup4\n        /* \"#utility.yul\":1731:1747   */\n      add\n        /* \"#utility.yul\":1724:1751   */\n      mstore\n        /* \"#utility.yul\":1610:1758   */\n      pop\n      pop\n      pop\n      jump\t// out\n        /* \"#utility.yul\":1764:2189   */\n    tag_85:\n        /* \"#utility.yul\":1842:1847   */\n      0x00\n        /* \"#utility.yul\":1867:1933   */\n      tag_143\n        /* \"#utility.yul\":1883:1932   */\n      tag_144\n        /* \"#utility.yul\":1925:1931   */\n      dup5\n        /* \"#utility.yul\":1883:1932   */\n      tag_83\n      jump\t// in\n    tag_144:\n        /* \"#utility.yul\":1867:1933   */\n      tag_82\n      jump\t// in\n    tag_143:\n        /* \"#utility.yul\":1858:1933   */\n      swap1\n      pop\n        /* \"#utility.yul\":1956:1962   */\n      dup3\n        /* \"#utility.yul\":1949:1954   */\n      dup2\n        /* \"#utility.yul\":1942:1963   */\n      mstore\n        /* \"#utility.yul\":1994:1998   */\n      0x20\n        /* \"#utility.yul\":1987:1992   */\n      dup2\n        /* \"#utility.yul\":1983:1999   */\n      add\n        /* \"#utility.yul\":2032:2035   */\n      dup5\n        /* \"#utility.yul\":2023:2029   */\n      dup5\n        /* \"#utility.yul\":2018:2021   */\n      dup5\n        /* \"#utility.yul\":2014:2030   */\n      add\n        /* \"#utility.yul\":2011:2036   */\n      gt\n        /* \"#utility.yul\":2008:2120   */\n      iszero\n      tag_145\n      jumpi\n        /* \"#utility.yul\":2039:2118   */\n      tag_146\n      tag_78\n      jump\t// in\n    tag_146:\n        /* \"#utility.yul\":2008:2120   */\n    tag_145:\n        /* \"#utility.yul\":2129:2183   */\n      tag_147\n        /* \"#utility.yul\":2176:2182   */\n      dup5\n        /* \"#utility.yul\":2171:2174   */\n      dup3\n        /* \"#utility.yul\":2166:2169   */\n      dup6\n        /* \"#utility.yul\":2129:2183   */\n      tag_84\n      jump\t// in\n    tag_147:\n        /* \"#utility.yul\":1848:2189   */\n      pop\n        /* \"#utility.yul\":1764:2189   */\n      swap4\n      swap3\n      pop\n      pop\n      pop\n      jump\t// out\n        /* \"#utility.yul\":2209:2549   */\n    tag_86:\n        /* \"#utility.yul\":2265:2270   */\n      0x00\n        /* \"#utility.yul\":2314:2317   */\n      dup3\n        /* \"#utility.yul\":2307:2311   */\n      0x1f\n        /* \"#utility.yul\":2299:2305   */\n      dup4\n        /* \"#utility.yul\":2295:2312   */\n      add\n        /* \"#utility.yul\":2291:2318   */\n      slt\n        /* \"#utility.yul\":2281:2403   */\n      tag_149\n      jumpi\n        /* \"#utility.yul\":2322:2401   */\n      tag_150\n      tag_77\n      jump\t// in\n    tag_150:\n        /* \"#utility.yul\":2281:2403   */\n    tag_149:\n        /* \"#utility.yul\":2439:2445   */\n      dup2\n        /* \"#utility.yul\":2426:2446   */\n      calldataload\n        /* \"#utility.yul\":2464:2543   */\n      tag_151\n        /* \"#utility.yul\":2539:2542   */\n      dup5\n        /* \"#utility.yul\":2531:2537   */\n      dup3\n        /* \"#utility.yul\":2524:2528   */\n      0x20\n        /* \"#utility.yul\":2516:2522   */\n      dup7\n        /* \"#utility.yul\":2512:2529   */\n      add\n        /* \"#utility.yul\":2464:2543   */\n      tag_85\n      jump\t// in\n    tag_151:\n        /* \"#utility.yul\":2455:2543   */\n      swap2\n      pop\n        /* \"#utility.yul\":2271:2549   */\n      pop\n        /* \"#utility.yul\":2209:2549   */\n      swap3\n      swap2\n      pop\n      pop\n      jump\t// out\n        /* \"#utility.yul\":2555:3064   */\n    tag_11:\n        /* \"#utility.yul\":2624:2630   */\n      0x00\n        /* \"#utility.yul\":2673:2675   */\n      0x20\n        /* \"#utility.yul\":2661:2670   */\n      dup3\n        /* \"#utility.yul\":2652:2659   */\n      dup5\n        /* \"#utility.yul\":2648:2671   */\n      sub\n        /* \"#utility.yul\":2644:2676   */\n      slt\n        /* \"#utility.yul\":2641:2760   */\n      iszero\n      tag_153\n      jumpi\n        /* \"#utility.yul\":2679:2758   */\n      tag_154\n      tag_75\n      jump\t// in\n    tag_154:\n        /* \"#utility.yul\":2641:2760   */\n    tag_153:\n        /* \"#utility.yul\":2827:2828   */\n      0x00\n        /* \"#utility.yul\":2816:2825   */\n      dup3\n        /* \"#utility.yul\":2812:2829   */\n      add\n        /* \"#utility.yul\":2799:2830   */\n      calldataload\n        /* \"#utility.yul\":2857:2875   */\n      0xffffffffffffffff\n        /* \"#utility.yul\":2849:2855   */\n      dup2\n        /* \"#utility.yul\":2846:2876   */\n      gt\n        /* \"#utility.yul\":2843:2960   */\n      iszero\n      tag_155\n      jumpi\n        /* \"#utility.yul\":2879:2958   */\n      tag_156\n      tag_76\n      jump\t// in\n    tag_156:\n        /* \"#utility.yul\":2843:2960   */\n    tag_155:\n        /* \"#utility.yul\":2984:3047   */\n      tag_157\n        /* \"#utility.yul\":3039:3046   */\n      dup5\n        /* \"#utility.yul\":3030:3036   */\n      dup3\n        /* \"#utility.yul\":3019:3028   */\n      dup6\n        /* \"#utility.yul\":3015:3037   */\n      add\n        /* \"#utility.yul\":2984:3047   */\n      tag_86\n      jump\t// in\n    tag_157:\n        /* \"#utility.yul\":2974:3047   */\n      swap2\n      pop\n        /* \"#utility.yul\":2770:3057   */\n      pop\n        /* \"#utility.yul\":2555:3064   */\n      swap3\n      swap2\n      pop\n      pop\n      jump\t// out\n        /* \"#utility.yul\":3070:3147   */\n    tag_87:\n        /* \"#utility.yul\":3107:3114   */\n      0x00\n        /* \"#utility.yul\":3136:3141   */\n      dup2\n        /* \"#utility.yul\":3125:3141   */\n      swap1\n      pop\n        /* \"#utility.yul\":3070:3147   */\n      swap2\n      swap1\n      pop\n      jump\t// out\n        /* \"#utility.yul\":3153:3271   */\n    tag_88:\n        /* \"#utility.yul\":3240:3264   */\n      tag_160\n        /* \"#utility.yul\":3258:3263   */\n      dup2\n        /* \"#utility.yul\":3240:3264   */\n      tag_87\n      jump\t// in\n    tag_160:\n        /* \"#utility.yul\":3235:3238   */\n      dup3\n        /* \"#utility.yul\":3228:3265   */\n      mstore\n        /* \"#utility.yul\":3153:3271   */\n      pop\n      pop\n      jump\t// out\n        /* \"#utility.yul\":3277:3499   */\n    tag_14:\n        /* \"#utility.yul\":3370:3374   */\n      0x00\n        /* \"#utility.yul\":3408:3410   */\n      0x20\n        /* \"#utility.yul\":3397:3406   */\n      dup3\n        /* \"#utility.yul\":3393:3411   */\n      add\n        /* \"#utility.yul\":3385:3411   */\n      swap1\n      pop\n        /* \"#utility.yul\":3421:3492   */\n      tag_162\n        /* \"#utility.yul\":3489:3490   */\n      0x00\n        /* \"#utility.yul\":3478:3487   */\n      dup4\n        /* \"#utility.yul\":3474:3491   */\n      add\n        /* \"#utility.yul\":3465:3471   */\n      dup5\n        /* \"#utility.yul\":3421:3492   */\n      tag_88\n      jump\t// in\n    tag_162:\n        /* \"#utility.yul\":3277:3499   */\n      swap3\n      swap2\n      pop\n      pop\n      jump\t// out\n        /* \"#utility.yul\":3505:3627   */\n    tag_89:\n        /* \"#utility.yul\":3578:3602   */\n      tag_164\n        /* \"#utility.yul\":3596:3601   */\n      dup2\n        /* \"#utility.yul\":3578:3602   */\n      tag_87\n      jump\t// in\n    tag_164:\n        /* \"#utility.yul\":3571:3576   */\n      dup2\n        /* \"#utility.yul\":3568:3603   */\n      eq\n        /* \"#utility.yul\":3558:3621   */\n      tag_165\n      jumpi\n        /* \"#utility.yul\":3617:3618   */\n      0x00\n        /* \"#utility.yul\":3614:3615   */\n      dup1\n        /* \"#utility.yul\":3607:3619   */\n      revert\n        /* \"#utility.yul\":3558:3621   */\n    tag_165:\n        /* \"#utility.yul\":3505:3627   */\n      pop\n      jump\t// out\n        /* \"#utility.yul\":3633:3772   */\n    tag_90:\n        /* \"#utility.yul\":3679:3684   */\n      0x00\n        /* \"#utility.yul\":3717:3723   */\n      dup2\n        /* \"#utility.yul\":3704:3724   */\n      calldataload\n        /* \"#utility.yul\":3695:3724   */\n      swap1\n      pop\n        /* \"#utility.yul\":3733:3766   */\n      tag_167\n        /* \"#utility.yul\":3760:3765   */\n      dup2\n        /* \"#utility.yul\":3733:3766   */\n      tag_89\n      jump\t// in\n    tag_167:\n        /* \"#utility.yul\":3633:3772   */\n      swap3\n      swap2\n      pop\n      pop\n      jump\t// out\n        /* \"#utility.yul\":3778:4107   */\n    tag_26:\n        /* \"#utility.yul\":3837:3843   */\n      0x00\n        /* \"#utility.yul\":3886:3888   */\n      0x20\n        /* \"#utility.yul\":3874:3883   */\n      dup3\n        /* \"#utility.yul\":3865:3872   */\n      dup5\n        /* \"#utility.yul\":3861:3884   */\n      sub\n        /* \"#utility.yul\":3857:3889   */\n      slt\n        /* \"#utility.yul\":3854:3973   */\n      iszero\n      tag_169\n      jumpi\n        /* \"#utility.yul\":3892:3971   */\n      tag_170\n      tag_75\n      jump\t// in\n    tag_170:\n        /* \"#utility.yul\":3854:3973   */\n    tag_169:\n        /* \"#utility.yul\":4012:4013   */\n      0x00\n        /* \"#utility.yul\":4037:4090   */\n      tag_171\n        /* \"#utility.yul\":4082:4089   */\n      dup5\n        /* \"#utility.yul\":4073:4079   */\n      dup3\n        /* \"#utility.yul\":4062:4071   */\n      dup6\n        /* \"#utility.yul\":4058:4080   */\n      add\n        /* \"#utility.yul\":4037:4090   */\n      tag_90\n      jump\t// in\n    tag_171:\n        /* \"#utility.yul\":4027:4090   */\n      swap2\n      pop\n        /* \"#utility.yul\":3983:4100   */\n      pop\n        /* \"#utility.yul\":3778:4107   */\n      swap3\n      swap2\n      pop\n      pop\n      jump\t// out\n        /* \"#utility.yul\":4113:4212   */\n    tag_91:\n        /* \"#utility.yul\":4165:4171   */\n      0x00\n        /* \"#utility.yul\":4199:4204   */\n      dup2\n        /* \"#utility.yul\":4193:4205   */\n      mload\n        /* \"#utility.yul\":4183:4205   */\n      swap1\n      pop\n        /* \"#utility.yul\":4113:4212   */\n      swap2\n      swap1\n      pop\n      jump\t// out\n        /* \"#utility.yul\":4218:4387   */\n    tag_92:\n        /* \"#utility.yul\":4302:4313   */\n      0x00\n        /* \"#utility.yul\":4336:4342   */\n      dup3\n        /* \"#utility.yul\":4331:4334   */\n      dup3\n        /* \"#utility.yul\":4324:4343   */\n      mstore\n        /* \"#utility.yul\":4376:4380   */\n      0x20\n        /* \"#utility.yul\":4371:4374   */\n      dup3\n        /* \"#utility.yul\":4367:4381   */\n      add\n        /* \"#utility.yul\":4352:4381   */\n      swap1\n      pop\n        /* \"#utility.yul\":4218:4387   */\n      swap3\n      swap2\n      pop\n      pop\n      jump\t// out\n        /* \"#utility.yul\":4393:4641   */\n    tag_93:\n        /* \"#utility.yul\":4475:4476   */\n      0x00\n        /* \"#utility.yul\":4485:4598   */\n    tag_175:\n        /* \"#utility.yul\":4499:4505   */\n      dup4\n        /* \"#utility.yul\":4496:4497   */\n      dup2\n        /* \"#utility.yul\":4493:4506   */\n      lt\n        /* \"#utility.yul\":4485:4598   */\n      iszero\n      tag_177\n      jumpi\n        /* \"#utility.yul\":4584:4585   */\n      dup1\n        /* \"#utility.yul\":4579:4582   */\n      dup3\n        /* \"#utility.yul\":4575:4586   */\n      add\n        /* \"#utility.yul\":4569:4587   */\n      mload\n        /* \"#utility.yul\":4565:4566   */\n      dup2\n        /* \"#utility.yul\":4560:4563   */\n      dup5\n        /* \"#utility.yul\":4556:4567   */\n      add\n        /* \"#utility.yul\":4549:4588   */\n      mstore\n        /* \"#utility.yul\":4521:4523   */\n      0x20\n        /* \"#utility.yul\":4518:4519   */\n      dup2\n        /* \"#utility.yul\":4514:4524   */\n      add\n        /* \"#utility.yul\":4509:4524   */\n      swap1\n      pop\n        /* \"#utility.yul\":4485:4598   */\n      jump(tag_175)\n    tag_177:\n        /* \"#utility.yul\":4632:4633   */\n      0x00\n        /* \"#utility.yul\":4623:4629   */\n      dup5\n        /* \"#utility.yul\":4618:4621   */\n      dup5\n        /* \"#utility.yul\":4614:4630   */\n      add\n        /* \"#utility.yul\":4607:4634   */\n      mstore\n        /* \"#utility.yul\":4455:4641   */\n      pop\n        /* \"#utility.yul\":4393:4641   */\n      pop\n      pop\n      pop\n      jump\t// out\n        /* \"#utility.yul\":4647:5024   */\n    tag_94:\n        /* \"#utility.yul\":4735:4738   */\n      0x00\n        /* \"#utility.yul\":4763:4802   */\n      tag_179\n        /* \"#utility.yul\":4796:4801   */\n      dup3\n        /* \"#utility.yul\":4763:4802   */\n      tag_91\n      jump\t// in\n    tag_179:\n        /* \"#utility.yul\":4818:4889   */\n      tag_180\n        /* \"#utility.yul\":4882:4888   */\n      dup2\n        /* \"#utility.yul\":4877:4880   */\n      dup6\n        /* \"#utility.yul\":4818:4889   */\n      tag_92\n      jump\t// in\n    tag_180:\n        /* \"#utility.yul\":4811:4889   */\n      swap4\n      pop\n        /* \"#utility.yul\":4898:4963   */\n      tag_181\n        /* \"#utility.yul\":4956:4962   */\n      dup2\n        /* \"#utility.yul\":4951:4954   */\n      dup6\n        /* \"#utility.yul\":4944:4948   */\n      0x20\n        /* \"#utility.yul\":4937:4942   */\n      dup7\n        /* \"#utility.yul\":4933:4949   */\n      add\n        /* \"#utility.yul\":4898:4963   */\n      tag_93\n      jump\t// in\n    tag_181:\n        /* \"#utility.yul\":4988:5017   */\n      tag_182\n        /* \"#utility.yul\":5010:5016   */\n      dup2\n        /* \"#utility.yul\":4988:5017   */\n      tag_79\n      jump\t// in\n    tag_182:\n        /* \"#utility.yul\":4983:4986   */\n      dup5\n        /* \"#utility.yul\":4979:5018   */\n      add\n        /* \"#utility.yul\":4972:5018   */\n      swap2\n      pop\n        /* \"#utility.yul\":4739:5024   */\n      pop\n        /* \"#utility.yul\":4647:5024   */\n      swap3\n      swap2\n      pop\n      pop\n      jump\t// out\n        /* \"#utility.yul\":5030:5343   */\n    tag_29:\n        /* \"#utility.yul\":5143:5147   */\n      0x00\n        /* \"#utility.yul\":5181:5183   */\n      0x20\n        /* \"#utility.yul\":5170:5179   */\n      dup3\n        /* \"#utility.yul\":5166:5184   */\n      add\n        /* \"#utility.yul\":5158:5184   */\n      swap1\n      pop\n        /* \"#utility.yul\":5230:5239   */\n      dup2\n        /* \"#utility.yul\":5224:5228   */\n      dup2\n        /* \"#utility.yul\":5220:5240   */\n      sub\n        /* \"#utility.yul\":5216:5217   */\n      0x00\n        /* \"#utility.yul\":5205:5214   */\n      dup4\n        /* \"#utility.yul\":5201:5218   */\n      add\n        /* \"#utility.yul\":5194:5241   */\n      mstore\n        /* \"#utility.yul\":5258:5336   */\n      tag_184\n        /* \"#utility.yul\":5331:5335   */\n      dup2\n        /* \"#utility.yul\":5322:5328   */\n      dup5\n        /* \"#utility.yul\":5258:5336   */\n      tag_94\n      jump\t// in\n    tag_184:\n        /* \"#utility.yul\":5250:5336   */\n      swap1\n      pop\n        /* \"#utility.yul\":5030:5343   */\n      swap3\n      swap2\n      pop\n      pop\n      jump\t// out\n        /* \"#utility.yul\":5349:5475   */\n    tag_95:\n        /* \"#utility.yul\":5386:5393   */\n      0x00\n        /* \"#utility.yul\":5426:5468   */\n      0xffffffffffffffffffffffffffffffffffffffff\n        /* \"#utility.yul\":5419:5424   */\n      dup3\n        /* \"#utility.yul\":5415:5469   */\n      and\n        /* \"#utility.yul\":5404:5469   */\n      swap1\n      pop\n        /* \"#utility.yul\":5349:5475   */\n      swap2\n      swap1\n      pop\n      jump\t// out\n        /* \"#utility.yul\":5481:5577   */\n    tag_96:\n        /* \"#utility.yul\":5518:5525   */\n      0x00\n        /* \"#utility.yul\":5547:5571   */\n      tag_187\n        /* \"#utility.yul\":5565:5570   */\n      dup3\n        /* \"#utility.yul\":5547:5571   */\n      tag_95\n      jump\t// in\n    tag_187:\n        /* \"#utility.yul\":5536:5571   */\n      swap1\n      pop\n        /* \"#utility.yul\":5481:5577   */\n      swap2\n      swap1\n      pop\n      jump\t// out\n        /* \"#utility.yul\":5583:5705   */\n    tag_97:\n        /* \"#utility.yul\":5656:5680   */\n      tag_189\n        /* \"#utility.yul\":5674:5679   */\n      dup2\n        /* \"#utility.yul\":5656:5680   */\n      tag_96\n      jump\t// in\n    tag_189:\n        /* \"#utility.yul\":5649:5654   */\n      dup2\n        /* \"#utility.yul\":5646:5681   */\n      eq\n        /* \"#utility.yul\":5636:5699   */\n      tag_190\n      jumpi\n        /* \"#utility.yul\":5695:5696   */\n      0x00\n        /* \"#utility.yul\":5692:5693   */\n      dup1\n        /* \"#utility.yul\":5685:5697   */\n      revert\n        /* \"#utility.yul\":5636:5699   */\n    tag_190:\n        /* \"#utility.yul\":5583:5705   */\n      pop\n      jump\t// out\n        /* \"#utility.yul\":5711:5850   */\n    tag_98:\n        /* \"#utility.yul\":5757:5762   */\n      0x00\n        /* \"#utility.yul\":5795:5801   */\n      dup2\n        /* \"#utility.yul\":5782:5802   */\n      calldataload\n        /* \"#utility.yul\":5773:5802   */\n      swap1\n      pop\n        /* \"#utility.yul\":5811:5844   */\n      tag_192\n        /* \"#utility.yul\":5838:5843   */\n      dup2\n        /* \"#utility.yul\":5811:5844   */\n      tag_97\n      jump\t// in\n    tag_192:\n        /* \"#utility.yul\":5711:5850   */\n      swap3\n      swap2\n      pop\n      pop\n      jump\t// out\n        /* \"#utility.yul\":5856:6185   */\n    tag_32:\n        /* \"#utility.yul\":5915:5921   */\n      0x00\n        /* \"#utility.yul\":5964:5966   */\n      0x20\n        /* \"#utility.yul\":5952:5961   */\n      dup3\n        /* \"#utility.yul\":5943:5950   */\n      dup5\n        /* \"#utility.yul\":5939:5962   */\n      sub\n        /* \"#utility.yul\":5935:5967   */\n      slt\n        /* \"#utility.yul\":5932:6051   */\n      iszero\n      tag_194\n      jumpi\n        /* \"#utility.yul\":5970:6049   */\n      tag_195\n      tag_75\n      jump\t// in\n    tag_195:\n        /* \"#utility.yul\":5932:6051   */\n    tag_194:\n        /* \"#utility.yul\":6090:6091   */\n      0x00\n        /* \"#utility.yul\":6115:6168   */\n      tag_196\n        /* \"#utility.yul\":6160:6167   */\n      dup5\n        /* \"#utility.yul\":6151:6157   */\n      dup3\n        /* \"#utility.yul\":6140:6149   */\n      dup6\n        /* \"#utility.yul\":6136:6158   */\n      add\n        /* \"#utility.yul\":6115:6168   */\n      tag_98\n      jump\t// in\n    tag_196:\n        /* \"#utility.yul\":6105:6168   */\n      swap2\n      pop\n        /* \"#utility.yul\":6061:6178   */\n      pop\n        /* \"#utility.yul\":5856:6185   */\n      swap3\n      swap2\n      pop\n      pop\n      jump\t// out\n        /* \"#utility.yul\":6191:6281   */\n    tag_99:\n        /* \"#utility.yul\":6225:6232   */\n      0x00\n        /* \"#utility.yul\":6268:6273   */\n      dup2\n        /* \"#utility.yul\":6261:6274   */\n      iszero\n        /* \"#utility.yul\":6254:6275   */\n      iszero\n        /* \"#utility.yul\":6243:6275   */\n      swap1\n      pop\n        /* \"#utility.yul\":6191:6281   */\n      swap2\n      swap1\n      pop\n      jump\t// out\n        /* \"#utility.yul\":6287:6396   */\n    tag_100:\n        /* \"#utility.yul\":6368:6389   */\n      tag_199\n        /* \"#utility.yul\":6383:6388   */\n      dup2\n        /* \"#utility.yul\":6368:6389   */\n      tag_99\n      jump\t// in\n    tag_199:\n        /* \"#utility.yul\":6363:6366   */\n      dup3\n        /* \"#utility.yul\":6356:6390   */\n      mstore\n        /* \"#utility.yul\":6287:6396   */\n      pop\n      pop\n      jump\t// out\n        /* \"#utility.yul\":6402:6612   */\n    tag_35:\n        /* \"#utility.yul\":6489:6493   */\n      0x00\n        /* \"#utility.yul\":6527:6529   */\n      0x20\n        /* \"#utility.yul\":6516:6525   */\n      dup3\n        /* \"#utility.yul\":6512:6530   */\n      add\n        /* \"#utility.yul\":6504:6530   */\n      swap1\n      pop\n        /* \"#utility.yul\":6540:6605   */\n      tag_201\n        /* \"#utility.yul\":6602:6603   */\n      0x00\n        /* \"#utility.yul\":6591:6600   */\n      dup4\n        /* \"#utility.yul\":6587:6604   */\n      add\n        /* \"#utility.yul\":6578:6584   */\n      dup5\n        /* \"#utility.yul\":6540:6605   */\n      tag_100\n      jump\t// in\n    tag_201:\n        /* \"#utility.yul\":6402:6612   */\n      swap3\n      swap2\n      pop\n      pop\n      jump\t// out\n        /* \"#utility.yul\":6618:6766   */\n    tag_101:\n        /* \"#utility.yul\":6720:6731   */\n      0x00\n        /* \"#utility.yul\":6757:6760   */\n      dup2\n        /* \"#utility.yul\":6742:6760   */\n      swap1\n      pop\n        /* \"#utility.yul\":6618:6766   */\n      swap3\n      swap2\n      pop\n      pop\n      jump\t// out\n        /* \"#utility.yul\":6772:7162   */\n    tag_102:\n        /* \"#utility.yul\":6878:6881   */\n      0x00\n        /* \"#utility.yul\":6906:6945   */\n      tag_204\n        /* \"#utility.yul\":6939:6944   */\n      dup3\n        /* \"#utility.yul\":6906:6945   */\n      tag_91\n      jump\t// in\n    tag_204:\n        /* \"#utility.yul\":6961:7050   */\n      tag_205\n        /* \"#utility.yul\":7043:7049   */\n      dup2\n        /* \"#utility.yul\":7038:7041   */\n      dup6\n        /* \"#utility.yul\":6961:7050   */\n      tag_101\n      jump\t// in\n    tag_205:\n        /* \"#utility.yul\":6954:7050   */\n      swap4\n      pop\n        /* \"#utility.yul\":7059:7124   */\n      tag_206\n        /* \"#utility.yul\":7117:7123   */\n      dup2\n        /* \"#utility.yul\":7112:7115   */\n      dup6\n        /* \"#utility.yul\":7105:7109   */\n      0x20\n        /* \"#utility.yul\":7098:7103   */\n      dup7\n        /* \"#utility.yul\":7094:7110   */\n      add\n        /* \"#utility.yul\":7059:7124   */\n      tag_93\n      jump\t// in\n    tag_206:\n        /* \"#utility.yul\":7149:7155   */\n      dup1\n        /* \"#utility.yul\":7144:7147   */\n      dup5\n        /* \"#utility.yul\":7140:7156   */\n      add\n        /* \"#utility.yul\":7133:7156   */\n      swap2\n      pop\n        /* \"#utility.yul\":6882:7162   */\n      pop\n        /* \"#utility.yul\":6772:7162   */\n      swap3\n      swap2\n      pop\n      pop\n      jump\t// out\n        /* \"#utility.yul\":7168:7443   */\n    tag_38:\n        /* \"#utility.yul\":7300:7303   */\n      0x00\n        /* \"#utility.yul\":7322:7417   */\n      tag_208\n        /* \"#utility.yul\":7413:7416   */\n      dup3\n        /* \"#utility.yul\":7404:7410   */\n      dup5\n        /* \"#utility.yul\":7322:7417   */\n      tag_102\n      jump\t// in\n    tag_208:\n        /* \"#utility.yul\":7315:7417   */\n      swap2\n      pop\n        /* \"#utility.yul\":7434:7437   */\n      dup2\n        /* \"#utility.yul\":7427:7437   */\n      swap1\n      pop\n        /* \"#utility.yul\":7168:7443   */\n      swap3\n      swap2\n      pop\n      pop\n      jump\t// out\n        /* \"#utility.yul\":7449:7629   */\n    tag_103:\n        /* \"#utility.yul\":7497:7574   */\n      0x4e487b7100000000000000000000000000000000000000000000000000000000\n        /* \"#utility.yul\":7494:7495   */\n      0x00\n        /* \"#utility.yul\":7487:7575   */\n      mstore\n        /* \"#utility.yul\":7594:7598   */\n      0x11\n        /* \"#utility.yul\":7591:7592   */\n      0x04\n        /* \"#utility.yul\":7584:7599   */\n      mstore\n        /* \"#utility.yul\":7618:7622   */\n      0x24\n        /* \"#utility.yul\":7615:7616   */\n      0x00\n        /* \"#utility.yul\":7608:7623   */\n      revert\n        /* \"#utility.yul\":7635:7868   */\n    tag_40:\n        /* \"#utility.yul\":7674:7677   */\n      0x00\n        /* \"#utility.yul\":7697:7721   */\n      tag_211\n        /* \"#utility.yul\":7715:7720   */\n      dup3\n        /* \"#utility.yul\":7697:7721   */\n      tag_87\n      jump\t// in\n    tag_211:\n        /* \"#utility.yul\":7688:7721   */\n      swap2\n      pop\n        /* \"#utility.yul\":7743:7809   */\n      0xffffffffffffffffffffffffffffffffffffffffffffffffffffffffffffffff\n        /* \"#utility.yul\":7736:7741   */\n      dup3\n        /* \"#utility.yul\":7733:7810   */\n      sub\n        /* \"#utility.yul\":7730:7833   */\n      tag_212\n      jumpi\n        /* \"#utility.yul\":7813:7831   */\n      tag_213\n      tag_103\n      jump\t// in\n    tag_213:\n        /* \"#utility.yul\":7730:7833   */\n    tag_212:\n        /* \"#utility.yul\":7860:7861   */\n      0x01\n        /* \"#utility.yul\":7853:7858   */\n      dup3\n        /* \"#utility.yul\":7849:7862   */\n      add\n        /* \"#utility.yul\":7842:7862   */\n      swap1\n      pop\n        /* \"#utility.yul\":7635:7868   */\n      swap2\n      swap1\n      pop\n      jump\t// out\n        /* \"#utility.yul\":7874:8054   */\n    tag_47:\n        /* \"#utility.yul\":7922:7999   */\n      0x4e487b7100000000000000000000000000000000000000000000000000000000\n        /* \"#utility.yul\":7919:7920   */\n      0x00\n        /* \"#utility.yul\":7912:8000   */\n      mstore\n        /* \"#utility.yul\":8019:8023   */\n      0x32\n        /* \"#utility.yul\":8016:8017   */\n      0x04\n        /* \"#utility.yul\":8009:8024   */\n      mstore\n        /* \"#utility.yul\":8043:8047   */\n      0x24\n        /* \"#utility.yul\":8040:8041   */\n      0x00\n        /* \"#utility.yul\":8033:8048   */\n      revert\n        /* \"#utility.yul\":8060:8240   */\n    tag_104:\n        /* \"#utility.yul\":8108:8185   */\n      0x4e487b7100000000000000000000000000000000000000000000000000000000\n        /* \"#utility.yul\":8105:8106   */\n      0x00\n        /* \"#utility.yul\":8098:8186   */\n      mstore\n        /* \"#utility.yul\":8205:8209   */\n      0x22\n        /* \"#utility.yul\":8202:8203   */\n      0x04\n        /* \"#utility.yul\":8195:8210   */\n      mstore\n        /* \"#utility.yul\":8229:8233   */\n      0x24\n        /* \"#utility.yul\":8226:8227   */\n      0x00\n        /* \"#utility.yul\":8219:8234   */\n      revert\n        /* \"#utility.yul\":8246:8566   */\n    tag_69:\n        /* \"#utility.yul\":8290:8296   */\n      0x00\n        /* \"#utility.yul\":8327:8328   */\n      0x02\n        /* \"#utility.yul\":8321:8325   */\n      dup3\n        /* \"#utility.yul\":8317:8329   */\n      div\n        /* \"#utility.yul\":8307:8329   */\n      swap1\n      pop\n        /* \"#utility.yul\":8374:8375   */\n      0x01\n        /* \"#utility.yul\":8368:8372   */\n      dup3\n        /* \"#utility.yul\":8364:8376   */\n      and\n        /* \"#utility.yul\":8395:8413   */\n      dup1\n        /* \"#utility.yul\":8385:8466   */\n      tag_217\n      jumpi\n        /* \"#utility.yul\":8451:8455   */\n      0x7f\n        /* \"#utility.yul\":8443:8449   */\n      dup3\n        /* \"#utility.yul\":8439:8456   */\n      and\n        /* \"#utility.yul\":8429:8456   */\n      swap2\n      pop\n        /* \"#utility.yul\":8385:8466   */\n    tag_217:\n        /* \"#utility.yul\":8513:8515   */\n      0x20\n        /* \"#utility.yul\":8505:8511   */\n      dup3\n        /* \"#utility.yul\":8502:8516   */\n      lt\n        /* \"#utility.yul\":8482:8500   */\n      dup2\n        /* \"#utility.yul\":8479:8517   */\n      sub\n        /* \"#utility.yul\":8476:8560   */\n      tag_218\n      jumpi\n        /* \"#utility.yul\":8532:8550   */\n      tag_219\n      tag_104\n      jump\t// in\n    tag_219:\n        /* \"#utility.yul\":8476:8560   */\n    tag_218:\n        /* \"#utility.yul\":8297:8566   */\n      pop\n        /* \"#utility.yul\":8246:8566   */\n      swap2\n      swap1\n      pop\n      jump\t// out\n        /* \"#utility.yul\":8572:8713   */\n    tag_105:\n        /* \"#utility.yul\":8621:8625   */\n      0x00\n        /* \"#utility.yul\":8644:8647   */\n      dup2\n        /* \"#utility.yul\":8636:8647   */\n      swap1\n      pop\n        /* \"#utility.yul\":8667:8670   */\n      dup2\n        /* \"#utility.yul\":8664:8665   */\n      0x00\n        /* \"#utility.yul\":8657:8671   */\n      mstore\n        /* \"#utility.yul\":8701:8705   */\n      0x20\n        /* \"#utility.yul\":8698:8699   */\n      0x00\n        /* \"#utility.yul\":8688:8706   */\n      keccak256\n        /* \"#utility.yul\":8680:8706   */\n      swap1\n      pop\n        /* \"#utility.yul\":8572:8713   */\n      swap2\n      swap1\n      pop\n      jump\t// out\n        /* \"#utility.yul\":8743:9574   */\n    tag_106:\n        /* \"#utility.yul\":8828:8831   */\n      0x00\n        /* \"#utility.yul\":8865:8870   */\n      dup2\n        /* \"#utility.yul\":8859:8871   */\n      sload\n        /* \"#utility.yul\":8894:8930   */\n      tag_222\n        /* \"#utility.yul\":8920:8929   */\n      dup2\n        /* \"#utility.yul\":8894:8930   */\n      tag_69\n      jump\t// in\n    tag_222:\n        /* \"#utility.yul\":8946:9017   */\n      tag_223\n        /* \"#utility.yul\":9010:9016   */\n      dup2\n        /* \"#utility.yul\":9005:9008   */\n      dup7\n        /* \"#utility.yul\":8946:9017   */\n      tag_92\n      jump\t// in\n    tag_223:\n        /* \"#utility.yul\":8939:9017   */\n      swap5\n      pop\n        /* \"#utility.yul\":9048:9049   */\n      0x01\n        /* \"#utility.yul\":9037:9046   */\n      dup3\n        /* \"#utility.yul\":9033:9050   */\n      and\n        /* \"#utility.yul\":9064:9065   */\n      0x00\n        /* \"#utility.yul\":9059:9223   */\n      dup2\n      eq\n      tag_225\n      jumpi\n        /* \"#utility.yul\":9237:9238   */\n      0x01\n        /* \"#utility.yul\":9232:9568   */\n      dup2\n      eq\n      tag_226\n      jumpi\n        /* \"#utility.yul\":9026:9568   */\n      jump(tag_224)\n        /* \"#utility.yul\":9059:9223   */\n    tag_225:\n        /* \"#utility.yul\":9143:9147   */\n      0xff\n        /* \"#utility.yul\":9139:9148   */\n      not\n        /* \"#utility.yul\":9128:9137   */\n      dup4\n        /* \"#utility.yul\":9124:9149   */\n      and\n        /* \"#utility.yul\":9119:9122   */\n      dup7\n        /* \"#utility.yul\":9112:9150   */\n      mstore\n        /* \"#utility.yul\":9203:9209   */\n      dup2\n        /* \"#utility.yul\":9196:9210   */\n      iszero\n        /* \"#utility.yul\":9189:9211   */\n      iszero\n        /* \"#utility.yul\":9183:9187   */\n      0x20\n        /* \"#utility.yul\":9179:9212   */\n      mul\n        /* \"#utility.yul\":9174:9177   */\n      dup7\n        /* \"#utility.yul\":9170:9213   */\n      add\n        /* \"#utility.yul\":9163:9213   */\n      swap4\n      pop\n        /* \"#utility.yul\":9059:9223   */\n      jump(tag_224)\n        /* \"#utility.yul\":9232:9568   */\n    tag_226:\n        /* \"#utility.yul\":9299:9337   */\n      tag_227\n        /* \"#utility.yul\":9331:9336   */\n      dup6\n        /* \"#utility.yul\":9299:9337   */\n      tag_105\n      jump\t// in\n    tag_227:\n        /* \"#utility.yul\":9359:9360   */\n      0x00\n        /* \"#utility.yul\":9373:9527   */\n    tag_228:\n        /* \"#utility.yul\":9387:9393   */\n      dup4\n        /* \"#utility.yul\":9384:9385   */\n      dup2\n        /* \"#utility.yul\":9381:9394   */\n      lt\n        /* \"#utility.yul\":9373:9527   */\n      iszero\n      tag_230\n      jumpi\n        /* \"#utility.yul\":9461:9468   */\n      dup2\n        /* \"#utility.yul\":9455:9469   */\n      sload\n        /* \"#utility.yul\":9451:9452   */\n      dup2\n        /* \"#utility.yul\":9446:9449   */\n      dup10\n        /* \"#utility.yul\":9442:9453   */\n      add\n        /* \"#utility.yul\":9435:9470   */\n      mstore\n        /* \"#utility.yul\":9511:9512   */\n      0x01\n        /* \"#utility.yul\":9502:9509   */\n      dup3\n        /* \"#utility.yul\":9498:9513   */\n      add\n        /* \"#utility.yul\":9487:9513   */\n      swap2\n      pop\n        /* \"#utility.yul\":9409:9413   */\n      0x20\n        /* \"#utility.yul\":9406:9407   */\n      dup2\n        /* \"#utility.yul\":9402:9414   */\n      add\n        /* \"#utility.yul\":9397:9414   */\n      swap1\n      pop\n        /* \"#utility.yul\":9373:9527   */\n      jump(tag_228)\n    tag_230:\n        /* \"#utility.yul\":9556:9557   */\n      dup1\n        /* \"#utility.yul\":9551:9554   */\n      dup9\n        /* \"#utility.yul\":9547:9558   */\n      add\n        /* \"#utility.yul\":9540:9558   */\n      swap6\n      pop\n        /* \"#utility.yul\":9239:9568   */\n      pop\n      pop\n        /* \"#utility.yul\":9026:9568   */\n    tag_224:\n      pop\n        /* \"#utility.yul\":8832:9574   */\n      pop\n      pop\n        /* \"#utility.yul\":8743:9574   */\n      swap3\n      swap2\n      pop\n      pop\n      jump\t// out\n        /* \"#utility.yul\":9580:9887   */\n    tag_50:\n        /* \"#utility.yul\":9690:9694   */\n      0x00\n        /* \"#utility.yul\":9728:9730   */\n      0x20\n        /* \"#utility.yul\":9717:9726   */\n      dup3\n        /* \"#utility.yul\":9713:9731   */\n      add\n        /* \"#utility.yul\":9705:9731   */\n      swap1\n      pop\n        /* \"#utility.yul\":9777:9786   */\n      dup2\n        /* \"#utility.yul\":9771:9775   */\n      dup2\n        /* \"#utility.yul\":9767:9787   */\n      sub\n        /* \"#utility.yul\":9763:9764   */\n      0x00\n        /* \"#utility.yul\":9752:9761   */\n      dup4\n        /* \"#utility.yul\":9748:9765   */\n      add\n        /* \"#utility.yul\":9741:9788   */\n      mstore\n        /* \"#utility.yul\":9805:9880   */\n      tag_232\n        /* \"#utility.yul\":9875:9879   */\n      dup2\n        /* \"#utility.yul\":9866:9872   */\n      dup5\n        /* \"#utility.yul\":9805:9880   */\n      tag_106\n      jump\t// in\n    tag_232:\n        /* \"#utility.yul\":9797:9880   */\n      swap1\n      pop\n        /* \"#utility.yul\":9580:9887   */\n      swap3\n      swap2\n      pop\n      pop\n      jump\t// out\n        /* \"#utility.yul\":9893:9986   */\n    tag_107:\n        /* \"#utility.yul\":9930:9936   */\n      0x00\n        /* \"#utility.yul\":9977:9979   */\n      0x20\n        /* \"#utility.yul\":9972:9974   */\n      0x1f\n        /* \"#utility.yul\":9965:9970   */\n      dup4\n        /* \"#utility.yul\":9961:9975   */\n      add\n        /* \"#utility.yul\":9957:9980   */\n      div\n        /* \"#utility.yul\":9947:9980   */\n      swap1\n      pop\n        /* \"#utility.yul\":9893:9986   */\n      swap2\n      swap1\n      pop\n      jump\t// out\n        /* \"#utility.yul\":9992:10099   */\n    tag_108:\n        /* \"#utility.yul\":10036:10044   */\n      0x00\n        /* \"#utility.yul\":10086:10091   */\n      dup3\n        /* \"#utility.yul\":10080:10084   */\n      dup3\n        /* \"#utility.yul\":10076:10092   */\n      shl\n        /* \"#utility.yul\":10055:10092   */\n      swap1\n      pop\n        /* \"#utility.yul\":9992:10099   */\n      swap3\n      swap2\n      pop\n      pop\n      jump\t// out\n        /* \"#utility.yul\":10105:10498   */\n    tag_109:\n        /* \"#utility.yul\":10174:10180   */\n      0x00\n        /* \"#utility.yul\":10224:10225   */\n      0x08\n        /* \"#utility.yul\":10212:10222   */\n      dup4\n        /* \"#utility.yul\":10208:10226   */\n      mul\n        /* \"#utility.yul\":10247:10344   */\n      tag_236\n        /* \"#utility.yul\":10277:10343   */\n      0xffffffffffffffffffffffffffffffffffffffffffffffffffffffffffffffff\n        /* \"#utility.yul\":10266:10275   */\n      dup3\n        /* \"#utility.yul\":10247:10344   */\n      tag_108\n      jump\t// in\n    tag_236:\n        /* \"#utility.yul\":10365:10404   */\n      tag_237\n        /* \"#utility.yul\":10395:10403   */\n      dup7\n        /* \"#utility.yul\":10384:10393   */\n      dup4\n        /* \"#utility.yul\":10365:10404   */\n      tag_108\n      jump\t// in\n    tag_237:\n        /* \"#utility.yul\":10353:10404   */\n      swap6\n      pop\n        /* \"#utility.yul\":10437:10441   */\n      dup1\n        /* \"#utility.yul\":10433:10442   */\n      not\n        /* \"#utility.yul\":10426:10431   */\n      dup5\n        /* \"#utility.yul\":10422:10443   */\n      and\n        /* \"#utility.yul\":10413:10443   */\n      swap4\n      pop\n        /* \"#utility.yul\":10486:10490   */\n      dup1\n        /* \"#utility.yul\":10476:10484   */\n      dup7\n        /* \"#utility.yul\":10472:10491   */\n      and\n        /* \"#utility.yul\":10465:10470   */\n      dup5\n        /* \"#utility.yul\":10462:10492   */\n      or\n        /* \"#utility.yul\":10452:10492   */\n      swap3\n      pop\n        /* \"#utility.yul\":10181:10498   */\n      pop\n      pop\n        /* \"#utility.yul\":10105:10498   */\n      swap4\n      swap3\n      pop\n      pop\n      pop\n      jump\t// out\n        /* \"#utility.yul\":10504:10564   */\n    tag_110:\n        /* \"#utility.yul\":10532:10535   */\n      0x00\n        /* \"#utility.yul\":10553:10558   */\n      dup2\n        /* \"#utility.yul\":10546:10558   */\n      swap1\n      pop\n        /* \"#utility.yul\":10504:10564   */\n      swap2\n      swap1\n      pop\n      jump\t// out\n        /* \"#utility.yul\":10570:10712   */\n    tag_111:\n        /* \"#utility.yul\":10620:10629   */\n      0x00\n        /* \"#utility.yul\":10653:10706   */\n      tag_240\n        /* \"#utility.yul\":10671:10705   */\n      tag_241\n        /* \"#utility.yul\":10680:10704   */\n      tag_242\n        /* \"#utility.yul\":10698:10703   */\n      dup5\n        /* \"#utility.yul\":10680:10704   */\n      tag_87\n      jump\t// in\n    tag_242:\n        /* \"#utility.yul\":10671:10705   */\n      tag_110\n      jump\t// in\n    tag_241:\n        /* \"#utility.yul\":10653:10706   */\n      tag_87\n      jump\t// in\n    tag_240:\n        /* \"#utility.yul\":10640:10706   */\n      swap1\n      pop\n        /* \"#utility.yul\":10570:10712   */\n      swap2\n      swap1\n      pop\n      jump\t// out\n        /* \"#utility.yul\":10718:10793   */\n    tag_112:\n        /* \"#utility.yul\":10761:10764   */\n      0x00\n        /* \"#utility.yul\":10782:10787   */\n      dup2\n        /* \"#utility.yul\":10775:10787   */\n      swap1\n      pop\n        /* \"#utility.yul\":10718:10793   */\n      swap2\n      swap1\n      pop\n      jump\t// out\n        /* \"#utility.yul\":10799:11068   */\n    tag_113:\n        /* \"#utility.yul\":10909:10948   */\n      tag_245\n        /* \"#utility.yul\":10940:10947   */\n      dup4\n        /* \"#utility.yul\":10909:10948   */\n      tag_111\n      jump\t// in\n    tag_245:\n        /* \"#utility.yul\":10970:11061   */\n      tag_246\n        /* \"#utility.yul\":11019:11060   */\n      tag_247\n        /* \"#utility.yul\":11043:11059   */\n      dup3\n        /* \"#utility.yul\":11019:11060   */\n      tag_112\n      jump\t// in\n    tag_247:\n        /* \"#utility.yul\":11011:11017   */\n      dup5\n        /* \"#utility.yul\":11004:11008   */\n      dup5\n        /* \"#utility.yul\":10998:11009   */\n      sload\n        /* \"#utility.yul\":10970:11061   */\n      tag_109\n      jump\t// in\n    tag_246:\n        /* \"#utility.yul\":10964:10968   */\n      dup3\n        /* \"#utility.yul\":10957:11062   */\n      sstore\n        /* \"#utility.yul\":10875:11068   */\n      pop\n        /* \"#utility.yul\":10799:11068   */\n      pop\n      pop\n      pop\n      jump\t// out\n        /* \"#utility.yul\":11074:11147   */\n    tag_114:\n        /* \"#utility.yul\":11119:11122   */\n      0x00\n        /* \"#utility.yul\":11074:11147   */\n      swap1\n      jump\t// out\n        /* \"#utility.yul\":11153:11342   */\n    tag_115:\n        /* \"#utility.yul\":11230:11262   */\n      tag_250\n      tag_114\n      jump\t// in\n    tag_250:\n        /* \"#utility.yul\":11271:11336   */\n      tag_251\n        /* \"#utility.yul\":11329:11335   */\n      dup2\n        /* \"#utility.yul\":11321:11327   */\n      dup5\n        /* \"#utility.yul\":11315:11319   */\n      dup5\n        /* \"#utility.yul\":11271:11336   */\n      tag_113\n      jump\t// in\n    tag_251:\n        /* \"#utility.yul\":11206:11342   */\n      pop\n        /* \"#utility.yul\":11153:11342   */\n      pop\n      pop\n      jump\t// out\n        /* \"#utility.yul\":11348:11534   */\n    tag_116:\n        /* \"#utility.yul\":11408:11528   */\n    tag_253:\n        /* \"#utility.yul\":11425:11428   */\n      dup2\n        /* \"#utility.yul\":11418:11423   */\n      dup2\n        /* \"#utility.yul\":11415:11429   */\n      lt\n        /* \"#utility.yul\":11408:11528   */\n      iszero\n      tag_255\n      jumpi\n        /* \"#utility.yul\":11479:11518   */\n      tag_256\n        /* \"#utility.yul\":11516:11517   */\n      0x00\n        /* \"#utility.yul\":11509:11514   */\n      dup3\n        /* \"#utility.yul\":11479:11518   */\n      tag_115\n      jump\t// in\n    tag_256:\n        /* \"#utility.yul\":11452:11453   */\n      0x01\n        /* \"#utility.yul\":11445:11450   */\n      dup2\n        /* \"#utility.yul\":11441:11454   */\n      add\n        /* \"#utility.yul\":11432:11454   */\n      swap1\n      pop\n        /* \"#utility.yul\":11408:11528   */\n      jump(tag_253)\n    tag_255:\n        /* \"#utility.yul\":11348:11534   */\n      pop\n      pop\n      jump\t// out\n        /* \"#utility.yul\":11540:12083   */\n    tag_117:\n        /* \"#utility.yul\":11641:11643   */\n      0x1f\n        /* \"#utility.yul\":11636:11639   */\n      dup3\n        /* \"#utility.yul\":11633:11644   */\n      gt\n        /* \"#utility.yul\":11630:12076   */\n      iszero\n      tag_258\n      jumpi\n        /* \"#utility.yul\":11675:11713   */\n      tag_259\n        /* \"#utility.yul\":11707:11712   */\n      dup2\n        /* \"#utility.yul\":11675:11713   */\n      tag_105\n      jump\t// in\n    tag_259:\n        /* \"#utility.yul\":11759:11788   */\n      tag_260\n        /* \"#utility.yul\":11777:11787   */\n      dup5\n        /* \"#utility.yul\":11759:11788   */\n      tag_107\n      jump\t// in\n    tag_260:\n        /* \"#utility.yul\":11749:11757   */\n      dup2\n        /* \"#utility.yul\":11745:11789   */\n      add\n        /* \"#utility.yul\":11942:11944   */\n      0x20\n        /* \"#utility.yul\":11930:11940   */\n      dup6\n        /* \"#utility.yul\":11927:11945   */\n      lt\n        /* \"#utility.yul\":11924:11973   */\n      iszero\n      tag_261\n      jumpi\n        /* \"#utility.yul\":11963:11971   */\n      dup2\n        /* \"#utility.yul\":11948:11971   */\n      swap1\n      pop\n        /* \"#utility.yul\":11924:11973   */\n    tag_261:\n        /* \"#utility.yul\":11986:12066   */\n      tag_262\n        /* \"#utility.yul\":12042:12064   */\n      tag_263\n        /* \"#utility.yul\":12060:12063   */\n      dup6\n        /* \"#utility.yul\":12042:12064   */\n      tag_107\n      jump\t// in\n    tag_263:\n        /* \"#utility.yul\":12032:12040   */\n      dup4\n        /* \"#utility.yul\":12028:12065   */\n      add\n        /* \"#utility.yul\":12015:12026   */\n      dup3\n        /* \"#utility.yul\":11986:12066   */\n      tag_116\n      jump\t// in\n    tag_262:\n        /* \"#utility.yul\":11645:12076   */\n      pop\n      pop\n        /* \"#utility.yul\":11630:12076   */\n    tag_258:\n        /* \"#utility.yul\":11540:12083   */\n      pop\n      pop\n      pop\n      jump\t// out\n        /* \"#utility.yul\":12089:12206   */\n    tag_118:\n        /* \"#utility.yul\":12143:12151   */\n      0x00\n        /* \"#utility.yul\":12193:12198   */\n      dup3\n        /* \"#utility.yul\":12187:12191   */\n      dup3\n        /* \"#utility.yul\":12183:12199   */\n      shr\n        /* \"#utility.yul\":12162:12199   */\n      swap1\n      pop\n        /* \"#utility.yul\":12089:12206   */\n      swap3\n      swap2\n      pop\n      pop\n      jump\t// out\n        /* \"#utility.yul\":12212:12381   */\n    tag_119:\n        /* \"#utility.yul\":12256:12262   */\n      0x00\n        /* \"#utility.yul\":12289:12340   */\n      tag_266\n        /* \"#utility.yul\":12337:12338   */\n      0x00\n        /* \"#utility.yul\":12333:12339   */\n      not\n        /* \"#utility.yul\":12325:12330   */\n      dup5\n        /* \"#utility.yul\":12322:12323   */\n      0x08\n        /* \"#utility.yul\":12318:12331   */\n      mul\n        /* \"#utility.yul\":12289:12340   */\n      tag_118\n      jump\t// in\n    tag_266:\n        /* \"#utility.yul\":12285:12341   */\n      not\n        /* \"#utility.yul\":12370:12374   */\n      dup1\n        /* \"#utility.yul\":12364:12368   */\n      dup4\n        /* \"#utility.yul\":12360:12375   */\n      and\n        /* \"#utility.yul\":12350:12375   */\n      swap2\n      pop\n        /* \"#utility.yul\":12263:12381   */\n      pop\n        /* \"#utility.yul\":12212:12381   */\n      swap3\n      swap2\n      pop\n      pop\n      jump\t// out\n        /* \"#utility.yul\":12386:12681   */\n    tag_120:\n        /* \"#utility.yul\":12462:12466   */\n      0x00\n        /* \"#utility.yul\":12608:12637   */\n      tag_268\n        /* \"#utility.yul\":12633:12636   */\n      dup4\n        /* \"#utility.yul\":12627:12631   */\n      dup4\n        /* \"#utility.yul\":12608:12637   */\n      tag_119\n      jump\t// in\n    tag_268:\n        /* \"#utility.yul\":12600:12637   */\n      swap2\n      pop\n        /* \"#utility.yul\":12670:12673   */\n      dup3\n        /* \"#utility.yul\":12667:12668   */\n      0x02\n        /* \"#utility.yul\":12663:12674   */\n      mul\n        /* \"#utility.yul\":12657:12661   */\n      dup3\n        /* \"#utility.yul\":12654:12675   */\n      or\n        /* \"#utility.yul\":12646:12675   */\n      swap1\n      pop\n        /* \"#utility.yul\":12386:12681   */\n      swap3\n      swap2\n      pop\n      pop\n      jump\t// out\n        /* \"#utility.yul\":12686:14081   */\n    tag_54:\n        /* \"#utility.yul\":12803:12840   */\n      tag_270\n        /* \"#utility.yul\":12836:12839   */\n      dup3\n        /* \"#utility.yul\":12803:12840   */\n      tag_91\n      jump\t// in\n    tag_270:\n        /* \"#utility.yul\":12905:12923   */\n      0xffffffffffffffff\n        /* \"#utility.yul\":12897:12903   */\n      dup2\n        /* \"#utility.yul\":12894:12924   */\n      gt\n        /* \"#utility.yul\":12891:12947   */\n      iszero\n      tag_271\n      jumpi\n        /* \"#utility.yul\":12927:12945   */\n      tag_272\n      tag_80\n      jump\t// in\n    tag_272:\n        /* \"#utility.yul\":12891:12947   */\n    tag_271:\n        /* \"#utility.yul\":12971:13009   */\n      tag_273\n        /* \"#utility.yul\":13003:13007   */\n      dup3\n        /* \"#utility.yul\":12997:13008   */\n      sload\n        /* \"#utility.yul\":12971:13009   */\n      tag_69\n      jump\t// in\n    tag_273:\n        /* \"#utility.yul\":13056:13123   */\n      tag_274\n        /* \"#utility.yul\":13116:13122   */\n      dup3\n        /* \"#utility.yul\":13108:13114   */\n      dup3\n        /* \"#utility.yul\":13102:13106   */\n      dup6\n        /* \"#utility.yul\":13056:13123   */\n      tag_117\n      jump\t// in\n    tag_274:\n        /* \"#utility.yul\":13150:13151   */\n      0x00\n        /* \"#utility.yul\":13174:13178   */\n      0x20\n        /* \"#utility.yul\":13161:13178   */\n      swap1\n      pop\n        /* \"#utility.yul\":13206:13208   */\n      0x1f\n        /* \"#utility.yul\":13198:13204   */\n      dup4\n        /* \"#utility.yul\":13195:13209   */\n      gt\n        /* \"#utility.yul\":13223:13224   */\n      0x01\n        /* \"#utility.yul\":13218:13836   */\n      dup2\n      eq\n      tag_276\n      jumpi\n        /* \"#utility.yul\":13880:13881   */\n      0x00\n        /* \"#utility.yul\":13897:13903   */\n      dup5\n        /* \"#utility.yul\":13894:13971   */\n      iszero\n      tag_277\n      jumpi\n        /* \"#utility.yul\":13946:13955   */\n      dup3\n        /* \"#utility.yul\":13941:13944   */\n      dup8\n        /* \"#utility.yul\":13937:13956   */\n      add\n        /* \"#utility.yul\":13931:13957   */\n      mload\n        /* \"#utility.yul\":13922:13957   */\n      swap1\n      pop\n        /* \"#utility.yul\":13894:13971   */\n    tag_277:\n        /* \"#utility.yul\":13997:14064   */\n      tag_278\n        /* \"#utility.yul\":14057:14063   */\n      dup6\n        /* \"#utility.yul\":14050:14055   */\n      dup3\n        /* \"#utility.yul\":13997:14064   */\n      tag_120\n      jump\t// in\n    tag_278:\n        /* \"#utility.yul\":13991:13995   */\n      dup7\n        /* \"#utility.yul\":13984:14065   */\n      sstore\n        /* \"#utility.yul\":13853:14075   */\n      pop\n        /* \"#utility.yul\":13188:14075   */\n      jump(tag_275)\n        /* \"#utility.yul\":13218:13836   */\n    tag_276:\n        /* \"#utility.yul\":13270:13274   */\n      0x1f\n        /* \"#utility.yul\":13266:13275   */\n      not\n        /* \"#utility.yul\":13258:13264   */\n      dup5\n        /* \"#utility.yul\":13254:13276   */\n      and\n        /* \"#utility.yul\":13304:13341   */\n      tag_279\n        /* \"#utility.yul\":13336:13340   */\n      dup7\n        /* \"#utility.yul\":13304:13341   */\n      tag_105\n      jump\t// in\n    tag_279:\n        /* \"#utility.yul\":13363:13364   */\n      0x00\n        /* \"#utility.yul\":13377:13585   */\n    tag_280:\n        /* \"#utility.yul\":13391:13398   */\n      dup3\n        /* \"#utility.yul\":13388:13389   */\n      dup2\n        /* \"#utility.yul\":13385:13399   */\n      lt\n        /* \"#utility.yul\":13377:13585   */\n      iszero\n      tag_282\n      jumpi\n        /* \"#utility.yul\":13470:13479   */\n      dup5\n        /* \"#utility.yul\":13465:13468   */\n      dup10\n        /* \"#utility.yul\":13461:13480   */\n      add\n        /* \"#utility.yul\":13455:13481   */\n      mload\n        /* \"#utility.yul\":13447:13453   */\n      dup3\n        /* \"#utility.yul\":13440:13482   */\n      sstore\n        /* \"#utility.yul\":13521:13522   */\n      0x01\n        /* \"#utility.yul\":13513:13519   */\n      dup3\n        /* \"#utility.yul\":13509:13523   */\n      add\n        /* \"#utility.yul\":13499:13523   */\n      swap2\n      pop\n        /* \"#utility.yul\":13568:13570   */\n      0x20\n        /* \"#utility.yul\":13557:13566   */\n      dup6\n        /* \"#utility.yul\":13553:13571   */\n      add\n        /* \"#utility.yul\":13540:13571   */\n      swap5\n      pop\n        /* \"#utility.yul\":13414:13418   */\n      0x20\n        /* \"#utility.yul\":13411:13412   */\n      dup2\n        /* \"#utility.yul\":13407:13419   */\n      add\n        /* \"#utility.yul\":13402:13419   */\n      swap1\n      pop\n        /* \"#utility.yul\":13377:13585   */\n      jump(tag_280)\n    tag_282:\n        /* \"#utility.yul\":13613:13619   */\n      dup7\n        /* \"#utility.yul\":13604:13611   */\n      dup4\n        /* \"#utility.yul\":13601:13620   */\n      lt\n        /* \"#utility.yul\":13598:13777   */\n      iszero\n      tag_283\n      jumpi\n        /* \"#utility.yul\":13671:13680   */\n      dup5\n        /* \"#utility.yul\":13666:13669   */\n      dup10\n        /* \"#utility.yul\":13662:13681   */\n      add\n        /* \"#utility.yul\":13656:13682   */\n      mload\n        /* \"#utility.yul\":13714:13762   */\n      tag_284\n        /* \"#utility.yul\":13756:13760   */\n      0x1f\n        /* \"#utility.yul\":13748:13754   */\n      dup10\n        /* \"#utility.yul\":13744:13761   */\n      and\n        /* \"#utility.yul\":13733:13742   */\n      dup3\n        /* \"#utility.yul\":13714:13762   */\n      tag_119\n      jump\t// in\n    tag_284:\n        /* \"#utility.yul\":13706:13712   */\n      dup4\n        /* \"#utility.yul\":13699:13763   */\n      sstore\n        /* \"#utility.yul\":13621:13777   */\n      pop\n        /* \"#utility.yul\":13598:13777   */\n    tag_283:\n        /* \"#utility.yul\":13823:13824   */\n      0x01\n        /* \"#utility.yul\":13819:13820   */\n      0x02\n        /* \"#utility.yul\":13811:13817   */\n      dup9\n        /* \"#utility.yul\":13807:13821   */\n      mul\n        /* \"#utility.yul\":13803:13825   */\n      add\n        /* \"#utility.yul\":13797:13801   */\n      dup9\n        /* \"#utility.yul\":13790:13826   */\n      sstore\n        /* \"#utility.yul\":13225:13836   */\n      pop\n      pop\n      pop\n        /* \"#utility.yul\":13188:14075   */\n    tag_275:\n      pop\n        /* \"#utility.yul\":12778:14081   */\n      pop\n      pop\n      pop\n        /* \"#utility.yul\":12686:14081   */\n      pop\n      pop\n      jump\t// out\n        /* \"#utility.yul\":14111:14985   */\n    tag_121:\n        /* \"#utility.yul\":14214:14217   */\n      0x00\n        /* \"#utility.yul\":14251:14256   */\n      dup2\n        /* \"#utility.yul\":14245:14257   */\n      sload\n        /* \"#utility.yul\":14280:14316   */\n      tag_286\n        /* \"#utility.yul\":14306:14315   */\n      dup2\n        /* \"#utility.yul\":14280:14316   */\n      tag_69\n      jump\t// in\n    tag_286:\n        /* \"#utility.yul\":14332:14421   */\n      tag_287\n        /* \"#utility.yul\":14414:14420   */\n      dup2\n        /* \"#utility.yul\":14409:14412   */\n      dup7\n        /* \"#utility.yul\":14332:14421   */\n      tag_101\n      jump\t// in\n    tag_287:\n        /* \"#utility.yul\":14325:14421   */\n      swap5\n      pop\n        /* \"#utility.yul\":14452:14453   */\n      0x01\n        /* \"#utility.yul\":14441:14450   */\n      dup3\n        /* \"#utility.yul\":14437:14454   */\n      and\n        /* \"#utility.yul\":14468:14469   */\n      0x00\n        /* \"#utility.yul\":14463:14629   */\n      dup2\n      eq\n      tag_289\n      jumpi\n        /* \"#utility.yul\":14643:14644   */\n      0x01\n        /* \"#utility.yul\":14638:14979   */\n      dup2\n      eq\n      tag_290\n      jumpi\n        /* \"#utility.yul\":14430:14979   */\n      jump(tag_288)\n        /* \"#utility.yul\":14463:14629   */\n    tag_289:\n        /* \"#utility.yul\":14547:14551   */\n      0xff\n        /* \"#utility.yul\":14543:14552   */\n      not\n        /* \"#utility.yul\":14532:14541   */\n      dup4\n        /* \"#utility.yul\":14528:14553   */\n      and\n        /* \"#utility.yul\":14523:14526   */\n      dup7\n        /* \"#utility.yul\":14516:14554   */\n      mstore\n        /* \"#utility.yul\":14609:14615   */\n      dup2\n        /* \"#utility.yul\":14602:14616   */\n      iszero\n        /* \"#utility.yul\":14595:14617   */\n      iszero\n        /* \"#utility.yul\":14587:14593   */\n      dup3\n        /* \"#utility.yul\":14583:14618   */\n      mul\n        /* \"#utility.yul\":14578:14581   */\n      dup7\n        /* \"#utility.yul\":14574:14619   */\n      add\n        /* \"#utility.yul\":14567:14619   */\n      swap4\n      pop\n        /* \"#utility.yul\":14463:14629   */\n      jump(tag_288)\n        /* \"#utility.yul\":14638:14979   */\n    tag_290:\n        /* \"#utility.yul\":14705:14743   */\n      tag_291\n        /* \"#utility.yul\":14737:14742   */\n      dup6\n        /* \"#utility.yul\":14705:14743   */\n      tag_105\n      jump\t// in\n    tag_291:\n        /* \"#utility.yul\":14765:14766   */\n      0x00\n        /* \"#utility.yul\":14779:14933   */\n    tag_292:\n        /* \"#utility.yul\":14793:14799   */\n      dup4\n        /* \"#utility.yul\":14790:14791   */\n      dup2\n        /* \"#utility.yul\":14787:14800   */\n      lt\n        /* \"#utility.yul\":14779:14933   */\n      iszero\n      tag_294\n      jumpi\n        /* \"#utility.yul\":14867:14874   */\n      dup2\n        /* \"#utility.yul\":14861:14875   */\n      sload\n        /* \"#utility.yul\":14857:14858   */\n      dup2\n        /* \"#utility.yul\":14852:14855   */\n      dup10\n        /* \"#utility.yul\":14848:14859   */\n      add\n        /* \"#utility.yul\":14841:14876   */\n      mstore\n        /* \"#utility.yul\":14917:14918   */\n      0x01\n        /* \"#utility.yul\":14908:14915   */\n      dup3\n        /* \"#utility.yul\":14904:14919   */\n      add\n        /* \"#utility.yul\":14893:14919   */\n      swap2\n      pop\n        /* \"#utility.yul\":14815:14819   */\n      0x20\n        /* \"#utility.yul\":14812:14813   */\n      dup2\n        /* \"#utility.yul\":14808:14820   */\n      add\n        /* \"#utility.yul\":14803:14820   */\n      swap1\n      pop\n        /* \"#utility.yul\":14779:14933   */\n      jump(tag_292)\n    tag_294:\n        /* \"#utility.yul\":14962:14968   */\n      dup4\n        /* \"#utility.yul\":14957:14960   */\n      dup9\n        /* \"#utility.yul\":14953:14969   */\n      add\n        /* \"#utility.yul\":14946:14969   */\n      swap6\n      pop\n        /* \"#utility.yul\":14645:14979   */\n      pop\n      pop\n        /* \"#utility.yul\":14430:14979   */\n    tag_288:\n      pop\n        /* \"#utility.yul\":14218:14985   */\n      pop\n      pop\n        /* \"#utility.yul\":14111:14985   */\n      swap3\n      swap2\n      pop\n      pop\n      jump\t// out\n        /* \"#utility.yul\":14991:15260   */\n    tag_63:\n        /* \"#utility.yul\":15120:15123   */\n      0x00\n        /* \"#utility.yul\":15142:15234   */\n      tag_296\n        /* \"#utility.yul\":15230:15233   */\n      dup3\n        /* \"#utility.yul\":15221:15227   */\n      dup5\n        /* \"#utility.yul\":15142:15234   */\n      tag_121\n      jump\t// in\n    tag_296:\n        /* \"#utility.yul\":15135:15234   */\n      swap2\n      pop\n        /* \"#utility.yul\":15251:15254   */\n      dup2\n        /* \"#utility.yul\":15244:15254   */\n      swap1\n      pop\n        /* \"#utility.yul\":14991:15260   */\n      swap3\n      swap2\n      pop\n      pop\n      jump\t// out\n\n    auxdata: 0xa26469706673582212203f98973de5372efdd76e505d21c811f128216ef9aebafaf7d6ae341fff06209764736f6c634300081a0033\n}\n",
				"bytecode": {
					"linkReferences": {},
					"object": "6080604052348015600e575f80fd5b50610c478061001c5f395ff3fe608060405234801561000f575f80fd5b5060043610610060575f3560e01c8063440cd69a1461006457806354f064ca14610094578063553bd397146100b0578063805265e5146100ba5780638ca87417146100ea578063f6a3d24e1461011a575b5f80fd5b61007e60048036038101906100799190610501565b61014a565b60405161008b9190610560565b60405180910390f35b6100ae60048036038101906100a99190610501565b610176565b005b6100b861026f565b005b6100d460048036038101906100cf9190610501565b6102cb565b6040516100e19190610560565b60405180910390f35b61010460048036038101906100ff91906105a3565b6102f1565b6040516101119190610648565b60405180910390f35b610134600480360381019061012f91906106c2565b610397565b6040516101419190610707565b60405180910390f35b5f818051602081018201805184825260208301602085012081835280955050505050505f915090505481565b5f81604051610185919061075a565b90815260200160405180910390205f8154809291906101a39061079d565b91905055505f5b60018054905081101561023857816040516020016101c89190610648565b60405160208183030381529060405280519060200120600182815481106101f2576101f16107e4565b5b905f5260205f200160405160200161020a9190610901565b604051602081830303815290604052805190602001200361022b575061026c565b80806001019150506101aa565b50600181908060018154018082558091505060019003905f5260205f20015f90919091909150908161026a9190610aac565b505b50565b5f5b6001805490508110156102c8575f8060018381548110610294576102936107e4565b5b905f5260205f20016040516102a99190610bfb565b9081526020016040518091039020819055508080600101915050610271565b50565b5f80826040516102db919061075a565b9081526020016040518091039020549050919050565b60018181548110610300575f80fd5b905f5260205f20015f9150905080546103189061083e565b80601f01602080910402602001604051908101604052809291908181526020018280546103449061083e565b801561038f5780601f106103665761010080835404028352916020019161038f565b820191905f5260205f20905b81548152906001019060200180831161037257829003601f168201915b505050505081565b6002602052805f5260405f205f915054906101000a900460ff1681565b5f604051905090565b5f80fd5b5f80fd5b5f80fd5b5f80fd5b5f601f19601f8301169050919050565b7f4e487b71000000000000000000000000000000000000000000000000000000005f52604160045260245ffd5b610413826103cd565b810181811067ffffffffffffffff82111715610432576104316103dd565b5b80604052505050565b5f6104446103b4565b9050610450828261040a565b919050565b5f67ffffffffffffffff82111561046f5761046e6103dd565b5b610478826103cd565b9050602081019050919050565b828183375f83830152505050565b5f6104a56104a084610455565b61043b565b9050828152602081018484840111156104c1576104c06103c9565b5b6104cc848285610485565b509392505050565b5f82601f8301126104e8576104e76103c5565b5b81356104f8848260208601610493565b91505092915050565b5f60208284031215610516576105156103bd565b5b5f82013567ffffffffffffffff811115610533576105326103c1565b5b61053f848285016104d4565b91505092915050565b5f819050919050565b61055a81610548565b82525050565b5f6020820190506105735f830184610551565b92915050565b61058281610548565b811461058c575f80fd5b50565b5f8135905061059d81610579565b92915050565b5f602082840312156105b8576105b76103bd565b5b5f6105c58482850161058f565b91505092915050565b5f81519050919050565b5f82825260208201905092915050565b5f5b838110156106055780820151818401526020810190506105ea565b5f8484015250505050565b5f61061a826105ce565b61062481856105d8565b93506106348185602086016105e8565b61063d816103cd565b840191505092915050565b5f6020820190508181035f8301526106608184610610565b905092915050565b5f73ffffffffffffffffffffffffffffffffffffffff82169050919050565b5f61069182610668565b9050919050565b6106a181610687565b81146106ab575f80fd5b50565b5f813590506106bc81610698565b92915050565b5f602082840312156106d7576106d66103bd565b5b5f6106e4848285016106ae565b91505092915050565b5f8115159050919050565b610701816106ed565b82525050565b5f60208201905061071a5f8301846106f8565b92915050565b5f81905092915050565b5f610734826105ce565b61073e8185610720565b935061074e8185602086016105e8565b80840191505092915050565b5f610765828461072a565b915081905092915050565b7f4e487b71000000000000000000000000000000000000000000000000000000005f52601160045260245ffd5b5f6107a782610548565b91507fffffffffffffffffffffffffffffffffffffffffffffffffffffffffffffffff82036107d9576107d8610770565b5b600182019050919050565b7f4e487b71000000000000000000000000000000000000000000000000000000005f52603260045260245ffd5b7f4e487b71000000000000000000000000000000000000000000000000000000005f52602260045260245ffd5b5f600282049050600182168061085557607f821691505b60208210810361086857610867610811565b5b50919050565b5f819050815f5260205f209050919050565b5f815461088c8161083e565b61089681866105d8565b9450600182165f81146108b057600181146108c6576108f8565b60ff1983168652811515602002860193506108f8565b6108cf8561086e565b5f5b838110156108f0578154818901526001820191506020810190506108d1565b808801955050505b50505092915050565b5f6020820190508181035f8301526109198184610880565b905092915050565b5f6020601f8301049050919050565b5f82821b905092915050565b5f6008830261096b7fffffffffffffffffffffffffffffffffffffffffffffffffffffffffffffffff82610930565b6109758683610930565b95508019841693508086168417925050509392505050565b5f819050919050565b5f6109b06109ab6109a684610548565b61098d565b610548565b9050919050565b5f819050919050565b6109c983610996565b6109dd6109d5826109b7565b84845461093c565b825550505050565b5f90565b6109f16109e5565b6109fc8184846109c0565b505050565b5b81811015610a1f57610a145f826109e9565b600181019050610a02565b5050565b601f821115610a6457610a358161086e565b610a3e84610921565b81016020851015610a4d578190505b610a61610a5985610921565b830182610a01565b50505b505050565b5f82821c905092915050565b5f610a845f1984600802610a69565b1980831691505092915050565b5f610a9c8383610a75565b9150826002028217905092915050565b610ab5826105ce565b67ffffffffffffffff811115610ace57610acd6103dd565b5b610ad8825461083e565b610ae3828285610a23565b5f60209050601f831160018114610b14575f8415610b02578287015190505b610b0c8582610a91565b865550610b73565b601f198416610b228661086e565b5f5b82811015610b4957848901518255600182019150602085019450602081019050610b24565b86831015610b665784890151610b62601f891682610a75565b8355505b6001600288020188555050505b505050505050565b5f8154610b878161083e565b610b918186610720565b9450600182165f8114610bab5760018114610bc057610bf2565b60ff1983168652811515820286019350610bf2565b610bc98561086e565b5f5b83811015610bea57815481890152600182019150602081019050610bcb565b838801955050505b50505092915050565b5f610c068284610b7b565b91508190509291505056fea26469706673582212203f98973de5372efdd76e505d21c811f128216ef9aebafaf7d6ae341fff06209764736f6c634300081a0033",
					"opcodes": "PUSH1 0x80 PUSH1 0x40 MSTORE CALLVALUE DUP1 ISZERO PUSH1 0xE JUMPI PUSH0 DUP1 REVERT JUMPDEST POP PUSH2 0xC47 DUP1 PUSH2 0x1C PUSH0 CODECOPY PUSH0 RETURN INVALID PUSH1 0x80 PUSH1 0x40 MSTORE CALLVALUE DUP1 ISZERO PUSH2 0xF JUMPI PUSH0 DUP1 REVERT JUMPDEST POP PUSH1 0x4 CALLDATASIZE LT PUSH2 0x60 JUMPI PUSH0 CALLDATALOAD PUSH1 0xE0 SHR DUP1 PUSH4 0x440CD69A EQ PUSH2 0x64 JUMPI DUP1 PUSH4 0x54F064CA EQ PUSH2 0x94 JUMPI DUP1 PUSH4 0x553BD397 EQ PUSH2 0xB0 JUMPI DUP1 PUSH4 0x805265E5 EQ PUSH2 0xBA JUMPI DUP1 PUSH4 0x8CA87417 EQ PUSH2 0xEA JUMPI DUP1 PUSH4 0xF6A3D24E EQ PUSH2 0x11A JUMPI JUMPDEST PUSH0 DUP1 REVERT JUMPDEST PUSH2 0x7E PUSH1 0x4 DUP1 CALLDATASIZE SUB DUP2 ADD SWAP1 PUSH2 0x79 SWAP2 SWAP1 PUSH2 0x501 JUMP JUMPDEST PUSH2 0x14A JUMP JUMPDEST PUSH1 0x40 MLOAD PUSH2 0x8B SWAP2 SWAP1 PUSH2 0x560 JUMP JUMPDEST PUSH1 0x40 MLOAD DUP1 SWAP2 SUB SWAP1 RETURN JUMPDEST PUSH2 0xAE PUSH1 0x4 DUP1 CALLDATASIZE SUB DUP2 ADD SWAP1 PUSH2 0xA9 SWAP2 SWAP1 PUSH2 0x501 JUMP JUMPDEST PUSH2 0x176 JUMP JUMPDEST STOP JUMPDEST PUSH2 0xB8 PUSH2 0x26F JUMP JUMPDEST STOP JUMPDEST PUSH2 0xD4 PUSH1 0x4 DUP1 CALLDATASIZE SUB DUP2 ADD SWAP1 PUSH2 0xCF SWAP2 SWAP1 PUSH2 0x501 JUMP JUMPDEST PUSH2 0x2CB JUMP JUMPDEST PUSH1 0x40 MLOAD PUSH2 0xE1 SWAP2 SWAP1 PUSH2 0x560 JUMP JUMPDEST PUSH1 0x40 MLOAD DUP1 SWAP2 SUB SWAP1 RETURN JUMPDEST PUSH2 0x104 PUSH1 0x4 DUP1 CALLDATASIZE SUB DUP2 ADD SWAP1 PUSH2 0xFF SWAP2 SWAP1 PUSH2 0x5A3 JUMP JUMPDEST PUSH2 0x2F1 JUMP JUMPDEST PUSH1 0x40 MLOAD PUSH2 0x111 SWAP2 SWAP1 PUSH2 0x648 JUMP JUMPDEST PUSH1 0x40 MLOAD DUP1 SWAP2 SUB SWAP1 RETURN JUMPDEST PUSH2 0x134 PUSH1 0x4 DUP1 CALLDATASIZE SUB DUP2 ADD SWAP1 PUSH2 0x12F SWAP2 SWAP1 PUSH2 0x6C2 JUMP JUMPDEST PUSH2 0x397 JUMP JUMPDEST PUSH1 0x40 MLOAD PUSH2 0x141 SWAP2 SWAP1 PUSH2 0x707 JUMP JUMPDEST PUSH1 0x40 MLOAD DUP1 SWAP2 SUB SWAP1 RETURN JUMPDEST PUSH0 DUP2 DUP1 MLOAD PUSH1 0x20 DUP2 ADD DUP3 ADD DUP1 MLOAD DUP5 DUP3 MSTORE PUSH1 0x20 DUP4 ADD PUSH1 0x20 DUP6 ADD KECCAK256 DUP2 DUP4 MSTORE DUP1 SWAP6 POP POP POP POP POP POP PUSH0 SWAP2 POP SWAP1 POP SLOAD DUP2 JUMP JUMPDEST PUSH0 DUP2 PUSH1 0x40 MLOAD PUSH2 0x185 SWAP2 SWAP1 PUSH2 0x75A JUMP JUMPDEST SWAP1 DUP2 MSTORE PUSH1 0x20 ADD PUSH1 0x40 MLOAD DUP1 SWAP2 SUB SWAP1 KECCAK256 PUSH0 DUP2 SLOAD DUP1 SWAP3 SWAP2 SWAP1 PUSH2 0x1A3 SWAP1 PUSH2 0x79D JUMP JUMPDEST SWAP2 SWAP1 POP SSTORE POP PUSH0 JUMPDEST PUSH1 0x1 DUP1 SLOAD SWAP1 POP DUP2 LT ISZERO PUSH2 0x238 JUMPI DUP2 PUSH1 0x40 MLOAD PUSH1 0x20 ADD PUSH2 0x1C8 SWAP2 SWAP1 PUSH2 0x648 JUMP JUMPDEST PUSH1 0x40 MLOAD PUSH1 0x20 DUP2 DUP4 SUB SUB DUP2 MSTORE SWAP1 PUSH1 0x40 MSTORE DUP1 MLOAD SWAP1 PUSH1 0x20 ADD KECCAK256 PUSH1 0x1 DUP3 DUP2 SLOAD DUP2 LT PUSH2 0x1F2 JUMPI PUSH2 0x1F1 PUSH2 0x7E4 JUMP JUMPDEST JUMPDEST SWAP1 PUSH0 MSTORE PUSH1 0x20 PUSH0 KECCAK256 ADD PUSH1 0x40 MLOAD PUSH1 0x20 ADD PUSH2 0x20A SWAP2 SWAP1 PUSH2 0x901 JUMP JUMPDEST PUSH1 0x40 MLOAD PUSH1 0x20 DUP2 DUP4 SUB SUB DUP2 MSTORE SWAP1 PUSH1 0x40 MSTORE DUP1 MLOAD SWAP1 PUSH1 0x20 ADD KECCAK256 SUB PUSH2 0x22B JUMPI POP PUSH2 0x26C JUMP JUMPDEST DUP1 DUP1 PUSH1 0x1 ADD SWAP2 POP POP PUSH2 0x1AA JUMP JUMPDEST POP PUSH1 0x1 DUP2 SWAP1 DUP1 PUSH1 0x1 DUP2 SLOAD ADD DUP1 DUP3 SSTORE DUP1 SWAP2 POP POP PUSH1 0x1 SWAP1 SUB SWAP1 PUSH0 MSTORE PUSH1 0x20 PUSH0 KECCAK256 ADD PUSH0 SWAP1 SWAP2 SWAP1 SWAP2 SWAP1 SWAP2 POP SWAP1 DUP2 PUSH2 0x26A SWAP2 SWAP1 PUSH2 0xAAC JUMP JUMPDEST POP JUMPDEST POP JUMP JUMPDEST PUSH0 JUMPDEST PUSH1 0x1 DUP1 SLOAD SWAP1 POP DUP2 LT ISZERO PUSH2 0x2C8 JUMPI PUSH0 DUP1 PUSH1 0x1 DUP4 DUP2 SLOAD DUP2 LT PUSH2 0x294 JUMPI PUSH2 0x293 PUSH2 0x7E4 JUMP JUMPDEST JUMPDEST SWAP1 PUSH0 MSTORE PUSH1 0x20 PUSH0 KECCAK256 ADD PUSH1 0x40 MLOAD PUSH2 0x2A9 SWAP2 SWAP1 PUSH2 0xBFB JUMP JUMPDEST SWAP1 DUP2 MSTORE PUSH1 0x20 ADD PUSH1 0x40 MLOAD DUP1 SWAP2 SUB SWAP1 KECCAK256 DUP2 SWAP1 SSTORE POP DUP1 DUP1 PUSH1 0x1 ADD SWAP2 POP POP PUSH2 0x271 JUMP JUMPDEST POP JUMP JUMPDEST PUSH0 DUP1 DUP3 PUSH1 0x40 MLOAD PUSH2 0x2DB SWAP2 SWAP1 PUSH2 0x75A JUMP JUMPDEST SWAP1 DUP2 MSTORE PUSH1 0x20 ADD PUSH1 0x40 MLOAD DUP1 SWAP2 SUB SWAP1 KECCAK256 SLOAD SWAP1 POP SWAP2 SWAP1 POP JUMP JUMPDEST PUSH1 0x1 DUP2 DUP2 SLOAD DUP2 LT PUSH2 0x300 JUMPI PUSH0 DUP1 REVERT JUMPDEST SWAP1 PUSH0 MSTORE PUSH1 0x20 PUSH0 KECCAK256 ADD PUSH0 SWAP2 POP SWAP1 POP DUP1 SLOAD PUSH2 0x318 SWAP1 PUSH2 0x83E JUMP JUMPDEST DUP1 PUSH1 0x1F ADD PUSH1 0x20 DUP1 SWAP2 DIV MUL PUSH1 0x20 ADD PUSH1 0x40 MLOAD SWAP1 DUP2 ADD PUSH1 0x40 MSTORE DUP1 SWAP3 SWAP2 SWAP1 DUP2 DUP2 MSTORE PUSH1 0x20 ADD DUP3 DUP1 SLOAD PUSH2 0x344 SWAP1 PUSH2 0x83E JUMP JUMPDEST DUP1 ISZERO PUSH2 0x38F JUMPI DUP1 PUSH1 0x1F LT PUSH2 0x366 JUMPI PUSH2 0x100 DUP1 DUP4 SLOAD DIV MUL DUP4 MSTORE SWAP2 PUSH1 0x20 ADD SWAP2 PUSH2 0x38F JUMP JUMPDEST DUP3 ADD SWAP2 SWAP1 PUSH0 MSTORE PUSH1 0x20 PUSH0 KECCAK256 SWAP1 JUMPDEST DUP2 SLOAD DUP2 MSTORE SWAP1 PUSH1 0x1 ADD SWAP1 PUSH1 0x20 ADD DUP1 DUP4 GT PUSH2 0x372 JUMPI DUP3 SWAP1 SUB PUSH1 0x1F AND DUP3 ADD SWAP2 JUMPDEST POP POP POP POP POP DUP2 JUMP JUMPDEST PUSH1 0x2 PUSH1 0x20 MSTORE DUP1 PUSH0 MSTORE PUSH1 0x40 PUSH0 KECCAK256 PUSH0 SWAP2 POP SLOAD SWAP1 PUSH2 0x100 EXP SWAP1 DIV PUSH1 0xFF AND DUP2 JUMP JUMPDEST PUSH0 PUSH1 0x40 MLOAD SWAP1 POP SWAP1 JUMP JUMPDEST PUSH0 DUP1 REVERT JUMPDEST PUSH0 DUP1 REVERT JUMPDEST PUSH0 DUP1 REVERT JUMPDEST PUSH0 DUP1 REVERT JUMPDEST PUSH0 PUSH1 0x1F NOT PUSH1 0x1F DUP4 ADD AND SWAP1 POP SWAP2 SWAP1 POP JUMP JUMPDEST PUSH32 0x4E487B7100000000000000000000000000000000000000000000000000000000 PUSH0 MSTORE PUSH1 0x41 PUSH1 0x4 MSTORE PUSH1 0x24 PUSH0 REVERT JUMPDEST PUSH2 0x413 DUP3 PUSH2 0x3CD JUMP JUMPDEST DUP2 ADD DUP2 DUP2 LT PUSH8 0xFFFFFFFFFFFFFFFF DUP3 GT OR ISZERO PUSH2 0x432 JUMPI PUSH2 0x431 PUSH2 0x3DD JUMP JUMPDEST JUMPDEST DUP1 PUSH1 0x40 MSTORE POP POP POP JUMP JUMPDEST PUSH0 PUSH2 0x444 PUSH2 0x3B4 JUMP JUMPDEST SWAP1 POP PUSH2 0x450 DUP3 DUP3 PUSH2 0x40A JUMP JUMPDEST SWAP2 SWAP1 POP JUMP JUMPDEST PUSH0 PUSH8 0xFFFFFFFFFFFFFFFF DUP3 GT ISZERO PUSH2 0x46F JUMPI PUSH2 0x46E PUSH2 0x3DD JUMP JUMPDEST JUMPDEST PUSH2 0x478 DUP3 PUSH2 0x3CD JUMP JUMPDEST SWAP1 POP PUSH1 0x20 DUP2 ADD SWAP1 POP SWAP2 SWAP1 POP JUMP JUMPDEST DUP3 DUP2 DUP4 CALLDATACOPY PUSH0 DUP4 DUP4 ADD MSTORE POP POP POP JUMP JUMPDEST PUSH0 PUSH2 0x4A5 PUSH2 0x4A0 DUP5 PUSH2 0x455 JUMP JUMPDEST PUSH2 0x43B JUMP JUMPDEST SWAP1 POP DUP3 DUP2 MSTORE PUSH1 0x20 DUP2 ADD DUP5 DUP5 DUP5 ADD GT ISZERO PUSH2 0x4C1 JUMPI PUSH2 0x4C0 PUSH2 0x3C9 JUMP JUMPDEST JUMPDEST PUSH2 0x4CC DUP5 DUP3 DUP6 PUSH2 0x485 JUMP JUMPDEST POP SWAP4 SWAP3 POP POP POP JUMP JUMPDEST PUSH0 DUP3 PUSH1 0x1F DUP4 ADD SLT PUSH2 0x4E8 JUMPI PUSH2 0x4E7 PUSH2 0x3C5 JUMP JUMPDEST JUMPDEST DUP2 CALLDATALOAD PUSH2 0x4F8 DUP5 DUP3 PUSH1 0x20 DUP7 ADD PUSH2 0x493 JUMP JUMPDEST SWAP2 POP POP SWAP3 SWAP2 POP POP JUMP JUMPDEST PUSH0 PUSH1 0x20 DUP3 DUP5 SUB SLT ISZERO PUSH2 0x516 JUMPI PUSH2 0x515 PUSH2 0x3BD JUMP JUMPDEST JUMPDEST PUSH0 DUP3 ADD CALLDATALOAD PUSH8 0xFFFFFFFFFFFFFFFF DUP2 GT ISZERO PUSH2 0x533 JUMPI PUSH2 0x532 PUSH2 0x3C1 JUMP JUMPDEST JUMPDEST PUSH2 0x53F DUP5 DUP3 DUP6 ADD PUSH2 0x4D4 JUMP JUMPDEST SWAP2 POP POP SWAP3 SWAP2 POP POP JUMP JUMPDEST PUSH0 DUP2 SWAP1 POP SWAP2 SWAP1 POP JUMP JUMPDEST PUSH2 0x55A DUP2 PUSH2 0x548 JUMP JUMPDEST DUP3 MSTORE POP POP JUMP JUMPDEST PUSH0 PUSH1 0x20 DUP3 ADD SWAP1 POP PUSH2 0x573 PUSH0 DUP4 ADD DUP5 PUSH2 0x551 JUMP JUMPDEST SWAP3 SWAP2 POP POP JUMP JUMPDEST PUSH2 0x582 DUP2 PUSH2 0x548 JUMP JUMPDEST DUP2 EQ PUSH2 0x58C JUMPI PUSH0 DUP1 REVERT JUMPDEST POP JUMP JUMPDEST PUSH0 DUP2 CALLDATALOAD SWAP1 POP PUSH2 0x59D DUP2 PUSH2 0x579 JUMP JUMPDEST SWAP3 SWAP2 POP POP JUMP JUMPDEST PUSH0 PUSH1 0x20 DUP3 DUP5 SUB SLT ISZERO PUSH2 0x5B8 JUMPI PUSH2 0x5B7 PUSH2 0x3BD JUMP JUMPDEST JUMPDEST PUSH0 PUSH2 0x5C5 DUP5 DUP3 DUP6 ADD PUSH2 0x58F JUMP JUMPDEST SWAP2 POP POP SWAP3 SWAP2 POP POP JUMP JUMPDEST PUSH0 DUP2 MLOAD SWAP1 POP SWAP2 SWAP1 POP JUMP JUMPDEST PUSH0 DUP3 DUP3 MSTORE PUSH1 0x20 DUP3 ADD SWAP1 POP SWAP3 SWAP2 POP POP JUMP JUMPDEST PUSH0 JUMPDEST DUP4 DUP2 LT ISZERO PUSH2 0x605 JUMPI DUP1 DUP3 ADD MLOAD DUP2 DUP5 ADD MSTORE PUSH1 0x20 DUP2 ADD SWAP1 POP PUSH2 0x5EA JUMP JUMPDEST PUSH0 DUP5 DUP5 ADD MSTORE POP POP POP POP JUMP JUMPDEST PUSH0 PUSH2 0x61A DUP3 PUSH2 0x5CE JUMP JUMPDEST PUSH2 0x624 DUP2 DUP6 PUSH2 0x5D8 JUMP JUMPDEST SWAP4 POP PUSH2 0x634 DUP2 DUP6 PUSH1 0x20 DUP7 ADD PUSH2 0x5E8 JUMP JUMPDEST PUSH2 0x63D DUP2 PUSH2 0x3CD JUMP JUMPDEST DUP5 ADD SWAP2 POP POP SWAP3 SWAP2 POP POP JUMP JUMPDEST PUSH0 PUSH1 0x20 DUP3 ADD SWAP1 POP DUP2 DUP2 SUB PUSH0 DUP4 ADD MSTORE PUSH2 0x660 DUP2 DUP5 PUSH2 0x610 JUMP JUMPDEST SWAP1 POP SWAP3 SWAP2 POP POP JUMP JUMPDEST PUSH0 PUSH20 0xFFFFFFFFFFFFFFFFFFFFFFFFFFFFFFFFFFFFFFFF DUP3 AND SWAP1 POP SWAP2 SWAP1 POP JUMP JUMPDEST PUSH0 PUSH2 0x691 DUP3 PUSH2 0x668 JUMP JUMPDEST SWAP1 POP SWAP2 SWAP1 POP JUMP JUMPDEST PUSH2 0x6A1 DUP2 PUSH2 0x687 JUMP JUMPDEST DUP2 EQ PUSH2 0x6AB JUMPI PUSH0 DUP1 REVERT JUMPDEST POP JUMP JUMPDEST PUSH0 DUP2 CALLDATALOAD SWAP1 POP PUSH2 0x6BC DUP2 PUSH2 0x698 JUMP JUMPDEST SWAP3 SWAP2 POP POP JUMP JUMPDEST PUSH0 PUSH1 0x20 DUP3 DUP5 SUB SLT ISZERO PUSH2 0x6D7 JUMPI PUSH2 0x6D6 PUSH2 0x3BD JUMP JUMPDEST JUMPDEST PUSH0 PUSH2 0x6E4 DUP5 DUP3 DUP6 ADD PUSH2 0x6AE JUMP JUMPDEST SWAP2 POP POP SWAP3 SWAP2 POP POP JUMP JUMPDEST PUSH0 DUP2 ISZERO ISZERO SWAP1 POP SWAP2 SWAP1 POP JUMP JUMPDEST PUSH2 0x701 DUP2 PUSH2 0x6ED JUMP JUMPDEST DUP3 MSTORE POP POP JUMP JUMPDEST PUSH0 PUSH1 0x20 DUP3 ADD SWAP1 POP PUSH2 0x71A PUSH0 DUP4 ADD DUP5 PUSH2 0x6F8 JUMP JUMPDEST SWAP3 SWAP2 POP POP JUMP JUMPDEST PUSH0 DUP2 SWAP1 POP SWAP3 SWAP2 POP POP JUMP JUMPDEST PUSH0 PUSH2 0x734 DUP3 PUSH2 0x5CE JUMP JUMPDEST PUSH2 0x73E DUP2 DUP6 PUSH2 0x720 JUMP JUMPDEST SWAP4 POP PUSH2 0x74E DUP2 DUP6 PUSH1 0x20 DUP7 ADD PUSH2 0x5E8 JUMP JUMPDEST DUP1 DUP5 ADD SWAP2 POP POP SWAP3 SWAP2 POP POP JUMP JUMPDEST PUSH0 PUSH2 0x765 DUP3 DUP5 PUSH2 0x72A JUMP JUMPDEST SWAP2 POP DUP2 SWAP1 POP SWAP3 SWAP2 POP POP JUMP JUMPDEST PUSH32 0x4E487B7100000000000000000000000000000000000000000000000000000000 PUSH0 MSTORE PUSH1 0x11 PUSH1 0x4 MSTORE PUSH1 0x24 PUSH0 REVERT JUMPDEST PUSH0 PUSH2 0x7A7 DUP3 PUSH2 0x548 JUMP JUMPDEST SWAP2 POP PUSH32 0xFFFFFFFFFFFFFFFFFFFFFFFFFFFFFFFFFFFFFFFFFFFFFFFFFFFFFFFFFFFFFFFF DUP3 SUB PUSH2 0x7D9 JUMPI PUSH2 0x7D8 PUSH2 0x770 JUMP JUMPDEST JUMPDEST PUSH1 0x1 DUP3 ADD SWAP1 POP SWAP2 SWAP1 POP JUMP JUMPDEST PUSH32 0x4E487B7100000000000000000000000000000000000000000000000000000000 PUSH0 MSTORE PUSH1 0x32 PUSH1 0x4 MSTORE PUSH1 0x24 PUSH0 REVERT JUMPDEST PUSH32 0x4E487B7100000000000000000000000000000000000000000000000000000000 PUSH0 MSTORE PUSH1 0x22 PUSH1 0x4 MSTORE PUSH1 0x24 PUSH0 REVERT JUMPDEST PUSH0 PUSH1 0x2 DUP3 DIV SWAP1 POP PUSH1 0x1 DUP3 AND DUP1 PUSH2 0x855 JUMPI PUSH1 0x7F DUP3 AND SWAP2 POP JUMPDEST PUSH1 0x20 DUP3 LT DUP2 SUB PUSH2 0x868 JUMPI PUSH2 0x867 PUSH2 0x811 JUMP JUMPDEST JUMPDEST POP SWAP2 SWAP1 POP JUMP JUMPDEST PUSH0 DUP2 SWAP1 POP DUP2 PUSH0 MSTORE PUSH1 0x20 PUSH0 KECCAK256 SWAP1 POP SWAP2 SWAP1 POP JUMP JUMPDEST PUSH0 DUP2 SLOAD PUSH2 0x88C DUP2 PUSH2 0x83E JUMP JUMPDEST PUSH2 0x896 DUP2 DUP7 PUSH2 0x5D8 JUMP JUMPDEST SWAP5 POP PUSH1 0x1 DUP3 AND PUSH0 DUP2 EQ PUSH2 0x8B0 JUMPI PUSH1 0x1 DUP2 EQ PUSH2 0x8C6 JUMPI PUSH2 0x8F8 JUMP JUMPDEST PUSH1 0xFF NOT DUP4 AND DUP7 MSTORE DUP2 ISZERO ISZERO PUSH1 0x20 MUL DUP7 ADD SWAP4 POP PUSH2 0x8F8 JUMP JUMPDEST PUSH2 0x8CF DUP6 PUSH2 0x86E JUMP JUMPDEST PUSH0 JUMPDEST DUP4 DUP2 LT ISZERO PUSH2 0x8F0 JUMPI DUP2 SLOAD DUP2 DUP10 ADD MSTORE PUSH1 0x1 DUP3 ADD SWAP2 POP PUSH1 0x20 DUP2 ADD SWAP1 POP PUSH2 0x8D1 JUMP JUMPDEST DUP1 DUP9 ADD SWAP6 POP POP POP JUMPDEST POP POP POP SWAP3 SWAP2 POP POP JUMP JUMPDEST PUSH0 PUSH1 0x20 DUP3 ADD SWAP1 POP DUP2 DUP2 SUB PUSH0 DUP4 ADD MSTORE PUSH2 0x919 DUP2 DUP5 PUSH2 0x880 JUMP JUMPDEST SWAP1 POP SWAP3 SWAP2 POP POP JUMP JUMPDEST PUSH0 PUSH1 0x20 PUSH1 0x1F DUP4 ADD DIV SWAP1 POP SWAP2 SWAP1 POP JUMP JUMPDEST PUSH0 DUP3 DUP3 SHL SWAP1 POP SWAP3 SWAP2 POP POP JUMP JUMPDEST PUSH0 PUSH1 0x8 DUP4 MUL PUSH2 0x96B PUSH32 0xFFFFFFFFFFFFFFFFFFFFFFFFFFFFFFFFFFFFFFFFFFFFFFFFFFFFFFFFFFFFFFFF DUP3 PUSH2 0x930 JUMP JUMPDEST PUSH2 0x975 DUP7 DUP4 PUSH2 0x930 JUMP JUMPDEST SWAP6 POP DUP1 NOT DUP5 AND SWAP4 POP DUP1 DUP7 AND DUP5 OR SWAP3 POP POP POP SWAP4 SWAP3 POP POP POP JUMP JUMPDEST PUSH0 DUP2 SWAP1 POP SWAP2 SWAP1 POP JUMP JUMPDEST PUSH0 PUSH2 0x9B0 PUSH2 0x9AB PUSH2 0x9A6 DUP5 PUSH2 0x548 JUMP JUMPDEST PUSH2 0x98D JUMP JUMPDEST PUSH2 0x548 JUMP JUMPDEST SWAP1 POP SWAP2 SWAP1 POP JUMP JUMPDEST PUSH0 DUP2 SWAP1 POP SWAP2 SWAP1 POP JUMP JUMPDEST PUSH2 0x9C9 DUP4 PUSH2 0x996 JUMP JUMPDEST PUSH2 0x9DD PUSH2 0x9D5 DUP3 PUSH2 0x9B7 JUMP JUMPDEST DUP5 DUP5 SLOAD PUSH2 0x93C JUMP JUMPDEST DUP3 SSTORE POP POP POP POP JUMP JUMPDEST PUSH0 SWAP1 JUMP JUMPDEST PUSH2 0x9F1 PUSH2 0x9E5 JUMP JUMPDEST PUSH2 0x9FC DUP2 DUP5 DUP5 PUSH2 0x9C0 JUMP JUMPDEST POP POP POP JUMP JUMPDEST JUMPDEST DUP2 DUP2 LT ISZERO PUSH2 0xA1F JUMPI PUSH2 0xA14 PUSH0 DUP3 PUSH2 0x9E9 JUMP JUMPDEST PUSH1 0x1 DUP2 ADD SWAP1 POP PUSH2 0xA02 JUMP JUMPDEST POP POP JUMP JUMPDEST PUSH1 0x1F DUP3 GT ISZERO PUSH2 0xA64 JUMPI PUSH2 0xA35 DUP2 PUSH2 0x86E JUMP JUMPDEST PUSH2 0xA3E DUP5 PUSH2 0x921 JUMP JUMPDEST DUP2 ADD PUSH1 0x20 DUP6 LT ISZERO PUSH2 0xA4D JUMPI DUP2 SWAP1 POP JUMPDEST PUSH2 0xA61 PUSH2 0xA59 DUP6 PUSH2 0x921 JUMP JUMPDEST DUP4 ADD DUP3 PUSH2 0xA01 JUMP JUMPDEST POP POP JUMPDEST POP POP POP JUMP JUMPDEST PUSH0 DUP3 DUP3 SHR SWAP1 POP SWAP3 SWAP2 POP POP JUMP JUMPDEST PUSH0 PUSH2 0xA84 PUSH0 NOT DUP5 PUSH1 0x8 MUL PUSH2 0xA69 JUMP JUMPDEST NOT DUP1 DUP4 AND SWAP2 POP POP SWAP3 SWAP2 POP POP JUMP JUMPDEST PUSH0 PUSH2 0xA9C DUP4 DUP4 PUSH2 0xA75 JUMP JUMPDEST SWAP2 POP DUP3 PUSH1 0x2 MUL DUP3 OR SWAP1 POP SWAP3 SWAP2 POP POP JUMP JUMPDEST PUSH2 0xAB5 DUP3 PUSH2 0x5CE JUMP JUMPDEST PUSH8 0xFFFFFFFFFFFFFFFF DUP2 GT ISZERO PUSH2 0xACE JUMPI PUSH2 0xACD PUSH2 0x3DD JUMP JUMPDEST JUMPDEST PUSH2 0xAD8 DUP3 SLOAD PUSH2 0x83E JUMP JUMPDEST PUSH2 0xAE3 DUP3 DUP3 DUP6 PUSH2 0xA23 JUMP JUMPDEST PUSH0 PUSH1 0x20 SWAP1 POP PUSH1 0x1F DUP4 GT PUSH1 0x1 DUP2 EQ PUSH2 0xB14 JUMPI PUSH0 DUP5 ISZERO PUSH2 0xB02 JUMPI DUP3 DUP8 ADD MLOAD SWAP1 POP JUMPDEST PUSH2 0xB0C DUP6 DUP3 PUSH2 0xA91 JUMP JUMPDEST DUP7 SSTORE POP PUSH2 0xB73 JUMP JUMPDEST PUSH1 0x1F NOT DUP5 AND PUSH2 0xB22 DUP7 PUSH2 0x86E JUMP JUMPDEST PUSH0 JUMPDEST DUP3 DUP2 LT ISZERO PUSH2 0xB49 JUMPI DUP5 DUP10 ADD MLOAD DUP3 SSTORE PUSH1 0x1 DUP3 ADD SWAP2 POP PUSH1 0x20 DUP6 ADD SWAP5 POP PUSH1 0x20 DUP2 ADD SWAP1 POP PUSH2 0xB24 JUMP JUMPDEST DUP7 DUP4 LT ISZERO PUSH2 0xB66 JUMPI DUP5 DUP10 ADD MLOAD PUSH2 0xB62 PUSH1 0x1F DUP10 AND DUP3 PUSH2 0xA75 JUMP JUMPDEST DUP4 SSTORE POP JUMPDEST PUSH1 0x1 PUSH1 0x2 DUP9 MUL ADD DUP9 SSTORE POP POP POP JUMPDEST POP POP POP POP POP POP JUMP JUMPDEST PUSH0 DUP2 SLOAD PUSH2 0xB87 DUP2 PUSH2 0x83E JUMP JUMPDEST PUSH2 0xB91 DUP2 DUP7 PUSH2 0x720 JUMP JUMPDEST SWAP5 POP PUSH1 0x1 DUP3 AND PUSH0 DUP2 EQ PUSH2 0xBAB JUMPI PUSH1 0x1 DUP2 EQ PUSH2 0xBC0 JUMPI PUSH2 0xBF2 JUMP JUMPDEST PUSH1 0xFF NOT DUP4 AND DUP7 MSTORE DUP2 ISZERO ISZERO DUP3 MUL DUP7 ADD SWAP4 POP PUSH2 0xBF2 JUMP JUMPDEST PUSH2 0xBC9 DUP6 PUSH2 0x86E JUMP JUMPDEST PUSH0 JUMPDEST DUP4 DUP2 LT ISZERO PUSH2 0xBEA JUMPI DUP2 SLOAD DUP2 DUP10 ADD MSTORE PUSH1 0x1 DUP3 ADD SWAP2 POP PUSH1 0x20 DUP2 ADD SWAP1 POP PUSH2 0xBCB JUMP JUMPDEST DUP4 DUP9 ADD SWAP6 POP POP POP JUMPDEST POP POP POP SWAP3 SWAP2 POP POP JUMP JUMPDEST PUSH0 PUSH2 0xC06 DUP3 DUP5 PUSH2 0xB7B JUMP JUMPDEST SWAP2 POP DUP2 SWAP1 POP SWAP3 SWAP2 POP POP JUMP INVALID LOG2 PUSH5 0x6970667358 0x22 SLT KECCAK256 EXTCODEHASH SWAP9 SWAP8 RETURNDATASIZE 0xE5 CALLDATACOPY 0x2E REVERT 0xD7 PUSH15 0x505D21C811F128216EF9AEBAFAF7D6 0xAE CALLVALUE 0x1F SELFDESTRUCT MOD KECCAK256 SWAP8 PUSH5 0x736F6C6343 STOP ADDMOD BYTE STOP CALLER "
				},
				"gasEstimates": {
					"creation": {
						"codeDepositCost": "628600",
						"executionCost": "662",
						"totalCost": "629262"
					},
					"external": {
						"acounts(uint256)": "infinite",
						"exists(address)": "2921",
						"getVotes(string)": "infinite",
						"resetVoters()": "infinite",
						"setVotes(string)": "infinite",
						"votesMap(string)": "infinite"
					}
				},
				"methodIdentifiers": {
					"acounts(uint256)": "8ca87417",
					"exists(address)": "f6a3d24e",
					"getVotes(string)": "805265e5",
					"resetVoters()": "553bd397",
					"setVotes(string)": "54f064ca",
					"votesMap(string)": "440cd69a"
				}
			},
			"storageLayout": {
				"storage": [
					{
						"astId": 5,
						"contract": "Vote/Voting.sol:Vote",
						"label": "votesMap",
						"offset": 0,
						"slot": "0",
						"type": "t_mapping(t_string_memory_ptr,t_uint256)"
					},
					{
						"astId": 8,
						"contract": "Vote/Voting.sol:Vote",
						"label": "acounts",
						"offset": 0,
						"slot": "1",
						"type": "t_array(t_string_storage)dyn_storage"
					},
					{
						"astId": 12,
						"contract": "Vote/Voting.sol:Vote",
						"label": "exists",
						"offset": 0,
						"slot": "2",
						"type": "t_mapping(t_address,t_bool)"
					}
				],
				"types": {
					"t_address": {
						"encoding": "inplace",
						"label": "address",
						"numberOfBytes": "20"
					},
					"t_array(t_string_storage)dyn_storage": {
						"base": "t_string_storage",
						"encoding": "dynamic_array",
						"label": "string[]",
						"numberOfBytes": "32"
					},
					"t_bool": {
						"encoding": "inplace",
						"label": "bool",
						"numberOfBytes": "1"
					},
					"t_mapping(t_address,t_bool)": {
						"encoding": "mapping",
						"key": "t_address",
						"label": "mapping(address => bool)",
						"numberOfBytes": "32",
						"value": "t_bool"
					},
					"t_mapping(t_string_memory_ptr,t_uint256)": {
						"encoding": "mapping",
						"key": "t_string_memory_ptr",
						"label": "mapping(string => uint256)",
						"numberOfBytes": "32",
						"value": "t_uint256"
					},
					"t_string_memory_ptr": {
						"encoding": "bytes",
						"label": "string",
						"numberOfBytes": "32"
					},
					"t_string_storage": {
						"encoding": "bytes",
						"label": "string",
						"numberOfBytes": "32"
					},
					"t_uint256": {
						"encoding": "inplace",
						"label": "uint256",
						"numberOfBytes": "32"
					}
				}
			},
			"userdoc": {
				"kind": "user",
				"methods": {},
				"version": 1
			}
		}
	}
}