{
	"data": {
		"bytecode": {
			"linkReferences": {},
			"object": "6080604052348015600e575f80fd5b506118f88061001c5f395ff3fe608060405234801561000f575f80fd5b5060043610610055575f3560e01c806361f3c62e146100595780636537214714610077578063c76e666c14610095578063e90eaa51146100c5578063f20eaeb8146100e3575b5f80fd5b610061610101565b60405161006e9190611303565b60405180910390f35b61007f610107565b60405161008c91906113a6565b60405180910390f35b6100af60048036038101906100aa91906113f4565b610193565b6040516100bc91906113a6565b60405180910390f35b6100cd61125a565b6040516100da9190611303565b60405180910390f35b6100eb611260565b6040516100f89190611471565b60405180910390f35b60035481565b60018054610114906114be565b80601f0160208091040260200160405190810160405280929190818152602001828054610140906114be565b801561018b5780601f106101625761010080835404028352916020019161018b565b820191905f5260205f20905b81548152906001019060200180831161016e57829003601f168201915b505050505081565b6060816003819055505f6103e8836101ab9190611548565b9050806002819055505f8111156102b5575f5b8181101561028e575f7f4d0000000000000000000000000000000000000000000000000000000000000090808054806101f6906114be565b80601f810361021357835f5260205f2060ff1984168155603f9350505b5060028201835560018101925050506001900381546001161561024357905f5260205f2090602091828204019190065b909190919091601f036101000a81548160ff021916907f01000000000000000000000000000000000000000000000000000000000000008404021790555080806001019150506101be565b506103e88161029d9190611578565b60035f8282546102ad91906115b9565b925050819055505b6103846003541061044b575f808054806102ce906114be565b80601f81036102eb57835f5260205f2060ff1984168155603f9350505b5060028201835560018101925050506001900381546001161561031b57905f5260205f2090602091828204019190065b7f430000000000000000000000000000000000000000000000000000000000000090919091601f036101000a81548160ff021916907f0100000000000000000000000000000000000000000000000000000000000000840402179055505f80805480610386906114be565b80601f81036103a357835f5260205f2060ff1984168155603f9350505b506002820183556001810192505050600190038154600116156103d357905f5260205f2090602091828204019190065b7f4d0000000000000000000000000000000000000000000000000000000000000090919091601f036101000a81548160ff021916907f01000000000000000000000000000000000000000000000000000000000000008404021790555061038460035f82825461044391906115b9565b925050819055505b6101f460035410610529575f80805480610464906114be565b80601f810361048157835f5260205f2060ff1984168155603f9350505b506002820183556001810192505050600190038154600116156104b157905f5260205f2090602091828204019190065b7f440000000000000000000000000000000000000000000000000000000000000090919091601f036101000a81548160ff021916907f0100000000000000000000000000000000000000000000000000000000000000840402179055506101f460035f82825461052191906115b9565b925050819055505b610190600354106106bf575f80805480610542906114be565b80601f810361055f57835f5260205f2060ff1984168155603f9350505b5060028201835560018101925050506001900381546001161561058f57905f5260205f2090602091828204019190065b7f430000000000000000000000000000000000000000000000000000000000000090919091601f036101000a81548160ff021916907f0100000000000000000000000000000000000000000000000000000000000000840402179055505f808054806105fa906114be565b80601f810361061757835f5260205f2060ff1984168155603f9350505b5060028201835560018101925050506001900381546001161561064757905f5260205f2090602091828204019190065b7f440000000000000000000000000000000000000000000000000000000000000090919091601f036101000a81548160ff021916907f01000000000000000000000000000000000000000000000000000000000000008404021790555061019060035f8282546106b791906115b9565b925050819055505b5f60646003546106cf9190611548565b90505f8111156107ce575f5b818110156107a8575f808054806106f1906114be565b80601f810361070e57835f5260205f2060ff1984168155603f9350505b5060028201835560018101925050506001900381546001161561073e57905f5260205f2090602091828204019190065b7f430000000000000000000000000000000000000000000000000000000000000090919091601f036101000a81548160ff021916907f01000000000000000000000000000000000000000000000000000000000000008404021790555080806001019150506106db565b508060646107b69190611578565b60035f8282546107c691906115b9565b925050819055505b605a60035410610962575f808054806107e6906114be565b80601f810361080357835f5260205f2060ff1984168155603f9350505b5060028201835560018101925050506001900381546001161561083357905f5260205f2090602091828204019190065b7f580000000000000000000000000000000000000000000000000000000000000090919091601f036101000a81548160ff021916907f0100000000000000000000000000000000000000000000000000000000000000840402179055505f8080548061089e906114be565b80601f81036108bb57835f5260205f2060ff1984168155603f9350505b506002820183556001810192505050600190038154600116156108eb57905f5260205f2090602091828204019190065b7f430000000000000000000000000000000000000000000000000000000000000090919091601f036101000a81548160ff021916907f010000000000000000000000000000000000000000000000000000000000000084040217905550605a60035f82825461095a91906115b9565b925050819055505b603260035410610a3e575f8080548061097a906114be565b80601f810361099757835f5260205f2060ff1984168155603f9350505b506002820183556001810192505050600190038154600116156109c757905f5260205f2090602091828204019190065b7f4c0000000000000000000000000000000000000000000000000000000000000090919091601f036101000a81548160ff021916907f010000000000000000000000000000000000000000000000000000000000000084040217905550603260035f828254610a3691906115b9565b925050819055505b602860035410610bd2575f80805480610a56906114be565b80601f8103610a7357835f5260205f2060ff1984168155603f9350505b50600282018355600181019250505060019003815460011615610aa357905f5260205f2090602091828204019190065b7f580000000000000000000000000000000000000000000000000000000000000090919091601f036101000a81548160ff021916907f0100000000000000000000000000000000000000000000000000000000000000840402179055505f80805480610b0e906114be565b80601f8103610b2b57835f5260205f2060ff1984168155603f9350505b50600282018355600181019250505060019003815460011615610b5b57905f5260205f2090602091828204019190065b7f4c0000000000000000000000000000000000000000000000000000000000000090919091601f036101000a81548160ff021916907f010000000000000000000000000000000000000000000000000000000000000084040217905550602860035f828254610bca91906115b9565b925050819055505b5f600a600354610be29190611548565b90505f811115610ce1575f5b82811015610cbb575f80805480610c04906114be565b80601f8103610c2157835f5260205f2060ff1984168155603f9350505b50600282018355600181019250505060019003815460011615610c5157905f5260205f2090602091828204019190065b7f580000000000000000000000000000000000000000000000000000000000000090919091601f036101000a81548160ff021916907f0100000000000000000000000000000000000000000000000000000000000000840402179055508080600101915050610bee565b5081600a610cc99190611578565b60035f828254610cd991906115b9565b925050819055505b600960035410610e75575f80805480610cf9906114be565b80601f8103610d1657835f5260205f2060ff1984168155603f9350505b50600282018355600181019250505060019003815460011615610d4657905f5260205f2090602091828204019190065b7f490000000000000000000000000000000000000000000000000000000000000090919091601f036101000a81548160ff021916907f0100000000000000000000000000000000000000000000000000000000000000840402179055505f80805480610db1906114be565b80601f8103610dce57835f5260205f2060ff1984168155603f9350505b50600282018355600181019250505060019003815460011615610dfe57905f5260205f2090602091828204019190065b7f580000000000000000000000000000000000000000000000000000000000000090919091601f036101000a81548160ff021916907f010000000000000000000000000000000000000000000000000000000000000084040217905550600960035f828254610e6d91906115b9565b925050819055505b600560035410610f51575f80805480610e8d906114be565b80601f8103610eaa57835f5260205f2060ff1984168155603f9350505b50600282018355600181019250505060019003815460011615610eda57905f5260205f2090602091828204019190065b7f560000000000000000000000000000000000000000000000000000000000000090919091601f036101000a81548160ff021916907f010000000000000000000000000000000000000000000000000000000000000084040217905550600560035f828254610f4991906115b9565b925050819055505b6004600354106110e5575f80805480610f69906114be565b80601f8103610f8657835f5260205f2060ff1984168155603f9350505b50600282018355600181019250505060019003815460011615610fb657905f5260205f2090602091828204019190065b7f490000000000000000000000000000000000000000000000000000000000000090919091601f036101000a81548160ff021916907f0100000000000000000000000000000000000000000000000000000000000000840402179055505f80805480611021906114be565b80601f810361103e57835f5260205f2060ff1984168155603f9350505b5060028201835560018101925050506001900381546001161561106e57905f5260205f2090602091828204019190065b7f560000000000000000000000000000000000000000000000000000000000000090919091601f036101000a81548160ff021916907f010000000000000000000000000000000000000000000000000000000000000084040217905550600460035f8282546110dd91906115b9565b925050819055505b5f5b6003548110156111b6575f808054806110ff906114be565b80601f810361111c57835f5260205f2060ff1984168155603f9350505b5060028201835560018101925050506001900381546001161561114c57905f5260205f2090602091828204019190065b7f490000000000000000000000000000000000000000000000000000000000000090919091601f036101000a81548160ff021916907f01000000000000000000000000000000000000000000000000000000000000008404021790555080806001019150506110e7565b505f600190816111c691906117dd565b50600180546111d4906114be565b80601f0160208091040260200160405190810160405280929190818152602001828054611200906114be565b801561124b5780601f106112225761010080835404028352916020019161124b565b820191905f5260205f20905b81548152906001019060200180831161122e57829003601f168201915b50505050509350505050919050565b60025481565b5f805461126c906114be565b80601f0160208091040260200160405190810160405280929190818152602001828054611298906114be565b80156112e35780601f106112ba576101008083540402835291602001916112e3565b820191905f5260205f20905b8154815290600101906020018083116112c657829003601f168201915b505050505081565b5f819050919050565b6112fd816112eb565b82525050565b5f6020820190506113165f8301846112f4565b92915050565b5f81519050919050565b5f82825260208201905092915050565b5f5b83811015611353578082015181840152602081019050611338565b5f8484015250505050565b5f601f19601f8301169050919050565b5f6113788261131c565b6113828185611326565b9350611392818560208601611336565b61139b8161135e565b840191505092915050565b5f6020820190508181035f8301526113be818461136e565b905092915050565b5f80fd5b6113d3816112eb565b81146113dd575f80fd5b50565b5f813590506113ee816113ca565b92915050565b5f60208284031215611409576114086113c6565b5b5f611416848285016113e0565b91505092915050565b5f81519050919050565b5f82825260208201905092915050565b5f6114438261141f565b61144d8185611429565b935061145d818560208601611336565b6114668161135e565b840191505092915050565b5f6020820190508181035f8301526114898184611439565b905092915050565b7f4e487b71000000000000000000000000000000000000000000000000000000005f52602260045260245ffd5b5f60028204905060018216806114d557607f821691505b6020821081036114e8576114e7611491565b5b50919050565b7f4e487b71000000000000000000000000000000000000000000000000000000005f52601260045260245ffd5b7f4e487b71000000000000000000000000000000000000000000000000000000005f52601160045260245ffd5b5f611552826112eb565b915061155d836112eb565b92508261156d5761156c6114ee565b5b828204905092915050565b5f611582826112eb565b915061158d836112eb565b925082820261159b816112eb565b915082820484148315176115b2576115b161151b565b5b5092915050565b5f6115c3826112eb565b91506115ce836112eb565b92508282039050818111156115e6576115e561151b565b5b92915050565b5f815490506115fa816114be565b9050919050565b7f4e487b71000000000000000000000000000000000000000000000000000000005f52604160045260245ffd5b5f819050815f5260205f209050919050565b5f819050815f5260205f209050919050565b5f6020601f8301049050919050565b5f82821b905092915050565b5f6008830261169c7fffffffffffffffffffffffffffffffffffffffffffffffffffffffffffffffff82611661565b6116a68683611661565b95508019841693508086168417925050509392505050565b5f819050919050565b5f6116e16116dc6116d7846112eb565b6116be565b6112eb565b9050919050565b5f819050919050565b6116fa836116c7565b61170e611706826116e8565b84845461166d565b825550505050565b5f90565b611722611716565b61172d8184846116f1565b505050565b5b81811015611750576117455f8261171a565b600181019050611733565b5050565b601f821115611795576117668161162e565b61176f84611652565b8101602085101561177e578190505b61179261178a85611652565b830182611732565b50505b505050565b5f82821c905092915050565b5f6117b55f198460080261179a565b1980831691505092915050565b5f6117cd83836117a6565b9150826002028217905092915050565b8181036117eb5750506118c0565b6117f4826115ec565b67ffffffffffffffff81111561180d5761180c611601565b5b61181782546114be565b611822828285611754565b5f601f83116001811461184f575f841561183d578287015490505b61184785826117c2565b8655506118b9565b601f19841661185d87611640565b96506118688661162e565b5f5b8281101561188f5784890154825560018201915060018501945060208101905061186a565b868310156118ac57848901546118a8601f8916826117a6565b8355505b6001600288020188555050505b5050505050505b56fea2646970667358221220b05df08b5a04392fb5840a5026c666d147deed4b9cb83e91551dd60fc1ce15a864736f6c634300081a0033",
			"opcodes": "PUSH1 0x80 PUSH1 0x40 MSTORE CALLVALUE DUP1 ISZERO PUSH1 0xE JUMPI PUSH0 DUP1 REVERT JUMPDEST POP PUSH2 0x18F8 DUP1 PUSH2 0x1C PUSH0 CODECOPY PUSH0 RETURN INVALID PUSH1 0x80 PUSH1 0x40 MSTORE CALLVALUE DUP1 ISZERO PUSH2 0xF JUMPI PUSH0 DUP1 REVERT JUMPDEST POP PUSH1 0x4 CALLDATASIZE LT PUSH2 0x55 JUMPI PUSH0 CALLDATALOAD PUSH1 0xE0 SHR DUP1 PUSH4 0x61F3C62E EQ PUSH2 0x59 JUMPI DUP1 PUSH4 0x65372147 EQ PUSH2 0x77 JUMPI DUP1 PUSH4 0xC76E666C EQ PUSH2 0x95 JUMPI DUP1 PUSH4 0xE90EAA51 EQ PUSH2 0xC5 JUMPI DUP1 PUSH4 0xF20EAEB8 EQ PUSH2 0xE3 JUMPI JUMPDEST PUSH0 DUP1 REVERT JUMPDEST PUSH2 0x61 PUSH2 0x101 JUMP JUMPDEST PUSH1 0x40 MLOAD PUSH2 0x6E SWAP2 SWAP1 PUSH2 0x1303 JUMP JUMPDEST PUSH1 0x40 MLOAD DUP1 SWAP2 SUB SWAP1 RETURN JUMPDEST PUSH2 0x7F PUSH2 0x107 JUMP JUMPDEST PUSH1 0x40 MLOAD PUSH2 0x8C SWAP2 SWAP1 PUSH2 0x13A6 JUMP JUMPDEST PUSH1 0x40 MLOAD DUP1 SWAP2 SUB SWAP1 RETURN JUMPDEST PUSH2 0xAF PUSH1 0x4 DUP1 CALLDATASIZE SUB DUP2 ADD SWAP1 PUSH2 0xAA SWAP2 SWAP1 PUSH2 0x13F4 JUMP JUMPDEST PUSH2 0x193 JUMP JUMPDEST PUSH1 0x40 MLOAD PUSH2 0xBC SWAP2 SWAP1 PUSH2 0x13A6 JUMP JUMPDEST PUSH1 0x40 MLOAD DUP1 SWAP2 SUB SWAP1 RETURN JUMPDEST PUSH2 0xCD PUSH2 0x125A JUMP JUMPDEST PUSH1 0x40 MLOAD PUSH2 0xDA SWAP2 SWAP1 PUSH2 0x1303 JUMP JUMPDEST PUSH1 0x40 MLOAD DUP1 SWAP2 SUB SWAP1 RETURN JUMPDEST PUSH2 0xEB PUSH2 0x1260 JUMP JUMPDEST PUSH1 0x40 MLOAD PUSH2 0xF8 SWAP2 SWAP1 PUSH2 0x1471 JUMP JUMPDEST PUSH1 0x40 MLOAD DUP1 SWAP2 SUB SWAP1 RETURN JUMPDEST PUSH1 0x3 SLOAD DUP2 JUMP JUMPDEST PUSH1 0x1 DUP1 SLOAD PUSH2 0x114 SWAP1 PUSH2 0x14BE JUMP JUMPDEST DUP1 PUSH1 0x1F ADD PUSH1 0x20 DUP1 SWAP2 DIV MUL PUSH1 0x20 ADD PUSH1 0x40 MLOAD SWAP1 DUP2 ADD PUSH1 0x40 MSTORE DUP1 SWAP3 SWAP2 SWAP1 DUP2 DUP2 MSTORE PUSH1 0x20 ADD DUP3 DUP1 SLOAD PUSH2 0x140 SWAP1 PUSH2 0x14BE JUMP JUMPDEST DUP1 ISZERO PUSH2 0x18B JUMPI DUP1 PUSH1 0x1F LT PUSH2 0x162 JUMPI PUSH2 0x100 DUP1 DUP4 SLOAD DIV MUL DUP4 MSTORE SWAP2 PUSH1 0x20 ADD SWAP2 PUSH2 0x18B JUMP JUMPDEST DUP3 ADD SWAP2 SWAP1 PUSH0 MSTORE PUSH1 0x20 PUSH0 KECCAK256 SWAP1 JUMPDEST DUP2 SLOAD DUP2 MSTORE SWAP1 PUSH1 0x1 ADD SWAP1 PUSH1 0x20 ADD DUP1 DUP4 GT PUSH2 0x16E JUMPI DUP3 SWAP1 SUB PUSH1 0x1F AND DUP3 ADD SWAP2 JUMPDEST POP POP POP POP POP DUP2 JUMP JUMPDEST PUSH1 0x60 DUP2 PUSH1 0x3 DUP2 SWAP1 SSTORE POP PUSH0 PUSH2 0x3E8 DUP4 PUSH2 0x1AB SWAP2 SWAP1 PUSH2 0x1548 JUMP JUMPDEST SWAP1 POP DUP1 PUSH1 0x2 DUP2 SWAP1 SSTORE POP PUSH0 DUP2 GT ISZERO PUSH2 0x2B5 JUMPI PUSH0 JUMPDEST DUP2 DUP2 LT ISZERO PUSH2 0x28E JUMPI PUSH0 PUSH32 0x4D00000000000000000000000000000000000000000000000000000000000000 SWAP1 DUP1 DUP1 SLOAD DUP1 PUSH2 0x1F6 SWAP1 PUSH2 0x14BE JUMP JUMPDEST DUP1 PUSH1 0x1F DUP2 SUB PUSH2 0x213 JUMPI DUP4 PUSH0 MSTORE PUSH1 0x20 PUSH0 KECCAK256 PUSH1 0xFF NOT DUP5 AND DUP2 SSTORE PUSH1 0x3F SWAP4 POP POP JUMPDEST POP PUSH1 0x2 DUP3 ADD DUP4 SSTORE PUSH1 0x1 DUP2 ADD SWAP3 POP POP POP PUSH1 0x1 SWAP1 SUB DUP2 SLOAD PUSH1 0x1 AND ISZERO PUSH2 0x243 JUMPI SWAP1 PUSH0 MSTORE PUSH1 0x20 PUSH0 KECCAK256 SWAP1 PUSH1 0x20 SWAP2 DUP3 DUP3 DIV ADD SWAP2 SWAP1 MOD JUMPDEST SWAP1 SWAP2 SWAP1 SWAP2 SWAP1 SWAP2 PUSH1 0x1F SUB PUSH2 0x100 EXP DUP2 SLOAD DUP2 PUSH1 0xFF MUL NOT AND SWAP1 PUSH32 0x100000000000000000000000000000000000000000000000000000000000000 DUP5 DIV MUL OR SWAP1 SSTORE POP DUP1 DUP1 PUSH1 0x1 ADD SWAP2 POP POP PUSH2 0x1BE JUMP JUMPDEST POP PUSH2 0x3E8 DUP2 PUSH2 0x29D SWAP2 SWAP1 PUSH2 0x1578 JUMP JUMPDEST PUSH1 0x3 PUSH0 DUP3 DUP3 SLOAD PUSH2 0x2AD SWAP2 SWAP1 PUSH2 0x15B9 JUMP JUMPDEST SWAP3 POP POP DUP2 SWAP1 SSTORE POP JUMPDEST PUSH2 0x384 PUSH1 0x3 SLOAD LT PUSH2 0x44B JUMPI PUSH0 DUP1 DUP1 SLOAD DUP1 PUSH2 0x2CE SWAP1 PUSH2 0x14BE JUMP JUMPDEST DUP1 PUSH1 0x1F DUP2 SUB PUSH2 0x2EB JUMPI DUP4 PUSH0 MSTORE PUSH1 0x20 PUSH0 KECCAK256 PUSH1 0xFF NOT DUP5 AND DUP2 SSTORE PUSH1 0x3F SWAP4 POP POP JUMPDEST POP PUSH1 0x2 DUP3 ADD DUP4 SSTORE PUSH1 0x1 DUP2 ADD SWAP3 POP POP POP PUSH1 0x1 SWAP1 SUB DUP2 SLOAD PUSH1 0x1 AND ISZERO PUSH2 0x31B JUMPI SWAP1 PUSH0 MSTORE PUSH1 0x20 PUSH0 KECCAK256 SWAP1 PUSH1 0x20 SWAP2 DUP3 DUP3 DIV ADD SWAP2 SWAP1 MOD JUMPDEST PUSH32 0x4300000000000000000000000000000000000000000000000000000000000000 SWAP1 SWAP2 SWAP1 SWAP2 PUSH1 0x1F SUB PUSH2 0x100 EXP DUP2 SLOAD DUP2 PUSH1 0xFF MUL NOT AND SWAP1 PUSH32 0x100000000000000000000000000000000000000000000000000000000000000 DUP5 DIV MUL OR SWAP1 SSTORE POP PUSH0 DUP1 DUP1 SLOAD DUP1 PUSH2 0x386 SWAP1 PUSH2 0x14BE JUMP JUMPDEST DUP1 PUSH1 0x1F DUP2 SUB PUSH2 0x3A3 JUMPI DUP4 PUSH0 MSTORE PUSH1 0x20 PUSH0 KECCAK256 PUSH1 0xFF NOT DUP5 AND DUP2 SSTORE PUSH1 0x3F SWAP4 POP POP JUMPDEST POP PUSH1 0x2 DUP3 ADD DUP4 SSTORE PUSH1 0x1 DUP2 ADD SWAP3 POP POP POP PUSH1 0x1 SWAP1 SUB DUP2 SLOAD PUSH1 0x1 AND ISZERO PUSH2 0x3D3 JUMPI SWAP1 PUSH0 MSTORE PUSH1 0x20 PUSH0 KECCAK256 SWAP1 PUSH1 0x20 SWAP2 DUP3 DUP3 DIV ADD SWAP2 SWAP1 MOD JUMPDEST PUSH32 0x4D00000000000000000000000000000000000000000000000000000000000000 SWAP1 SWAP2 SWAP1 SWAP2 PUSH1 0x1F SUB PUSH2 0x100 EXP DUP2 SLOAD DUP2 PUSH1 0xFF MUL NOT AND SWAP1 PUSH32 0x100000000000000000000000000000000000000000000000000000000000000 DUP5 DIV MUL OR SWAP1 SSTORE POP PUSH2 0x384 PUSH1 0x3 PUSH0 DUP3 DUP3 SLOAD PUSH2 0x443 SWAP2 SWAP1 PUSH2 0x15B9 JUMP JUMPDEST SWAP3 POP POP DUP2 SWAP1 SSTORE POP JUMPDEST PUSH2 0x1F4 PUSH1 0x3 SLOAD LT PUSH2 0x529 JUMPI PUSH0 DUP1 DUP1 SLOAD DUP1 PUSH2 0x464 SWAP1 PUSH2 0x14BE JUMP JUMPDEST DUP1 PUSH1 0x1F DUP2 SUB PUSH2 0x481 JUMPI DUP4 PUSH0 MSTORE PUSH1 0x20 PUSH0 KECCAK256 PUSH1 0xFF NOT DUP5 AND DUP2 SSTORE PUSH1 0x3F SWAP4 POP POP JUMPDEST POP PUSH1 0x2 DUP3 ADD DUP4 SSTORE PUSH1 0x1 DUP2 ADD SWAP3 POP POP POP PUSH1 0x1 SWAP1 SUB DUP2 SLOAD PUSH1 0x1 AND ISZERO PUSH2 0x4B1 JUMPI SWAP1 PUSH0 MSTORE PUSH1 0x20 PUSH0 KECCAK256 SWAP1 PUSH1 0x20 SWAP2 DUP3 DUP3 DIV ADD SWAP2 SWAP1 MOD JUMPDEST PUSH32 0x4400000000000000000000000000000000000000000000000000000000000000 SWAP1 SWAP2 SWAP1 SWAP2 PUSH1 0x1F SUB PUSH2 0x100 EXP DUP2 SLOAD DUP2 PUSH1 0xFF MUL NOT AND SWAP1 PUSH32 0x100000000000000000000000000000000000000000000000000000000000000 DUP5 DIV MUL OR SWAP1 SSTORE POP PUSH2 0x1F4 PUSH1 0x3 PUSH0 DUP3 DUP3 SLOAD PUSH2 0x521 SWAP2 SWAP1 PUSH2 0x15B9 JUMP JUMPDEST SWAP3 POP POP DUP2 SWAP1 SSTORE POP JUMPDEST PUSH2 0x190 PUSH1 0x3 SLOAD LT PUSH2 0x6BF JUMPI PUSH0 DUP1 DUP1 SLOAD DUP1 PUSH2 0x542 SWAP1 PUSH2 0x14BE JUMP JUMPDEST DUP1 PUSH1 0x1F DUP2 SUB PUSH2 0x55F JUMPI DUP4 PUSH0 MSTORE PUSH1 0x20 PUSH0 KECCAK256 PUSH1 0xFF NOT DUP5 AND DUP2 SSTORE PUSH1 0x3F SWAP4 POP POP JUMPDEST POP PUSH1 0x2 DUP3 ADD DUP4 SSTORE PUSH1 0x1 DUP2 ADD SWAP3 POP POP POP PUSH1 0x1 SWAP1 SUB DUP2 SLOAD PUSH1 0x1 AND ISZERO PUSH2 0x58F JUMPI SWAP1 PUSH0 MSTORE PUSH1 0x20 PUSH0 KECCAK256 SWAP1 PUSH1 0x20 SWAP2 DUP3 DUP3 DIV ADD SWAP2 SWAP1 MOD JUMPDEST PUSH32 0x4300000000000000000000000000000000000000000000000000000000000000 SWAP1 SWAP2 SWAP1 SWAP2 PUSH1 0x1F SUB PUSH2 0x100 EXP DUP2 SLOAD DUP2 PUSH1 0xFF MUL NOT AND SWAP1 PUSH32 0x100000000000000000000000000000000000000000000000000000000000000 DUP5 DIV MUL OR SWAP1 SSTORE POP PUSH0 DUP1 DUP1 SLOAD DUP1 PUSH2 0x5FA SWAP1 PUSH2 0x14BE JUMP JUMPDEST DUP1 PUSH1 0x1F DUP2 SUB PUSH2 0x617 JUMPI DUP4 PUSH0 MSTORE PUSH1 0x20 PUSH0 KECCAK256 PUSH1 0xFF NOT DUP5 AND DUP2 SSTORE PUSH1 0x3F SWAP4 POP POP JUMPDEST POP PUSH1 0x2 DUP3 ADD DUP4 SSTORE PUSH1 0x1 DUP2 ADD SWAP3 POP POP POP PUSH1 0x1 SWAP1 SUB DUP2 SLOAD PUSH1 0x1 AND ISZERO PUSH2 0x647 JUMPI SWAP1 PUSH0 MSTORE PUSH1 0x20 PUSH0 KECCAK256 SWAP1 PUSH1 0x20 SWAP2 DUP3 DUP3 DIV ADD SWAP2 SWAP1 MOD JUMPDEST PUSH32 0x4400000000000000000000000000000000000000000000000000000000000000 SWAP1 SWAP2 SWAP1 SWAP2 PUSH1 0x1F SUB PUSH2 0x100 EXP DUP2 SLOAD DUP2 PUSH1 0xFF MUL NOT AND SWAP1 PUSH32 0x100000000000000000000000000000000000000000000000000000000000000 DUP5 DIV MUL OR SWAP1 SSTORE POP PUSH2 0x190 PUSH1 0x3 PUSH0 DUP3 DUP3 SLOAD PUSH2 0x6B7 SWAP2 SWAP1 PUSH2 0x15B9 JUMP JUMPDEST SWAP3 POP POP DUP2 SWAP1 SSTORE POP JUMPDEST PUSH0 PUSH1 0x64 PUSH1 0x3 SLOAD PUSH2 0x6CF SWAP2 SWAP1 PUSH2 0x1548 JUMP JUMPDEST SWAP1 POP PUSH0 DUP2 GT ISZERO PUSH2 0x7CE JUMPI PUSH0 JUMPDEST DUP2 DUP2 LT ISZERO PUSH2 0x7A8 JUMPI PUSH0 DUP1 DUP1 SLOAD DUP1 PUSH2 0x6F1 SWAP1 PUSH2 0x14BE JUMP JUMPDEST DUP1 PUSH1 0x1F DUP2 SUB PUSH2 0x70E JUMPI DUP4 PUSH0 MSTORE PUSH1 0x20 PUSH0 KECCAK256 PUSH1 0xFF NOT DUP5 AND DUP2 SSTORE PUSH1 0x3F SWAP4 POP POP JUMPDEST POP PUSH1 0x2 DUP3 ADD DUP4 SSTORE PUSH1 0x1 DUP2 ADD SWAP3 POP POP POP PUSH1 0x1 SWAP1 SUB DUP2 SLOAD PUSH1 0x1 AND ISZERO PUSH2 0x73E JUMPI SWAP1 PUSH0 MSTORE PUSH1 0x20 PUSH0 KECCAK256 SWAP1 PUSH1 0x20 SWAP2 DUP3 DUP3 DIV ADD SWAP2 SWAP1 MOD JUMPDEST PUSH32 0x4300000000000000000000000000000000000000000000000000000000000000 SWAP1 SWAP2 SWAP1 SWAP2 PUSH1 0x1F SUB PUSH2 0x100 EXP DUP2 SLOAD DUP2 PUSH1 0xFF MUL NOT AND SWAP1 PUSH32 0x100000000000000000000000000000000000000000000000000000000000000 DUP5 DIV MUL OR SWAP1 SSTORE POP DUP1 DUP1 PUSH1 0x1 ADD SWAP2 POP POP PUSH2 0x6DB JUMP JUMPDEST POP DUP1 PUSH1 0x64 PUSH2 0x7B6 SWAP2 SWAP1 PUSH2 0x1578 JUMP JUMPDEST PUSH1 0x3 PUSH0 DUP3 DUP3 SLOAD PUSH2 0x7C6 SWAP2 SWAP1 PUSH2 0x15B9 JUMP JUMPDEST SWAP3 POP POP DUP2 SWAP1 SSTORE POP JUMPDEST PUSH1 0x5A PUSH1 0x3 SLOAD LT PUSH2 0x962 JUMPI PUSH0 DUP1 DUP1 SLOAD DUP1 PUSH2 0x7E6 SWAP1 PUSH2 0x14BE JUMP JUMPDEST DUP1 PUSH1 0x1F DUP2 SUB PUSH2 0x803 JUMPI DUP4 PUSH0 MSTORE PUSH1 0x20 PUSH0 KECCAK256 PUSH1 0xFF NOT DUP5 AND DUP2 SSTORE PUSH1 0x3F SWAP4 POP POP JUMPDEST POP PUSH1 0x2 DUP3 ADD DUP4 SSTORE PUSH1 0x1 DUP2 ADD SWAP3 POP POP POP PUSH1 0x1 SWAP1 SUB DUP2 SLOAD PUSH1 0x1 AND ISZERO PUSH2 0x833 JUMPI SWAP1 PUSH0 MSTORE PUSH1 0x20 PUSH0 KECCAK256 SWAP1 PUSH1 0x20 SWAP2 DUP3 DUP3 DIV ADD SWAP2 SWAP1 MOD JUMPDEST PUSH32 0x5800000000000000000000000000000000000000000000000000000000000000 SWAP1 SWAP2 SWAP1 SWAP2 PUSH1 0x1F SUB PUSH2 0x100 EXP DUP2 SLOAD DUP2 PUSH1 0xFF MUL NOT AND SWAP1 PUSH32 0x100000000000000000000000000000000000000000000000000000000000000 DUP5 DIV MUL OR SWAP1 SSTORE POP PUSH0 DUP1 DUP1 SLOAD DUP1 PUSH2 0x89E SWAP1 PUSH2 0x14BE JUMP JUMPDEST DUP1 PUSH1 0x1F DUP2 SUB PUSH2 0x8BB JUMPI DUP4 PUSH0 MSTORE PUSH1 0x20 PUSH0 KECCAK256 PUSH1 0xFF NOT DUP5 AND DUP2 SSTORE PUSH1 0x3F SWAP4 POP POP JUMPDEST POP PUSH1 0x2 DUP3 ADD DUP4 SSTORE PUSH1 0x1 DUP2 ADD SWAP3 POP POP POP PUSH1 0x1 SWAP1 SUB DUP2 SLOAD PUSH1 0x1 AND ISZERO PUSH2 0x8EB JUMPI SWAP1 PUSH0 MSTORE PUSH1 0x20 PUSH0 KECCAK256 SWAP1 PUSH1 0x20 SWAP2 DUP3 DUP3 DIV ADD SWAP2 SWAP1 MOD JUMPDEST PUSH32 0x4300000000000000000000000000000000000000000000000000000000000000 SWAP1 SWAP2 SWAP1 SWAP2 PUSH1 0x1F SUB PUSH2 0x100 EXP DUP2 SLOAD DUP2 PUSH1 0xFF MUL NOT AND SWAP1 PUSH32 0x100000000000000000000000000000000000000000000000000000000000000 DUP5 DIV MUL OR SWAP1 SSTORE POP PUSH1 0x5A PUSH1 0x3 PUSH0 DUP3 DUP3 SLOAD PUSH2 0x95A SWAP2 SWAP1 PUSH2 0x15B9 JUMP JUMPDEST SWAP3 POP POP DUP2 SWAP1 SSTORE POP JUMPDEST PUSH1 0x32 PUSH1 0x3 SLOAD LT PUSH2 0xA3E JUMPI PUSH0 DUP1 DUP1 SLOAD DUP1 PUSH2 0x97A SWAP1 PUSH2 0x14BE JUMP JUMPDEST DUP1 PUSH1 0x1F DUP2 SUB PUSH2 0x997 JUMPI DUP4 PUSH0 MSTORE PUSH1 0x20 PUSH0 KECCAK256 PUSH1 0xFF NOT DUP5 AND DUP2 SSTORE PUSH1 0x3F SWAP4 POP POP JUMPDEST POP PUSH1 0x2 DUP3 ADD DUP4 SSTORE PUSH1 0x1 DUP2 ADD SWAP3 POP POP POP PUSH1 0x1 SWAP1 SUB DUP2 SLOAD PUSH1 0x1 AND ISZERO PUSH2 0x9C7 JUMPI SWAP1 PUSH0 MSTORE PUSH1 0x20 PUSH0 KECCAK256 SWAP1 PUSH1 0x20 SWAP2 DUP3 DUP3 DIV ADD SWAP2 SWAP1 MOD JUMPDEST PUSH32 0x4C00000000000000000000000000000000000000000000000000000000000000 SWAP1 SWAP2 SWAP1 SWAP2 PUSH1 0x1F SUB PUSH2 0x100 EXP DUP2 SLOAD DUP2 PUSH1 0xFF MUL NOT AND SWAP1 PUSH32 0x100000000000000000000000000000000000000000000000000000000000000 DUP5 DIV MUL OR SWAP1 SSTORE POP PUSH1 0x32 PUSH1 0x3 PUSH0 DUP3 DUP3 SLOAD PUSH2 0xA36 SWAP2 SWAP1 PUSH2 0x15B9 JUMP JUMPDEST SWAP3 POP POP DUP2 SWAP1 SSTORE POP JUMPDEST PUSH1 0x28 PUSH1 0x3 SLOAD LT PUSH2 0xBD2 JUMPI PUSH0 DUP1 DUP1 SLOAD DUP1 PUSH2 0xA56 SWAP1 PUSH2 0x14BE JUMP JUMPDEST DUP1 PUSH1 0x1F DUP2 SUB PUSH2 0xA73 JUMPI DUP4 PUSH0 MSTORE PUSH1 0x20 PUSH0 KECCAK256 PUSH1 0xFF NOT DUP5 AND DUP2 SSTORE PUSH1 0x3F SWAP4 POP POP JUMPDEST POP PUSH1 0x2 DUP3 ADD DUP4 SSTORE PUSH1 0x1 DUP2 ADD SWAP3 POP POP POP PUSH1 0x1 SWAP1 SUB DUP2 SLOAD PUSH1 0x1 AND ISZERO PUSH2 0xAA3 JUMPI SWAP1 PUSH0 MSTORE PUSH1 0x20 PUSH0 KECCAK256 SWAP1 PUSH1 0x20 SWAP2 DUP3 DUP3 DIV ADD SWAP2 SWAP1 MOD JUMPDEST PUSH32 0x5800000000000000000000000000000000000000000000000000000000000000 SWAP1 SWAP2 SWAP1 SWAP2 PUSH1 0x1F SUB PUSH2 0x100 EXP DUP2 SLOAD DUP2 PUSH1 0xFF MUL NOT AND SWAP1 PUSH32 0x100000000000000000000000000000000000000000000000000000000000000 DUP5 DIV MUL OR SWAP1 SSTORE POP PUSH0 DUP1 DUP1 SLOAD DUP1 PUSH2 0xB0E SWAP1 PUSH2 0x14BE JUMP JUMPDEST DUP1 PUSH1 0x1F DUP2 SUB PUSH2 0xB2B JUMPI DUP4 PUSH0 MSTORE PUSH1 0x20 PUSH0 KECCAK256 PUSH1 0xFF NOT DUP5 AND DUP2 SSTORE PUSH1 0x3F SWAP4 POP POP JUMPDEST POP PUSH1 0x2 DUP3 ADD DUP4 SSTORE PUSH1 0x1 DUP2 ADD SWAP3 POP POP POP PUSH1 0x1 SWAP1 SUB DUP2 SLOAD PUSH1 0x1 AND ISZERO PUSH2 0xB5B JUMPI SWAP1 PUSH0 MSTORE PUSH1 0x20 PUSH0 KECCAK256 SWAP1 PUSH1 0x20 SWAP2 DUP3 DUP3 DIV ADD SWAP2 SWAP1 MOD JUMPDEST PUSH32 0x4C00000000000000000000000000000000000000000000000000000000000000 SWAP1 SWAP2 SWAP1 SWAP2 PUSH1 0x1F SUB PUSH2 0x100 EXP DUP2 SLOAD DUP2 PUSH1 0xFF MUL NOT AND SWAP1 PUSH32 0x100000000000000000000000000000000000000000000000000000000000000 DUP5 DIV MUL OR SWAP1 SSTORE POP PUSH1 0x28 PUSH1 0x3 PUSH0 DUP3 DUP3 SLOAD PUSH2 0xBCA SWAP2 SWAP1 PUSH2 0x15B9 JUMP JUMPDEST SWAP3 POP POP DUP2 SWAP1 SSTORE POP JUMPDEST PUSH0 PUSH1 0xA PUSH1 0x3 SLOAD PUSH2 0xBE2 SWAP2 SWAP1 PUSH2 0x1548 JUMP JUMPDEST SWAP1 POP PUSH0 DUP2 GT ISZERO PUSH2 0xCE1 JUMPI PUSH0 JUMPDEST DUP3 DUP2 LT ISZERO PUSH2 0xCBB JUMPI PUSH0 DUP1 DUP1 SLOAD DUP1 PUSH2 0xC04 SWAP1 PUSH2 0x14BE JUMP JUMPDEST DUP1 PUSH1 0x1F DUP2 SUB PUSH2 0xC21 JUMPI DUP4 PUSH0 MSTORE PUSH1 0x20 PUSH0 KECCAK256 PUSH1 0xFF NOT DUP5 AND DUP2 SSTORE PUSH1 0x3F SWAP4 POP POP JUMPDEST POP PUSH1 0x2 DUP3 ADD DUP4 SSTORE PUSH1 0x1 DUP2 ADD SWAP3 POP POP POP PUSH1 0x1 SWAP1 SUB DUP2 SLOAD PUSH1 0x1 AND ISZERO PUSH2 0xC51 JUMPI SWAP1 PUSH0 MSTORE PUSH1 0x20 PUSH0 KECCAK256 SWAP1 PUSH1 0x20 SWAP2 DUP3 DUP3 DIV ADD SWAP2 SWAP1 MOD JUMPDEST PUSH32 0x5800000000000000000000000000000000000000000000000000000000000000 SWAP1 SWAP2 SWAP1 SWAP2 PUSH1 0x1F SUB PUSH2 0x100 EXP DUP2 SLOAD DUP2 PUSH1 0xFF MUL NOT AND SWAP1 PUSH32 0x100000000000000000000000000000000000000000000000000000000000000 DUP5 DIV MUL OR SWAP1 SSTORE POP DUP1 DUP1 PUSH1 0x1 ADD SWAP2 POP POP PUSH2 0xBEE JUMP JUMPDEST POP DUP2 PUSH1 0xA PUSH2 0xCC9 SWAP2 SWAP1 PUSH2 0x1578 JUMP JUMPDEST PUSH1 0x3 PUSH0 DUP3 DUP3 SLOAD PUSH2 0xCD9 SWAP2 SWAP1 PUSH2 0x15B9 JUMP JUMPDEST SWAP3 POP POP DUP2 SWAP1 SSTORE POP JUMPDEST PUSH1 0x9 PUSH1 0x3 SLOAD LT PUSH2 0xE75 JUMPI PUSH0 DUP1 DUP1 SLOAD DUP1 PUSH2 0xCF9 SWAP1 PUSH2 0x14BE JUMP JUMPDEST DUP1 PUSH1 0x1F DUP2 SUB PUSH2 0xD16 JUMPI DUP4 PUSH0 MSTORE PUSH1 0x20 PUSH0 KECCAK256 PUSH1 0xFF NOT DUP5 AND DUP2 SSTORE PUSH1 0x3F SWAP4 POP POP JUMPDEST POP PUSH1 0x2 DUP3 ADD DUP4 SSTORE PUSH1 0x1 DUP2 ADD SWAP3 POP POP POP PUSH1 0x1 SWAP1 SUB DUP2 SLOAD PUSH1 0x1 AND ISZERO PUSH2 0xD46 JUMPI SWAP1 PUSH0 MSTORE PUSH1 0x20 PUSH0 KECCAK256 SWAP1 PUSH1 0x20 SWAP2 DUP3 DUP3 DIV ADD SWAP2 SWAP1 MOD JUMPDEST PUSH32 0x4900000000000000000000000000000000000000000000000000000000000000 SWAP1 SWAP2 SWAP1 SWAP2 PUSH1 0x1F SUB PUSH2 0x100 EXP DUP2 SLOAD DUP2 PUSH1 0xFF MUL NOT AND SWAP1 PUSH32 0x100000000000000000000000000000000000000000000000000000000000000 DUP5 DIV MUL OR SWAP1 SSTORE POP PUSH0 DUP1 DUP1 SLOAD DUP1 PUSH2 0xDB1 SWAP1 PUSH2 0x14BE JUMP JUMPDEST DUP1 PUSH1 0x1F DUP2 SUB PUSH2 0xDCE JUMPI DUP4 PUSH0 MSTORE PUSH1 0x20 PUSH0 KECCAK256 PUSH1 0xFF NOT DUP5 AND DUP2 SSTORE PUSH1 0x3F SWAP4 POP POP JUMPDEST POP PUSH1 0x2 DUP3 ADD DUP4 SSTORE PUSH1 0x1 DUP2 ADD SWAP3 POP POP POP PUSH1 0x1 SWAP1 SUB DUP2 SLOAD PUSH1 0x1 AND ISZERO PUSH2 0xDFE JUMPI SWAP1 PUSH0 MSTORE PUSH1 0x20 PUSH0 KECCAK256 SWAP1 PUSH1 0x20 SWAP2 DUP3 DUP3 DIV ADD SWAP2 SWAP1 MOD JUMPDEST PUSH32 0x5800000000000000000000000000000000000000000000000000000000000000 SWAP1 SWAP2 SWAP1 SWAP2 PUSH1 0x1F SUB PUSH2 0x100 EXP DUP2 SLOAD DUP2 PUSH1 0xFF MUL NOT AND SWAP1 PUSH32 0x100000000000000000000000000000000000000000000000000000000000000 DUP5 DIV MUL OR SWAP1 SSTORE POP PUSH1 0x9 PUSH1 0x3 PUSH0 DUP3 DUP3 SLOAD PUSH2 0xE6D SWAP2 SWAP1 PUSH2 0x15B9 JUMP JUMPDEST SWAP3 POP POP DUP2 SWAP1 SSTORE POP JUMPDEST PUSH1 0x5 PUSH1 0x3 SLOAD LT PUSH2 0xF51 JUMPI PUSH0 DUP1 DUP1 SLOAD DUP1 PUSH2 0xE8D SWAP1 PUSH2 0x14BE JUMP JUMPDEST DUP1 PUSH1 0x1F DUP2 SUB PUSH2 0xEAA JUMPI DUP4 PUSH0 MSTORE PUSH1 0x20 PUSH0 KECCAK256 PUSH1 0xFF NOT DUP5 AND DUP2 SSTORE PUSH1 0x3F SWAP4 POP POP JUMPDEST POP PUSH1 0x2 DUP3 ADD DUP4 SSTORE PUSH1 0x1 DUP2 ADD SWAP3 POP POP POP PUSH1 0x1 SWAP1 SUB DUP2 SLOAD PUSH1 0x1 AND ISZERO PUSH2 0xEDA JUMPI SWAP1 PUSH0 MSTORE PUSH1 0x20 PUSH0 KECCAK256 SWAP1 PUSH1 0x20 SWAP2 DUP3 DUP3 DIV ADD SWAP2 SWAP1 MOD JUMPDEST PUSH32 0x5600000000000000000000000000000000000000000000000000000000000000 SWAP1 SWAP2 SWAP1 SWAP2 PUSH1 0x1F SUB PUSH2 0x100 EXP DUP2 SLOAD DUP2 PUSH1 0xFF MUL NOT AND SWAP1 PUSH32 0x100000000000000000000000000000000000000000000000000000000000000 DUP5 DIV MUL OR SWAP1 SSTORE POP PUSH1 0x5 PUSH1 0x3 PUSH0 DUP3 DUP3 SLOAD PUSH2 0xF49 SWAP2 SWAP1 PUSH2 0x15B9 JUMP JUMPDEST SWAP3 POP POP DUP2 SWAP1 SSTORE POP JUMPDEST PUSH1 0x4 PUSH1 0x3 SLOAD LT PUSH2 0x10E5 JUMPI PUSH0 DUP1 DUP1 SLOAD DUP1 PUSH2 0xF69 SWAP1 PUSH2 0x14BE JUMP JUMPDEST DUP1 PUSH1 0x1F DUP2 SUB PUSH2 0xF86 JUMPI DUP4 PUSH0 MSTORE PUSH1 0x20 PUSH0 KECCAK256 PUSH1 0xFF NOT DUP5 AND DUP2 SSTORE PUSH1 0x3F SWAP4 POP POP JUMPDEST POP PUSH1 0x2 DUP3 ADD DUP4 SSTORE PUSH1 0x1 DUP2 ADD SWAP3 POP POP POP PUSH1 0x1 SWAP1 SUB DUP2 SLOAD PUSH1 0x1 AND ISZERO PUSH2 0xFB6 JUMPI SWAP1 PUSH0 MSTORE PUSH1 0x20 PUSH0 KECCAK256 SWAP1 PUSH1 0x20 SWAP2 DUP3 DUP3 DIV ADD SWAP2 SWAP1 MOD JUMPDEST PUSH32 0x4900000000000000000000000000000000000000000000000000000000000000 SWAP1 SWAP2 SWAP1 SWAP2 PUSH1 0x1F SUB PUSH2 0x100 EXP DUP2 SLOAD DUP2 PUSH1 0xFF MUL NOT AND SWAP1 PUSH32 0x100000000000000000000000000000000000000000000000000000000000000 DUP5 DIV MUL OR SWAP1 SSTORE POP PUSH0 DUP1 DUP1 SLOAD DUP1 PUSH2 0x1021 SWAP1 PUSH2 0x14BE JUMP JUMPDEST DUP1 PUSH1 0x1F DUP2 SUB PUSH2 0x103E JUMPI DUP4 PUSH0 MSTORE PUSH1 0x20 PUSH0 KECCAK256 PUSH1 0xFF NOT DUP5 AND DUP2 SSTORE PUSH1 0x3F SWAP4 POP POP JUMPDEST POP PUSH1 0x2 DUP3 ADD DUP4 SSTORE PUSH1 0x1 DUP2 ADD SWAP3 POP POP POP PUSH1 0x1 SWAP1 SUB DUP2 SLOAD PUSH1 0x1 AND ISZERO PUSH2 0x106E JUMPI SWAP1 PUSH0 MSTORE PUSH1 0x20 PUSH0 KECCAK256 SWAP1 PUSH1 0x20 SWAP2 DUP3 DUP3 DIV ADD SWAP2 SWAP1 MOD JUMPDEST PUSH32 0x5600000000000000000000000000000000000000000000000000000000000000 SWAP1 SWAP2 SWAP1 SWAP2 PUSH1 0x1F SUB PUSH2 0x100 EXP DUP2 SLOAD DUP2 PUSH1 0xFF MUL NOT AND SWAP1 PUSH32 0x100000000000000000000000000000000000000000000000000000000000000 DUP5 DIV MUL OR SWAP1 SSTORE POP PUSH1 0x4 PUSH1 0x3 PUSH0 DUP3 DUP3 SLOAD PUSH2 0x10DD SWAP2 SWAP1 PUSH2 0x15B9 JUMP JUMPDEST SWAP3 POP POP DUP2 SWAP1 SSTORE POP JUMPDEST PUSH0 JUMPDEST PUSH1 0x3 SLOAD DUP2 LT ISZERO PUSH2 0x11B6 JUMPI PUSH0 DUP1 DUP1 SLOAD DUP1 PUSH2 0x10FF SWAP1 PUSH2 0x14BE JUMP JUMPDEST DUP1 PUSH1 0x1F DUP2 SUB PUSH2 0x111C JUMPI DUP4 PUSH0 MSTORE PUSH1 0x20 PUSH0 KECCAK256 PUSH1 0xFF NOT DUP5 AND DUP2 SSTORE PUSH1 0x3F SWAP4 POP POP JUMPDEST POP PUSH1 0x2 DUP3 ADD DUP4 SSTORE PUSH1 0x1 DUP2 ADD SWAP3 POP POP POP PUSH1 0x1 SWAP1 SUB DUP2 SLOAD PUSH1 0x1 AND ISZERO PUSH2 0x114C JUMPI SWAP1 PUSH0 MSTORE PUSH1 0x20 PUSH0 KECCAK256 SWAP1 PUSH1 0x20 SWAP2 DUP3 DUP3 DIV ADD SWAP2 SWAP1 MOD JUMPDEST PUSH32 0x4900000000000000000000000000000000000000000000000000000000000000 SWAP1 SWAP2 SWAP1 SWAP2 PUSH1 0x1F SUB PUSH2 0x100 EXP DUP2 SLOAD DUP2 PUSH1 0xFF MUL NOT AND SWAP1 PUSH32 0x100000000000000000000000000000000000000000000000000000000000000 DUP5 DIV MUL OR SWAP1 SSTORE POP DUP1 DUP1 PUSH1 0x1 ADD SWAP2 POP POP PUSH2 0x10E7 JUMP JUMPDEST POP PUSH0 PUSH1 0x1 SWAP1 DUP2 PUSH2 0x11C6 SWAP2 SWAP1 PUSH2 0x17DD JUMP JUMPDEST POP PUSH1 0x1 DUP1 SLOAD PUSH2 0x11D4 SWAP1 PUSH2 0x14BE JUMP JUMPDEST DUP1 PUSH1 0x1F ADD PUSH1 0x20 DUP1 SWAP2 DIV MUL PUSH1 0x20 ADD PUSH1 0x40 MLOAD SWAP1 DUP2 ADD PUSH1 0x40 MSTORE DUP1 SWAP3 SWAP2 SWAP1 DUP2 DUP2 MSTORE PUSH1 0x20 ADD DUP3 DUP1 SLOAD PUSH2 0x1200 SWAP1 PUSH2 0x14BE JUMP JUMPDEST DUP1 ISZERO PUSH2 0x124B JUMPI DUP1 PUSH1 0x1F LT PUSH2 0x1222 JUMPI PUSH2 0x100 DUP1 DUP4 SLOAD DIV MUL DUP4 MSTORE SWAP2 PUSH1 0x20 ADD SWAP2 PUSH2 0x124B JUMP JUMPDEST DUP3 ADD SWAP2 SWAP1 PUSH0 MSTORE PUSH1 0x20 PUSH0 KECCAK256 SWAP1 JUMPDEST DUP2 SLOAD DUP2 MSTORE SWAP1 PUSH1 0x1 ADD SWAP1 PUSH1 0x20 ADD DUP1 DUP4 GT PUSH2 0x122E JUMPI DUP3 SWAP1 SUB PUSH1 0x1F AND DUP3 ADD SWAP2 JUMPDEST POP POP POP POP POP SWAP4 POP POP POP POP SWAP2 SWAP1 POP JUMP JUMPDEST PUSH1 0x2 SLOAD DUP2 JUMP JUMPDEST PUSH0 DUP1 SLOAD PUSH2 0x126C SWAP1 PUSH2 0x14BE JUMP JUMPDEST DUP1 PUSH1 0x1F ADD PUSH1 0x20 DUP1 SWAP2 DIV MUL PUSH1 0x20 ADD PUSH1 0x40 MLOAD SWAP1 DUP2 ADD PUSH1 0x40 MSTORE DUP1 SWAP3 SWAP2 SWAP1 DUP2 DUP2 MSTORE PUSH1 0x20 ADD DUP3 DUP1 SLOAD PUSH2 0x1298 SWAP1 PUSH2 0x14BE JUMP JUMPDEST DUP1 ISZERO PUSH2 0x12E3 JUMPI DUP1 PUSH1 0x1F LT PUSH2 0x12BA JUMPI PUSH2 0x100 DUP1 DUP4 SLOAD DIV MUL DUP4 MSTORE SWAP2 PUSH1 0x20 ADD SWAP2 PUSH2 0x12E3 JUMP JUMPDEST DUP3 ADD SWAP2 SWAP1 PUSH0 MSTORE PUSH1 0x20 PUSH0 KECCAK256 SWAP1 JUMPDEST DUP2 SLOAD DUP2 MSTORE SWAP1 PUSH1 0x1 ADD SWAP1 PUSH1 0x20 ADD DUP1 DUP4 GT PUSH2 0x12C6 JUMPI DUP3 SWAP1 SUB PUSH1 0x1F AND DUP3 ADD SWAP2 JUMPDEST POP POP POP POP POP DUP2 JUMP JUMPDEST PUSH0 DUP2 SWAP1 POP SWAP2 SWAP1 POP JUMP JUMPDEST PUSH2 0x12FD DUP2 PUSH2 0x12EB JUMP JUMPDEST DUP3 MSTORE POP POP JUMP JUMPDEST PUSH0 PUSH1 0x20 DUP3 ADD SWAP1 POP PUSH2 0x1316 PUSH0 DUP4 ADD DUP5 PUSH2 0x12F4 JUMP JUMPDEST SWAP3 SWAP2 POP POP JUMP JUMPDEST PUSH0 DUP2 MLOAD SWAP1 POP SWAP2 SWAP1 POP JUMP JUMPDEST PUSH0 DUP3 DUP3 MSTORE PUSH1 0x20 DUP3 ADD SWAP1 POP SWAP3 SWAP2 POP POP JUMP JUMPDEST PUSH0 JUMPDEST DUP4 DUP2 LT ISZERO PUSH2 0x1353 JUMPI DUP1 DUP3 ADD MLOAD DUP2 DUP5 ADD MSTORE PUSH1 0x20 DUP2 ADD SWAP1 POP PUSH2 0x1338 JUMP JUMPDEST PUSH0 DUP5 DUP5 ADD MSTORE POP POP POP POP JUMP JUMPDEST PUSH0 PUSH1 0x1F NOT PUSH1 0x1F DUP4 ADD AND SWAP1 POP SWAP2 SWAP1 POP JUMP JUMPDEST PUSH0 PUSH2 0x1378 DUP3 PUSH2 0x131C JUMP JUMPDEST PUSH2 0x1382 DUP2 DUP6 PUSH2 0x1326 JUMP JUMPDEST SWAP4 POP PUSH2 0x1392 DUP2 DUP6 PUSH1 0x20 DUP7 ADD PUSH2 0x1336 JUMP JUMPDEST PUSH2 0x139B DUP2 PUSH2 0x135E JUMP JUMPDEST DUP5 ADD SWAP2 POP POP SWAP3 SWAP2 POP POP JUMP JUMPDEST PUSH0 PUSH1 0x20 DUP3 ADD SWAP1 POP DUP2 DUP2 SUB PUSH0 DUP4 ADD MSTORE PUSH2 0x13BE DUP2 DUP5 PUSH2 0x136E JUMP JUMPDEST SWAP1 POP SWAP3 SWAP2 POP POP JUMP JUMPDEST PUSH0 DUP1 REVERT JUMPDEST PUSH2 0x13D3 DUP2 PUSH2 0x12EB JUMP JUMPDEST DUP2 EQ PUSH2 0x13DD JUMPI PUSH0 DUP1 REVERT JUMPDEST POP JUMP JUMPDEST PUSH0 DUP2 CALLDATALOAD SWAP1 POP PUSH2 0x13EE DUP2 PUSH2 0x13CA JUMP JUMPDEST SWAP3 SWAP2 POP POP JUMP JUMPDEST PUSH0 PUSH1 0x20 DUP3 DUP5 SUB SLT ISZERO PUSH2 0x1409 JUMPI PUSH2 0x1408 PUSH2 0x13C6 JUMP JUMPDEST JUMPDEST PUSH0 PUSH2 0x1416 DUP5 DUP3 DUP6 ADD PUSH2 0x13E0 JUMP JUMPDEST SWAP2 POP POP SWAP3 SWAP2 POP POP JUMP JUMPDEST PUSH0 DUP2 MLOAD SWAP1 POP SWAP2 SWAP1 POP JUMP JUMPDEST PUSH0 DUP3 DUP3 MSTORE PUSH1 0x20 DUP3 ADD SWAP1 POP SWAP3 SWAP2 POP POP JUMP JUMPDEST PUSH0 PUSH2 0x1443 DUP3 PUSH2 0x141F JUMP JUMPDEST PUSH2 0x144D DUP2 DUP6 PUSH2 0x1429 JUMP JUMPDEST SWAP4 POP PUSH2 0x145D DUP2 DUP6 PUSH1 0x20 DUP7 ADD PUSH2 0x1336 JUMP JUMPDEST PUSH2 0x1466 DUP2 PUSH2 0x135E JUMP JUMPDEST DUP5 ADD SWAP2 POP POP SWAP3 SWAP2 POP POP JUMP JUMPDEST PUSH0 PUSH1 0x20 DUP3 ADD SWAP1 POP DUP2 DUP2 SUB PUSH0 DUP4 ADD MSTORE PUSH2 0x1489 DUP2 DUP5 PUSH2 0x1439 JUMP JUMPDEST SWAP1 POP SWAP3 SWAP2 POP POP JUMP JUMPDEST PUSH32 0x4E487B7100000000000000000000000000000000000000000000000000000000 PUSH0 MSTORE PUSH1 0x22 PUSH1 0x4 MSTORE PUSH1 0x24 PUSH0 REVERT JUMPDEST PUSH0 PUSH1 0x2 DUP3 DIV SWAP1 POP PUSH1 0x1 DUP3 AND DUP1 PUSH2 0x14D5 JUMPI PUSH1 0x7F DUP3 AND SWAP2 POP JUMPDEST PUSH1 0x20 DUP3 LT DUP2 SUB PUSH2 0x14E8 JUMPI PUSH2 0x14E7 PUSH2 0x1491 JUMP JUMPDEST JUMPDEST POP SWAP2 SWAP1 POP JUMP JUMPDEST PUSH32 0x4E487B7100000000000000000000000000000000000000000000000000000000 PUSH0 MSTORE PUSH1 0x12 PUSH1 0x4 MSTORE PUSH1 0x24 PUSH0 REVERT JUMPDEST PUSH32 0x4E487B7100000000000000000000000000000000000000000000000000000000 PUSH0 MSTORE PUSH1 0x11 PUSH1 0x4 MSTORE PUSH1 0x24 PUSH0 REVERT JUMPDEST PUSH0 PUSH2 0x1552 DUP3 PUSH2 0x12EB JUMP JUMPDEST SWAP2 POP PUSH2 0x155D DUP4 PUSH2 0x12EB JUMP JUMPDEST SWAP3 POP DUP3 PUSH2 0x156D JUMPI PUSH2 0x156C PUSH2 0x14EE JUMP JUMPDEST JUMPDEST DUP3 DUP3 DIV SWAP1 POP SWAP3 SWAP2 POP POP JUMP JUMPDEST PUSH0 PUSH2 0x1582 DUP3 PUSH2 0x12EB JUMP JUMPDEST SWAP2 POP PUSH2 0x158D DUP4 PUSH2 0x12EB JUMP JUMPDEST SWAP3 POP DUP3 DUP3 MUL PUSH2 0x159B DUP2 PUSH2 0x12EB JUMP JUMPDEST SWAP2 POP DUP3 DUP3 DIV DUP5 EQ DUP4 ISZERO OR PUSH2 0x15B2 JUMPI PUSH2 0x15B1 PUSH2 0x151B JUMP JUMPDEST JUMPDEST POP SWAP3 SWAP2 POP POP JUMP JUMPDEST PUSH0 PUSH2 0x15C3 DUP3 PUSH2 0x12EB JUMP JUMPDEST SWAP2 POP PUSH2 0x15CE DUP4 PUSH2 0x12EB JUMP JUMPDEST SWAP3 POP DUP3 DUP3 SUB SWAP1 POP DUP2 DUP2 GT ISZERO PUSH2 0x15E6 JUMPI PUSH2 0x15E5 PUSH2 0x151B JUMP JUMPDEST JUMPDEST SWAP3 SWAP2 POP POP JUMP JUMPDEST PUSH0 DUP2 SLOAD SWAP1 POP PUSH2 0x15FA DUP2 PUSH2 0x14BE JUMP JUMPDEST SWAP1 POP SWAP2 SWAP1 POP JUMP JUMPDEST PUSH32 0x4E487B7100000000000000000000000000000000000000000000000000000000 PUSH0 MSTORE PUSH1 0x41 PUSH1 0x4 MSTORE PUSH1 0x24 PUSH0 REVERT JUMPDEST PUSH0 DUP2 SWAP1 POP DUP2 PUSH0 MSTORE PUSH1 0x20 PUSH0 KECCAK256 SWAP1 POP SWAP2 SWAP1 POP JUMP JUMPDEST PUSH0 DUP2 SWAP1 POP DUP2 PUSH0 MSTORE PUSH1 0x20 PUSH0 KECCAK256 SWAP1 POP SWAP2 SWAP1 POP JUMP JUMPDEST PUSH0 PUSH1 0x20 PUSH1 0x1F DUP4 ADD DIV SWAP1 POP SWAP2 SWAP1 POP JUMP JUMPDEST PUSH0 DUP3 DUP3 SHL SWAP1 POP SWAP3 SWAP2 POP POP JUMP JUMPDEST PUSH0 PUSH1 0x8 DUP4 MUL PUSH2 0x169C PUSH32 0xFFFFFFFFFFFFFFFFFFFFFFFFFFFFFFFFFFFFFFFFFFFFFFFFFFFFFFFFFFFFFFFF DUP3 PUSH2 0x1661 JUMP JUMPDEST PUSH2 0x16A6 DUP7 DUP4 PUSH2 0x1661 JUMP JUMPDEST SWAP6 POP DUP1 NOT DUP5 AND SWAP4 POP DUP1 DUP7 AND DUP5 OR SWAP3 POP POP POP SWAP4 SWAP3 POP POP POP JUMP JUMPDEST PUSH0 DUP2 SWAP1 POP SWAP2 SWAP1 POP JUMP JUMPDEST PUSH0 PUSH2 0x16E1 PUSH2 0x16DC PUSH2 0x16D7 DUP5 PUSH2 0x12EB JUMP JUMPDEST PUSH2 0x16BE JUMP JUMPDEST PUSH2 0x12EB JUMP JUMPDEST SWAP1 POP SWAP2 SWAP1 POP JUMP JUMPDEST PUSH0 DUP2 SWAP1 POP SWAP2 SWAP1 POP JUMP JUMPDEST PUSH2 0x16FA DUP4 PUSH2 0x16C7 JUMP JUMPDEST PUSH2 0x170E PUSH2 0x1706 DUP3 PUSH2 0x16E8 JUMP JUMPDEST DUP5 DUP5 SLOAD PUSH2 0x166D JUMP JUMPDEST DUP3 SSTORE POP POP POP POP JUMP JUMPDEST PUSH0 SWAP1 JUMP JUMPDEST PUSH2 0x1722 PUSH2 0x1716 JUMP JUMPDEST PUSH2 0x172D DUP2 DUP5 DUP5 PUSH2 0x16F1 JUMP JUMPDEST POP POP POP JUMP JUMPDEST JUMPDEST DUP2 DUP2 LT ISZERO PUSH2 0x1750 JUMPI PUSH2 0x1745 PUSH0 DUP3 PUSH2 0x171A JUMP JUMPDEST PUSH1 0x1 DUP2 ADD SWAP1 POP PUSH2 0x1733 JUMP JUMPDEST POP POP JUMP JUMPDEST PUSH1 0x1F DUP3 GT ISZERO PUSH2 0x1795 JUMPI PUSH2 0x1766 DUP2 PUSH2 0x162E JUMP JUMPDEST PUSH2 0x176F DUP5 PUSH2 0x1652 JUMP JUMPDEST DUP2 ADD PUSH1 0x20 DUP6 LT ISZERO PUSH2 0x177E JUMPI DUP2 SWAP1 POP JUMPDEST PUSH2 0x1792 PUSH2 0x178A DUP6 PUSH2 0x1652 JUMP JUMPDEST DUP4 ADD DUP3 PUSH2 0x1732 JUMP JUMPDEST POP POP JUMPDEST POP POP POP JUMP JUMPDEST PUSH0 DUP3 DUP3 SHR SWAP1 POP SWAP3 SWAP2 POP POP JUMP JUMPDEST PUSH0 PUSH2 0x17B5 PUSH0 NOT DUP5 PUSH1 0x8 MUL PUSH2 0x179A JUMP JUMPDEST NOT DUP1 DUP4 AND SWAP2 POP POP SWAP3 SWAP2 POP POP JUMP JUMPDEST PUSH0 PUSH2 0x17CD DUP4 DUP4 PUSH2 0x17A6 JUMP JUMPDEST SWAP2 POP DUP3 PUSH1 0x2 MUL DUP3 OR SWAP1 POP SWAP3 SWAP2 POP POP JUMP JUMPDEST DUP2 DUP2 SUB PUSH2 0x17EB JUMPI POP POP PUSH2 0x18C0 JUMP JUMPDEST PUSH2 0x17F4 DUP3 PUSH2 0x15EC JUMP JUMPDEST PUSH8 0xFFFFFFFFFFFFFFFF DUP2 GT ISZERO PUSH2 0x180D JUMPI PUSH2 0x180C PUSH2 0x1601 JUMP JUMPDEST JUMPDEST PUSH2 0x1817 DUP3 SLOAD PUSH2 0x14BE JUMP JUMPDEST PUSH2 0x1822 DUP3 DUP3 DUP6 PUSH2 0x1754 JUMP JUMPDEST PUSH0 PUSH1 0x1F DUP4 GT PUSH1 0x1 DUP2 EQ PUSH2 0x184F JUMPI PUSH0 DUP5 ISZERO PUSH2 0x183D JUMPI DUP3 DUP8 ADD SLOAD SWAP1 POP JUMPDEST PUSH2 0x1847 DUP6 DUP3 PUSH2 0x17C2 JUMP JUMPDEST DUP7 SSTORE POP PUSH2 0x18B9 JUMP JUMPDEST PUSH1 0x1F NOT DUP5 AND PUSH2 0x185D DUP8 PUSH2 0x1640 JUMP JUMPDEST SWAP7 POP PUSH2 0x1868 DUP7 PUSH2 0x162E JUMP JUMPDEST PUSH0 JUMPDEST DUP3 DUP2 LT ISZERO PUSH2 0x188F JUMPI DUP5 DUP10 ADD SLOAD DUP3 SSTORE PUSH1 0x1 DUP3 ADD SWAP2 POP PUSH1 0x1 DUP6 ADD SWAP5 POP PUSH1 0x20 DUP2 ADD SWAP1 POP PUSH2 0x186A JUMP JUMPDEST DUP7 DUP4 LT ISZERO PUSH2 0x18AC JUMPI DUP5 DUP10 ADD SLOAD PUSH2 0x18A8 PUSH1 0x1F DUP10 AND DUP3 PUSH2 0x17A6 JUMP JUMPDEST DUP4 SSTORE POP JUMPDEST PUSH1 0x1 PUSH1 0x2 DUP9 MUL ADD DUP9 SSTORE POP POP POP JUMPDEST POP POP POP POP POP POP JUMPDEST JUMP INVALID LOG2 PUSH5 0x6970667358 0x22 SLT KECCAK256 0xB0 TSTORE CREATE DUP12 GAS DIV CODECOPY 0x2F 0xB5 DUP5 EXP POP 0x26 0xC6 PUSH7 0xD147DEED4B9CB8 RETURNDATACOPY SWAP2 SSTORE SAR 0xD6 0xF 0xC1 0xCE ISZERO 0xA8 PUSH5 0x736F6C6343 STOP ADDMOD BYTE STOP CALLER "
		},
		"gasEstimates": {
			"creation": {
				"codeDepositCost": "1278400",
				"executionCost": "1327",
				"totalCost": "1279727"
			},
			"external": {
				"mm()": "2469",
				"numberToRoma(uint256)": "infinite",
				"output()": "infinite",
				"remain()": "2403",
				"result()": "infinite"
			}
		},
		"methodIdentifiers": {
			"mm()": "e90eaa51",
			"numberToRoma(uint256)": "c76e666c",
			"output()": "f20eaeb8",
			"remain()": "61f3c62e",
			"result()": "65372147"
		}
	},
	"abi": [
		{
			"inputs": [],
			"name": "mm",
			"outputs": [
				{
					"internalType": "uint256",
					"name": "",
					"type": "uint256"
				}
			],
			"stateMutability": "view",
			"type": "function"
		},
		{
			"inputs": [
				{
					"internalType": "uint256",
					"name": "number",
					"type": "uint256"
				}
			],
			"name": "numberToRoma",
			"outputs": [
				{
					"internalType": "string",
					"name": "",
					"type": "string"
				}
			],
			"stateMutability": "nonpayable",
			"type": "function"
		},
		{
			"inputs": [],
			"name": "output",
			"outputs": [
				{
					"internalType": "bytes",
					"name": "",
					"type": "bytes"
				}
			],
			"stateMutability": "view",
			"type": "function"
		},
		{
			"inputs": [],
			"name": "remain",
			"outputs": [
				{
					"internalType": "uint256",
					"name": "",
					"type": "uint256"
				}
			],
			"stateMutability": "view",
			"type": "function"
		},
		{
			"inputs": [],
			"name": "result",
			"outputs": [
				{
					"internalType": "string",
					"name": "",
					"type": "string"
				}
			],
			"stateMutability": "view",
			"type": "function"
		}
	]
}