{
	"Tast1/Binary/BinarySearch.sol": {
		"binarySearch": {
			"abi": [
				{
					"inputs": [],
					"name": "findIndex",
					"outputs": [
						{
							"internalType": "uint256",
							"name": "",
							"type": "uint256"
						}
					],
					"stateMutability": "view",
					"type": "function"
				},
				{
					"inputs": [
						{
							"internalType": "uint256[]",
							"name": "arr",
							"type": "uint256[]"
						},
						{
							"internalType": "uint256",
							"name": "num",
							"type": "uint256"
						}
					],
					"name": "searchNumber",
					"outputs": [],
					"stateMutability": "nonpayable",
					"type": "function"
				}
			],
			"devdoc": {
				"kind": "dev",
				"methods": {},
				"version": 1
			},
			"evm": {
				"assembly": "    /* \"Tast1/Binary/BinarySearch.sol\":57:992  contract binarySearch {... */\n  mstore(0x40, 0x80)\n  callvalue\n  dup1\n  iszero\n  tag_1\n  jumpi\n  0x00\n  dup1\n  revert\ntag_1:\n  pop\n  dataSize(sub_0)\n  dup1\n  dataOffset(sub_0)\n  0x00\n  codecopy\n  0x00\n  return\nstop\n\nsub_0: assembly {\n        /* \"Tast1/Binary/BinarySearch.sol\":57:992  contract binarySearch {... */\n      mstore(0x40, 0x80)\n      callvalue\n      dup1\n      iszero\n      tag_1\n      jumpi\n      0x00\n      dup1\n      revert\n    tag_1:\n      pop\n      jumpi(tag_2, lt(calldatasize, 0x04))\n      shr(0xe0, calldataload(0x00))\n      dup1\n      0x0cf22dce\n      eq\n      tag_3\n      jumpi\n      dup1\n      0x67f3b007\n      eq\n      tag_4\n      jumpi\n    tag_2:\n      0x00\n      dup1\n      revert\n        /* \"Tast1/Binary/BinarySearch.sol\":85:109  uint256 public findIndex */\n    tag_3:\n      tag_5\n      tag_6\n      jump\t// in\n    tag_5:\n      mload(0x40)\n      tag_7\n      swap2\n      swap1\n      tag_8\n      jump\t// in\n    tag_7:\n      mload(0x40)\n      dup1\n      swap2\n      sub\n      swap1\n      return\n        /* \"Tast1/Binary/BinarySearch.sol\":153:458  function searchNumber(uint256[] memory arr, uint256 num) public {... */\n    tag_4:\n      tag_9\n      0x04\n      dup1\n      calldatasize\n      sub\n      dup2\n      add\n      swap1\n      tag_10\n      swap2\n      swap1\n      tag_11\n      jump\t// in\n    tag_10:\n      tag_12\n      jump\t// in\n    tag_9:\n      stop\n        /* \"Tast1/Binary/BinarySearch.sol\":85:109  uint256 public findIndex */\n    tag_6:\n      sload(0x00)\n      dup2\n      jump\t// out\n        /* \"Tast1/Binary/BinarySearch.sol\":153:458  function searchNumber(uint256[] memory arr, uint256 num) public {... */\n    tag_12:\n        /* \"Tast1/Binary/BinarySearch.sol\":313:314  0 */\n      0x00\n        /* \"Tast1/Binary/BinarySearch.sol\":305:310  start */\n      0x01\n        /* \"Tast1/Binary/BinarySearch.sol\":305:314  start = 0 */\n      dup2\n      swap1\n      sstore\n      pop\n        /* \"Tast1/Binary/BinarySearch.sol\":343:344  1 */\n      0x01\n        /* \"Tast1/Binary/BinarySearch.sol\":330:333  arr */\n      dup3\n        /* \"Tast1/Binary/BinarySearch.sol\":330:340  arr.length */\n      mload\n        /* \"Tast1/Binary/BinarySearch.sol\":330:344  arr.length - 1 */\n      tag_14\n      swap2\n      swap1\n      tag_15\n      jump\t// in\n    tag_14:\n        /* \"Tast1/Binary/BinarySearch.sol\":324:327  end */\n      0x02\n        /* \"Tast1/Binary/BinarySearch.sol\":324:344  end = arr.length - 1 */\n      dup2\n      swap1\n      sstore\n      pop\n        /* \"Tast1/Binary/BinarySearch.sol\":423:451  binarySearchNumber(arr, num) */\n      tag_16\n        /* \"Tast1/Binary/BinarySearch.sol\":442:445  arr */\n      dup3\n        /* \"Tast1/Binary/BinarySearch.sol\":447:450  num */\n      dup3\n        /* \"Tast1/Binary/BinarySearch.sol\":423:441  binarySearchNumber */\n      tag_17\n        /* \"Tast1/Binary/BinarySearch.sol\":423:451  binarySearchNumber(arr, num) */\n      jump\t// in\n    tag_16:\n        /* \"Tast1/Binary/BinarySearch.sol\":153:458  function searchNumber(uint256[] memory arr, uint256 num) public {... */\n      pop\n      pop\n      jump\t// out\n        /* \"Tast1/Binary/BinarySearch.sol\":464:990  function binarySearchNumber(... */\n    tag_17:\n        /* \"Tast1/Binary/BinarySearch.sol\":567:984  while (start <= end) {... */\n    tag_19:\n        /* \"Tast1/Binary/BinarySearch.sol\":583:586  end */\n      sload(0x02)\n        /* \"Tast1/Binary/BinarySearch.sol\":574:579  start */\n      sload(0x01)\n        /* \"Tast1/Binary/BinarySearch.sol\":574:586  start <= end */\n      gt\n        /* \"Tast1/Binary/BinarySearch.sol\":567:984  while (start <= end) {... */\n      tag_20\n      jumpi\n        /* \"Tast1/Binary/BinarySearch.sol\":602:616  uint256 middle */\n      0x00\n        /* \"Tast1/Binary/BinarySearch.sol\":635:636  2 */\n      0x02\n        /* \"Tast1/Binary/BinarySearch.sol\":628:631  end */\n      dup1\n      sload\n        /* \"Tast1/Binary/BinarySearch.sol\":620:625  start */\n      sload(0x01)\n        /* \"Tast1/Binary/BinarySearch.sol\":620:631  start + end */\n      tag_21\n      swap2\n      swap1\n      tag_22\n      jump\t// in\n    tag_21:\n        /* \"Tast1/Binary/BinarySearch.sol\":619:636  (start + end) / 2 */\n      tag_23\n      swap2\n      swap1\n      tag_24\n      jump\t// in\n    tag_23:\n        /* \"Tast1/Binary/BinarySearch.sol\":602:636  uint256 middle = (start + end) / 2 */\n      swap1\n      pop\n        /* \"Tast1/Binary/BinarySearch.sol\":671:674  num */\n      dup2\n        /* \"Tast1/Binary/BinarySearch.sol\":656:659  arr */\n      dup4\n        /* \"Tast1/Binary/BinarySearch.sol\":660:666  middle */\n      dup3\n        /* \"Tast1/Binary/BinarySearch.sol\":656:667  arr[middle] */\n      dup2\n      mload\n      dup2\n      lt\n      tag_25\n      jumpi\n      tag_26\n      tag_27\n      jump\t// in\n    tag_26:\n    tag_25:\n      0x20\n      mul\n      0x20\n      add\n      add\n      mload\n        /* \"Tast1/Binary/BinarySearch.sol\":656:674  arr[middle] == num */\n      sub\n        /* \"Tast1/Binary/BinarySearch.sol\":651:974  if ((arr[middle] == num)) {... */\n      tag_28\n      jumpi\n        /* \"Tast1/Binary/BinarySearch.sol\":707:713  middle */\n      dup1\n        /* \"Tast1/Binary/BinarySearch.sol\":695:704  findIndex */\n      0x00\n        /* \"Tast1/Binary/BinarySearch.sol\":695:713  findIndex = middle */\n      dup2\n      swap1\n      sstore\n      pop\n        /* \"Tast1/Binary/BinarySearch.sol\":731:738  return; */\n      pop\n      jump(tag_18)\n        /* \"Tast1/Binary/BinarySearch.sol\":651:974  if ((arr[middle] == num)) {... */\n    tag_28:\n        /* \"Tast1/Binary/BinarySearch.sol\":775:778  num */\n      dup2\n        /* \"Tast1/Binary/BinarySearch.sol\":762:765  arr */\n      dup4\n        /* \"Tast1/Binary/BinarySearch.sol\":766:771  start */\n      sload(0x01)\n        /* \"Tast1/Binary/BinarySearch.sol\":762:772  arr[start] */\n      dup2\n      mload\n      dup2\n      lt\n      tag_30\n      jumpi\n      tag_31\n      tag_27\n      jump\t// in\n    tag_31:\n    tag_30:\n      0x20\n      mul\n      0x20\n      add\n      add\n      mload\n        /* \"Tast1/Binary/BinarySearch.sol\":762:778  arr[start] < num */\n      lt\n        /* \"Tast1/Binary/BinarySearch.sol\":758:974  if (arr[start] < num) {... */\n      iszero\n      tag_32\n      jumpi\n        /* \"Tast1/Binary/BinarySearch.sol\":814:815  1 */\n      0x01\n        /* \"Tast1/Binary/BinarySearch.sol\":806:811  start */\n      dup1\n      sload\n        /* \"Tast1/Binary/BinarySearch.sol\":806:815  start + 1 */\n      tag_33\n      swap2\n      swap1\n      tag_22\n      jump\t// in\n    tag_33:\n        /* \"Tast1/Binary/BinarySearch.sol\":798:803  start */\n      0x01\n        /* \"Tast1/Binary/BinarySearch.sol\":798:815  start = start + 1 */\n      dup2\n      swap1\n      sstore\n      pop\n        /* \"Tast1/Binary/BinarySearch.sol\":833:861  binarySearchNumber(arr, num) */\n      tag_34\n        /* \"Tast1/Binary/BinarySearch.sol\":852:855  arr */\n      dup4\n        /* \"Tast1/Binary/BinarySearch.sol\":857:860  num */\n      dup4\n        /* \"Tast1/Binary/BinarySearch.sol\":833:851  binarySearchNumber */\n      tag_17\n        /* \"Tast1/Binary/BinarySearch.sol\":833:861  binarySearchNumber(arr, num) */\n      jump\t// in\n    tag_34:\n        /* \"Tast1/Binary/BinarySearch.sol\":758:974  if (arr[start] < num) {... */\n      jump(tag_35)\n    tag_32:\n        /* \"Tast1/Binary/BinarySearch.sol\":912:913  1 */\n      0x01\n        /* \"Tast1/Binary/BinarySearch.sol\":906:909  end */\n      sload(0x02)\n        /* \"Tast1/Binary/BinarySearch.sol\":906:913  end - 1 */\n      tag_36\n      swap2\n      swap1\n      tag_15\n      jump\t// in\n    tag_36:\n        /* \"Tast1/Binary/BinarySearch.sol\":900:903  end */\n      0x02\n        /* \"Tast1/Binary/BinarySearch.sol\":900:913  end = end - 1 */\n      dup2\n      swap1\n      sstore\n      pop\n        /* \"Tast1/Binary/BinarySearch.sol\":931:959  binarySearchNumber(arr, num) */\n      tag_37\n        /* \"Tast1/Binary/BinarySearch.sol\":950:953  arr */\n      dup4\n        /* \"Tast1/Binary/BinarySearch.sol\":955:958  num */\n      dup4\n        /* \"Tast1/Binary/BinarySearch.sol\":931:949  binarySearchNumber */\n      tag_17\n        /* \"Tast1/Binary/BinarySearch.sol\":931:959  binarySearchNumber(arr, num) */\n      jump\t// in\n    tag_37:\n        /* \"Tast1/Binary/BinarySearch.sol\":758:974  if (arr[start] < num) {... */\n    tag_35:\n        /* \"Tast1/Binary/BinarySearch.sol\":588:984  {... */\n      pop\n        /* \"Tast1/Binary/BinarySearch.sol\":567:984  while (start <= end) {... */\n      jump(tag_19)\n    tag_20:\n        /* \"Tast1/Binary/BinarySearch.sol\":464:990  function binarySearchNumber(... */\n    tag_18:\n      pop\n      pop\n      jump\t// out\n        /* \"#utility.yul\":7:84   */\n    tag_38:\n        /* \"#utility.yul\":44:51   */\n      0x00\n        /* \"#utility.yul\":73:78   */\n      dup2\n        /* \"#utility.yul\":62:78   */\n      swap1\n      pop\n        /* \"#utility.yul\":7:84   */\n      swap2\n      swap1\n      pop\n      jump\t// out\n        /* \"#utility.yul\":90:208   */\n    tag_39:\n        /* \"#utility.yul\":177:201   */\n      tag_59\n        /* \"#utility.yul\":195:200   */\n      dup2\n        /* \"#utility.yul\":177:201   */\n      tag_38\n      jump\t// in\n    tag_59:\n        /* \"#utility.yul\":172:175   */\n      dup3\n        /* \"#utility.yul\":165:202   */\n      mstore\n        /* \"#utility.yul\":90:208   */\n      pop\n      pop\n      jump\t// out\n        /* \"#utility.yul\":214:436   */\n    tag_8:\n        /* \"#utility.yul\":307:311   */\n      0x00\n        /* \"#utility.yul\":345:347   */\n      0x20\n        /* \"#utility.yul\":334:343   */\n      dup3\n        /* \"#utility.yul\":330:348   */\n      add\n        /* \"#utility.yul\":322:348   */\n      swap1\n      pop\n        /* \"#utility.yul\":358:429   */\n      tag_61\n        /* \"#utility.yul\":426:427   */\n      0x00\n        /* \"#utility.yul\":415:424   */\n      dup4\n        /* \"#utility.yul\":411:428   */\n      add\n        /* \"#utility.yul\":402:408   */\n      dup5\n        /* \"#utility.yul\":358:429   */\n      tag_39\n      jump\t// in\n    tag_61:\n        /* \"#utility.yul\":214:436   */\n      swap3\n      swap2\n      pop\n      pop\n      jump\t// out\n        /* \"#utility.yul\":442:517   */\n    tag_40:\n        /* \"#utility.yul\":475:481   */\n      0x00\n        /* \"#utility.yul\":508:510   */\n      0x40\n        /* \"#utility.yul\":502:511   */\n      mload\n        /* \"#utility.yul\":492:511   */\n      swap1\n      pop\n        /* \"#utility.yul\":442:517   */\n      swap1\n      jump\t// out\n        /* \"#utility.yul\":523:640   */\n    tag_41:\n        /* \"#utility.yul\":632:633   */\n      0x00\n        /* \"#utility.yul\":629:630   */\n      dup1\n        /* \"#utility.yul\":622:634   */\n      revert\n        /* \"#utility.yul\":646:763   */\n    tag_42:\n        /* \"#utility.yul\":755:756   */\n      0x00\n        /* \"#utility.yul\":752:753   */\n      dup1\n        /* \"#utility.yul\":745:757   */\n      revert\n        /* \"#utility.yul\":769:886   */\n    tag_43:\n        /* \"#utility.yul\":878:879   */\n      0x00\n        /* \"#utility.yul\":875:876   */\n      dup1\n        /* \"#utility.yul\":868:880   */\n      revert\n        /* \"#utility.yul\":892:994   */\n    tag_44:\n        /* \"#utility.yul\":933:939   */\n      0x00\n        /* \"#utility.yul\":984:986   */\n      0x1f\n        /* \"#utility.yul\":980:987   */\n      not\n        /* \"#utility.yul\":975:977   */\n      0x1f\n        /* \"#utility.yul\":968:973   */\n      dup4\n        /* \"#utility.yul\":964:978   */\n      add\n        /* \"#utility.yul\":960:988   */\n      and\n        /* \"#utility.yul\":950:988   */\n      swap1\n      pop\n        /* \"#utility.yul\":892:994   */\n      swap2\n      swap1\n      pop\n      jump\t// out\n        /* \"#utility.yul\":1000:1180   */\n    tag_45:\n        /* \"#utility.yul\":1048:1125   */\n      0x4e487b7100000000000000000000000000000000000000000000000000000000\n        /* \"#utility.yul\":1045:1046   */\n      0x00\n        /* \"#utility.yul\":1038:1126   */\n      mstore\n        /* \"#utility.yul\":1145:1149   */\n      0x41\n        /* \"#utility.yul\":1142:1143   */\n      0x04\n        /* \"#utility.yul\":1135:1150   */\n      mstore\n        /* \"#utility.yul\":1169:1173   */\n      0x24\n        /* \"#utility.yul\":1166:1167   */\n      0x00\n        /* \"#utility.yul\":1159:1174   */\n      revert\n        /* \"#utility.yul\":1186:1467   */\n    tag_46:\n        /* \"#utility.yul\":1269:1296   */\n      tag_69\n        /* \"#utility.yul\":1291:1295   */\n      dup3\n        /* \"#utility.yul\":1269:1296   */\n      tag_44\n      jump\t// in\n    tag_69:\n        /* \"#utility.yul\":1261:1267   */\n      dup2\n        /* \"#utility.yul\":1257:1297   */\n      add\n        /* \"#utility.yul\":1399:1405   */\n      dup2\n        /* \"#utility.yul\":1387:1397   */\n      dup2\n        /* \"#utility.yul\":1384:1406   */\n      lt\n        /* \"#utility.yul\":1363:1381   */\n      0xffffffffffffffff\n        /* \"#utility.yul\":1351:1361   */\n      dup3\n        /* \"#utility.yul\":1348:1382   */\n      gt\n        /* \"#utility.yul\":1345:1407   */\n      or\n        /* \"#utility.yul\":1342:1430   */\n      iszero\n      tag_70\n      jumpi\n        /* \"#utility.yul\":1410:1428   */\n      tag_71\n      tag_45\n      jump\t// in\n    tag_71:\n        /* \"#utility.yul\":1342:1430   */\n    tag_70:\n        /* \"#utility.yul\":1450:1460   */\n      dup1\n        /* \"#utility.yul\":1446:1448   */\n      0x40\n        /* \"#utility.yul\":1439:1461   */\n      mstore\n        /* \"#utility.yul\":1229:1467   */\n      pop\n        /* \"#utility.yul\":1186:1467   */\n      pop\n      pop\n      jump\t// out\n        /* \"#utility.yul\":1473:1602   */\n    tag_47:\n        /* \"#utility.yul\":1507:1513   */\n      0x00\n        /* \"#utility.yul\":1534:1554   */\n      tag_73\n      tag_40\n      jump\t// in\n    tag_73:\n        /* \"#utility.yul\":1524:1554   */\n      swap1\n      pop\n        /* \"#utility.yul\":1563:1596   */\n      tag_74\n        /* \"#utility.yul\":1591:1595   */\n      dup3\n        /* \"#utility.yul\":1583:1589   */\n      dup3\n        /* \"#utility.yul\":1563:1596   */\n      tag_46\n      jump\t// in\n    tag_74:\n        /* \"#utility.yul\":1473:1602   */\n      swap2\n      swap1\n      pop\n      jump\t// out\n        /* \"#utility.yul\":1608:1919   */\n    tag_48:\n        /* \"#utility.yul\":1685:1689   */\n      0x00\n        /* \"#utility.yul\":1775:1793   */\n      0xffffffffffffffff\n        /* \"#utility.yul\":1767:1773   */\n      dup3\n        /* \"#utility.yul\":1764:1794   */\n      gt\n        /* \"#utility.yul\":1761:1817   */\n      iszero\n      tag_76\n      jumpi\n        /* \"#utility.yul\":1797:1815   */\n      tag_77\n      tag_45\n      jump\t// in\n    tag_77:\n        /* \"#utility.yul\":1761:1817   */\n    tag_76:\n        /* \"#utility.yul\":1847:1851   */\n      0x20\n        /* \"#utility.yul\":1839:1845   */\n      dup3\n        /* \"#utility.yul\":1835:1852   */\n      mul\n        /* \"#utility.yul\":1827:1852   */\n      swap1\n      pop\n        /* \"#utility.yul\":1907:1911   */\n      0x20\n        /* \"#utility.yul\":1901:1905   */\n      dup2\n        /* \"#utility.yul\":1897:1912   */\n      add\n        /* \"#utility.yul\":1889:1912   */\n      swap1\n      pop\n        /* \"#utility.yul\":1608:1919   */\n      swap2\n      swap1\n      pop\n      jump\t// out\n        /* \"#utility.yul\":1925:2042   */\n    tag_49:\n        /* \"#utility.yul\":2034:2035   */\n      0x00\n        /* \"#utility.yul\":2031:2032   */\n      dup1\n        /* \"#utility.yul\":2024:2036   */\n      revert\n        /* \"#utility.yul\":2048:2170   */\n    tag_50:\n        /* \"#utility.yul\":2121:2145   */\n      tag_80\n        /* \"#utility.yul\":2139:2144   */\n      dup2\n        /* \"#utility.yul\":2121:2145   */\n      tag_38\n      jump\t// in\n    tag_80:\n        /* \"#utility.yul\":2114:2119   */\n      dup2\n        /* \"#utility.yul\":2111:2146   */\n      eq\n        /* \"#utility.yul\":2101:2164   */\n      tag_81\n      jumpi\n        /* \"#utility.yul\":2160:2161   */\n      0x00\n        /* \"#utility.yul\":2157:2158   */\n      dup1\n        /* \"#utility.yul\":2150:2162   */\n      revert\n        /* \"#utility.yul\":2101:2164   */\n    tag_81:\n        /* \"#utility.yul\":2048:2170   */\n      pop\n      jump\t// out\n        /* \"#utility.yul\":2176:2315   */\n    tag_51:\n        /* \"#utility.yul\":2222:2227   */\n      0x00\n        /* \"#utility.yul\":2260:2266   */\n      dup2\n        /* \"#utility.yul\":2247:2267   */\n      calldataload\n        /* \"#utility.yul\":2238:2267   */\n      swap1\n      pop\n        /* \"#utility.yul\":2276:2309   */\n      tag_83\n        /* \"#utility.yul\":2303:2308   */\n      dup2\n        /* \"#utility.yul\":2276:2309   */\n      tag_50\n      jump\t// in\n    tag_83:\n        /* \"#utility.yul\":2176:2315   */\n      swap3\n      swap2\n      pop\n      pop\n      jump\t// out\n        /* \"#utility.yul\":2338:3048   */\n    tag_52:\n        /* \"#utility.yul\":2434:2439   */\n      0x00\n        /* \"#utility.yul\":2459:2540   */\n      tag_85\n        /* \"#utility.yul\":2475:2539   */\n      tag_86\n        /* \"#utility.yul\":2532:2538   */\n      dup5\n        /* \"#utility.yul\":2475:2539   */\n      tag_48\n      jump\t// in\n    tag_86:\n        /* \"#utility.yul\":2459:2540   */\n      tag_47\n      jump\t// in\n    tag_85:\n        /* \"#utility.yul\":2450:2540   */\n      swap1\n      pop\n        /* \"#utility.yul\":2560:2565   */\n      dup1\n        /* \"#utility.yul\":2589:2595   */\n      dup4\n        /* \"#utility.yul\":2582:2587   */\n      dup3\n        /* \"#utility.yul\":2575:2596   */\n      mstore\n        /* \"#utility.yul\":2623:2627   */\n      0x20\n        /* \"#utility.yul\":2616:2621   */\n      dup3\n        /* \"#utility.yul\":2612:2628   */\n      add\n        /* \"#utility.yul\":2605:2628   */\n      swap1\n      pop\n        /* \"#utility.yul\":2676:2680   */\n      0x20\n        /* \"#utility.yul\":2668:2674   */\n      dup5\n        /* \"#utility.yul\":2664:2681   */\n      mul\n        /* \"#utility.yul\":2656:2662   */\n      dup4\n        /* \"#utility.yul\":2652:2682   */\n      add\n        /* \"#utility.yul\":2705:2708   */\n      dup6\n        /* \"#utility.yul\":2697:2703   */\n      dup2\n        /* \"#utility.yul\":2694:2709   */\n      gt\n        /* \"#utility.yul\":2691:2813   */\n      iszero\n      tag_87\n      jumpi\n        /* \"#utility.yul\":2724:2803   */\n      tag_88\n      tag_49\n      jump\t// in\n    tag_88:\n        /* \"#utility.yul\":2691:2813   */\n    tag_87:\n        /* \"#utility.yul\":2839:2845   */\n      dup4\n        /* \"#utility.yul\":2822:3042   */\n    tag_89:\n        /* \"#utility.yul\":2856:2862   */\n      dup2\n        /* \"#utility.yul\":2851:2854   */\n      dup2\n        /* \"#utility.yul\":2848:2863   */\n      lt\n        /* \"#utility.yul\":2822:3042   */\n      iszero\n      tag_91\n      jumpi\n        /* \"#utility.yul\":2931:2934   */\n      dup1\n        /* \"#utility.yul\":2960:2997   */\n      tag_92\n        /* \"#utility.yul\":2993:2996   */\n      dup9\n        /* \"#utility.yul\":2981:2991   */\n      dup3\n        /* \"#utility.yul\":2960:2997   */\n      tag_51\n      jump\t// in\n    tag_92:\n        /* \"#utility.yul\":2955:2958   */\n      dup5\n        /* \"#utility.yul\":2948:2998   */\n      mstore\n        /* \"#utility.yul\":3027:3031   */\n      0x20\n        /* \"#utility.yul\":3022:3025   */\n      dup5\n        /* \"#utility.yul\":3018:3032   */\n      add\n        /* \"#utility.yul\":3011:3032   */\n      swap4\n      pop\n        /* \"#utility.yul\":2898:3042   */\n      pop\n        /* \"#utility.yul\":2882:2886   */\n      0x20\n        /* \"#utility.yul\":2877:2880   */\n      dup2\n        /* \"#utility.yul\":2873:2887   */\n      add\n        /* \"#utility.yul\":2866:2887   */\n      swap1\n      pop\n        /* \"#utility.yul\":2822:3042   */\n      jump(tag_89)\n    tag_91:\n        /* \"#utility.yul\":2826:2847   */\n      pop\n        /* \"#utility.yul\":2440:3048   */\n      pop\n      pop\n        /* \"#utility.yul\":2338:3048   */\n      swap4\n      swap3\n      pop\n      pop\n      pop\n      jump\t// out\n        /* \"#utility.yul\":3071:3441   */\n    tag_53:\n        /* \"#utility.yul\":3142:3147   */\n      0x00\n        /* \"#utility.yul\":3191:3194   */\n      dup3\n        /* \"#utility.yul\":3184:3188   */\n      0x1f\n        /* \"#utility.yul\":3176:3182   */\n      dup4\n        /* \"#utility.yul\":3172:3189   */\n      add\n        /* \"#utility.yul\":3168:3195   */\n      slt\n        /* \"#utility.yul\":3158:3280   */\n      tag_94\n      jumpi\n        /* \"#utility.yul\":3199:3278   */\n      tag_95\n      tag_43\n      jump\t// in\n    tag_95:\n        /* \"#utility.yul\":3158:3280   */\n    tag_94:\n        /* \"#utility.yul\":3316:3322   */\n      dup2\n        /* \"#utility.yul\":3303:3323   */\n      calldataload\n        /* \"#utility.yul\":3341:3435   */\n      tag_96\n        /* \"#utility.yul\":3431:3434   */\n      dup5\n        /* \"#utility.yul\":3423:3429   */\n      dup3\n        /* \"#utility.yul\":3416:3420   */\n      0x20\n        /* \"#utility.yul\":3408:3414   */\n      dup7\n        /* \"#utility.yul\":3404:3421   */\n      add\n        /* \"#utility.yul\":3341:3435   */\n      tag_52\n      jump\t// in\n    tag_96:\n        /* \"#utility.yul\":3332:3435   */\n      swap2\n      pop\n        /* \"#utility.yul\":3148:3441   */\n      pop\n        /* \"#utility.yul\":3071:3441   */\n      swap3\n      swap2\n      pop\n      pop\n      jump\t// out\n        /* \"#utility.yul\":3447:4131   */\n    tag_11:\n        /* \"#utility.yul\":3540:3546   */\n      0x00\n        /* \"#utility.yul\":3548:3554   */\n      dup1\n        /* \"#utility.yul\":3597:3599   */\n      0x40\n        /* \"#utility.yul\":3585:3594   */\n      dup4\n        /* \"#utility.yul\":3576:3583   */\n      dup6\n        /* \"#utility.yul\":3572:3595   */\n      sub\n        /* \"#utility.yul\":3568:3600   */\n      slt\n        /* \"#utility.yul\":3565:3684   */\n      iszero\n      tag_98\n      jumpi\n        /* \"#utility.yul\":3603:3682   */\n      tag_99\n      tag_41\n      jump\t// in\n    tag_99:\n        /* \"#utility.yul\":3565:3684   */\n    tag_98:\n        /* \"#utility.yul\":3751:3752   */\n      0x00\n        /* \"#utility.yul\":3740:3749   */\n      dup4\n        /* \"#utility.yul\":3736:3753   */\n      add\n        /* \"#utility.yul\":3723:3754   */\n      calldataload\n        /* \"#utility.yul\":3781:3799   */\n      0xffffffffffffffff\n        /* \"#utility.yul\":3773:3779   */\n      dup2\n        /* \"#utility.yul\":3770:3800   */\n      gt\n        /* \"#utility.yul\":3767:3884   */\n      iszero\n      tag_100\n      jumpi\n        /* \"#utility.yul\":3803:3882   */\n      tag_101\n      tag_42\n      jump\t// in\n    tag_101:\n        /* \"#utility.yul\":3767:3884   */\n    tag_100:\n        /* \"#utility.yul\":3908:3986   */\n      tag_102\n        /* \"#utility.yul\":3978:3985   */\n      dup6\n        /* \"#utility.yul\":3969:3975   */\n      dup3\n        /* \"#utility.yul\":3958:3967   */\n      dup7\n        /* \"#utility.yul\":3954:3976   */\n      add\n        /* \"#utility.yul\":3908:3986   */\n      tag_53\n      jump\t// in\n    tag_102:\n        /* \"#utility.yul\":3898:3986   */\n      swap3\n      pop\n        /* \"#utility.yul\":3694:3996   */\n      pop\n        /* \"#utility.yul\":4035:4037   */\n      0x20\n        /* \"#utility.yul\":4061:4114   */\n      tag_103\n        /* \"#utility.yul\":4106:4113   */\n      dup6\n        /* \"#utility.yul\":4097:4103   */\n      dup3\n        /* \"#utility.yul\":4086:4095   */\n      dup7\n        /* \"#utility.yul\":4082:4104   */\n      add\n        /* \"#utility.yul\":4061:4114   */\n      tag_51\n      jump\t// in\n    tag_103:\n        /* \"#utility.yul\":4051:4114   */\n      swap2\n      pop\n        /* \"#utility.yul\":4006:4124   */\n      pop\n        /* \"#utility.yul\":3447:4131   */\n      swap3\n      pop\n      swap3\n      swap1\n      pop\n      jump\t// out\n        /* \"#utility.yul\":4137:4317   */\n    tag_54:\n        /* \"#utility.yul\":4185:4262   */\n      0x4e487b7100000000000000000000000000000000000000000000000000000000\n        /* \"#utility.yul\":4182:4183   */\n      0x00\n        /* \"#utility.yul\":4175:4263   */\n      mstore\n        /* \"#utility.yul\":4282:4286   */\n      0x11\n        /* \"#utility.yul\":4279:4280   */\n      0x04\n        /* \"#utility.yul\":4272:4287   */\n      mstore\n        /* \"#utility.yul\":4306:4310   */\n      0x24\n        /* \"#utility.yul\":4303:4304   */\n      0x00\n        /* \"#utility.yul\":4296:4311   */\n      revert\n        /* \"#utility.yul\":4323:4517   */\n    tag_15:\n        /* \"#utility.yul\":4363:4367   */\n      0x00\n        /* \"#utility.yul\":4383:4403   */\n      tag_106\n        /* \"#utility.yul\":4401:4402   */\n      dup3\n        /* \"#utility.yul\":4383:4403   */\n      tag_38\n      jump\t// in\n    tag_106:\n        /* \"#utility.yul\":4378:4403   */\n      swap2\n      pop\n        /* \"#utility.yul\":4417:4437   */\n      tag_107\n        /* \"#utility.yul\":4435:4436   */\n      dup4\n        /* \"#utility.yul\":4417:4437   */\n      tag_38\n      jump\t// in\n    tag_107:\n        /* \"#utility.yul\":4412:4437   */\n      swap3\n      pop\n        /* \"#utility.yul\":4461:4462   */\n      dup3\n        /* \"#utility.yul\":4458:4459   */\n      dup3\n        /* \"#utility.yul\":4454:4463   */\n      sub\n        /* \"#utility.yul\":4446:4463   */\n      swap1\n      pop\n        /* \"#utility.yul\":4485:4486   */\n      dup2\n        /* \"#utility.yul\":4479:4483   */\n      dup2\n        /* \"#utility.yul\":4476:4487   */\n      gt\n        /* \"#utility.yul\":4473:4510   */\n      iszero\n      tag_108\n      jumpi\n        /* \"#utility.yul\":4490:4508   */\n      tag_109\n      tag_54\n      jump\t// in\n    tag_109:\n        /* \"#utility.yul\":4473:4510   */\n    tag_108:\n        /* \"#utility.yul\":4323:4517   */\n      swap3\n      swap2\n      pop\n      pop\n      jump\t// out\n        /* \"#utility.yul\":4523:4714   */\n    tag_22:\n        /* \"#utility.yul\":4563:4566   */\n      0x00\n        /* \"#utility.yul\":4582:4602   */\n      tag_111\n        /* \"#utility.yul\":4600:4601   */\n      dup3\n        /* \"#utility.yul\":4582:4602   */\n      tag_38\n      jump\t// in\n    tag_111:\n        /* \"#utility.yul\":4577:4602   */\n      swap2\n      pop\n        /* \"#utility.yul\":4616:4636   */\n      tag_112\n        /* \"#utility.yul\":4634:4635   */\n      dup4\n        /* \"#utility.yul\":4616:4636   */\n      tag_38\n      jump\t// in\n    tag_112:\n        /* \"#utility.yul\":4611:4636   */\n      swap3\n      pop\n        /* \"#utility.yul\":4659:4660   */\n      dup3\n        /* \"#utility.yul\":4656:4657   */\n      dup3\n        /* \"#utility.yul\":4652:4661   */\n      add\n        /* \"#utility.yul\":4645:4661   */\n      swap1\n      pop\n        /* \"#utility.yul\":4680:4683   */\n      dup1\n        /* \"#utility.yul\":4677:4678   */\n      dup3\n        /* \"#utility.yul\":4674:4684   */\n      gt\n        /* \"#utility.yul\":4671:4707   */\n      iszero\n      tag_113\n      jumpi\n        /* \"#utility.yul\":4687:4705   */\n      tag_114\n      tag_54\n      jump\t// in\n    tag_114:\n        /* \"#utility.yul\":4671:4707   */\n    tag_113:\n        /* \"#utility.yul\":4523:4714   */\n      swap3\n      swap2\n      pop\n      pop\n      jump\t// out\n        /* \"#utility.yul\":4720:4900   */\n    tag_55:\n        /* \"#utility.yul\":4768:4845   */\n      0x4e487b7100000000000000000000000000000000000000000000000000000000\n        /* \"#utility.yul\":4765:4766   */\n      0x00\n        /* \"#utility.yul\":4758:4846   */\n      mstore\n        /* \"#utility.yul\":4865:4869   */\n      0x12\n        /* \"#utility.yul\":4862:4863   */\n      0x04\n        /* \"#utility.yul\":4855:4870   */\n      mstore\n        /* \"#utility.yul\":4889:4893   */\n      0x24\n        /* \"#utility.yul\":4886:4887   */\n      0x00\n        /* \"#utility.yul\":4879:4894   */\n      revert\n        /* \"#utility.yul\":4906:5091   */\n    tag_24:\n        /* \"#utility.yul\":4946:4947   */\n      0x00\n        /* \"#utility.yul\":4963:4983   */\n      tag_117\n        /* \"#utility.yul\":4981:4982   */\n      dup3\n        /* \"#utility.yul\":4963:4983   */\n      tag_38\n      jump\t// in\n    tag_117:\n        /* \"#utility.yul\":4958:4983   */\n      swap2\n      pop\n        /* \"#utility.yul\":4997:5017   */\n      tag_118\n        /* \"#utility.yul\":5015:5016   */\n      dup4\n        /* \"#utility.yul\":4997:5017   */\n      tag_38\n      jump\t// in\n    tag_118:\n        /* \"#utility.yul\":4992:5017   */\n      swap3\n      pop\n        /* \"#utility.yul\":5036:5037   */\n      dup3\n        /* \"#utility.yul\":5026:5061   */\n      tag_119\n      jumpi\n        /* \"#utility.yul\":5041:5059   */\n      tag_120\n      tag_55\n      jump\t// in\n    tag_120:\n        /* \"#utility.yul\":5026:5061   */\n    tag_119:\n        /* \"#utility.yul\":5083:5084   */\n      dup3\n        /* \"#utility.yul\":5080:5081   */\n      dup3\n        /* \"#utility.yul\":5076:5085   */\n      div\n        /* \"#utility.yul\":5071:5085   */\n      swap1\n      pop\n        /* \"#utility.yul\":4906:5091   */\n      swap3\n      swap2\n      pop\n      pop\n      jump\t// out\n        /* \"#utility.yul\":5097:5277   */\n    tag_27:\n        /* \"#utility.yul\":5145:5222   */\n      0x4e487b7100000000000000000000000000000000000000000000000000000000\n        /* \"#utility.yul\":5142:5143   */\n      0x00\n        /* \"#utility.yul\":5135:5223   */\n      mstore\n        /* \"#utility.yul\":5242:5246   */\n      0x32\n        /* \"#utility.yul\":5239:5240   */\n      0x04\n        /* \"#utility.yul\":5232:5247   */\n      mstore\n        /* \"#utility.yul\":5266:5270   */\n      0x24\n        /* \"#utility.yul\":5263:5264   */\n      0x00\n        /* \"#utility.yul\":5256:5271   */\n      revert\n\n    auxdata: 0xa26469706673582212204c95bfafb26a336aedaffc63b4d3616385e08061f3e3f9d800be66f4df0ca7f164736f6c634300081a0033\n}\n",
				"bytecode": {
					"linkReferences": {},
					"object": "6080604052348015600e575f80fd5b506104d28061001c5f395ff3fe608060405234801561000f575f80fd5b5060043610610034575f3560e01c80630cf22dce1461003857806367f3b00714610056575b5f80fd5b610040610072565b60405161004d9190610181565b60405180910390f35b610070600480360381019061006b9190610325565b610077565b005b5f5481565b5f6001819055506001825161008c91906103ac565b60028190555061009c82826100a0565b5050565b5b60025460015411610164575f600280546001546100be91906103df565b6100c8919061043f565b9050818382815181106100de576100dd61046f565b5b6020026020010151036100f757805f8190555050610165565b81836001548151811061010d5761010c61046f565b5b6020026020010151101561013e576001805461012991906103df565b60018190555061013983836100a0565b61015e565b600160025461014d91906103ac565b60028190555061015d83836100a0565b5b506100a1565b5b5050565b5f819050919050565b61017b81610169565b82525050565b5f6020820190506101945f830184610172565b92915050565b5f604051905090565b5f80fd5b5f80fd5b5f80fd5b5f601f19601f8301169050919050565b7f4e487b71000000000000000000000000000000000000000000000000000000005f52604160045260245ffd5b6101f5826101af565b810181811067ffffffffffffffff82111715610214576102136101bf565b5b80604052505050565b5f61022661019a565b905061023282826101ec565b919050565b5f67ffffffffffffffff821115610251576102506101bf565b5b602082029050602081019050919050565b5f80fd5b61026f81610169565b8114610279575f80fd5b50565b5f8135905061028a81610266565b92915050565b5f6102a261029d84610237565b61021d565b905080838252602082019050602084028301858111156102c5576102c4610262565b5b835b818110156102ee57806102da888261027c565b8452602084019350506020810190506102c7565b5050509392505050565b5f82601f83011261030c5761030b6101ab565b5b813561031c848260208601610290565b91505092915050565b5f806040838503121561033b5761033a6101a3565b5b5f83013567ffffffffffffffff811115610358576103576101a7565b5b610364858286016102f8565b92505060206103758582860161027c565b9150509250929050565b7f4e487b71000000000000000000000000000000000000000000000000000000005f52601160045260245ffd5b5f6103b682610169565b91506103c183610169565b92508282039050818111156103d9576103d861037f565b5b92915050565b5f6103e982610169565b91506103f483610169565b925082820190508082111561040c5761040b61037f565b5b92915050565b7f4e487b71000000000000000000000000000000000000000000000000000000005f52601260045260245ffd5b5f61044982610169565b915061045483610169565b92508261046457610463610412565b5b828204905092915050565b7f4e487b71000000000000000000000000000000000000000000000000000000005f52603260045260245ffdfea26469706673582212204c95bfafb26a336aedaffc63b4d3616385e08061f3e3f9d800be66f4df0ca7f164736f6c634300081a0033",
					"opcodes": "PUSH1 0x80 PUSH1 0x40 MSTORE CALLVALUE DUP1 ISZERO PUSH1 0xE JUMPI PUSH0 DUP1 REVERT JUMPDEST POP PUSH2 0x4D2 DUP1 PUSH2 0x1C PUSH0 CODECOPY PUSH0 RETURN INVALID PUSH1 0x80 PUSH1 0x40 MSTORE CALLVALUE DUP1 ISZERO PUSH2 0xF JUMPI PUSH0 DUP1 REVERT JUMPDEST POP PUSH1 0x4 CALLDATASIZE LT PUSH2 0x34 JUMPI PUSH0 CALLDATALOAD PUSH1 0xE0 SHR DUP1 PUSH4 0xCF22DCE EQ PUSH2 0x38 JUMPI DUP1 PUSH4 0x67F3B007 EQ PUSH2 0x56 JUMPI JUMPDEST PUSH0 DUP1 REVERT JUMPDEST PUSH2 0x40 PUSH2 0x72 JUMP JUMPDEST PUSH1 0x40 MLOAD PUSH2 0x4D SWAP2 SWAP1 PUSH2 0x181 JUMP JUMPDEST PUSH1 0x40 MLOAD DUP1 SWAP2 SUB SWAP1 RETURN JUMPDEST PUSH2 0x70 PUSH1 0x4 DUP1 CALLDATASIZE SUB DUP2 ADD SWAP1 PUSH2 0x6B SWAP2 SWAP1 PUSH2 0x325 JUMP JUMPDEST PUSH2 0x77 JUMP JUMPDEST STOP JUMPDEST PUSH0 SLOAD DUP2 JUMP JUMPDEST PUSH0 PUSH1 0x1 DUP2 SWAP1 SSTORE POP PUSH1 0x1 DUP3 MLOAD PUSH2 0x8C SWAP2 SWAP1 PUSH2 0x3AC JUMP JUMPDEST PUSH1 0x2 DUP2 SWAP1 SSTORE POP PUSH2 0x9C DUP3 DUP3 PUSH2 0xA0 JUMP JUMPDEST POP POP JUMP JUMPDEST JUMPDEST PUSH1 0x2 SLOAD PUSH1 0x1 SLOAD GT PUSH2 0x164 JUMPI PUSH0 PUSH1 0x2 DUP1 SLOAD PUSH1 0x1 SLOAD PUSH2 0xBE SWAP2 SWAP1 PUSH2 0x3DF JUMP JUMPDEST PUSH2 0xC8 SWAP2 SWAP1 PUSH2 0x43F JUMP JUMPDEST SWAP1 POP DUP2 DUP4 DUP3 DUP2 MLOAD DUP2 LT PUSH2 0xDE JUMPI PUSH2 0xDD PUSH2 0x46F JUMP JUMPDEST JUMPDEST PUSH1 0x20 MUL PUSH1 0x20 ADD ADD MLOAD SUB PUSH2 0xF7 JUMPI DUP1 PUSH0 DUP2 SWAP1 SSTORE POP POP PUSH2 0x165 JUMP JUMPDEST DUP2 DUP4 PUSH1 0x1 SLOAD DUP2 MLOAD DUP2 LT PUSH2 0x10D JUMPI PUSH2 0x10C PUSH2 0x46F JUMP JUMPDEST JUMPDEST PUSH1 0x20 MUL PUSH1 0x20 ADD ADD MLOAD LT ISZERO PUSH2 0x13E JUMPI PUSH1 0x1 DUP1 SLOAD PUSH2 0x129 SWAP2 SWAP1 PUSH2 0x3DF JUMP JUMPDEST PUSH1 0x1 DUP2 SWAP1 SSTORE POP PUSH2 0x139 DUP4 DUP4 PUSH2 0xA0 JUMP JUMPDEST PUSH2 0x15E JUMP JUMPDEST PUSH1 0x1 PUSH1 0x2 SLOAD PUSH2 0x14D SWAP2 SWAP1 PUSH2 0x3AC JUMP JUMPDEST PUSH1 0x2 DUP2 SWAP1 SSTORE POP PUSH2 0x15D DUP4 DUP4 PUSH2 0xA0 JUMP JUMPDEST JUMPDEST POP PUSH2 0xA1 JUMP JUMPDEST JUMPDEST POP POP JUMP JUMPDEST PUSH0 DUP2 SWAP1 POP SWAP2 SWAP1 POP JUMP JUMPDEST PUSH2 0x17B DUP2 PUSH2 0x169 JUMP JUMPDEST DUP3 MSTORE POP POP JUMP JUMPDEST PUSH0 PUSH1 0x20 DUP3 ADD SWAP1 POP PUSH2 0x194 PUSH0 DUP4 ADD DUP5 PUSH2 0x172 JUMP JUMPDEST SWAP3 SWAP2 POP POP JUMP JUMPDEST PUSH0 PUSH1 0x40 MLOAD SWAP1 POP SWAP1 JUMP JUMPDEST PUSH0 DUP1 REVERT JUMPDEST PUSH0 DUP1 REVERT JUMPDEST PUSH0 DUP1 REVERT JUMPDEST PUSH0 PUSH1 0x1F NOT PUSH1 0x1F DUP4 ADD AND SWAP1 POP SWAP2 SWAP1 POP JUMP JUMPDEST PUSH32 0x4E487B7100000000000000000000000000000000000000000000000000000000 PUSH0 MSTORE PUSH1 0x41 PUSH1 0x4 MSTORE PUSH1 0x24 PUSH0 REVERT JUMPDEST PUSH2 0x1F5 DUP3 PUSH2 0x1AF JUMP JUMPDEST DUP2 ADD DUP2 DUP2 LT PUSH8 0xFFFFFFFFFFFFFFFF DUP3 GT OR ISZERO PUSH2 0x214 JUMPI PUSH2 0x213 PUSH2 0x1BF JUMP JUMPDEST JUMPDEST DUP1 PUSH1 0x40 MSTORE POP POP POP JUMP JUMPDEST PUSH0 PUSH2 0x226 PUSH2 0x19A JUMP JUMPDEST SWAP1 POP PUSH2 0x232 DUP3 DUP3 PUSH2 0x1EC JUMP JUMPDEST SWAP2 SWAP1 POP JUMP JUMPDEST PUSH0 PUSH8 0xFFFFFFFFFFFFFFFF DUP3 GT ISZERO PUSH2 0x251 JUMPI PUSH2 0x250 PUSH2 0x1BF JUMP JUMPDEST JUMPDEST PUSH1 0x20 DUP3 MUL SWAP1 POP PUSH1 0x20 DUP2 ADD SWAP1 POP SWAP2 SWAP1 POP JUMP JUMPDEST PUSH0 DUP1 REVERT JUMPDEST PUSH2 0x26F DUP2 PUSH2 0x169 JUMP JUMPDEST DUP2 EQ PUSH2 0x279 JUMPI PUSH0 DUP1 REVERT JUMPDEST POP JUMP JUMPDEST PUSH0 DUP2 CALLDATALOAD SWAP1 POP PUSH2 0x28A DUP2 PUSH2 0x266 JUMP JUMPDEST SWAP3 SWAP2 POP POP JUMP JUMPDEST PUSH0 PUSH2 0x2A2 PUSH2 0x29D DUP5 PUSH2 0x237 JUMP JUMPDEST PUSH2 0x21D JUMP JUMPDEST SWAP1 POP DUP1 DUP4 DUP3 MSTORE PUSH1 0x20 DUP3 ADD SWAP1 POP PUSH1 0x20 DUP5 MUL DUP4 ADD DUP6 DUP2 GT ISZERO PUSH2 0x2C5 JUMPI PUSH2 0x2C4 PUSH2 0x262 JUMP JUMPDEST JUMPDEST DUP4 JUMPDEST DUP2 DUP2 LT ISZERO PUSH2 0x2EE JUMPI DUP1 PUSH2 0x2DA DUP9 DUP3 PUSH2 0x27C JUMP JUMPDEST DUP5 MSTORE PUSH1 0x20 DUP5 ADD SWAP4 POP POP PUSH1 0x20 DUP2 ADD SWAP1 POP PUSH2 0x2C7 JUMP JUMPDEST POP POP POP SWAP4 SWAP3 POP POP POP JUMP JUMPDEST PUSH0 DUP3 PUSH1 0x1F DUP4 ADD SLT PUSH2 0x30C JUMPI PUSH2 0x30B PUSH2 0x1AB JUMP JUMPDEST JUMPDEST DUP2 CALLDATALOAD PUSH2 0x31C DUP5 DUP3 PUSH1 0x20 DUP7 ADD PUSH2 0x290 JUMP JUMPDEST SWAP2 POP POP SWAP3 SWAP2 POP POP JUMP JUMPDEST PUSH0 DUP1 PUSH1 0x40 DUP4 DUP6 SUB SLT ISZERO PUSH2 0x33B JUMPI PUSH2 0x33A PUSH2 0x1A3 JUMP JUMPDEST JUMPDEST PUSH0 DUP4 ADD CALLDATALOAD PUSH8 0xFFFFFFFFFFFFFFFF DUP2 GT ISZERO PUSH2 0x358 JUMPI PUSH2 0x357 PUSH2 0x1A7 JUMP JUMPDEST JUMPDEST PUSH2 0x364 DUP6 DUP3 DUP7 ADD PUSH2 0x2F8 JUMP JUMPDEST SWAP3 POP POP PUSH1 0x20 PUSH2 0x375 DUP6 DUP3 DUP7 ADD PUSH2 0x27C JUMP JUMPDEST SWAP2 POP POP SWAP3 POP SWAP3 SWAP1 POP JUMP JUMPDEST PUSH32 0x4E487B7100000000000000000000000000000000000000000000000000000000 PUSH0 MSTORE PUSH1 0x11 PUSH1 0x4 MSTORE PUSH1 0x24 PUSH0 REVERT JUMPDEST PUSH0 PUSH2 0x3B6 DUP3 PUSH2 0x169 JUMP JUMPDEST SWAP2 POP PUSH2 0x3C1 DUP4 PUSH2 0x169 JUMP JUMPDEST SWAP3 POP DUP3 DUP3 SUB SWAP1 POP DUP2 DUP2 GT ISZERO PUSH2 0x3D9 JUMPI PUSH2 0x3D8 PUSH2 0x37F JUMP JUMPDEST JUMPDEST SWAP3 SWAP2 POP POP JUMP JUMPDEST PUSH0 PUSH2 0x3E9 DUP3 PUSH2 0x169 JUMP JUMPDEST SWAP2 POP PUSH2 0x3F4 DUP4 PUSH2 0x169 JUMP JUMPDEST SWAP3 POP DUP3 DUP3 ADD SWAP1 POP DUP1 DUP3 GT ISZERO PUSH2 0x40C JUMPI PUSH2 0x40B PUSH2 0x37F JUMP JUMPDEST JUMPDEST SWAP3 SWAP2 POP POP JUMP JUMPDEST PUSH32 0x4E487B7100000000000000000000000000000000000000000000000000000000 PUSH0 MSTORE PUSH1 0x12 PUSH1 0x4 MSTORE PUSH1 0x24 PUSH0 REVERT JUMPDEST PUSH0 PUSH2 0x449 DUP3 PUSH2 0x169 JUMP JUMPDEST SWAP2 POP PUSH2 0x454 DUP4 PUSH2 0x169 JUMP JUMPDEST SWAP3 POP DUP3 PUSH2 0x464 JUMPI PUSH2 0x463 PUSH2 0x412 JUMP JUMPDEST JUMPDEST DUP3 DUP3 DIV SWAP1 POP SWAP3 SWAP2 POP POP JUMP JUMPDEST PUSH32 0x4E487B7100000000000000000000000000000000000000000000000000000000 PUSH0 MSTORE PUSH1 0x32 PUSH1 0x4 MSTORE PUSH1 0x24 PUSH0 REVERT INVALID LOG2 PUSH5 0x6970667358 0x22 SLT KECCAK256 0x4C SWAP6 0xBF 0xAF 0xB2 PUSH11 0x336AEDAFFC63B4D3616385 0xE0 DUP1 PUSH2 0xF3E3 0xF9 0xD8 STOP 0xBE PUSH7 0xF4DF0CA7F16473 PUSH16 0x6C634300081A00330000000000000000 "
				},
				"gasEstimates": {
					"creation": {
						"codeDepositCost": "246800",
						"executionCost": "285",
						"totalCost": "247085"
					},
					"external": {
						"findIndex()": "2402",
						"searchNumber(uint256[],uint256)": "infinite"
					},
					"internal": {
						"binarySearchNumber(uint256[] memory,uint256)": "infinite"
					}
				},
				"methodIdentifiers": {
					"findIndex()": "0cf22dce",
					"searchNumber(uint256[],uint256)": "67f3b007"
				}
			},
			"storageLayout": {
				"storage": [
					{
						"astId": 3,
						"contract": "Tast1/Binary/BinarySearch.sol:binarySearch",
						"label": "findIndex",
						"offset": 0,
						"slot": "0",
						"type": "t_uint256"
					},
					{
						"astId": 5,
						"contract": "Tast1/Binary/BinarySearch.sol:binarySearch",
						"label": "start",
						"offset": 0,
						"slot": "1",
						"type": "t_uint256"
					},
					{
						"astId": 7,
						"contract": "Tast1/Binary/BinarySearch.sol:binarySearch",
						"label": "end",
						"offset": 0,
						"slot": "2",
						"type": "t_uint256"
					}
				],
				"types": {
					"t_uint256": {
						"encoding": "inplace",
						"label": "uint256",
						"numberOfBytes": "32"
					}
				}
			},
			"userdoc": {
				"kind": "user",
				"methods": {},
				"version": 1
			}
		}
	}
}